:020000040800F2
:100000001063002059020008C53F000805360008AB
:10001000C13F0008910600081147000800000000D9
:100020000000000000000000000000004140000847
:10003000C907000800000000D13F00086540000823
:1000400073020008730200087302000873020008BC
:1000500073020008730200087302000873020008AC
:10006000730200087302000873020008730200089C
:1000700073020008730200088D0700089907000842
:1000800073020008A5070008730200087302000845
:10009000950600087302000873020008CD070008E7
:1000A000730200087302000873020008730200085C
:1000B000730200087302000873020008730200084C
:1000C000730200087302000873020008730200083C
:1000D0007302000873020008ED460008F9460008A4
:1000E000730200087302000873020008730200081C
:1000F000730200084D41000873020008B1070008B0
:1001000073020008730200084141000873020008EE
:10011000A5420008B14200087302000873020008FB
:1001200073020008730200087302000873020008DB
:1001300073020008730200087302000873020008CB
:10014000A106000873020008730200087302000889
:1001500073020008BD070008730200080547000885
:10016000730200087302000873020008730200089B
:100170007302000873020008730200080000000008
:10018000730200087302000800F002F800F054F84F
:1001900014A696E8000CB244B344DA4501D100F04D
:1001A0004BF8BAE80F000FA696E83000A5EB04055F
:1001B00004EB0607AAEB0704A7F101074FEA1515A0
:1001C0004FEA3414A4F10104AC4201D300F034F836
:1001D00013F0010F18BFFB1A43F0010300F001F800
:1001E000DBE718474486000064860000103A24BF0D
:1001F00078C878C1FAD8520724BF30C830C144BF8C
:1002000004680C6070470000704700000023002461
:1002100000250026103A28BF78C1FBD8520728BF16
:1002200030C148BF0B6070471FB508F0DDF800F023
:1002300055F91FBD10B510BD00F0B6F91146FFF716
:10024000F3FF05F055FF00F0D4F903B4FFF7F2FF18
:1002500003BC00F09FF900000948804709480047A7
:10026000FEE7FEE7FEE7FEE7FEE7FEE7FEE7FEE766
:10027000FEE7FEE704480549054A064B70470000C3
:100280002D41000889010008105D00201063002046
:10029000105F0020105F002053EA020C00F069801C
:1002A0002DE9F04B4FF00006002B1FBFB3FA83F58A
:1002B00003FA05F424FA05F65E4012BF1643B2FABB
:1002C00082F502FA05F4C5F120051EBF22FA05FCED
:1002D00044EA0C04203556EA044C4FEA144418BF93
:1002E000641C4FF000084FF00009904271EB030CC2
:1002F00039D3002919BFB1FA81F701FA07F6B0FA2C
:1003000080F700FA07F6C7F120071EBF20FA07FCA6
:1003100046EA0C062037B6FBF4FCA7EB0507103FB6
:1003200007F01F0BCBF120062CFA06F60CFA0BFB9C
:1003300044BFB3460026202FA4BF5E464FF0000BFB
:100340005BEA060C08BF4FF0010B19EB0B0948EBF9
:100350000608ABFB027C06FB02CC0BFB03CCC01BEC
:1003600071EB0C01C1E70B46024641464846BDE829
:10037000F08B13B5084318BF4FF0FF300146AFF3C1
:100380000080BDE81C407047032A40F2308010F026
:10039000030C00F0158011F8013BBCF1020F624420
:1003A00098BF11F801CB00F8013B38BF11F8013BB1
:1003B000A2F1040298BF00F801CB38BF00F8013B5E
:1003C00011F0030300F02580083AC0F0088051F8CE
:1003D000043B083A51F804CBA0E80810F5E7121DD9
:1003E0005CBF51F8043B40F8043BAFF30080D207F8
:1003F00024BF11F8013B11F801CB48BF11F8012BC4
:1004000024BF00F8013B00F801CB48BF00F8012BE6
:10041000704710B5203AC0F00B80B1E81850A0E842
:100420001850B1E81850A0E81850203ABFF4F5AFC2
:100430005FEA027C24BFB1E81850A0E8185044BF1E
:1004400018C918C0BDE810405FEA827C24BF51F88B
:10045000043B40F8043B08BF7047D20728BF31F87F
:10046000023B48BF11F8012B28BF20F8023B48BFD0
:1004700000F8012B704702F0FF0343EA032242EA2F
:10048000024200F002B84FF0000200B51346944655
:100490009646203922BFA0E80C50A0E80C50B1F1DC
:1004A0002001BFF4F7AF090728BFA0E80C5048BFF0
:1004B0000CC05DF804EB890028BF40F8042B08BF8E
:1004C000704748BF20F8022B11F0804F18BF00F88A
:1004D000012B7047704770477047000008487CB593
:1004E0007844009007487844009C0546019004E059
:1004F0002046016808448047241DAC42F8D17CBDE9
:10050000648300006683000070B50446051F00F098
:100510002DF80068002C14BF446870BD002C18BF73
:10052000AC423CBF20466468F8D301680A18AA426E
:1005300018BF456003D12A68054611440160286848
:100540004119A1421CBF6C6070BD6168696021687F
:100550000844286070BD10B500F00CF8006810BDAC
:1005600010B5044600F006F8046010BD004870475E
:1005700060000020004870475800002010B500209F
:1005800000F040F8FFF756FEBDE81040012000F0F3
:1005900001B8000001491820ABBEFEE726000200AA
:1005A00000487047580000207546FFF7F9FFAE4637
:1005B00005006946534620F00700854618B020B56F
:1005C000FFF758FEBDE820404FF000064FF000074F
:1005D0004FF000084FF0000BAC46ACE8C009ACE8A7
:1005E000C009ACE8C009ACE8C00921F007018D469C
:1005F000704710B50446AFF300802046BDE81040B8
:10060000FFF723BE10B500F00BF8BDE8104000F076
:1006100001B87047002801D0FFF7BCBF7047000049
:1006200010B5002102A000F013F8012010BD000059
:10063000534947414252543A2041626E6F726D6194
:100640006C207465726D696E6174696F6E00000074
:1006500070B505460C460A2000E06D1C00F011F84C
:1006600035B128780028F8D102E0641C00F009F8C0
:1006700014B120780028F8D1BDE870400A20AFF30B
:10068000008008B569468DF800000320ABBE08BDA8
:10069000FEE7000040F2D000C2F2000000F012BA03
:1006A00040F2F800C2F2000000F00CBA91B1F0B5CF
:1006B00048F2105201F0030C0429C0F600020DD2DA
:1006C0004FF0000E0021BCF1000F3AD1BDE8F04020
:1006D00088B27047002188B2704700BF01F0FC016A
:1006E000C1F1000E431C00216FF003041D19EE78C8
:1006F0008FB286EA172632F816602F7986EA012132
:1007000089B287EA112132F811106F7981EA062641
:10071000B6B287EA162632F81660AD7986EA01216C
:1007200089B285EA112132F8111004340EEB040568
:10073000043581EA0621D9D104F1040EBCF1000F81
:10074000C4D010F80E408BB284EA132332F8134061
:10075000BCF1010F84EA0121B8D07044437889B21A
:1007600083EA112132F81130BCF1020F83EA04212F
:10077000ACD0807889B280EA112032F8100080EA8B
:100780000321BDE8F04088B27047000040F65420D5
:10079000C2F2000000F068BD40F63410C2F2000062
:1007A00000F062BD40F6F410C2F2000000F05CBD43
:1007B00040F69410C2F2000000F056BD40F6B4209E
:1007C000C2F2000000F050BD70470000402000F071
:1007D00031BF000072B600BFFEE7000090F8202095
:1007E000013A012A08D8006800F1140200201368B9
:1007F00019431160704700BF00F1240201204FF43B
:1008000080211368194311607047000010B590F8FB
:1008100020E0D0F800C0AEF1010EBEF1010FDCF80F
:1008200008E011D81EF0E05F18D0CEF3016E012071
:1008300000FA0EF018608B68D3B14868CC6844EABF
:10084000C000034318E000BF00F1240101204FF471
:1008500080220B681A430A6010BD00BF00F124011A
:1008600001204FF400120B681A430A6010BD00BF4C
:100870000868CB6843EA40530CEB0E10C0F8803197
:100880000B69C0F88431097D012905D100F5C271D9
:100890000B6843F480730B605168C0F88C111268C8
:1008A00000F5C071C0F88821002001220B681A43AE
:1008B0000A6010BD90F82020013A012A30D8B0B566
:1008C00046F20060C4F20000026842F001020260D9
:1008D000026822F47C520260D1F814E0CC694A6AC2
:1008E0000368012C43EA022202600EF01F024FF05F
:1008F000010303FA02F2C3696FEA020C23EA02035E
:10090000C36113D02CBBC36803EA0C03C360CB687C
:100910008C8844EA034300EBCE0423640B4611E0C9
:10092000416A41F48021416201207047C36813434A
:10093000C3600B688C8844EA034300EBCE04236455
:1009400001F10C038C681B8843EA044300EBCE04DE
:10095000636443688D6943EA0204D1F810E0096AD0
:10096000002D08BF03EA0C0444604369BEF1000F88
:1009700043EA020408BF03EA0C040129446102D1DE
:10098000C1691143C161016821F0010101600020CA
:10099000B0BD00007047000010B590F82040013C49
:1009A000012C7BD8D0F800C000290CBFDCF80C402B
:1009B000DCF81040A4077BD00CEB011CDCF8B04144
:1009C0000CF5D87E14F004049460DCF8B04119BF33
:1009D000E4085460640D1460DEF800400CF5DA7E23
:1009E00004F00204D460DCF8B44124075ABFDEF8F6
:1009F000004004F00F0408241461DEF800400029D0
:100A0000C4F307249461DEF800404FEA14445461B3
:100A1000DCF8B8211A70026802EB0112D2F8B82192
:100A20004FEA12225A70026802EB0112D2F8B82182
:100A30004FEA12429A70026802EB0112D2F8B82112
:100A40004FEA1262DA70026802EB0112D2F8BC219E
:100A50001A71026802EB0112D2F8BC214FEA12228D
:100A60005A71026802EB0112D2F8BC214FEA12421D
:100A70009A71026802EB0112D2F8BC214FEA1262AD
:100A8000DA7100680CBF00F10C0100F110010020C8
:100A900020220B681A430A6010BD00BF00F1240138
:100AA00001204FF480220B681A430A6010BD00BF7A
:100AB00000F1240101204FF400120B681A430A6070
:100AC00010BD00002DE9F04F81B004460068466972
:100AD000D0F804908768D0F80CB0D0F810A0D0F807
:100AE0001880F10704D1002530071DD424E000BF91
:100AF000F90710D00121BA07816009D4780700F105
:100B0000AF80380700F1B680204600F045FB02E0D8
:100B1000204600F043FB0025F80500F18780F8032C
:100B200000F1B180300707D51BF0100004D0206819
:100B300045F400751021C160700708D51BF008004E
:100B400005D020680821C160204600F001FAB007F6
:100B500006D52068C068800702D0204600F0FAF968
:100B6000700607D51AF0100004D0206845F480659F
:100B700010210161B00608D51AF0080005D02068E0
:100B800008210161204600F0D3FAF00606D520685E
:100B90000069800702D0204600F0CCFAB00308D5E7
:100BA00019F0100005D0206810214160204600F0A7
:100BB000C3FAF00308D519F0080005D02068082111
:100BC0004160204600F0F4FA300440F19B805FEA77
:100BD000497040F1948006F4807008EA10202843A0
:100BE0005FEA8871014648BF41F00201B20558BF73
:100BF00001465FEA48700D4648BF45F004057005A0
:100C000058BF0D46300540F17A8018F0700000F0B2
:100C100076801038000905286CD8DFE800F0035909
:100C20005D61656945F0080564E000BF20684FF428
:100C30008071BA0581600BD4780515D438051DD4B0
:100C4000204600F0ADFAF8037FF56CAF1BE000BF63
:100C5000204600F0A7FAF8037FF564AF13E000BF69
:100C60004FF4006558E700BF05F50055F8037FF520
:100C700059AF08E04FF480554EE700BF05F58045B9
:100C8000F8037FF54FAF20684FF48031BA038160DD
:100C90000AD4780310D4380314D4204600F084FA20
:100CA00030073FF541AF47E7204600F07FFA3007B5
:100CB0003FF53AAF40E700BF05F5004530073FF587
:100CC00033AF39E705F5803530073FF52DAF33E712
:100CD00045F010050EE000BF45F020050AE000BF1A
:100CE00045F0400506E000BF45F0800502E000BF8A
:100CF00045F480752068816921F070018161206868
:100D00000421416055B1606A40EA050120466162F4
:100D100001B0BDE8F04FFFF73DBE00BF01B0BDE838
:100D2000F08F0000002804BF01207047B0B50446D2
:100D300090F8200010B9204600F06EF82068016895
:100D400041F00101016000F057FD0546206841684F
:100D5000C90705D100F050FD401B0B28F6D310E069
:100D6000016821F00201016000F046FD054600BF68
:100D70002068416889070DD500F03EFD401B0B2817
:100D8000F6D3606A052140F400306062012084F8E7
:100D90002010B0BD217E0268012922F0800208BF28
:100DA00080320260617E0268012922F0400208BFA1
:100DB00040320260A17E0268012922F0200208BFB1
:100DC00020320260E17E0268012922F0100218BF81
:100DD00010320260217F0268012922F0080208BF58
:100DE00008320260617F0268012922F0040208BF14
:100DF00004320260D4E901C2D4E9033561691A43BF
:100E00002A431143ACF101021143C16100200121C9
:100E1000606284F82010B0BD10B586B0006846F658
:100E20000002C4F2000200219042CDE90411CDE994
:100E30000211019140D046F20041C4F20001884203
:100E400040F0848040F22031C2F200010A6843F68B
:100E50004000C4F20200531C0B6052B90021009103
:100E6000016841F000710160016801F000710091BA
:100E700000990021009150F8102C42F0010240F836
:100E8000102C50F8100C00F00100009000984FF466
:100E9000C05001900220CDE90201032004900920F6
:100EA00005900020C4F2020001A900F0CFFB14203D
:100EB00007210022142444E043F64000C4F202005B
:100EC0000091016841F080610160016801F080617A
:100ED0000091009940F22031C2F200010A68531CCF
:100EE0000B6052B900210091016841F0007101606E
:100EF000016801F00071009100990021009150F803
:100F0000102C42F0020240F8102C50F8100C00F0A7
:100F10000200009000984FF4405001900220CDE96B
:100F2000020103200490092005900020C4F2020071
:100F300000F5806001A900F089FB40200821002213
:100F4000402400F01BFD204600F006FD06B010BD59
:100F500070470000B0B588B040F2D001C2F2000185
:100F6000884207D040F2F801C2F20001884229D03D
:100F700008B0B0BD40F2FC15C2F2000505F108044E
:100F800040F2D000C2F2000001AA00212346FFF780
:100F900003FD039800283DD00299A1F510600828B0
:100FA00046D84FF0FF3050FA81F00328E0D8DFE850
:100FB00000F003656B7100BF40F2D820C2F2000060
:100FC0000068ACE040F2FC15C2F2000505F1100427
:100FD00040F2F800C2F2000001AA00212346FFF708
:100FE000DBFC039800282FD00299A1F51060082897
:100FF00038D84FF0FF3050FA81F00328B8D8DFE836
:1010000000F003555B6100BF40F2D820C2F200003F
:10101000006984E00198A0F201200728A8D8DFE841
:1010200000F00557595B5D5F616300BFA86976E01A
:10103000C1F3032003283FF69BAFDFE800F0033144
:10104000333500BFA86B56E00198A0F201200728B5
:101050003FF68EAFDFE800F0585A5C5E0462600431
:10106000A86E5CE0C1F3032003283FF681AFDFE800
:1010700000F0033D3F4100BFA86C3CE040F2D820A7
:10108000C2F2000040684AE040F2D820C2F20000FC
:10109000806844E040F2D820C2F20000C0683EE020
:1010A000E86B28E0286C26E0686C24E040F2D82049
:1010B000C2F20000406932E040F2D820C2F20000E3
:1010C00080692CE040F2D820C2F20000C06926E01E
:1010D000E86924E0286A22E0686A20E0A86D1EE042
:1010E000E86D1CE0286E1AE0686E18E0E86C02E01B
:1010F000286D00E0686D00283FF43AAF02689368FD
:101100002246984708B0B0BDA86A08E0E86A06E041
:10111000286B04E0686B02E0286F00E0E86E0028AE
:101120003FF426AF01684A682146904708B0B0BD39
:10113000704700007047000070470000B0B50446DB
:1011400090F8200001281DD1022084F8200020689A
:10115000016821F00101016000F04EFB054600BF6F
:1011600020684068C00713D000F046FB401B0B28E6
:10117000F6D3606A40F400306062052084F82000F5
:101180000120B0BD606A40F4002060620120B0BD63
:1011900000206062B0BD0000704700007047000092
:1011A0007047000070470000704700007047000063
:1011B0007047000070B5866D044600F01DFB94F882
:1011C0003510022928D105462068216C026822F0DA
:1011D00016020260426922F08002426109B9A16CE4
:1011E00019B1016821F008010160016821F00101D5
:1011F000016000BF20680068C00715D000F0FCFA4D
:10120000401B0628F6D320206065032084F83500B3
:10121000002184F8341070BD802060650120002119
:1012200084F8341070BD00BFE06D3F2101FA00F07A
:10123000B060012084F835000020002184F83410CB
:1012400070BD000090F83510022909D1052180F801
:1012500035100068016821F001010160002070472D
:101260008021416501207047F0B581B0044600201F
:10127000009040F20800C2F200000268D4E9166053
:1012800048F2B51337680821C1F64E338140394220
:10129000A2FB03250CD0226813685B0708D51368EE
:1012A00023F004031360B160616D41F001016165D9
:1012B00001218140394208D022685269120604D5C2
:1012C000B160616D41F002016165042181403942E4
:1012D00008D022681268920704D5B160616D41F0B0
:1012E0000401616510218140394217D020680268ED
:1012F000120713D5B16002680168520308D4C9050A
:1013000008D4016821F008010160216C21B905E0D1
:1013100008033FD4216C09B120468847E16D2020A5
:1013200000FA01F23A4241D020680368DB063DD55D
:10133000B26094F835300268052B1BD122F01602FA
:101340000260426922F080024261226C0AB9A26CFA
:101350001AB1026822F0080202603F208840B060A3
:10136000012084F83500216D0020002984F8340024
:1013700052D157E00168520310D4C90512D4016854
:1013800021F010010160012084F83500002084F86C
:10139000340007E0A16C0029BED1BFE7080301D4E7
:1013A000616C00E0E16B09B120468847606DC8B30D
:1013B000606DC0072ED0052084F835002068A90A8A
:1013C000026822F001020260009A01328A42009211
:1013D0001AD80268D20717D0009A01328A420092C6
:1013E00012D80268D2070FD0009A01328A420092C6
:1013F0000AD80268D20707D0009A01328A420092C6
:1014000002D80268D207DFD1012084F8350000201D
:1014100084F83400E16C29B1204601B0BDE8F04009
:10142000084700BF01B0F0BD2DE9F041044600F0CF
:10143000E3F9ECB10546022084F83500002021686C
:1014400084F83400086820F001000860216808680A
:10145000C00711D000F0D0F9401B0528F6D90325AC
:1014600020230320636584F83550BDE8F08100BF78
:101470000120BDE8F08100BF086848F23F02CFF2CA
:101480001002D4E9013500EA020C04F10C0898E8D6
:10149000C10143EA0C032B431843D4E9072E304320
:1014A00038431043626A40EA0E00042A40EA080307
:1014B0001CD1206BD4E90A2E40EA0E0018430860C4
:1014C0004869BEF1000F20F0030040EA020040F03E
:1014D000040C11D0B8F5005F36D0B8F1000F45D13B
:1014E000022A46D0012A3BD032B942E00B6048695B
:1014F00020F0070040EA020C01F0F8004AF6AB22A7
:101500001038CAF6AA22A0FB02231A0948F61803CB
:10151000C1F814C0C0F600039A5C40F2FF335F28A4
:101520004FF03F0021EA030100FA02F088BF0431C6
:10153000C4E916128860002301250020636584F841
:101540003550BDE8F08100BF032AD5D801254023DE
:101550000120DFE802F0030E030500BF82E700BFB1
:10156000AEF1C070B0FA80F0400904E0032A04D361
:10157000C2D1CEF300600028BED001254023012057
:10158000636584F83550BDE8F081000090F834C000
:10159000BCF1010F04BF0220704770B54FF0010C81
:1015A00080F834C0D0F858E090F835C0BCF1010F95
:1015B00038D14FF0020C80F835C04FF0000CC0F865
:1015C00054C0D0F800C08468056CC06DDCF80060C1
:1015D000402C26F48026CCF80060CCF804300B4672
:1015E00004BF13460A463F2101FA00F0CCF8083048
:1015F000CCF80C20CEF80800DCF8000040F0160013
:10160000CCF800002DB1DCF8000040F00800CCF868
:101610000000DCF8000040F00100CCF800000020E1
:1016200070BD00BF002180F83410022070BD0000A2
:101630007047000043F61441C4F201010A680242F7
:1016400014BF08607047FFF7F3BF00002DE9F04FAB
:1016500082B000F13E4707F1FF77860546EA9727FB
:1016600041F60046C4F20206082243F6004EB0429C
:1016700008BF0722C4F2010E072F38BF3A460026E2
:1016800000274FF00008009209E000BF08F10108B0
:101690000237B8F1100F06F1040600F0A3800D68C0
:1016A000012202FA08F415EA0409EFD0D1F804B0D7
:1016B00003220BF0030CACF10105BA40012D6FEAD7
:1016C000020A0FD88268CD6802EA0A02BD402A43A6
:1016D00082604268A243CBF3001404FA08F4224368
:1016E000426005E0BCF1030F02D14FF0030C1EE095
:1016F000C2688C6802EA0A02BC402243BCF1020FB5
:10170000C26014D16FF0030202EA58020244D2F818
:1017100020C006F01C040F230D69A3402CEA03032C
:10172000A5402B431362D1F804B00BF0030C026800
:101730000CFA07F302EA0A021A431BF4403F026064
:10174000A4D0002243F644030192C4F202031A68B3
:101750004FF6084C42F480421A601A68CFF6FF7CBC
:1017600002F480420192019A28F00302724452F876
:101770000C3006F00C050F24AC40A343009C04FA87
:1017800005F52B4342F80C30DEF808204B6842EA9E
:10179000090543F60C4CDC0258BF22EA0905CEF8D5
:1017A0000850C4F2010CDCF800209C0242EA090552
:1017B00058BF22EA0905CCF80050DEF804209C034B
:1017C00042EA090558BF22EA0905CEF80450DEF8BE
:1017D0000020DB0342EA090558BF22EA0905CEF8DA
:1017E000005053E702B0BDE8F08F0000002A08BFA8
:1017F000090481617047000045F21060C2F20000E8
:101800000068704740F2000045F21061C2F200002B
:10181000C2F2000100780A681044086070470000B6
:1018200080B543F60040C4F20200016841F4007143
:101830000160016841F480610160016841F48071D8
:101840000160032000F0C6F80F2000F005F800F05A
:1018500061F8002080BD000070B586B0002543F619
:1018600040010195C4F202010A68044642F00802F0
:101870000A60096801A801F008010191019969460F
:1018800000F06AF9049E002E18BF012600F084F9CA
:101890004DF68361B040C4F21B31A0FB01014FF053
:1018A000FF3000EB914140F67C4040F60042C2F22E
:1018B0000000C4F2000240F2E733C0E90021C0E9B1
:1018C00002530561856100F0FFFB054610B1284613
:1018D00006B070BD40F67C40C2F2000000F068FC2B
:1018E00005460028F3D1322000F036F80F2C0DD831
:1018F000322021460022002500F040F840F204008A
:10190000C2F200000460284606B070BD01252846DA
:1019100006B070BD82B0002043F640010190C4F2D1
:1019200002014A6842F480424A604A6802F48042F6
:101930000192019A00900868002240F080500860EF
:1019400008680F2100F08050009000986FF00100AF
:1019500002B000F013B80000002848BF704700F044
:101960001F01012202FA01F11C2202EAD0004EF20C
:101970000012CEF2000281507047000010B54EF602
:101980000C5CCEF2000CDCF80030C3F3022E8EF0BB
:101990000704042C28BF0424BEF103034FF0FF3ECC
:1019A0000EFA04F438BF0023A14399400EFA03F362
:1019B0009A43114300F00F0200F160430901043A19
:1019C00003F564436244002848BF02F10C03197018
:1019D00010BD00004EF60C51CEF200010A684FF621
:1019E000FF031A4060F30A2242F0806040F0FD706D
:1019F00008607047002804BF012070472DE9F041BE
:101A000043F60808C4F202080446D8F8F8030D4665
:101A100000F00700884207D288F8F853D8F8F80396
:101A200000F00700A84277D12068810717D5410749
:101A300005D5D8F8001041F4E051C8F800100107AE
:101A400005D5D8F8001041F46041C8F80010D8F866
:101A50000010A26821F0F0011143C8F80010C0077F
:101A600040D1D8F8F80300F00700A84207D988F859
:101A7000F853D8F8F80300F00700A8424CD12068CA
:101A8000410707D5D8F80010E26821F4E05111436E
:101A9000C8F80010000708D5D8F80000216920F424
:101AA000604040EAC100C8F8000000F09DF8D8F896
:101AB000001048F2F842C1F30311C0F60002515C75
:101AC00040F2080220FA01F140F20400C2F20000E4
:101AD0000068C2F200021160FFF7BEFE0020BDE800
:101AE000F08100BF6068811E022907D258F8081CE7
:101AF00089015CBF0120BDE8F08111E0012807D118
:101B000058F8081C89035CBF0120BDE8F08107E09C
:101B100058F8081C890703D40120BDE8F08100BFF4
:101B2000D8F8001021F003010843C8F80000FFF7BF
:101B300063FE064641F28837D8F80000616800F07D
:101B40000C00B0EB810F8CD0FFF756FE801BB84223
:101B5000F2D90320BDE8F0810F22026043F60802AB
:101B6000C4F20202136803F003034360136803F036
:101B7000F0038360136803F4E053C360D2F800C03D
:101B80004FF4E05303EADC030361D2F8F80300F0FA
:101B9000070008607047000040F2080043F60801A3
:101BA000C2F20000C4F202010068096848F208525B
:101BB000C1F38221C0F60002515CC84070470000AA
:101BC00040F2080043F60801C2F20000C4F202012C
:101BD0000068096848F20852C1F34231C0F60002B9
:101BE000515CC8407047000010B543F60404C4F2CD
:101BF0000204606800F00C0142F200400829C0F2C3
:101C0000F40007D0042918BF10BD41F20020C0F233
:101C10007A0010BD216801F03F0221682368490263
:101C2000C3F3881106D4A1FB00010023FEF734FBA7
:101C300007E000BF41F20020C0F27A004843B0FB49
:101C4000F2F021680222C1F3014102EB4101B0FB35
:101C5000F1F010BD002804BF012070472DE9F041CC
:101C600082B00446007843F60006C007C4F20206BC
:101C70000CD0B06800F00C00042840F0818030687F
:101C8000800303D56068002800F06A81207880070F
:101C90001BD5B06810F00C0F09D0B06800F00C0034
:101CA000082840F087807068400200F18380306827
:101CB000800703D5E068012840F05281306821692F
:101CC00020F0F80040EAC10030602078000713D40B
:101CD000207840072AD4A569002D00F03C81B06827
:101CE00000F00C00082840F0A180012D40F0108188
:101CF000012002B0BDE8F0816069002840F20000D8
:101D0000C4F2472000F07E800121C0F8801EFFF75A
:101D100073FD0546706F8007DAD4FFF76DFD401B39
:101D20000228F7D9032002B0BDE8F081306C5FEAE9
:101D3000C0080AD400200190306C40F0805030641C
:101D4000306C00F080500190019847F20007C4F217
:101D500000073868C00547D4386840F480703860A0
:101D6000FFF74AFD054600BF3868C0053CD4FFF7C1
:101D700043FD401B0228F7D9032002B0BDE8F081E3
:101D8000B06800F00C00082803D1706840023FF5ED
:101D900076AF6068B0F5803F07D0B0F5A02F40F077
:101DA0009B80306840F480203060306840F48030A0
:101DB00030609BE0E06800285CD00020C4F247203F
:101DC00001210160FFF718FD054600BF306880075C
:101DD0003FF574AFFFF710FD401B0228F6D9032032
:101DE00002B0BDE8F08100BFA068012805D0052839
:101DF00054D1306F40F004003067306F40F0010084
:101E0000306755E00021C0F8801EFFF7F5FC05465D
:101E1000706F80077FF55CAFFFF7EEFC401B022878
:101E2000F6D9032002B0BDE8F08100BF0027C4F25C
:101E3000472700203866FFF7DFFC022D05460DD14D
:101E40003068800140F19080FFF7D6FC401B0228EB
:101E50004FF00300F4D902B0BDE8F0813068800192
:101E600079D5FFF7C9FC401B02284FF00300F5D9D4
:101E7000F1E700BF0020C4F2472000210160FFF716
:101E8000BBFC0546306880077FF51FAFFFF7B4FC49
:101E9000401B02284FF00300F4D9DCE7316F002823
:101EA00021F001013167316F21F0040131677DD0EC
:101EB000FFF7A2FC054641F2883700BF306F80076C
:101EC00000F18680FFF798FC401BB842F6D903204A
:101ED00002B0BDE8F08100BF3168002821F48031F4
:101EE0003160316821F4802131607BD0FFF784FCC0
:101EF000054600BF306880033FF5C8AEFFF77CFCA5
:101F0000401B6428F6D9032002B0BDE8F08100BF71
:101F10007068E16900F480028A4221D1216A00F0F0
:101F20003F028A421CD147F6C071626A0140B1EBA0
:101F3000821F15D1A16A4FF6FF73C903994300F4BC
:101F40004032A1F580318A420AD1E16A00F0706026
:101F5000B0EB016F04D1002002B0BDE8F08100BFFA
:101F6000012002B0BDE8F08104F11C052FCD08432B
:101F700040EA8210D9034FF6FF729143A1F58031F8
:101F800040EA05600843706001203866FFF734FCC2
:101F9000044600BF30688001DDD4FFF72DFC001B34
:101FA00002284FF00300F5D955E700BFFFF724FCE6
:101FB000054641F2883700BF306F800708D5FFF72C
:101FC0001BFC401BB8424FF00300F5D943E700BFAC
:101FD000B8F1000F3FF57FAE306C20F080503064D8
:101FE00079E600BFFFF708FC054600BF30688003B4
:101FF0007FF54CAEFFF700FC401B64284FF0030058
:10200000F4D928E7704700007047000090F83C20A2
:10201000012A4FF0020254D010B580F83D2002682A
:10202000D2F804E0D2F808C00C682EF07003234305
:1020300041F2FF74C4F20004A24253600EDC40F28D
:10204000FF73C4F200039A4216DCB2F1804F2BD02A
:1020500040F20043C4F2000324E000BF40F2FF332B
:10206000C4F201039A4213DC41F60003C4F20003F8
:102070009A4219D0002313E040F60003C4F2000393
:102080009A4211D040F60043C4F200030AE000BFB8
:1020900044F20003C4F201039A4205D040F2004327
:1020A000C4F201039A4204D149682CF08003194319
:1020B00091600121002280F83D1080F83C20BDE8AD
:1020C0001040104670470000002804BF01207047F0
:1020D00010B5044690F83D0028B9002084F83C0073
:1020E000204600F01FF8022084F83D002068211DE2
:1020F00002F032F8012084F8460084F83E0084F8AB
:102100003F0084F8400084F8410084F8420084F8DD
:10211000430084F8440084F8450084F83D00002022
:1021200010BD000083B0006844F20001C4F2010158
:10213000884219D041F60001C4F20001884225D03E
:10214000B0F1804F31D10020029043F64000C4F23C
:102150000200016841F001010160006800F0010027
:102160000290029803B070470020019043F64000AF
:10217000C4F20200416841F480314160406800F4DB
:1021800080300190019803B0704700BF002000909C
:1021900043F64000C4F20200016841F040010160D2
:1021A000006800F040000090009803B07047000005
:1021B00090F83D1001291CBF01207047022180F8D2
:1021C0003D10006841F2FF72C168C4F20002904203
:1021D00041F00101C1600DDC40F2FF71C4F2000169
:1021E000884215DCB0F1804F2AD040F20041C4F2A1
:1021F000000123E040F2FF31C4F20101884213DC08
:1022000041F60001C4F20001884219D0002113E018
:1022100040F60001C4F20001884211D040F60041AE
:10222000C4F200010AE000BF44F20001C4F201015F
:10223000884205D040F20041C4F20101884206D133
:10224000816801F00701062904BF0020704701687A
:1022500041F00101016000207047000090F83C202F
:10226000012A4FF0020200F0C58080B580F83D20C1
:10227000D0F800C04FF67772DCF8083023EA02028B
:10228000CCF808200B684F2B28DC1F2B44DD202BBB
:1022900045D0302B43D0402B40F0AE80D1F804E045
:1022A000C968DCF82030DCF8202022F00102CCF8EC
:1022B0002020DCF8182022F0F00242EA011123F07D
:1022C0000A0242EA0E02CCF81810CCF82020DCF802
:1022D000081041F0470121F0300180E06F2B27DD2D
:1022E000B3F5005F48D0B3F5805F7AD0702B40F033
:1022F0008380D1E901E3C968DCF8082043EA0E03D2
:1023000022F47F4243EA01211143CCF80810DCF8A3
:10231000081041F0770162E00BB1102B6CD1DCF8B2
:10232000081021F07001194341F0070157E000BF88
:10233000502B35D0602B5FD1D1F804E0C968DCF8B0
:102340002030DCF8202022F01002CCF82020DCF82D
:10235000182022F4704242EA013123F0A00242EA3E
:102360000E12CCF81810CCF82020DCF8081041F040
:10237000670121F0100132E0D1E901E3C968DCF81E
:10238000082043EA0E0322F47F4243EA012111436D
:10239000CCF80810DCF8081041F480411FE000BFC1
:1023A000D1F804E0C968DCF82030DCF8202022F005
:1023B0000102CCF82020DCF8182022F0F00242EADA
:1023C000011123F00A0242EA0E02CCF81810CCF8F0
:1023D0002020DCF8081041F0570121F02001CCF852
:1023E00008100022012180F83D10002180F83C10E7
:1023F000BDE88040104670470122F3E7002804BF83
:10240000012070472DE9F047044690F83D000D4645
:1024100028B9002084F83C00204600F049F802204A
:1024200084F83D00206844F207028168914381608E
:10243000211D01F091FE20684FF6FF7881688269C6
:10244000D0F820C0D5E9003ED5E9026A43EA010987
:10245000AB6922EA080246EA03234FF6FC46B3437F
:10246000D5E9076742EA0A0229691A4342EA0622C5
:1024700042EA01112CF0AA026B6942EA0E0241EA1B
:10248000073142EA0312C0F808908161026201201C
:1024900084F8460084F83E0084F83F0084F8420047
:1024A00084F8430084F83D000020BDE8F087000078
:1024B000F0B587B000684FF6FF71C4F200018842A2
:1024C0004FF000010691CDE90411CDE902114FDC76
:1024D00040F20041C4F20001884200F0818040F6E1
:1024E0000001C4F20001884240F0D380002543F689
:1024F00030000195C4F202000169002741F0040197
:1025000001610169C4F2020701F00401019101991E
:102510000195016802AC41F00801016001680226E2
:1025200001F00801019101990195016841F0020152
:1025300001600068214600F00200019001984FF40C
:102540000050029007F54060CDE90365CDE90556DE
:10255000FFF77CF84020CDE90206CDE90455069648
:1025600007F580602146FFF771F807B0F0BD00BFA6
:1025700040F20041C4F20101884259D00021C4F266
:102580000101884240F08580002043F6300101902F
:10259000C4F202014A6942F001024A614A6902F04A
:1025A00001020192019A01900A6842F010020A6049
:1025B000096801F01001019101994FF42061029125
:1025C0000221CDE903100590012006900020C4F2FD
:1025D000020000F5805002A9FFF738F807B0F0BDFF
:1025E000002043F630010190C4F202010A6942F072
:1025F00002020A610A6902F002020192019A019044
:102600000A6842F001020A60096801F001010191C3
:102610000199C02102910221CDE90310CDE9050104
:102620000020C4F2020002A9FFF710F807B0F0BDC5
:10263000002043F630010190C4F202014A6942F0E1
:1026400002024A614A6902F002020192019A019073
:102650000A6842F004020A60096801F0040101916D
:102660000199C02102910221CDE9031005900320B8
:1026700006900020C4F2020000F5006002A9FEF7F7
:10268000E5FF2D2005210022FFF778F92D20FFF727
:1026900063F907B0F0BD00007047000070B5044654
:1026A0000068C5680669B10716D515F0020113D098
:1026B0006FF002010161012121778069800703D059
:1026C0002046FFF7E9FF05E0204600F08FF820469E
:1026D00000F0D0F900202077700719D515F004001C
:1026E00016D020686FF00401016102212177806912
:1026F00010F4407F04D02046FFF7CEFF06E000BF75
:10270000204600F073F8204600F0B4F9002020774E
:10271000300717D515F0080014D020686FF00801B5
:10272000016104212177C069800703D02046FFF7AB
:10273000B3FF05E0204600F059F8204600F09AF972
:1027400000202077F00619D515F0100016D020686B
:102750006FF01001016108212177C06910F4407FFA
:1027600004D02046FFF798FF06E000BF204600F0A7
:102770003DF8204600F07EF900202077F00718BFD2
:1027800015F0010002D1300609D412E020686FF084
:1027900001010161204600F06FF9300609D515F0FE
:1027A000800006D020686FF0800101612046FFF7AD
:1027B00029FC700609D515F0400006D020686FF09E
:1027C00040010161204600F061F9B00658BF70BDBC
:1027D00015F0200008D021686FF0200220460A6121
:1027E000BDE87040FFF710BC70BD000070470000EE
:1027F00090F83C30012B04BF022070474FEAB20230
:10280000032A00F201812DE9F043DFE802F0033FE3
:102810007FBF00BF036840F200461C6A1A6A24F0BA
:10282000020422F001021A621A46D3F804C052F8D8
:1028300018EF8F6843F48065C4F20106B54244EA9C
:10284000070405D1CF6824F00C0427F004073C43AB
:102850000F68B54206D1D1E905582CF440762E43D5
:1028600046EA080C2EF073063743C3F804C09F6194
:102870004F6809695F631C629F6947F008079F61A1
:102880009F6927F004079F61B2E000BF036840F230
:1028900000481C6A1A6A24F0200422F010021A620E
:1028A0001A46D3F804C052F818EF8F6843F48065D5
:1028B000C4F20108454544EA071407D1CF686FF018
:1028C000400624F0C00406EA07163443D1F800900D
:1028D000454506D1D1E905562CF440672E4347EA19
:1028E000860C2EF4E64747EA0927C3F804C09F6127
:1028F0004F6809699F631C629F6947F400679F6185
:102900009F6927F480679F6171E000BF036840F210
:1029100000481C6A1A6A24F4007422F480721A6255
:102920001A46D3F804C052F81CEF8F6843F4806550
:10293000C4F20108454544EA072408D1CF6840F2B3
:10294000FF463F0224F4406427EA06063443D1F8E8
:102950000090454506D1D1E905562CF440572E4349
:1029600047EA061C2EF0730747EA0907C3F804C0BC
:10297000DF614F680969DF631C62DF6947F00807A0
:10298000DF61DF6927F00407DF6131E0036840F2AF
:102990000045D3F820C01A6A43F4806722F48052BD
:1029A0001A621A465C6852F81CEFD1F800808E68F3
:1029B000C4F20105AF4204D14D6924F4804444EAD5
:1029C00085142CF4005747EA06372EF4E64646EA0B
:1029D00008265C60DE614E6809691E641F62DF695B
:1029E00047F40067DF61DF6927F48067DF61090270
:1029F0001368194311600021BDE8F043002280F8FC
:102A00003C200846704700BF0121002280F83C208E
:102A100008467047002804BF0120704710B50446DF
:102A200090F83D0028B9002084F83C00204600F0D2
:102A30001FF8022084F83D002068211D01F08CFB66
:102A4000012084F8460084F83E0084F83F0084F8B2
:102A5000400084F8410084F8420084F8430084F880
:102A6000440084F8450084F83D00002010BD0000BB
:102A70007047000070470000006840F60041C4F253
:102A80000001884218BF7047FEF7BCBE70470000C7
:102A90007047000070470000B0B582B0044600687F
:102AA0000168C368426901F02F05202D03F020055D
:102AB00006D12DB1204602B0BDE8B04001F01EBDE8
:102AC0005FEA017C1EBF02F0010E03F4907212EB6C
:102AD0000E0243D1226BCD0618D5012A16D113F070
:102AE000100213D000210191016801914168019108
:102AF0000199406940063BD4A08DE18DE28D002A0A
:102B000018BF884240F0F28102B0B0BD0A0640F121
:102B1000E78013F0800200F0E38094F8411021294F
:102B2000F2D1A168B1F5805F03D12169002900F0DD
:102B30006382216A4A1C226209784160E18C013972
:102B40000A04E184E0D1C16821F08001C160C1685C
:102B500041F04001C16002B0B0BD00BFCA0718BF5C
:102B600013F4807240F0D0804A0700F1D380D8E09F
:102B7000E06B016849688AB2002AC5D0A38D9A42E9
:102B8000C2D2E185C069B0F5807F00F09D802068E9
:102B900050E8030F216820F4807041E80302DAB1A5
:102BA000206850E8030F216820F4807041E8030298
:102BB00092B1206850E8030F216820F4807041E84A
:102BC00003024AB1206850E8030F216820F48070A6
:102BD00041E80302002ADAD1206850E8050F216895
:102BE00020F0010041E80502BAB3206850E8050F63
:102BF000216820F0010041E8050272B3206850E826
:102C0000050F216820F0010041E805022AB3206881
:102C100050E8050F216820F0010041E80502002A74
:102C2000DAD11AE0206850E8050F216820F0400052
:102C300041E80502DAB1206850E8050F216820F06C
:102C4000400041E8050292B1206850E8050F216874
:102C500020F0400041E805024AB1206850E8050F25
:102C6000216820F0400041E80502002ADAD1202046
:102C700084F8420000202063206850E8030F216898
:102C800020F0100041E80302DAB1206850E8030F99
:102C9000216820F0100041E8030292B1206850E85A
:102CA000030F216820F0100041E803024AB12068B8
:102CB00050E8030F216820F0100041E80302002AC9
:102CC000DAD1E06BFEF776FA02206063A08DE18D29
:102CD000401A81B2204602B0BDE8B040FFF7D8BE2E
:102CE00049067FF511AF13F040013FF40DAFC16805
:102CF00021F04001C1602021204684F8411002B03B
:102D0000BDE8B04000F07ABC626C42F0010262643F
:102D10004A0706D5BEF1000F03D0626C42F00202F2
:102D200062648A0706D5BEF1000F03D0626C42F0E0
:102D300004026264BCF1000F06D55EEA050203D00E
:102D4000626C42F008026264626C002A3FF4DCAEFE
:102D5000890604D51DB1204601F0D0FB20684069EA
:102D6000616C00F0400001F00801401800F0B680EE
:102D7000206850E8030F216820F4907041E80302B6
:102D8000BAB3206850E8030F216820F4907041E83E
:102D9000030272B3206850E8030F216820F490709A
:102DA00041E803022AB3206850E8030F216820F4A9
:102DB000907041E80302002ADAD11AE0206850E856
:102DC000050F216820F0010041E80502DAB1206812
:102DD00050E8050F216820F0010041E8050292B19A
:102DE000206850E8050F216820F0010041E8050245
:102DF0004AB1206850E8050F216820F0010041E841
:102E00000502002ADAD1206B012824D1206850E87D
:102E1000030F216820F0100041E80302DAB12068B6
:102E200050E8030F216820F0100041E8030292B13E
:102E3000206850E8030F216820F0100041E80302E9
:102E40004AB1206850E8030F216820F0100041E8E3
:102E50000302002ADAD1202084F8420000202063F7
:102E600020684069400640F1C180206850E8050FA5
:102E7000216820F0400041E80502DAB1206850E8FE
:102E8000050F216820F0400041E8050292B120685A
:102E900050E8050F216820F0400041E805024AB1E2
:102EA000206850E8050F216820F0400041E8050245
:102EB000002ADAD1E06B002800F0988044F2BD21AE
:102EC000C0F600010165FEF7BDF900283FF41CAE15
:102ED000E06B016D02B0BDE8B04008472046FFF747
:102EE000D9FD0020606402B0B0BD00BF401A00BF31
:102EF000216851E8031F226821F4907142E803130E
:102F0000BBB3216851E8031F226821F4907142E8A5
:102F1000031373B3216851E8031F226821F49071F1
:102F200042E803132BB3216851E8031F226821F400
:102F3000907142E80313002BDAD11AE0216851E8BE
:102F4000051F226821F0010142E80513DBB1216869
:102F500051E8051F226821F0010142E8051393B1F1
:102F6000216851E8051F226821F0010142E805139C
:102F70004BB1216851E8051F226821F0010142E8A8
:102F80000513002BDAD1202184F84210002121639F
:102F9000216851E8031F226821F0100142E8031361
:102FA000DBB1216851E8031F226821F0100142E8DB
:102FB000031393B1216851E8031F226821F0100127
:102FC00042E803134BB1216851E8031F226821F046
:102FD000100142E80313002BDAD1022281B220460D
:102FE000626302B0BDE8B040FFF752BD204602B0B8
:102FF000BDE8B040FFF74EBD216A31F8022B6FF3F8
:103000005F224260216299E5002804BF01207047D9
:1030100010B5044690F8410028B9002084F840001B
:10302000204600F021F8242084F841002068C1687F
:1030300021F40051C160204601F0E0FA20680169E6
:1030400021F490410161416921F02A014161C16887
:1030500041F40051C16000202021606484F84110D7
:1030600084F84210606310BD2DE9F04786B0044635
:10307000006844F6FF31C4F2000188424FF00001BD
:103080000591CDE90311CDE9011167DD41F2004160
:10309000C4F20101884200F0DB8045F20001C4F275
:1030A0000001884200F0288144F60041C4F200018A
:1030B000884240F0E081002643F630000096C4F2DA
:1030C0000200016941F400210161016901F400215C
:1030D000009100990096016841F0040101600068C8
:1030E00001A900F00400009000984FF440600190A6
:1030F0000220CDE90206032004900820059040F646
:103100000040C4F20200A0F58060FEF79FFA46F28C
:103110005800C4F2020040F634151830C2F200051F
:103120004FF00061402285E847004FF480304FF4B3
:103130008063C5E908062846C5E90436C5E9066680
:10314000FEF772F9002818BFFDF744FBA563AC63D6
:10315000342005210022342488E100BF44F20041DC
:10316000C4F20001884200F0338144F60001C4F249
:103170000001884240F07F81002743F6300000972D
:10318000C4F20200016940F6004541F4802101616A
:103190000169C4F2020501F48021009100990097B1
:1031A000016801AE41F00201016001684FF00208C0
:1031B00001F0020100910099009701684FF00309A6
:1031C00041F00801016000684FF0070A00F00800B4
:1031D000009000984FF440600190A5F500603146E2
:1031E000CDE90287CDF81090CDF814A0FEF72EFAA5
:1031F0004FF4C050CDE9010803A880E880062846B6
:103200003146FEF723FA40F6542546F25800C2F242
:103210000005C4F202004FF00061402285E88700FB
:103220004FF480304FF48063C5E908072846C5E9AC
:103230000437C5E90677FEF7F7F8002818BFFDF751
:10324000C9FAA563AC6327200321002227240DE1DE
:10325000002643F630000096C4F20200416941F0B6
:1032600020014161416901F020010091009900961F
:10327000016841F040010160006801A900F04000D0
:10328000009000984FF4844001900220CDE902069E
:10329000032004900820059040F60040C4F202008C
:1032A00000F54060FEF7D2F946F25800C4F2020081
:1032B00040F6B42500F58960C2F200054FF02061A8
:1032C000402285E847004FF480304FF48063C5E921
:1032D00008062846C5E90436C5E90666FEF7A4F8DF
:1032E000002818BFFDF776FAA563AC6347200621D6
:1032F00000224724BAE000BF002743F630000097C1
:10330000C4F20200016940F6004541F480110161F8
:103310000169C4F2020501F480110091009900973F
:10332000016801AE41F00401016001684FF002083C
:1033300001F0040100910099009701684FF0030922
:1033400041F00801016000684FF0080A00F0080031
:10335000009000984FF480500190A5F580603146B0
:10336000CDE90287CDF81090CDF814A0FEF76EF9E4
:103370000420CDE9010803A880E8800628463146EC
:10338000FEF764F946F25800C4F2020040F69415C4
:103390006030C2F200054FF00061402285E88700EE
:1033A0004FF480304FF48063C5E908072846C5E92B
:1033B0000437C5E90677FEF737F8002818BFFDF790
:1033C00009FAA563AC6335200521002235244DE0C0
:1033D000002643F630000096C4F20200016941F471
:1033E00000310161016901F40031009100990096FA
:1033F000016841F008010160006801A900F00800BF
:1034000000900098602001900220CDE90206032080
:1034100004900720059040F60040C4F20200FEF739
:1034200015F946F25800C4F2020040F6F41548308F
:10343000C2F200054FF00061402285E847004FF4DA
:1034400080304FF48063C5E908062846C5E9043694
:10345000C5E90666FDF7E8FF002818BFFDF7BAF9D1
:10346000A563AC632620042100222624FEF786FAF9
:103470002046FEF771FA06B0BDE8F08790F84230BA
:10348000202B07D100294FF0010318BF002A05D1D6
:103490001846704702231846704700BF0023036395
:1034A000816222218285C285436480F842100169CD
:1034B000006819B1C16841F48071C160416941F08F
:1034C00001014161C16841F02001C16018467047A7
:1034D000F0B581B040F28875C2F200052968044653
:1034E00001290BDB40F26076C2F2000630684268C8
:1034F000A24219D0013906F10406F7D12868012843
:1035000010DB40F260770026C2F2000757F8260071
:10351000012200F108012046FFF7B0FF28680136BC
:103520008642F3DB01B0F0BD0268017A1268904771
:103530003068012200F10801204601B0BDE8F040EA
:10354000FFF79CBFB0B5044690F8410020281CBF8F
:103550000220B0BD00294FF001004DD0002A1346D3
:1035600008BFB0BD4FF0000C21202162A384E3848A
:10357000C4F844C084F84100A06B44F2454E44F2C4
:10358000F5452268C0F6000EC0F60005C0E90FE55B
:1035900044F2C925C0F600050432C0E9135CFDF70A
:1035A000F5FF20686FF04001016000BF206850E81F
:1035B000050F216840F0800041E80502DAB120687B
:1035C00050E8050F216840F0800041E8050292B103
:1035D000206850E8050F216840F0800041E80502AE
:1035E0004AB1206850E8050F216840F0800041E8AA
:1035F0000502002ADAD10020B0BD000070470000AB
:1036000070470000FEE7000080B540F2B80046F2C7
:103610000041C2F20000C4F2000140F8181F03216B
:103620000022C0E9011200F10C014FF400234FF415
:10363000401C81E80C1082618283FDF773FB002837
:1036400008BF80BDBDE88040FDF7C4B880B540F23A
:10365000B80046F60001C2F20000C4F2000140F8D2
:10366000401F03210022C0E9011200F10C014FF4B8
:1036700000234FF4401C81E80C104FF4807101834B
:10368000C0F81A20FDF74EFB002808BF80BDBDE83A
:103690008040FDF79FB8000080B582B0002043F65F
:1036A00030010190C4F202010A6842F400120A607B
:1036B0000A6802F400120192019A00900868002240
:1036C00040F4800008600868052100F48000009044
:1036D00000980E20FEF752F90E20FEF73DF90F205C
:1036E00005210022FEF74AF90F20FEF735F91120D7
:1036F00005210022FEF742F91120FEF72DF92F20B7
:1037000005210022FEF73AF92F20FEF725F9452082
:1037100005210022FEF732F9452002B0BDE88040C5
:10372000FEF71AB92DE9F04387B0002743F63000C1
:1037300006970197C4F20200016841F2004541F08A
:10374000100101600168C4F2020501F0100101914D
:10375000019901970168002241F0040101600168AC
:103760001E2601F00401019101990197016841F0C1
:1037700020010160016801F0200101910199019788
:10378000016841F080010160016801F08001019150
:1037900001990197016841F001010160016801F0A0
:1037A0000101019101990197016841F00201016055
:1037B000016801F00201019101990197016841F04E
:1037C00008010160016801F0080101910199019768
:1037D000016841F04001016000681E2100F04000D6
:1037E000019001982846FEF701F8A5F540642046AF
:1037F0000F2100224FF00F08FDF7F8FF029602AEEE
:103800004FF0010928463146CDE903970597FDF7AA
:103810001DFF402002904FF48810CDE90307284691
:103820003146FDF713FF20463146CDE90289CDE947
:103830000477FDF70BFF172000210022FEF79EF80A
:103840001720FEF789F807B0BDE8F083B0B592B055
:1038500041F6000540F65C30C4F200050021C2F2DA
:10386000000040F28F6240F2E7330B91CDE909117D
:103870000791CDE90511CDE90311CDE90111C0E9A9
:103880000052C0E9021301618161FEF71DFC0028AE
:1038900018BFFCF79FFF4FF48050089040F65C3053
:1038A000C2F2000008A9FEF7D9FC002818BFFCF7F7
:1038B00091FF40F65C30C2F20000FFF7ABF8002841
:1038C00018BFFCF787FF602001900020CDE90200BF
:1038D000059040F65C30C2F2000001A90022FEF71C
:1038E00087FF002818BFFCF775FF40F65C34C2F272
:1038F000000401A920460422FEF77AFF002818BF21
:10390000FCF768FF206844F20002C4F201020021C3
:1039100090420D911AD0A8422CD0B0F1804F47D1DF
:1039200000200C9043F63000C4F20200016841F020
:10393000010101600068012100F001000C900C9869
:103940000F200D9005F5F43029E000BF43F630005C
:103950000C91C4F20200016841F01001016000689E
:10396000032100F010000C900C9860200D9005F5DC
:10397000FC3014E000200C9043F63000C4F202004A
:10398000016841F0020101600068092100F00200B5
:103990000C900C984FF440400D9005F5F630022243
:1039A0000E92002211910DA9CDE90F22FDF74EFED6
:1039B00012B0B0BD10B58CB040F614300021002418
:1039C000C2F20000C4F20101C0E900140321CDE9F4
:1039D000031401214FF6FF72CDE90514CDE9091456
:1039E00003A9CDE90044C0E90242C0E9044484616E
:1039F000CDE907440B94FEF701FD002818BFFCF742
:103A0000E9FE40F61430C2F200006946CDE90044F8
:103A1000FEF7FCFA002818BFFCF7DCFE0CB010BD66
:103A200010B594B040F6A4300021C2F200004FF06F
:103A30008042072340F2E7340D91CDE90B11099143
:103A4000CDE90711CDE90511CDE90311CDE901114A
:103A5000C0E90023C0E9021401618161FEF734FB73
:103A6000002818BFFCF7B6FE4FF480500A9040F6CD
:103A7000A430C2F200000AA9FEF7F0FB002818BF2C
:103A8000FCF7A8FE40F6A430C2F20000FEF7C2FF29
:103A9000002818BFFCF79EFE40F6A4300024C2F2B6
:103AA000000008A9CDE90844FEF7B0FA002818BFC5
:103AB000FCF790FE6020CDE9010440F6A430C2F28C
:103AC000000001A9002203940594FEF791FE00284E
:103AD00018BFFCF77FFE40F6A430C2F2000001A937
:103AE0000422FEF785FE002818BFFCF773FE40F69F
:103AF000A430C2F2000001A90822FEF779FE0028D6
:103B000018BFFCF767FE40F6A434C2F2000401A916
:103B100020460C22FEF76CFE002818BFFCF75AFE68
:103B2000206844F20002C4F20102002190420F9189
:103B30001ED041F60001C4F20001884230D0B0F13D
:103B4000804F4ED100200E9043F63000C4F20200A8
:103B5000016841F0010101600068012100F00100ED
:103B60000E900E980F200F900020C4F202002FE05C
:103B700043F630000E91C4F20200016841F01001DA
:103B800001600068032100F010000E900E98602084
:103B90000F900020C4F2020000F5805018E000BF32
:103BA00000200E9043F63000C4F20200016841F09C
:103BB000020101600068092100F002000E900E98D9
:103BC0004FF440400F900020C4F2020000F58060E6
:103BD00002221092002213910FA9CDE91122FDF7C4
:103BE00035FD14B010BD000080B58CB040F6EC304F
:103BF00040F200420021C2F20000C4F20002C0E91B
:103C0000002103224FF6FF73CDE903210122CDE904
:103C10000011C0E9021301618161CDE90521CDE9FF
:103C20000711CDE909210B9103A9FEF7E7FB002855
:103C300018BFFCF7CFFD40F6EC30C2F20000694639
:103C4000FEF7E4F9002818BFFCF7C4FD0CB080BDF6
:103C500080B58CB040F6344040F600020021C2F23C
:103C60000000C4F20002C0E9002103224FF6FF73F6
:103C7000CDE903210122CDE90011C0E90213016160
:103C80008161CDE90521CDE90711CDE909210B912C
:103C900003A9FEF7B3FB002818BFFCF79BFD40F615
:103CA0003440C2F200006946FEF7B0F9002818BFA0
:103CB000FCF790FD0CB080BD10B58CB040F6C44050
:103CC00040F200410024C2F20000C4F20101C0E948
:103CD00000140321CDE9031401214FF6FF72CDE951
:103CE0000514CDE9091403A9CDE90044C0E9024255
:103CF000C0E904448461CDE907440B94FEF77EFBE0
:103D0000002818BFFCF766FD40F6C440C2F2000070
:103D10006946CDE90044FEF779F9002818BFFCF7A1
:103D200059FD0CB010BD0000B0B592B044F20005D2
:103D300040F60C50C4F201050021C2F2000040F22E
:103D40008F6240F2CF730B91CDE909110791CDE954
:103D50000511CDE90311CDE90111C0E90052C0E917
:103D6000021301618161FEF7AFF9002818BFFCF76B
:103D700031FD4FF48050089040F60C50C2F2000024
:103D800008A9FEF76BFA002818BFFCF723FD40F6E0
:103D90000C50C2F20000FEF73DFE002818BFFCF7F1
:103DA00019FD602001900020CDE90200059040F649
:103DB0000C50C2F2000001A90022FEF719FD0028F4
:103DC00018BFFCF707FD40F60C54C2F2000401A92D
:103DD00020460422FEF70CFD002818BFFCF7FAFC71
:103DE00020680021A8420D911ED041F60001C4F2C6
:103DF000000188422CD0B0F1804F47D100200C90B8
:103E000043F63000C4F20200016841F00101016094
:103E10000068012100F001000C900C980F200D901B
:103E200005F5404029E000BF43F630000C91C4F294
:103E30000200016841F0100101600068032100F0F8
:103E400010000C900C9860200D9005F5504014E087
:103E500000200C9043F63000C4F20200016841F0EB
:103E6000020101600068092100F002000C900C982A
:103E70004FF440400D9005F5444002220E9200227E
:103E800011910DA9CDE90F22FDF7E0FB12B0B0BDF5
:103E900080B540F6E45044F60041C2F20000C4F29E
:103EA000000100234FF00C0C4FF4E13280E80E00CB
:103EB000C0E90333C0E905C3C361FFF7A5F80028D3
:103EC00008BF80BDBDE88040FCF784BC80B540F6EB
:103ED0002C6045F20001C2F20000C4F20001002390
:103EE0004FF00C0C4FF4E13280E80E00C0E90333D0
:103EF000C0E905C3C361FFF787F8002808BF80BD8C
:103F0000BDE88040FCF766BC80B540F6545044F2F2
:103F10000041C2F20000C4F2000100234FF00C0C7B
:103F20004FF4E13280E80E00C0E90333C0E905C375
:103F3000C361FFF769F8002808BF80BDBDE8804075
:103F4000FCF748BC80B540F69C5044F60001C2F234
:103F50000000C4F2000100234FF00C0C4FF4407E2F
:103F60004FF4E13280E80E00C0E90333C0E905CE2A
:103F7000C361FFF749F8002808BF80BDBDE8804055
:103F8000FCF728BC80B540F6746041F20041C2F2F3
:103F90000000C4F2010100234FF00C0C4FF4E13299
:103FA00080E80E00C0E90333C0E905C3C361FFF731
:103FB0002BF8002808BF80BDBDE88040FCF70ABC94
:103FC000FEE70000FEE70000000000000000000027
:103FD000EFF30980BFF36F8F154B1A681EF0100FB7
:103FE00008BF20ED108A20E9F04F10602DE909008C
:103FF0004FF0500080F31188BFF34F8FBFF36F8FE6
:1040000003F018FA4FF0000080F31188BDE80900B2
:1040100019680868B0E8F04F1EF0100F08BFB0EC48
:10402000108A80F30988BFF36F8F704700BF00BF0D
:10403000200100200000000000000000000000003F
:10404000074B19680868B0E8F04F80F30988BFF3A0
:104050006F8F4FF0000080F31188704700BF00BFE2
:104060002001002080B54EF21000CEF20000006862
:1040700003F02AFF012808BF80BDBDE8804003F09F
:10408000FBBA0000B0B592B0002443F64000CDE981
:104090000A44CDE908440594CDE90344CDE901443F
:1040A0000094C4F202000168022541F080510160D1
:1040B000006800F080500090009847F200000094E3
:1040C000C4F20000016841F480410160006800F41E
:1040D000804000900098012006904FF480300790B7
:1040E0004FF480000D9004200E90A820CDE90F051C
:1040F0000720119006A80C95FDF7ACFD10B172B623
:10410000FEE700BF0F20CDE901054FF4A050049059
:104110004FF48050059001A805210394FDF76AFC37
:1041200010B172B6FEE700BF12B0B0BD4EF68850B7
:10413000CEF20000016841F4700101607047000098
:1041400040F67C40C2F20000FEF7A8BA40F6C44038
:10415000C2F20000FEF7A2BA10B540F6FF3E0368B7
:10416000C4F2000E40F2004C7045C4F2010C27DC92
:10417000B0F1804F31D040F20042C4F200029042D0
:104180002BD040F60002C4F20002904225D041F646
:10419000FF72C4F20002904229DC70453CDCB0F1B1
:1041A000804F5FD040F20042C4F20002904259D0EA
:1041B00040F60002C4F20002904253D056E000BF25
:1041C00040F60042C4F20002904206D0604504D09E
:1041D0000022C4F201029042D9D14A6823F0700350
:1041E000134341F6FF72C4F200029042D5DD43F65C
:1041F000FF72C4F20102904222DC42F20002C4F2D9
:10420000000290422ED00022C4F20102904229D036
:10421000604527D02AE000BF40F60042C4F2000209
:1042200090421FD041F60002C4F20002904219D021
:1042300041F60042C4F20002904213D016E000BFE3
:1042400044F20002C4F2010290420BD044F6000294
:10425000C4F20102904205D044F20042C4F20102CD
:10426000904203D1CA6823F44073134323F08002C1
:104270004B69D1F800E08C681A430260C46240F4D4
:104280008062C0F828E0624504BF0969016301212A
:1042900041610169C90708BF10BD016921F0010131
:1042A000016110BD40F6E450C2F20000FEF7F4BB1D
:1042B00040F62C60C2F20000FEF7EEBB806B0021DE
:1042C000C185C184FEF7E6BB806B01684A6990F83E
:1042D0004130212B2DD112F080022AD00021C1843F
:1042E000016851E8031F026821F0C00142E803138E
:1042F000DBB1016851E8031F026821F0C00142E808
:10430000031393B1016851E8031F026821F0C00153
:1043100042E803134BB1016851E8031F026821F022
:10432000C00142E80313002BDAD1202180F84110AC
:104330000168496990F84220222A40F07D8011F0FE
:10434000400179D00021C185016851E8031F02684E
:1043500021F4907142E80313BBB3016851E8031FD5
:10436000026821F4907142E8031373B3016851E8C5
:10437000031F026821F4907142E803132BB3016814
:1043800051E8031F026821F4907142E80313002BE7
:10439000DAD11AE0016851E8051F026821F0010135
:1043A00042E80513DBB1016851E8051F026821F0FE
:1043B000010142E8051393B1016851E8051F026845
:1043C00021F0010142E805134BB1016851E8051FD6
:1043D000026821F0010142E80513002BDAD1016BDC
:1043E000012924D1016851E8031F026821F010015E
:1043F00042E80313DBB1016851E8031F026821F0B2
:10440000100142E8031393B1016851E8031F0268E9
:1044100021F0100142E803134BB1016851E8031F7A
:10442000026821F0100142E80313002BDAD12021A9
:1044300080F8421000210163416C41F01001416499
:10444000FEF728BB0168806B0968C90548BFFFF704
:10445000D5B80021C18400BF016851E8051F02687A
:1044600021F0800142E8051383B3016851E8051F7C
:10447000026821F0800142E805133BB3016851E86E
:10448000051F026821F0800142E80513F3B10168BD
:1044900051E8051F026821F0800142E80513002B56
:1044A000DAD113E0016851E8031F026841F04001CE
:1044B00042E80313002B08BF7047016851E8031F4F
:1044C000026841F0400142E8031393B1016851E8EA
:1044D000031F026841F0400142E803134BB1016839
:1044E00051E8031F026841F0400142E80313002B2A
:1044F000D8D17047806BFFF783B8000081B090F887
:104500004210222921D183680246B3F5805F09D188
:1045100052F8281F52F8183C002B63D003685B68E0
:104520000AE000BF52F8281F13B90369002BF5D029
:1045300003685B6803F07F030B7011680131116041
:10454000C18D01390A04C18502D001B0704700BF96
:104550000168CA6822F02002CA60CA6822F4807228
:10456000CA604A6922F001024A61202180F84210A3
:1045700000214163026B012A3CD10163016851E8CB
:10458000031F026821F0100142E80313DBB1016848
:1045900051E8031F026821F0100142E8031393B1B0
:1045A000016851E8031F026821F0100142E803137B
:1045B0004BB1016851E8031F026821F0100142E885
:1045C0000313002BDAD101680A68D20606D500224F
:1045D00000920A680092496800910099818D01B0AB
:1045E000FEF756BA026852686FF35F2221F8022B79
:1045F0008162A5E701B0FEF76BBF000010B504466D
:104600000068D4E902C22369016921F440511143D1
:104610000161626943EA0C01E3691143C26819430D
:1046200049F20C639A431143C1604169A26921F4C4
:10463000407141F20043114340F48062C4F201032F
:104640009A42416102D1FDF7BBFA01E0FDF7A4FAFD
:10465000E16963681922B1F5004FA0FB020123D183
:104660005A00DB0FFBF718FE48F21F51C5F2EB11A1
:10467000A0FB01235A094FF69C73C0F6FF7303F1A8
:10468000805302FB0300322303EBC000A0FB0101B7
:104690004FF4F87000EA111000EB0210C1F3421160
:1046A00008442168886010BD9A009B0FFBF7F4FD59
:1046B00048F21F51C5F2EB11A0FB01235A094FF636
:1046C0009C73C0F6FF7302FB0300322303EB001060
:1046D000A0FB0101F02000EA511000EB0210C1F331
:1046E000431108442168886010BD000040F6545012
:1046F000C2F20000FEF7D0B940F69C50C2F20000B2
:10470000FEF7CAB940F67460C2F20000FEF7C4B901
:10471000FEE700002DE9F04140F22830C2F200002F
:10472000A0F16C044FF0000818264FF4A06700F5C4
:10473000876500BF44F86C8F04F114005021E660D7
:10474000FBF7A1FE04F16C00A842A766F2D1BDE818
:10475000F081000010B540F2D00441F2F010C2F236
:104760000004C2F200000421224600F02DFF41F2B5
:10477000D030C2F200000321224600F025FF41F2B2
:104780000010C2F200000121224600F01DFF41F29C
:10479000E020C2F200000221224600F015FF40F6A0
:1047A000BC60C2F2000000F037FC40F27420C2F29C
:1047B000000000F087FB043000F04AF940F28C70F2
:1047C00040F65452C2F20000C2F20002002100235F
:1047D000BDE8104000F0D6BA70B540F2FC15C2F248
:1047E00000052978044629B3002600BF05EB8600A2
:1047F000806901680968884700BA04EB4601000C2B
:10480000A1F84400287801368642EFD34FF40070B7
:10481000214641F8140F40F2D00001F1300201F1BD
:104820004003C2F20000FBF7F1FF012804BF0120A2
:1048300084F85C00287928B3002600BF05EB8600C9
:10484000806D01680968884700BA04EB4601000CD6
:10485000A1F84400287901368642EFD34FF4FF7067
:10486000214641F8140F40F2D00001F1300201F16D
:104870004003C2F20000FBF7C9FF012804BF01207A
:1048800084F85C00687828B3002600BF05EB86003A
:10489000806A01680968884700BA04EB4601000C89
:1048A000A1F84C00687801368642EFD34FF40070CF
:1048B000214641F82C0F40F2F80001F1200201F1ED
:1048C0002C03C2F20000FBF7A1FF00281CBF01204F
:1048D00084F85C00687918B3002600BF05EB8600F9
:1048E000806E016809688847697900BA0136000C52
:1048F0008E42A4F85200F1D34FF4FF70214641F8E4
:104900002C0F40F2F80001F1200201F12C03C2F259
:104910000000FBF77BFF00281CBF012084F85C002F
:104920000020C4E91100C4E9130070BD80B58AB04D
:104930000020CDE90500CDE90000CDE9020004909A
:104940000E200121099040F2D000CDE90711C2F2FA
:1049500000006946FBF7AEFF002818BFFBF73AFFDF
:1049600040F2D000C2F20000FCF7E8FB002818BFBC
:10497000FBF730FF40F2D000C2F200000221FBF74B
:104980002DFF002818BFFBF725FF40F2B800C2F248
:104990000000002104220823C0E90112C0E903132A
:1049A00001750AB080BD000080B58AB00E20059068
:1049B0000021099040F2F80006910122CDE9001192
:1049C000CDE902110491C2F200006946CDE9072247
:1049D000FBF770FF002818BFFBF7FCFE40F2F80061
:1049E000C2F20000FCF7AAFB002818BFFBF7F2FE9A
:1049F00040F2F800C2F200000221FBF7EFFE0028AF
:104A000018BFFBF7E7FE40F2B800C2F20000002139
:104A100004220823C0E90112C0E9031301750AB09A
:104A200080BD000080B5FFF781FFFFF7BDFF40F2BA
:104A3000D000C2F200000221FBF7D0FE40F2F800E5
:104A4000C2F200000221BDE88040FBF7C7BE0000B3
:104A500048F21072C0F600023021083201710021C4
:104A600002600822C0F80510C0F80910C0F80D1047
:104A70000161C0E91111C0E91311C0E9151180F8F5
:104A80005C10C0E90711426280F828104161C0E95A
:104A90000D11C26380F84010C1627047602101F0BF
:104AA000D6BA000070B5A4B001AD0446002005F1EF
:104AB00048068DF804008DF80700ADF80800304670
:104AC0004021FBF7E0FCD4F83801294600220023FE
:104AD00001F07AFB10B124B070BD00BF4FF6FC307E
:104AE0009DF80450A4F83C019DF8070084F83E01AD
:104AF00084F83F512DB104F5A07031462A46FBF7EA
:104B000088FC94F8850138B130462946FBF7CEFD84
:104B10009DF8045001E000BF00206119020A81F8ED
:104B200041214FF6FD62A1F8422181F8400194F83D
:104B3000A511ADF88C000029CDD1606804F59E71F7
:104B400005F10802FEF7FEFC24B070BD2DE9F0432C
:104B500081B0044690F88C01082800F20D81DFE84E
:104B600000F005111D2531454D556100FC2956D138
:104B7000012084F88C01FC2084F8210001B0BDE8FC
:104B8000F08300BFFB2940F0F780022084F88C01FD
:104B9000FB2084F8220001B0BDE8F08384F82310E4
:104BA000032084F88C0101B0BDE8F083002084F874
:104BB000201084F88401042084F88C0101B0BDE841
:104BC000F08300BF204610F8202F90F864315F1C5E
:104BD000FEB280F864711844964281711FD305209B
:104BE00084F88C0101B0BDE8F08300BF84F8A81000
:104BF000062084F88C0101B0BDE8F08384F8A91088
:104C0000072084F88C0101B0BDE8F083FD2940F055
:104C1000B380082084F88C01FD2084F8AA0001B03C
:104C2000BDE8F083FE2940F0A78094F8852194F830
:104C30002010FE20002A84F8AB0058D004F1260092
:104C4000FBF734FDB4F8A810A084884249D194F849
:104C5000201021B3042901F0030001D2002109E052
:104C600001F0FC0200216318D3F8267004318A4257
:104C70009F66F8D198B1631893F8263004F1680262
:104C8000012853540BD04B1CE71897F826700228C4
:104C9000D75404D0881C211891F826101154D4F848
:104CA000881101291ADB04F1680904F5C878002786
:104CB00003E000BF01378F4210DA58F827000028C0
:104CC000F8D0016894F8206094F823300D684946C4
:104CD0004A460096A847D4F88811EBE7002084F8EC
:104CE0008C0194F88501002846D194F8201029B34E
:104CF000042901F0030001D200210AE001F0FC02C6
:104D0000002100BF6318D3F8267004318A429F66E1
:104D1000F8D198B1631893F8263004F1680201289D
:104D200053540BD04B1CE71897F826700228D75421
:104D300004D0881C211891F826101154D4F8881139
:104D4000012919DB04F1680904F5C878002702E09D
:104D500001378F4210DA58F827000028F8D0016890
:104D600094F8206094F823300D6849464A4600962E
:104D7000A847D4F88811EBE7002084F88C0101B033
:104D8000BDE8F083F0B581B00C46114622461E46C0
:104D9000054600F0E1F83020287448F22470C0F68F
:104DA000000000F10801203000272960E86005F1CB
:104DB00068004021C5F81170C5F81570C5F8197064
:104DC000EF6185F8207085F82370AF84FBF75BFBFB
:104DD00005F1F400402185F8AC7085F8AF70A5F8B6
:104DE000B070FBF750FB85F8847185F88561C5F8D4
:104DF000887185F88C7185F8A471284685F8A541DD
:104E000001B0F0BD4FF4D47101F021B9704700003A
:104E100040F22831C2F200016C2200FB021000F1C6
:104E2000640400F1100500F1140602E0286801F0A6
:104E300089F920680128F9DB002703E020680137A1
:104E40008742F3DA56F827000028F7D0016809688E
:104E50008847F3E7092988BF70472DE9F0418AB0F8
:104E600040F22835C2F200056C2001FB00570C46C9
:104E70003E4656F8640F13281FDC07EB80004261A2
:104E80003868B8B90DF1040840462421FBF7FBFA55
:104E90006C2004FB00504246011D0191816EC068E8
:104EA000CDE9061044F61160C0F60000214601F07D
:104EB000D1F938603068013030600AB0BDE8F041A7
:104EC0007047000070B540F2283C46F274134FF072
:104ED000000EC2F2000CC6F673335F2100220024DC
:104EE0000CEB02056C3204F13006B2F5876F04F169
:104EF00001046B6029726E7285F80AE0F0D13021EE
:104F00000122CCE9031220210223CCE91E13052340
:104F1000CCE939131821CCE954130A23CCE96F13D7
:104F20001021CCE98A130F23CCE9A5130821CCE981
:104F3000C0131423CCE9DB13CCE9F62370BD0000C9
:104F40007047000001464068002808BF70470831DC
:104F50000122FEF793BA000048F25073C0F6000336
:104F60000833C0E9003142727AB940F28872C2F265
:104F7000000211680929C8BF70474B1C136040F23A
:104F80006072C2F2000242F82100704770470000D0
:104F9000D1F888214160042AC8BF704701EB820321
:104FA000C3F89001501CC1F8880170477047000099
:104FB00010B500F15C01044600F0B2F804F1940170
:104FC000204600F0ADF804F17801204600F0A8F882
:104FD000204600F0FFF894F83502012818BF10BDF4
:104FE00094F8340290B994ED150A94ED161A94EDE4
:104FF0008E2AD4F8300230EE410A20EE020A01680F
:1050000084ED900A4969BDE81040084710BD0000D2
:10501000C0F8301270470000B0B5302380F820325D
:1050200048F25C73C0F60003002103F10802C0E9F6
:10503000002103F1280249F69A130024C3F699735C
:10504000C4F20C3446F2666CC0F81C2200F50D72F6
:10505000C0E98E3400F11A0300F11B04C4F2660C9F
:10506000C0E91E34C0F8802000F11E0400F1900752
:10507000C0F89C2002224FF07F5EC0E9041C4FF074
:10508000010C032300F11F0532C7C0E9292100F1FB
:105090001C0200F15C04C0F82112C0F82512C0F80F
:1050A0002912C0F82C12C0E902EEC0F83012A0F8A4
:1050B00034C200F2352EC0F8401280F88430C0E9C6
:1050C00022C180F8A030C0F8AC1000F11D0384E8C4
:1050D0000C4080F868C0C0E91B114167B0BD0000FA
:1050E0004FF4117100F0B3BF70470000002100F1D0
:1050F000280280EC030AC0E90311C0E90511C0E9E8
:1051000007114162C2EC031A4163C0E90F1180ED3F
:105110000E3A704770470000482100F098BF000029
:1051200010B50C460968097811B16168097829B190
:10513000D4E900010078087010BD00BF216903297F
:10514000F6D8DFE801F00315233100BFA06800287E
:10515000EED00178227B01310132B1FBF2F303FB87
:1051600012110170D4E900010078087010BD00BF71
:10517000A0680028DCD00178227B91423CBF01313D
:105180000170D4E900010078087010BDA068002803
:10519000CED0017800291CBF01390170D4E900018B
:1051A0000078087010BD00BFD4E905C202F0010309
:1051B00053EA0C01BCD000EB620013B1016851F856
:1051C0000CC0E047D4E900010078087010BD000071
:1051D00070470000028F47F618118A4248F6B7015F
:1051E00010D900238A4243641AD900EE102A9FED99
:1051F0003F1AB8EE400A9FED3E2A20EE010A30EE3B
:10520000020A0BE000EE102A9FED371AB8EE400AB2
:1052100020EE010AB7EE001A30EE010A80ED110A05
:10522000428F47F618139A4210D900238A428364AA
:105230001AD900EE102A9FED2D1AB8EE400A9FED04
:105240002C2A20EE010A30EE020A0BE000EE102AB2
:105250009FED251AB8EE400A20EE010AB7EE001ABB
:1052600030EE010A80ED120A818F47F619128A1A70
:1052700092B240F69E739A4202D80021C1641BE0AC
:1052800000EE101A47F618129142B8EE400A09D8FB
:105290009FED151A20EE010AB7EE001A30EE010A52
:1052A00008E000BF9FED111A9FED112A20EE010AC0
:1052B00030EE020A80ED130AB0F842109FED0D1A8D
:1052C00000EE101AB0F84010B8EE400A02EE101AC4
:1052D000B8EE422A20EE010A22EE011A80ED151ADC
:1052E00080ED160A704700BFD54C07B84C5C09B872
:1052F00085B7923F0820803A70470000009A1C2A28
:1053000018BF70470A78002A18BF012202764A782F
:10531000002A18BF012282768A78002A18BF01224B
:105320000277CA78002A18BF012282770A79002AF8
:1053300018BF012280F820204A79002A18BF0122D4
:1053400080F822208A79002A18BF012280F82420C0
:10535000CA79002A18BF012280F826200A7A002A7A
:1053600018BF012280F828204A7A002A18BF01229B
:1053700080F82A208A7A002A18BF012280F82C207F
:10538000CA7A002A18BF012280F82E200A7B002A40
:1053900018BF012280F830204A7B002A18BF012262
:1053A00080F832208A7B002A18BF012280F834203E
:1053B000CA7B002A18BF012280F836200A8A12BA56
:1053C000120C02874A8A12BA120C42878A8A12BACF
:1053D000120C8287CA8A12BA120CC2870A8B12BABE
:1053E000120CA0F84020498B09BA090CA0F8421011
:1053F0007047000070B50C46098800F10C060546A0
:1054000049BA304600F078FD85ED030A608800BA9D
:10541000000C2882A088C1BA304600F091FD85EDCD
:10542000050A70BD10B52DED068B90ED3A0A90ED92
:105430003B1A9FED4EAA30EE019AB4EE4A9A04460A
:10544000F1EE10FA80ED399A0ADA9FED4A0AB4EECD
:10545000409AF1EE10FA09DA9FED450A02E000BF2A
:105460009FED410A39EE009A84ED399A94ED030AD2
:105470009FED3F8A30EE0A0AF0EE480A84ED0D9A5D
:1054800002F00CFF9FED3B1A30EE010AB4EE410A28
:10549000F1EE10FA08BFB0EE4A0A20EE091AB5EE96
:1054A000401AF1EE10FA84ED120A11DAB5EE400A54
:1054B000F1EE10FA10DDB5EE409AF1EE10FA0BDACB
:1054C00038EE401A31EE091A39EE400A16E000BFF4
:1054D00039EE400A1BE000BFB5EE400AF1EE10FACB
:1054E00017DAB5EE409AF1EE10FA12DD9FED1E2AA2
:1054F00039EE401A39EE022A32EE400AB0EEC12AE5
:10550000B0EEC03AB4EE432AF1EE10FA08DD84EDB5
:10551000140A94F82A00032808D2002017E000BFDC
:1055200084ED141A94F82A000328F6D311D194EDCF
:105530000F0A9FED111A94ED0B2A20EE010A80EE5E
:10554000020A04F10C0084ED130A00F0E7FCA4F851
:1055500044002068016A20468847B4F9440084ED7D
:10556000100ABDEC068B10BD0000B4C3000034432C
:105570000000B443000034C300007A4490ED050AF3
:105580009FED041A90ED0B2A20EE010A20EE020A8C
:10559000704700BF6F12833A032180ED0F0A80F835
:1055A0002A10704790ED120A70470000B0F9100001
:1055B00000EE100AB8EEC00A7047000080ED3B0A0A
:1055C0007047000070470000B0B52DED028B0B4610
:1055D0000421044600F078F89FED2B0A0C304FF4BC
:1055E000804141F6FF7200F0BDFC4FF480702085D1
:1055F00048F2B070C0F6000000F1080134309FEDB1
:10560000238A2160606203204BF22D2184F82A0056
:10561000C3F63D71002504F15400B0EE480AF0EEE7
:10562000480AB0EE481AF0EE481AB0EE482AF0EEFA
:10563000482AC4E912552565C4E90B15C4E90D557E
:10564000C4E90F55A4F8445000F022F8012084F872
:105650009C0004F1A000B0EE480AF0EE480AB0EE5B
:10566000481AF0EE481AB0EE482AF0EE482AB0EE9A
:10567000483AFFF73BFDC4E939552046C4F8EC50E1
:10568000BDEC028BB0BD00BF00803B4500000000B8
:10569000002180EC030AC0E90311C0E90511C0E94B
:1056A0000711C0E90911C0ED0B1A80ED0C2AC0E901
:1056B0000E1180F840104164C0ED0D2A70470000C3
:1056C00070470000002070472DE9F04F48F60407AE
:1056D000C0F600070837C0E9007240F2D007C2F2F6
:1056E0000007BA420172437208D040F2F807C2F2D2
:1056F0000007BA4200F00C82BDE8F08F0529FBD804
:10570000DFE801F00604043E78B000BFF4E700BF14
:1057100040F2FC1EC2F2000E9EF800C0BCF1030F66
:10572000EAD8BCF1000F00F0D580DEF81840647AAA
:105730009C4240F2DF804FF0000BDC4540F2698173
:10574000ACEB0B056FEA0B0715F0030607EB0C0833
:1057500000F03881ACF101050EF1180757F82590DB
:10576000012E47F82C9000F03B81ACF1020957F86C
:1057700029A0022E47F825A040F02C814D462FE1AC
:1057800040F2FC1EC2F2000E9EF806C0BCF1030FF0
:10579000B2D8BCF1000F00F0A18040F2D82AC2F2CA
:1057A000000ADAF80040647A9C4240F2A9804FF087
:1057B000000BDC4540F24C81ACEB0B066FEA0B05AD
:1057C00016F0030705EB0C0800F0FE80ACF10106B3
:1057D0005AF82650012F4AF82C5000F02581ACF1E0
:1057E00002095AF82950022F4AF8265040F0168133
:1057F0004E4619E140F2FC1EC2F2000E9EF804C0B3
:10580000BCF1030F3FF678AFBCF1000F6AD0DEF8B1
:105810005840647A9C4279D94FF0000BDC4540F245
:105820004081ACEB0B056FEA0B0715F0030607EBA5
:105830000C0800F0CB80ACF101050EF1580757F8C9
:105840002590012E47F82C9000F01281ACF102094E
:1058500057F829A0022E47F825A040F003814D46B5
:1058600006E100BF40F2FC1EC2F2000E9EF802C02C
:10587000BCF1030F3FF640AFBCF1000F36D0DEF8AD
:105880003840647A9C4247D94FF0000BDC4540F227
:105890002E81ACEB0B056FEA0B0715F0030607EB47
:1058A0000C0800F09580ACF101050EF1380757F8AF
:1058B0002590012E47F82C9000F00081ACF10209F0
:1058C00057F829A0022E47F825A040F0F1804D4658
:1058D000F4E000BF4FF0000B9BE000BF4FF0000B67
:1058E000B6E000BF4FF0000BDBE000BF4FF0000B55
:1058F000FDE000BFBCF1010F14D1E34689E000BF19
:10590000BCF1010F16D1E346A2E000BFBCF1010FCC
:1059100018D1E346C5E000BFBCF1010F1AD1E34640
:10592000E5E000BFDEF81C40647A9C421AD94FF0D3
:10593000010B02E7DAF80440647A9C421ED94FF06A
:10594000010B36E7DEF85C40647A9C4222D94FF0C6
:10595000010B63E7DEF83C40647A9C4226D94FF0A5
:10596000010B93E7BCF1020FC7D0DEF82040647A48
:105970009C42C2D94FF0020BDFE600BFBCF1020F20
:10598000C1D0DAF80840647A9C42BCD94FF0020BCF
:105990000FE700BFBCF1020FBBD0DEF86040647AB5
:1059A0009C42B6D94FF0020B38E700BFBCF1020FA2
:1059B000B5D0DEF84040647A9C42B0D94FF0020B7B
:1059C00064E700BF65460BE066462DE065464FE0A4
:1059D000654673E0ACF1030557F8256047F8296088
:1059E000B8F1030F15D3182606EB85060EEB8507D5
:1059F0007C690EEB06084EF80640D7E90394043D97
:105A0000C7E9049458F8104C5D45A6F11006FC60F7
:105A1000ECDC0EEB8B0418346EE000BFACF1030637
:105A20005AF826504AF82950B8F1030F10D30AEB60
:105A30008605083DD5E90047043EC5E9014755E91B
:105A400002745E452C6045F8047CA5F11005F1DC7C
:105A500040F2D825C2F2000505EB8B040EF1060ECC
:105A60004AE000BFACF1030557F8256047F829600C
:105A7000B8F1030F15D3582606EB85060EEB850704
:105A80007C6D0EEB06084EF80640D7E91394043DF2
:105A9000C7E9149458F8104C5D45A6F11006FC6453
:105AA000ECDC0EEB8B0458340EF1040E24E000BF46
:105AB000ACF1030557F8256047F82960B8F1030FEA
:105AC00015D3382606EB85060EEB85077C6B0EEBAF
:105AD00006084EF80640D7E90B94043DC7E90C943C
