:020000040800F2
:1000000038630020590200088D40000801370008BD
:1000100089400008D506000895450008000000004A
:100020000000000000000000000000000141000886
:10003000E907000800000000914000082541000881
:1000400073020008730200087302000873020008BC
:1000500073020008730200087302000873020008AC
:10006000730200087302000873020008730200089C
:10007000730200087302000873020008730200088C
:10008000D107000873020008730200087302000819
:10009000D90600087302000873020008ED07000883
:1000A000730200087302000873020008730200085C
:1000B000730200087302000873020008730200084C
:1000C000730200087302000873020008730200083C
:1000D00073020008730200087D4500088945000886
:1000E000730200087302000873020008730200081C
:1000F000730200081142000873020008730200082E
:100100007302000873020008054200087302000829
:100110006943000875430008730200087302000871
:1001200073020008DD07000873020008730200086C
:1001300073020008730200087302000873020008CB
:10014000E506000873020008730200087302000845
:1001500073020008730200087302000873020008AB
:10016000730200087302000873020008730200089B
:100170007302000873020008730200080000000008
:10018000730200087302000800F002F800F054F84F
:1001900014A696E8000CB244B344DA4501D100F04D
:1001A0004BF8BAE80F000FA696E83000A5EB04055F
:1001B00004EB0607AAEB0704A7F101074FEA1515A0
:1001C0004FEA3414A4F10104AC4201D300F034F836
:1001D00013F0010F18BFFB1A43F0010300F001F800
:1001E000DBE71847988B0000B88B0000103A24BF5B
:1001F00078C878C1FAD8520724BF30C830C144BF8C
:1002000004680C6070470000704700000023002461
:1002100000250026103A28BF78C1FBD8520728BF16
:1002200030C148BF0B6070471FB508F071FB00F08C
:1002300045F91FBD10B510BD00F0D8F91146FFF704
:10024000F3FF06F063F800F0F6F903B4FFF7F2FFEE
:1002500003BC00F0C1F90000094880470948004785
:10026000FEE7FEE7FEE7FEE7FEE7FEE7FEE7FEE766
:10027000FEE7FEE704480549054A064B70470000C3
:10028000F141000889010008385D00203863002032
:10029000385F0020385F002053EA020C00F06980CC
:1002A0002DE9F04B4FF00006002B1FBFB3FA83F58A
:1002B00003FA05F424FA05F65E4012BF1643B2FABB
:1002C00082F502FA05F4C5F120051EBF22FA05FCED
:1002D00044EA0C04203556EA044C4FEA144418BF93
:1002E000641C4FF000084FF00009904271EB030CC2
:1002F00039D3002919BFB1FA81F701FA07F6B0FA2C
:1003000080F700FA07F6C7F120071EBF20FA07FCA6
:1003100046EA0C062037B6FBF4FCA7EB0507103FB6
:1003200007F01F0BCBF120062CFA06F60CFA0BFB9C
:1003300044BFB3460026202FA4BF5E464FF0000BFB
:100340005BEA060C08BF4FF0010B19EB0B0948EBF9
:100350000608ABFB027C06FB02CC0BFB03CCC01BEC
:1003600071EB0C01C1E70B46024641464846BDE829
:10037000F08B13B5084318BF4FF0FF300146AFF3C1
:100380000080BDE81C407047032A40F2308010F026
:10039000030C00F0158011F8013BBCF1020F624420
:1003A00098BF11F801CB00F8013B38BF11F8013BB1
:1003B000A2F1040298BF00F801CB38BF00F8013B5E
:1003C00011F0030300F0C280083AC0F0088051F831
:1003D000043B083A51F804CBA0E80810F5E7121DD9
:1003E0005CBF51F8043B40F8043BAFF30080D207F8
:1003F00024BF11F8013B11F801CB48BF11F8012BC4
:1004000024BF00F8013B00F801CB48BF00F8012BE6
:10041000704702F0FF0343EA032242EA024200F07F
:1004200024B84FF000020429C0F0128010F0030C31
:1004300000F01B80CCF1040CBCF1020F18BF00F8D7
:10044000012BA8BF20F8022BA1EB0C0100F00DB886
:100450005FEAC17C24BF00F8012B00F8012B48BFE4
:1004600000F8012B70474FF0000200B51346944688
:100470009646203922BFA0E80C50A0E80C50B1F1FC
:100480002001BFF4F7AF090728BFA0E80C5048BF10
:100490000CC05DF804EB890028BF40F8042B08BFAE
:1004A000704748BF20F8022B11F0804F18BF00F8AA
:1004B000012B7047704770477047000008487CB5B3
:1004C0007844009007487844009C0546019004E079
:1004D0002046016808448047241DAC42F8D17CBD09
:1004E000D8880000DA88000070B50446051F00F0C7
:1004F0005FF80068002C14BF446870BD002C18BF62
:10050000AC423CBF20466468F8D301680A18AA428E
:1005100018BF456003D12A68054611440160286868
:100520004119A1421CBF6C6070BD6168696021689F
:100530000844286070BD10B500F03EF8006810BD9A
:1005400010B5044600F038F8046010BD10B5203A2C
:10055000C0F00B80B1E81850A0E81850B1E818506E
:10056000A0E81850203ABFF4F5AF5FEA027C24BF40
:10057000B1E81850A0E8185044BF18C918C0BDE829
:1005800010405FEA827C24BF51F8043B40F8043BF2
:1005900008BF7047D20728BF31F8023B48BF11F8A7
:1005A000012B28BF20F8023B48BF00F8012B704701
:1005B00000487047300000200048704728000020A5
:1005C00010B5002000F040F8FFF734FEBDE8104001
:1005D000012000F001B8000001491820ABBEFEE781
:1005E0002600020000487047280000207546FFF7EB
:1005F000F9FFAE4605006946534620F007008546E0
:1006000018B020B5FFF736FEBDE820404FF00006D9
:100610004FF000074FF000084FF0000BAC46ACE87D
:10062000C009ACE8C009ACE8C009ACE8C00921F0D9
:1006300007018D46704710B50446AFF30080204691
:10064000BDE81040FFF701BE10B500F00BF8BDE8A3
:10065000104000F001B87047002801D0FFF7BCBF80
:100660007047000010B5002102A000F013F801202F
:1006700010BD0000534947414252543A2041626E36
:100680006F726D616C207465726D696E6174696FF3
:100690006E00000070B505460C460A2000E06D1C97
:1006A00000F011F835B128780028F8D102E0641C78
:1006B00000F009F814B120780028F8D1BDE87040A6
:1006C0000A20AFF3008008B569468DF800000320CA
:1006D000ABBE08BDFEE7000040F2A000C2F2000081
:1006E00000F000BA40F2C800C2F2000000F0FAB90F
:1006F00091B1F0B548F6582201F0030C0429C0F678
:1007000000020DD24FF0000E0021BCF1000F3AD1D3
:10071000BDE8F04088B27047002188B2704700BF42
:1007200001F0FC01C1F1000E431C00216FF0030435
:100730001D19EE788FB286EA172632F816602F79E7
:1007400086EA012189B287EA112132F811106F7906
:1007500081EA0626B6B287EA162632F81660AD7927
:1007600086EA012189B285EA112132F81110043498
:100770000EEB0405043581EA0621D9D104F1040EFB
:10078000BCF1000FC4D010F80E408BB284EA1323E2
:1007900032F81340BCF1010F84EA0121B8D0704453
:1007A000437889B283EA112132F81130BCF1020F8B
:1007B00083EA0421ACD0807889B280EA112032F833
:1007C000100080EA0321BDE8F04088B270470000C5
:1007D00040F6CC10C2F2000000F05ABD40F62C20CA
:1007E000C2F2000000F054BD70470000402000F04D
:1007F000E3BE000072B600BFFEE7000090F82020C4
:10080000013A012A08D8006800F114020020136898
:1008100019431160704700BF00F1240201204FF41A
:1008200080211368194311607047000010B590F8DB
:1008300020E0D0F800C0AEF1010EBEF1010FDCF8EF
:1008400008E011D81EF0E05F18D0CEF3016E012051
:1008500000FA0EF018608B68D3B14868CC6844EA9F
:10086000C000034318E000BF00F1240101204FF451
:1008700080220B681A430A6010BD00BF00F12401FA
:1008800001204FF400120B681A430A6010BD00BF2C
:100890000868CB6843EA40530CEB0E10C0F8803177
:1008A0000B69C0F88431097D012905D100F5C271B9
:1008B0000B6843F480730B605168C0F88C111268A8
:1008C00000F5C071C0F88821002001220B681A438E
:1008D0000A6010BD90F82020013A012A30D8B0B546
:1008E00046F20060C4F20000026842F001020260B9
:1008F000026822F47C520260D1F814E0CC694A6AA2
:100900000368012C43EA022202600EF01F024FF03E
:10091000010303FA02F2C3696FEA020C23EA02033D
:10092000C36113D02CBBC36803EA0C03C360CB685C
:100930008C8844EA034300EBCE0423640B4611E0A9
:10094000416A41F48021416201207047C36813432A
:10095000C3600B688C8844EA034300EBCE04236435
:1009600001F10C038C681B8843EA044300EBCE04BE
:10097000636443688D6943EA0204D1F810E0096AB0
:10098000002D08BF03EA0C0444604369BEF1000F68
:1009900043EA020408BF03EA0C040129446102D1BE
:1009A000C1691143C161016821F0010101600020AA
:1009B000B0BD00007047000010B590F82040013C29
:1009C000012C7BD8D0F800C000290CBFDCF80C400B
:1009D000DCF81040A4077BD00CEB011CDCF8B04124
:1009E0000CF5D87E14F004049460DCF8B04119BF13
:1009F000E4085460640D1460DEF800400CF5DA7E03
:100A000004F00204D460DCF8B44124075ABFDEF8D5
:100A1000004004F00F0408241461DEF800400029AF
:100A2000C4F307249461DEF800404FEA1444546193
:100A3000DCF8B8211A70026802EB0112D2F8B82172
:100A40004FEA12225A70026802EB0112D2F8B82162
:100A50004FEA12429A70026802EB0112D2F8B821F2
:100A60004FEA1262DA70026802EB0112D2F8BC217E
:100A70001A71026802EB0112D2F8BC214FEA12226D
:100A80005A71026802EB0112D2F8BC214FEA1242FD
:100A90009A71026802EB0112D2F8BC214FEA12628D
:100AA000DA7100680CBF00F10C0100F110010020A8
:100AB00020220B681A430A6010BD00BF00F1240118
:100AC00001204FF480220B681A430A6010BD00BF5A
:100AD00000F1240101204FF400120B681A430A6050
:100AE00010BD00002DE9F04F81B004460068466952
:100AF000D0F804908768D0F80CB0D0F810A0D0F8E7
:100B00001880F10704D1002530071DD424E000BF70
:100B1000F90710D00121BA07816009D4780700F1E4
:100B2000AF80380700F1B680204600F047FB02E0B6
:100B3000204600F045FB0025F80500F18780F8030A
:100B400000F1B180300707D51BF0100004D02068F9
:100B500045F400751021C160700708D51BF008002E
:100B600005D020680821C160204600F001FAB007D6
:100B700006D52068C068800702D0204600F0FAF948
:100B8000700607D51AF0100004D0206845F480657F
:100B900010210161B00608D51AF0080005D02068C0
:100BA00008210161204600F0D5FAF00606D520683C
:100BB0000069800702D0204600F0CEFAB00308D5C5
:100BC00019F0100005D0206810214160204600F087
:100BD000C5FAF00308D519F0080005D020680821EF
:100BE0004160204600F0F6FA300440F19B805FEA55
:100BF000497040F1948006F4807008EA1020284380
:100C00005FEA8871014648BF41F00201B20558BF52
:100C100001465FEA48700D4648BF45F0040570057F
:100C200058BF0D46300540F17A8018F0700000F092
:100C300076801038000905286CD8DFE800F00359E9
:100C40005D61656945F0080564E000BF20684FF408
:100C50008071BA0581600BD4780515D438051DD490
:100C6000204600F0AFFAF8037FF56CAF1BE000BF41
:100C7000204600F0A9FAF8037FF564AF13E000BF47
:100C80004FF4006558E700BF05F50055F8037FF500
:100C900059AF08E04FF480554EE700BF05F5804599
:100CA000F8037FF54FAF20684FF48031BA038160BD
:100CB0000AD4780310D4380314D4204600F086FAFE
:100CC00030073FF541AF47E7204600F081FA300793
:100CD0003FF53AAF40E700BF05F5004530073FF567
:100CE00033AF39E705F5803530073FF52DAF33E7F2
:100CF00045F010050EE000BF45F020050AE000BFFA
:100D000045F0400506E000BF45F0800502E000BF69
:100D100045F480752068816921F070018161206847
:100D20000421416055B1606A40EA050120466162D4
:100D300001B0BDE8F04FFFF73DBE00BF01B0BDE818
:100D4000F08F0000002804BF01207047B0B50446B2
:100D500090F8200010B9204600F06EF82068016875
:100D600041F00101016000F009FD0546206841687D
:100D7000C90705D100F002FD401B0B28F6D310E097
:100D8000016821F00201016000F0F8FC054600BF97
:100D90002068416889070DD500F0F0FC401B0B2846
:100DA000F6D3606A052140F400306062012084F8C7
:100DB0002010B0BD217E0268012922F0800208BF08
:100DC00080320260617E0268012922F0400208BF81
:100DD00040320260A17E0268012922F0200208BF91
:100DE00020320260E17E0268012922F0100218BF61
:100DF00010320260217F0268012922F0080208BF38
:100E000008320260617F0268012922F0040208BFF3
:100E100004320260D4E901C2D4E9033561691A439E
:100E20002A431143ACF101021143C16100200121A9
:100E3000606284F82010B0BD10B586B0006846F638
:100E40000002C4F2000200219042CDE90411CDE974
:100E50000211019140D046F20041C4F200018842E3
:100E600040F0848040F2EC31C2F200010A6843F69F
:100E70004000C4F20200531C0B6052B900210091E3
:100E8000016841F000710160016801F0007100919A
:100E900000990021009150F8102C42F0010240F816
:100EA000102C50F8100C00F00100009000984FF446
:100EB000C05001900220CDE90201032004900920D6
:100EC00005900020C4F2020001A900F081FB14206B
:100ED00007210022142444E043F64000C4F202003B
:100EE0000091016841F080610160016801F080615A
:100EF0000091009940F2EC31C2F200010A68531CE3
:100F00000B6052B900210091016841F0007101604D
:100F1000016801F00071009100990021009150F8E2
:100F2000102C42F0020240F8102C50F8100C00F087
:100F30000200009000984FF4405001900220CDE94B
:100F4000020103200490092005900020C4F2020051
:100F500000F5806001A900F03BFB40200821002241
:100F6000402400F0CDFC204600F0B8FC06B010BDD7
:100F700070470000B0B588B040F2A001C2F2000195
:100F8000884207D040F2C801C2F20001884229D04D
:100F900008B0B0BD40F2CC15C2F2000505F108045E
:100FA00040F2A000C2F2000001AA00212346FFF790
:100FB00003FD039800283DD00299A1F51060082890
:100FC00046D84FF0FF3050FA81F00328E0D8DFE830
:100FD00000F003656B7100BF40F2D420C2F2000044
:100FE0000068AEE040F2CC15C2F2000505F1100435
:100FF00040F2C800C2F2000001AA00212346FFF718
:10100000DBFC039800282FD00299A1F51060082876
:1010100038D84FF0FF3050FA81F00328B8D8DFE815
:1010200000F003555B6100BF40F2D420C2F2000023
:10103000006986E00198A0F201200728A8D8DFE81F
:1010400000F00557595B5D5F616300BFA86978E0F8
:10105000C1F3032003283FF69BAFDFE800F0033124
:10106000333500BFA86B56E00198A0F20120072895
:101070003FF68EAFDFE800F004585A5C5E606462B1
:10108000A86A5EE0C1F3032003283FF681AFDFE8E2
:1010900000F0033D3F4100BFA86C3CE040F2D4208B
:1010A000C2F2000040684CE040F2D420C2F20000DE
:1010B000806846E040F2D420C2F20000C06840E000
:1010C000E86B28E0286C26E0686C24E040F2D4202D
:1010D000C2F20000406934E040F2D420C2F20000C5
:1010E00080692EE040F2D420C2F20000C06928E0FE
:1010F000E86926E0286A24E0686A22E0A86D20E01A
:10110000E86D1EE0286E1CE0686E1AE0E86C02E0F4
:10111000286D00E0686D00283FF43AAF02689368DC
:101120002246984708B0B0BDE86A0AE0286B08E09C
:10113000686B06E0A86E04E0E86E02E0686F00E00D
:10114000286F00283FF424AF01684A682146904781
:1011500008B0B0BD70470000704700007047000045
:10116000B0B5044690F8200001281DD1022084F873
:1011700020002068016821F00101016000F0FEFA02
:10118000054600BF20684068C00713D000F0F6FA9B
:10119000401B0B28F6D3606A40F4003060620520E3
:1011A00084F820000120B0BD606A40F40020606235
:1011B0000120B0BD00206062B0BD0000704700009B
:1011C0007047000070470000704700007047000043
:1011D000704700007047000070B5866D044600F04F
:1011E000CDFA94F83510022928D105462068216CE3
:1011F000026822F016020260426922F08002426117
:1012000009B9A16C19B1016821F0080101600168F8
:1012100021F00101016000BF20680068C00715D0FF
:1012200000F0ACFA401B0628F6D3202060650320AE
:1012300084F83500002184F8341070BD802060658A
:101240000120002184F8341070BD00BFE06D3F2103
:1012500001FA00F0B060012084F835000020002180
:1012600084F8341070BD000090F83510022909D1BF
:10127000052180F835100068016821F00101016046
:10128000002070478021416501207047406D704704
:10129000F0B581B004460020009040F20800C2F290
:1012A00000000268D4E9166048F2B51337680821D7
:1012B000C1F64E3381403942A2FB03250CD022688F
:1012C00013685B0708D5136823F004031360B1604B
:1012D000616D41F00101616501218140394208D011
:1012E00022685269120604D5B160616D41F00201B5
:1012F000616504218140394208D022681268920752
:1013000004D5B160616D41F0040161651021814037
:10131000394217D020680268120713D5B1600268FD
:101320000168520308D4C90508D4016821F00801F6
:101330000160216C21B905E008033FD4216C09B19B
:1013400020468847E16D202000FA01F23A4241D060
:1013500020680368DB063DD5B26094F8353002683A
:10136000052B1BD122F016020260426922F0800296
:101370004261226C0AB9A26C1AB1026822F008021A
:1013800002603F208840B060012084F83500216D64
:101390000020002984F8340052D157E0016852033C
:1013A00010D4C90512D4016821F010010160012098
:1013B00084F83500002084F8340007E0A16C00298F
:1013C000BED1BFE7080301D4616C00E0E16B09B155
:1013D00020468847606DC8B3606DC0072ED00520D9
:1013E00084F835002068A90A026822F00102026030
:1013F000009A01328A4200921AD80268D20717D0A6
:10140000009A01328A42009212D80268D2070FD0A5
:10141000009A01328A4200920AD80268D20707D0A5
:10142000009A01328A42009202D80268D207DFD1C4
:10143000012084F83500002084F83400E16C29B1E3
:10144000204601B0BDE8F040084700BF01B0F0BD44
:101450002DE9F041044600F091F9ECB10546022077
:1014600084F835000020216884F83400086820F0F2
:101470000100086021680868C00711D000F07EF9FB
:10148000401B0528F6D9032520230320636584F833
:101490003550BDE8F08100BF0120BDE8F08100BFFC
:1014A000086848F23F02CFF21002D4E9013500EAA1
:1014B000020C04F10C0898E8C10143EA0C032B4329
:1014C0001843D4E9072E304338431043626A40EA98
:1014D0000E00042A40EA08031CD1206BD4E90A2E2E
:1014E00040EA0E00184308604869BEF1000F20F082
:1014F000030040EA020040F0040C11D0B8F5005F90
:1015000036D0B8F1000F45D1022A46D0012A3BD08F
:1015100032B942E00B60486920F0070040EA020C53
:1015200001F0F8004AF6AB221038CAF6AA22A0FB56
:1015300002231A0948F66C53C1F814C0C0F6000320
:101540009A5C40F2FF335F284FF03F0021EA03012D
:1015500000FA02F088BF0431C4E916128860002343
:1015600001250020636584F83550BDE8F08100BF97
:10157000032AD5D8012540230120DFE802F0030E1D
:10158000030500BF82E700BFAEF1C070B0FA80F083
:10159000400904E0032A04D3C2D1CEF3006000283E
:1015A000BED0012540230120636584F83550BDE895
:1015B000F08100007047000043F61441C4F20101BD
:1015C0000A68024214BF08607047FFF7F3BF0000CB
:1015D0002DE9F04F82B000F13E4707F1FF77860515
:1015E00046EA972741F60046C4F20206082243F66F
:1015F000004EB04208BF0722C4F2010E072F38BFC9
:101600003A46002600274FF00008009209E000BF8C
:1016100008F101080237B8F1100F06F1040600F0D6
:10162000A3800D68012202FA08F415EA0409EFD03C
:10163000D1F804B003220BF0030CACF10105BA4061
:10164000012D6FEA020A0FD88268CD6802EA0A0209
:10165000BD402A4382604268A243CBF3001404FADF
:1016600008F42243426005E0BCF1030F02D14FF0C1
:10167000030C1EE0C2688C6802EA0A02BC402243E6
:10168000BCF1020FC26014D16FF0030202EA5802EB
:101690000244D2F820C006F01C040F230D69A340B9
:1016A0002CEA0303A5402B431362D1F804B00BF0DE
:1016B000030C02680CFA07F302EA0A021A431BF44D
:1016C000403F0260A4D0002243F644030192C4F2DA
:1016D00002031A684FF6084C42F480421A601A68F6
:1016E000CFF6FF7C02F480420192019A28F00302B7
:1016F000724452F80C3006F00C050F24AC40A343A2
:10170000009C04FA05F52B4342F80C30DEF8082063
:101710004B6842EA090543F60C4CDC0258BF22EA4A
:101720000905CEF80850C4F2010CDCF800209C0238
:1017300042EA090558BF22EA0905CCF80050DEF854
:1017400004209C0342EA090558BF22EA0905CEF8A5
:101750000450DEF80020DB0342EA090558BF22EA04
:101760000905CEF8005053E702B0BDE8F08F000045
:10177000002A08BF090481617047000045F23C60FF
:10178000C2F200000068704740F2000045F23C6180
:10179000C2F20000C2F2000100780A68104408603A
:1017A0007047000080B543F60040C4F202000168B3
:1017B00041F400710160016841F4806101600168D9
:1017C00041F480710160032000F0C6F80F2000F0A2
:1017D00005F800F061F8002080BD000070B586B00B
:1017E000002543F640010195C4F202010A6804464F
:1017F00042F008020A60096801A801F0080101919D
:101800000199694600F06AF9049E002E18BF01266E
:1018100000F084F94DF68361B040C4F21B31A0FBA7
:1018200001014FF0FF3000EB914140F6F43040F6FB
:101830000042C2F20000C4F2000240F2E733C0E905
:101840000021C0E902530561856100F0FFFB0546F8
:1018500010B1284606B070BD40F6F430C2F2000068
:1018600000F068FC05460028F3D1322000F036F87D
:101870000F2C0DD8322021460022002500F040F820
:1018800040F20400C2F200000460284606B070BDB9
:101890000125284606B070BD82B0002043F6400105
:1018A0000190C4F202014A6842F480424A604A68E8
:1018B00002F480420192019A00900868002240F0F0
:1018C0008050086008680F2100F080500090009858
:1018D0006FF0010002B000F013B80000002848BF0C
:1018E000704700F01F01012202FA01F11C2202EAF6
:1018F000D0004EF20012CEF200028150704700007C
:1019000010B54EF60C5CCEF2000CDCF80030C3F3E0
:10191000022E8EF00704042C28BF0424BEF103031A
:101920004FF0FF3E0EFA04F438BF0023A143994064
:101930000EFA03F39A43114300F00F0200F16043E3
:101940000901043A03F564436244002848BF02F1E8
:101950000C03197010BD00004EF60C51CEF20001C0
:101960000A684FF6FF031A4060F30A2242F08060D3
:1019700040F0FD7008607047002804BF01207047E8
:101980002DE9F04143F60808C4F202080446D8F8ED
:10199000F8030D4600F00700884207D288F8F85394
:1019A000D8F8F80300F00700A84277D12068810733
:1019B00017D5410705D5D8F8001041F4E051C8F813
:1019C0000010010705D5D8F8001041F46041C8F8AF
:1019D0000010D8F80010A26821F0F0011143C8F8F7
:1019E0000010C00740D1D8F8F80300F00700A84263
:1019F00007D988F8F853D8F8F80300F00700A84290
:101A00004CD12068410707D5D8F80010E26821F4CE
:101A1000E0511143C8F80010000708D5D8F80000BD
:101A2000216920F4604040EAC100C8F8000000F0DD
:101A30009DF8D8F8001048F64022C1F30311C0F613
:101A40000002515C40F2080220FA01F140F2040069
:101A5000C2F200000068C2F200021160FFF7BEFE91
:101A60000020BDE8F08100BF6068811E022907D216
:101A700058F8081C89015CBF0120BDE8F08111E025
:101A8000012807D158F8081C89035CBF0120BDE874
:101A9000F08107E058F8081C890703D40120BDE84D
:101AA000F08100BFD8F8001021F003010843C8F806
:101AB0000000FFF763FE064641F28837D8F80000C1
:101AC000616800F00C00B0EB810F8CD0FFF756FE80
:101AD000801BB842F2D90320BDE8F0810F220260DA
:101AE00043F60802C4F20202136803F003034360E2
:101AF000136803F0F0038360136803F4E053C360DA
:101B0000D2F800C04FF4E05303EADC030361D2F8DB
:101B1000F80300F0070008607047000040F208007A
:101B200043F60801C2F20000C4F20201006809682D
:101B300048F65022C1F38221C0F60002515CC84031
:101B40007047000040F2080043F60801C2F20000AE
:101B5000C4F202010068096848F65022C1F342311C
:101B6000C0F60002515CC8407047000010B543F653
:101B70000404C4F20204606800F00C0142F2004068
:101B80000829C0F2F40007D0042918BF10BD41F2A3
:101B90000020C0F27A0010BD216801F03F022168E8
:101BA00023684902C3F3881106D4A1FB0001002376
:101BB000FEF772FB07E000BF41F20020C0F27A009E
:101BC0004843B0FBF2F021680222C1F3014102EB6D
:101BD0004101B0FBF1F010BD002804BF01207047A7
:101BE0002DE9F04182B00446007843F60006C007B4
:101BF000C4F202060CD0B06800F00C00042840F0DB
:101C000081803068800303D56068002800F06A8115
:101C1000207880071BD5B06810F00C0F09D0B06891
:101C200000F00C00082840F087807068400200F146
:101C300083803068800703D5E068012840F0528136
:101C40003068216920F0F80040EAC1003060207857
:101C5000000713D4207840072AD4A569002D00F08E
:101C60003C81B06800F00C00082840F0A180012DF4
:101C700040F01081012002B0BDE8F08160690028C9
:101C800040F20000C4F2472000F07E800121C0F83D
:101C9000801EFFF773FD0546706F8007DAD4FFF7EB
:101CA0006DFD401B0228F7D9032002B0BDE8F0818A
:101CB000306C5FEAC0080AD400200190306C40F01C
:101CC00080503064306C00F080500190019847F2F1
:101CD0000007C4F200073868C00547D4386840F4EC
:101CE00080703860FFF74AFD054600BF3868C005C0
:101CF0003CD4FFF743FD401B0228F7D9032002B074
:101D0000BDE8F081B06800F00C00082803D17068CD
:101D100040023FF576AF6068B0F5803F07D0B0F580
:101D2000A02F40F09B80306840F480203060306805
:101D300040F4803030609BE0E06800285CD00020F8
:101D4000C4F2472001210160FFF718FD054600BFDE
:101D5000306880073FF574AFFFF710FD401B022885
:101D6000F6D9032002B0BDE8F08100BFA0680128C9
:101D700005D0052854D1306F40F004003067306F33
:101D800040F00100306755E00021C0F8801EFFF7E9
:101D9000F5FC0546706F80077FF55CAFFFF7EEFC42
:101DA000401B0228F6D9032002B0BDE8F08100BF35
:101DB0000027C4F2472700203866FFF7DFFC022D1A
:101DC00005460DD13068800140F19080FFF7D6FCC8
:101DD000401B02284FF00300F4D902B0BDE8F081A7
:101DE0003068800179D5FFF7C9FC401B02284FF00D
:101DF0000300F5D9F1E700BF0020C4F2472000211D
:101E00000160FFF7BBFC0546306880077FF51FAF18
:101E1000FFF7B4FC401B02284FF00300F4D9DCE7C5
:101E2000316F002821F001013167316F21F0040189
:101E300031677DD0FFF7A2FC054641F2883700BF2D
:101E4000306F800700F18680FFF798FC401BB84296
:101E5000F6D9032002B0BDE8F08100BF3168002848
:101E600021F480313160316821F4802131607BD0F0
:101E7000FFF784FC054600BF306880033FF5C8AE1D
:101E8000FFF77CFC401B6428F6D9032002B0BDE8B4
:101E9000F08100BF7068E16900F480028A4221D1BC
:101EA000216A00F03F028A421CD147F6C071626A83
:101EB0000140B1EB821F15D1A16A4FF6FF73C90330
:101EC000994300F44032A1F580318A420AD1E16A97
:101ED00000F07060B0EB016F04D1002002B0BDE8EB
:101EE000F08100BF012002B0BDE8F08104F11C05C3
:101EF0002FCD084340EA8210D9034FF6FF72914379
:101F0000A1F5803140EA0560084370600120386621
:101F1000FFF734FC044600BF30688001DDD4FFF7D2
:101F20002DFC001B02284FF00300F5D955E700BF38
:101F3000FFF724FC054641F2883700BF306F800769
:101F400008D5FFF71BFC401BB8424FF00300F5D942
:101F500043E700BFB8F1000F3FF57FAE306C20F0D3
:101F60008050306479E600BFFFF708FC054600BFEB
:101F7000306880037FF54CAEFFF700FC401B6428FF
:101F80004FF00300F4D928E77047000070470000C5
:101F900090F83C20012A4FF0020254D010B580F88E
:101FA0003D200268D2F804E0D2F808C00C682EF098
:101FB0007003234341F2FF74C4F20004A242536051
:101FC0000EDC40F2FF73C4F200039A4216DCB2F159
:101FD000804F2BD040F20043C4F2000324E000BF46
:101FE00040F2FF33C4F201039A4213DC41F60003CE
:101FF000C4F200039A4219D0002313E040F6000314
:10200000C4F200039A4211D040F60043C4F2000328
:102010000AE000BF44F20003C4F201039A4205D073
:1020200040F20043C4F201039A4204D149682CF003
:102030008003194391600121002280F83D1080F84F
:102040003C20BDE81040104670470000002804BF47
:102050000120704710B5044690F83D0028B90020D3
:1020600084F83C00204600F01FF8022084F83D0070
:102070002068211D02F0D2F8012084F8460084F87F
:102080003E0084F83F0084F8400084F8410084F862
:10209000420084F8430084F8440084F8450084F842
:1020A0003D00002010BD000083B0006844F2000134
:1020B000C4F20101884219D041F60001C4F20001C6
:1020C000884225D0B0F1804F31D10020029043F6F4
:1020D0004000C4F20200016841F0010101600068A3
:1020E00000F001000290029803B0704700200190B8
:1020F00043F64000C4F20200416841F4803141607F
:10210000406800F480300190019803B0704700BF30
:102110000020009043F64000C4F20200016841F044
:1021200040010160006800F040000090009803B09A
:102130007047000090F83D1001291CBF0120704736
:10214000022180F83D10006841F2FF72C168C4F2BC
:102150000002904241F00101C1600DDC40F2FF71CC
:10216000C4F20001884215DCB0F1804F2AD040F261
:102170000041C4F2000123E040F2FF31C4F201014A
:10218000884213DC41F60001C4F20001884219D0F4
:10219000002113E040F60001C4F20001884211D092
:1021A00040F60041C4F200010AE000BF44F2000121
:1021B000C4F20101884205D040F20041C4F201019D
:1021C000884206D1816801F00701062904BF00207A
:1021D0007047016841F00101016000207047000074
:1021E00090F83C20012A4FF0020200F0C58080B533
:1021F00080F83D20D0F800C04FF67772DCF8083048
:1022000023EA0202CCF808200B684F2B28DC1F2B96
:1022100044DD202B45D0302B43D0402B40F0AE8006
:10222000D1F804E0C968DCF82030DCF8202022F086
:102230000102CCF82020DCF8182022F0F00242EA5B
:10224000011123F00A0242EA0E02CCF81810CCF871
:102250002020DCF8081041F0470121F0300180E037
:102260006F2B27DDB3F5005F48D0B3F5805F7AD0E0
:10227000702B40F08380D1E901E3C968DCF80820C5
:1022800043EA0E0322F47F4243EA01211143CCF8D2
:102290000810DCF8081041F0770162E00BB1102B58
:1022A0006CD1DCF8081021F07001194341F00701EE
:1022B00057E000BF502B35D0602B5FD1D1F804E040
:1022C000C968DCF82030DCF8202022F01002CCF8BD
:1022D0002020DCF8182022F4704242EA013123F079
:1022E000A00242EA0E12CCF81810CCF82020DCF83C
:1022F000081041F0670121F0100132E0D1E901E35B
:10230000C968DCF8082043EA0E0322F47F4243EA5E
:1023100001211143CCF80810DCF8081041F4804189
:102320001FE000BFD1F804E0C968DCF82030DCF819
:10233000202022F00102CCF82020DCF8182022F026
:10234000F00242EA011123F00A0242EA0E02CCF83E
:102350001810CCF82020DCF8081041F0570121F0CB
:102360002001CCF808100022012180F83D10002146
:1023700080F83C10BDE88040104670470122F3E72A
:10238000002804BF012070472DE9F047044690F86B
:102390003D000D4628B9002084F83C00204600F09E
:1023A00049F8022084F83D00206844F20702816861
:1023B00091438160211D01F031FF20684FF6FF78C5
:1023C00081688269D0F820C0D5E9003ED5E9026A6B
:1023D00043EA0109AB6922EA080246EA03234FF601
:1023E000FC46B343D5E9076742EA0A0229691A4362
:1023F00042EA062242EA01112CF0AA026B6942EA83
:102400000E0241EA073142EA0312C0F808908161E6
:102410000262012084F8460084F83E0084F83F0000
:1024200084F8420084F8430084F83D000020BDE8B1
:10243000F0870000F0B587B000684FF6FF71C4F276
:10244000000188424FF000010691CDE90411CDE969
:1024500002114FDC40F20041C4F20001884200F05A
:10246000818040F60001C4F20001884240F0D38030
:10247000002543F630000195C4F2020001690027EF
:1024800041F0040101610169C4F2020701F0040195
:10249000019101990195016802AC41F008010160C8
:1024A0000168022601F00801019101990195016876
:1024B00041F0020101600068214600F00200019035
:1024C00001984FF40050029007F54060CDE9036594
:1024D000CDE90556FFF77CF84020CDE90206CDE9AD
:1024E0000455069607F580602146FFF771F807B09E
:1024F000F0BD00BF40F20041C4F20101884259D052
:102500000021C4F20101884240F08580002043F69A
:1025100030010190C4F202014A6942F001024A61AD
:102520004A6902F001020192019A01900A6842F0A0
:1025300010020A60096801F01001019101994FF43D
:10254000206102910221CDE903100590012006903F
:102550000020C4F2020000F5805002A9FFF738F80D
:1025600007B0F0BD002043F630010190C4F2020133
:102570000A6942F002020A610A6902F0020201924B
:10258000019A01900A6842F001020A60096801F0AC
:10259000010101910199C02102910221CDE90310AD
:1025A000CDE905010020C4F2020002A9FFF710F8EE
:1025B00007B0F0BD002043F630010190C4F20201E3
:1025C0004A6942F002024A614A6902F0020201923B
:1025D000019A01900A6842F004020A60096801F059
:1025E000040101910199C02102910221CDE903105A
:1025F0000590032006900020C4F2020000F5006060
:1026000002A9FEF7E5FF2D2005210022FFF778F94A
:102610002D20FFF763F907B0F0BD00007047000000
:1026200070B504460068C5680669B10716D515F08F
:10263000020113D06FF0020101610121217780694D
:10264000800703D02046FFF7E9FF05E0204600F0B1
:102650008FF8204600F0D0F900202077700719D5B8
:1026600015F0040016D020686FF00401016102210A
:102670002177806910F4407F04D02046FFF7CEFF19
:1026800006E000BF204600F073F8204600F0B4F9E1
:1026900000202077300717D515F0080014D02068E7
:1026A0006FF00801016104212177C069800703D020
:1026B0002046FFF7B3FF05E0204600F059F820461A
:1026C00000F09AF900202077F00619D515F01000D7
:1026D00016D020686FF01001016108212177C069D0
:1026E00010F4407F04D02046FFF798FF06E000BFBB
:1026F000204600F03DF8204600F07EF900202077CB
:10270000F00718BF15F0010002D1300609D412E01D
:1027100020686FF001010161204600F06FF930067A
:1027200009D515F0800006D020686FF080010161A6
:102730002046FFF729FC700609D515F0400006D0A9
:1027400020686FF040010161204600F061F9B00699
:1027500058BF70BD15F0200008D021686FF020022E
:1027600020460A61BDE87040FFF710BC70BD000054
:102770007047000090F83C30012B04BF02207047E6
:102780004FEAB202032A00F201812DE9F043DFE8AB
:1027900002F0033F7FBF00BF036840F200461C6A9F
:1027A0001A6A24F0020422F001021A621A46D3F8CF
:1027B00004C052F818EF8F6843F48065C4F2010634
:1027C000B54244EA070405D1CF6824F00C0427F091
:1027D00004073C430F68B54206D1D1E905582CF4F3
:1027E00040762E4346EA080C2EF073063743C3F8B2
:1027F00004C09F614F6809695F631C629F6947F06D
:1028000008079F619F6927F004079F61B2E000BF3E
:10281000036840F200481C6A1A6A24F0200422F07F
:1028200010021A621A46D3F804C052F818EF8F68E3
:1028300043F48065C4F20108454544EA071407D112
:10284000CF686FF0400624F0C00406EA0716344350
:10285000D1F80090454506D1D1E905562CF44067E2
:102860002E4347EA860C2EF4E64747EA0927C3F8C9
:1028700004C09F614F6809699F631C629F6947F4A8
:1028800000679F619F6927F480679F6171E000BFC7
:10289000036840F200481C6A1A6A24F4007422F4A7
:1028A00080721A621A46D3F804C052F81CEF8F687F
:1028B00043F48065C4F20108454544EA072408D181
:1028C000CF6840F2FF463F0224F4406427EA060640
:1028D0003443D1F80090454506D1D1E905562CF492
:1028E00040572E4347EA061C2EF0730747EA0907B4
:1028F000C3F804C0DF614F680969DF631C62DF69E8
:1029000047F00807DF61DF6927F00407DF6131E086
:10291000036840F20045D3F820C01A6A43F4806788
:1029200022F480521A621A465C6852F81CEFD1F801
:1029300000808E68C4F20105AF4204D14D6924F4D1
:10294000804444EA85142CF4005747EA06372EF4F5
:10295000E64646EA08265C60DE614E6809691E6448
:102960001F62DF6947F40067DF61DF6927F4806772
:10297000DF6109021368194311600021BDE8F043CB
:10298000002280F83C200846704700BF0121002249
:1029900080F83C2008467047002804BF012070479B
:1029A00010B5044690F83D0028B9002084F83C009A
:1029B000204600F01FF8022084F83D002068211D09
:1029C00001F02CFC012084F8460084F83E0084F8D5
:1029D0003F0084F8400084F8410084F8420084F805
:1029E000430084F8440084F8450084F83D0000204A
:1029F00010BD00007047000070470000006840F6FE
:102A00000041C4F20001884218BF7047FEF7BCBE07
:102A1000704700007047000010B50446206850E879
:102A2000030F216820F4907041E80302BAB32068D4
:102A300050E8030F216820F4907041E8030272B35C
:102A4000206850E8030F216820F4907041E80302E9
:102A50002AB3206850E8030F216820F4907041E801
:102A60000302002ADAD11AE0206850E8050F216835
:102A700020F0010041E80502DAB1206850E8050FB6
:102A8000216820F0010041E8050292B1206850E879
:102A9000050F216820F0010041E805024AB12068D5
:102AA00050E8050F216820F0010041E80502002AE6
:102AB000DAD1206B012824D1206850E8030F216867
:102AC00020F0100041E80302DAB1206850E8030F5B
:102AD000216820F0100041E8030292B1206850E81C
:102AE000030F216820F0100041E803024AB120687A
:102AF00050E8030F216820F0100041E80302002A8B
:102B0000DAD120684069400636D500BF206850E819
:102B1000050F216820F0400041E80502DAB1206885
:102B200050E8050F216820F0400041E8050292B10D
:102B3000206850E8050F216820F0400041E80502B8
:102B40004AB1206850E8050F216820F0400041E8B4
:102B50000502002ADAD1E06B70B100210165FEF7B1
:102B60003BFB48B1E06BFEF791FB202804D110201D
:102B70006064032010BD00BF00202021E08584F8A0
:102B80004210206310BD000040F6EC51C2F200017B
:102B9000884218BF704780B540F6EC50C2F2000082
:102BA000FFF73AFF40F62C20C2F2000000680168EF
:102BB00021F008010160BDE880407047B0B582B0E7
:102BC000044600680168C368426901F02F05202DA2
:102BD00003F0200506D12DB1204602B0BDE8B0407B
:102BE00001F0D4BB5FEA017C1EBF02F0010E03F4CA
:102BF000907212EB0E0243D1226BCD0618D5012A3A
:102C000016D113F0100213D0002101910168019137
:102C1000416801910199406940063BD4A08DE18D46
:102C2000E28D002A18BF884240F0F28102B0B0BDA8
:102C30000A0640F1E78013F0800200F0E38094F888
:102C400041102129F2D1A168B1F5805F03D121693A
:102C5000002900F06382216A4A1C226209784160DF
:102C6000E18C01390A04E184E0D1C16821F08001DE
:102C7000C160C16841F04001C16002B0B0BD00BF99
:102C8000CA0718BF13F4807240F0D0804A0700F1E1
:102C9000D380D8E0E06B016849688AB2002AC5D0C9
:102CA000A38D9A42C2D2E185C069B0F5807F00F061
:102CB0009D80206850E8030F216820F4807041E86F
:102CC0000302DAB1206850E8030F216820F4807015
:102CD00041E8030292B1206850E8030F216820F414
:102CE000807041E803024AB1206850E8030F216870
:102CF00020F4807041E80302002ADAD1206850E80D
:102D0000050F216820F0010041E80502BAB32068F0
:102D100050E8050F216820F0010041E8050272B378
:102D2000206850E8050F216820F0010041E8050205
:102D30002AB3206850E8050F216820F0010041E81F
:102D40000502002ADAD11AE0206850E8050F216850
:102D500020F0400041E80502DAB1206850E8050F94
:102D6000216820F0400041E8050292B1206850E857
:102D7000050F216820F0400041E805024AB12068B3
:102D800050E8050F216820F0400041E80502002AC4
:102D9000DAD1202084F8420000202063206850E827
:102DA000030F216820F0100041E80302DAB1206827
:102DB00050E8030F216820F0100041E8030292B1AF
:102DC000206850E8030F216820F0100041E803025A
:102DD0004AB1206850E8030F216820F0100041E854
:102DE0000302002ADAD1E06BFEF7F6F902206063F5
:102DF000A08DE18D401A81B2204602B0BDE8B040FE
:102E0000FFF708BE49067FF511AF13F040013FF40C
:102E10000DAFC16821F04001C1602021204684F837
:102E2000411002B0BDE8B04000F068BC626C42F0F6
:102E3000010262644A0706D5BEF1000F03D0626C3E
:102E400042F0020262648A0706D5BEF1000F03D089
:102E5000626C42F004026264BCF1000F06D55EEAC7
:102E6000050203D0626C42F008026264626C002AC0
:102E70003FF4DCAE890604D51DB1204601F086FA88
:102E800020684069616C00F0400001F008014018C2
:102E900000F0B680206850E8030F216820F490709D
:102EA00041E80302BAB3206850E8030F216820F418
:102EB000907041E8030272B3206850E8030F216864
:102EC00020F4907041E803022AB3206850E8030F11
:102ED000216820F4907041E80302002ADAD11AE058
:102EE000206850E8050F216820F0010041E8050244
:102EF000DAB1206850E8050F216820F0010041E8B0
:102F0000050292B1206850E8050F216820F0010009
:102F100041E805024AB1206850E8050F216820F019
:102F2000010041E80502002ADAD1206B012824D1F2
:102F3000206850E8030F216820F0100041E80302E8
:102F4000DAB1206850E8030F216820F0100041E852
:102F5000030292B1206850E8030F216820F01000AE
:102F600041E803024AB1206850E8030F216820F0CD
:102F7000100041E80302002ADAD1202084F8420040
:102F80000020206320684069400640F1C18020682D
:102F900050E8050F216820F0400041E80502DAB151
:102FA000206850E8050F216820F0400041E8050244
:102FB00092B1206850E8050F216820F0400041E8F8
:102FC00005024AB1206850E8050F216820F0400052
:102FD00041E80502002ADAD1E06B002800F0988071
:102FE00044F28131C0F600010165FEF73DF9002889
:102FF0003FF41CAEE06B016D02B0BDE8B040084785
:103000002046FFF7C1FD0020606402B0B0BD00BFE4
:10301000401A00BF216851E8031F226821F4907113
:1030200042E80313BBB3216851E8031F226821F46F
:10303000907142E8031373B3216851E8031F2268BB
:1030400021F4907142E803132BB3216851E8031F68
:10305000226821F4907142E80313002BDAD11AE0C0
:10306000216851E8051F226821F0010142E805139B
:10307000DBB1216851E8051F226821F0010142E817
:10308000051393B1216851E8051F226821F0010161
:1030900042E805134BB1216851E8051F226821F071
:1030A000010142E80513002BDAD1202184F84210F7
:1030B00000212163216851E8031F226821F01001DB
:1030C00042E80313DBB1216851E8031F226821F0B5
:1030D000100142E8031393B1216851E8031F2268ED
:1030E00021F0100142E803134BB1216851E8031F9E
:1030F000226821F0100142E80313002BDAD10222EA
:1031000081B22046626302B0BDE8B040FFF782BCE6
:10311000204602B0BDE8B040FFF736BD216A31F865
:10312000022B6FF35F224260216299E5002804BF01
:103130000120704710B5044690F8410028B90020DE
:1031400084F84000204600F021F8242084F8410053
:103150002068C16821F40051C160204601F096F951
:103160002068016921F490410161416921F02A013F
:103170004161C16841F40051C160002020216064B8
:1031800084F8411084F84210606310BD2DE9F043CB
:1031900087B00446006844F6FF31C4F2000188425B
:1031A0004FF000010691CDE90411CDE902114BDD8C
:1031B00041F20041C4F20101884200F0A38045F2CF
:1031C0000001C4F20001884200F0EC8044F60041A6
:1031D000C4F20001884240F0E180002043F6300153
:1031E0000190C4F202010A6942F400220A610A69EC
:1031F00002F400220192019A01900A6842F004024E
:103200000A60096801F00401019101994FF44061DD
:1032100002910221CDE903100320059008200690B9
:1032200040F60040C4F20200A0F5806002A9FEF75B
:10323000CFF9342006210022FEF762FB3420FEF78E
:103240004DFB07B0BDE8F08344F20041C4F2000139
:10325000884200F0F78044F60001C4F20001884281
:1032600040F09C80002643F630000196C4F2020034
:10327000016940F6004441F4802101610169C4F212
:10328000020401F48021019101990196016802ADC7
:1032900041F00201016001684FF0020801F00201F3
:1032A00001910199019601684FF0030941F008016D
:1032B00001600068072700F00800019001984FF4B2
:1032C00040600290A4F500602946CDE90386CDF860
:1032D00014900697FEF77CF94FF4C050CDE9020830
:1032E00020462946CDE904690697FEF771F92720A3
:1032F00003210022FEF704FB2720FEF7EFFA07B0B8
:10330000BDE8F083002643F630000196C4F20200C7
:10331000416941F020014161416901F020010191C1
:1033200001990196016841F040010160006802A91D
:1033300000F04000019001984FF484400290022078
:10334000CDE90306032005900820069040F60040D2
:10335000C4F2020000F54060FEF73AF946F2880038
:10336000C4F2020040F62C2500F56870C2F2000598
:103370004FF020614FF4806285E843002846C5E99C
:103380000362C5E90566C5E907666E62FEF760F887
:10339000002818BFFDF72EFAE563AC6307B0BDE85F
:1033A000F08300BF002643F630000196C4F202000D
:1033B000016940F6004441F4801101610169C4F2E1
:1033C000020401F48011019101990196016802AD96
:1033D00041F00401016001684FF0020801F00401AE
:1033E00001910199019601684FF0030941F008012C
:1033F00001600068082700F00800019001984FF470
:1034000080500290A4F580602946CDE90386CDF86E
:1034100014900697FEF7DCF80420CDE90208204658
:103420002946CDE904690697FEF7D2F83520052133
:103430000022FEF765FA3520FEF750FA07B0BDE826
:10344000F08300BF002643F630000196C4F202006C
:10345000016941F400310161016901F40031019118
:1034600001990196016841F008010160006802A914
:1034700000F0080001900198602002900220CDE940
:103480000306032005900720069040F60040C4F292
:103490000200FEF79DF840F6CC1546F28800C2F215
:1034A0000005C4F202004FF000614FF4806285E82D
:1034B00043002846C5E90362C5E90566C5E9076614
:1034C0006E62FDF7C5FF002818BFFDF793F92620AF
:1034D00005210022E563AC63FEF712FA2620FEF711
:1034E000FDF907B0BDE8F08390F84230202B07D1FA
:1034F00000294FF0010318BF002A05D11846704774
:1035000002231846704700BF002303638162222113
:103510008285C285436480F842100169006819B150
:10352000C16841F48071C160416941F001014161AC
:10353000C16841F02001C16018467047F0B581B004
:1035400040F24425C2F200052968012918DB04462F
:10355000002602E001368E4212DA05EB8607786813
:103560004268A242F6D10268017A126890477868F0
:10357000012200F108012046FFF7B6FF2968E9E7BC
:1035800001B0F0BD2DE9F041044690F8410020283B
:103590001CBF0220BDE8F0810D4600294FF001005C
:1035A00000F0AA801646002A08BFBDE8F08100207E
:1035B00060642120984684F84100FEF7DFF8A68475
:1035C000E684A1680646B1F5805F02D12069002833
:1035D00062D02F460025E08C002861D018F1010050
:1035E00018D0B8F1000F37D1216808E017F8010BA7
:1035F0004860E08C0138E084E08C002851D00868F5
:10360000000673D5002FF1D135F8020B00276FF3B8
:103610005F20EDE7216802E00868000609D4086829
:10362000000606D4086800065CBF08685FEA006010
:10363000F2D51FB117F8010B05E000BF35F8020BFA
:1036400000276FF35F204860E08C0138E084E08C55
:103650000028E4D125E000BF216800BF086800060B
:1036600008D4FEF78BF8801B404541D82168C86814
:10367000F4E700BF17B117F8010B04E035F8020BAF
:1036800000276FF35F204860E08C0138E084E08C15
:103690000028E3D105E000BF0027E08C00289DD181
:1036A0002168086840061FD4B8F1000F1ED018F139
:1036B00001000FD10868400616D40868400613D4EC
:1036C0000868400610D4086840064FF00000F1D5A5
:1036D0000FE000BFFEF752F8801B404508D8206875
:1036E000C16800684006F5D5002002E0FEF746F804
:1036F0000320202184F84110BDE8F08170470000CC
:10370000FEE7000080B540F2880046F20041C2F2B8
:103710000000C4F2000140F8181F03210022C0E994
:10372000011200F10C014FF400234FF4401C4FF044
:10373000012E81E80C508283FDF704FB002808BFAE
:1037400080BDBDE88040FDF755B8000080B540F26F
:10375000880046F60001C2F20000C4F2000140F801
:10376000401F03210022C0E9011200F10C014FF4B7
:1037700000234FF4401C81E80C104FF4807101834A
:10378000C0F81A20FDF7DEFA002808BF80BDBDE8AA
:103790008040FDF72FB8000080B582B0002043F6CE
:1037A00030010190C4F202010A6842F400120A607A
:1037B0000A6802F400120192019A0090086800223F
:1037C00040F4800008600868072100F48000009041
:1037D00000981020FEF794F81020FEF77FF83920AB
:1037E00005210022FEF78CF8392002B0BDE88040A8
:1037F000FEF774B82DE9F04387B0002743F6300098
:1038000006970197C4F20200016841F2004541F0B9
:10381000100101600168C4F2020501F0100101917C
:10382000019901970168002241F0040101600168DB
:103830001E2601F00401019101990197016841F0F0
:1038400020010160016801F02001019101990197B7
:10385000016841F080010160016801F0800101917F
:1038600001990197016841F001010160016801F0CF
:103870000101019101990197016841F00201016084
:10388000016801F00201019101990197016841F07D
:1038900008010160016801F0080101910199019797
:1038A000016841F04001016000681E2100F0400005
:1038B000019001982846FDF75BFFA5F5406420467E
:1038C0000F2100224FF00F08FDF752FF029602AEC3
:1038D0004FF0010928463146CDE903970597FDF7DA
:1038E00077FE402002904FF48810CDE90307284668
:1038F0003146FDF76DFE20463146CDE90289CDE91E
:103900000477FDF765FE172000210022FDF7F8FF80
:103910001720FDF7E3FF07B0BDE8F083B0B592B024
:1039200041F6000540F6D420C4F200050021C2F2A1
:1039300000004FF6FF720B91CDE909110791CDE917
:103940000511CDE90311CDE90111C0E90051C0E92C
:10395000021201618161FEF779FB002818BFFCF7B4
:1039600049FF4FF48050089040F6D420C2F2000086
:1039700008A9FEF735FC002818BFFCF73BFF40F60E
:10398000D420C2F20000FFF707F8002818BFFCF7A8
:1039900031FF602001900020CDE90200059040F643
:1039A000D420C2F2000001A90022FEF7E3FE0028A5
:1039B00018BFFCF71FFF40F6D424C2F2000401A98F
:1039C00020460422FEF7D6FE002818BFFCF712FF9F
:1039D000206844F20002C4F20102002190420D91DD
:1039E0001AD0A8422CD0B0F1804F47D100200C90C3
:1039F00043F63000C4F20200016841F001010160A9
:103A00000068012100F001000C900C980F200D902F
:103A100005F5F43029E000BF43F630000C91C4F204
:103A20000200016841F0100101600068032100F00C
:103A300010000C900C9860200D9005F5FC3014E0FF
:103A400000200C9043F63000C4F20200016841F0FF
:103A5000020101600068092100F002000C900C983E
:103A60004FF440400D9005F5F63002220E920022F0
:103A700011910DA9CDE90F22FDF7AAFD12B0B0BD3D
:103A800010B58CB040F68C2000210024C2F200005A
:103A9000C4F20101C0E900140321CDE9031401219E
:103AA0004FF6FF72CDE90514CDE9091403A9CDE95C
:103AB0000044C0E90242C0E904448461CDE90744FE
:103AC0000B94FEF75DFC002818BFFCF793FE40F650
:103AD0008C20C2F200006946CDE90044FEF758FA96
:103AE000002818BFFCF786FE0CB010BD10B594B0CE
:103AF00040F61C300021C2F200004FF08042072344
:103B000040F2E7340D91CDE90B110991CDE9071190
:103B1000CDE90511CDE90311CDE90111C0E900237B
:103B2000C0E9021401618161FEF790FA002818BF14
:103B3000FCF760FE4FF480500A9040F61C30C2F251
:103B400000000AA9FEF74CFB002818BFFCF752FE44
:103B500040F61C30C2F20000FEF71EFF002818BF1E
:103B6000FCF748FE40F61C300024C2F2000008A911
:103B7000CDE90844FEF70CFA002818BFFCF73AFE1E
:103B80006020CDE9010440F61C30C2F2000001A91A
:103B9000002203940594FEF7EDFD002818BFFCF702
:103BA00029FE40F61C30C2F2000001A90422FEF7F3
:103BB000E1FD002818BFFCF71DFE40F61C30C2F2E4
:103BC000000001A90822FEF7D5FD002818BFFCF768
:103BD00011FE40F61C34C2F2000401A920460C225A
:103BE000FEF7C8FD002818BFFCF704FE206844F269
:103BF0000002C4F20102002190420F911ED041F652
:103C00000001C4F20001884230D0B0F1804F4ED1A3
:103C100000200E9043F63000C4F20200016841F02B
:103C2000010101600068012100F001000E900E9872
:103C30000F200F900020C4F202002FE043F6300066
:103C40000E91C4F20200016841F0100101600068A9
:103C5000032100F010000E900E9860200F900020BD
:103C6000C4F2020000F5805018E000BF00200E9062
:103C700043F63000C4F20200016841F00201016025
:103C80000068092100F002000E900E984FF44040A9
:103C90000F900020C4F2020000F580600222109212
:103CA000002213910FA9CDE91122FDF791FC14B068
:103CB00010BD000080B58CB040F6643040F2004288
:103CC0000021C2F20000C4F20002C0E90021032278
:103CD0004FF6FF73CDE903210122CDE90011C0E9C0
:103CE000021301618161CDE90521CDE90711CDE91B
:103CF00009210B9103A9FEF743FB002818BFFCF72D
:103D000079FD40F66430C2F200006946FEF740F9E2
:103D1000002818BFFCF76EFD0CB080BD80B58CB0DC
:103D200040F6AC3040F600020021C2F20000C4F2BE
:103D30000002C0E9002103224FF6FF73CDE9032101
:103D40000122CDE90011C0E9021301618161CDE9D1
:103D50000521CDE90711CDE909210B9103A9FEF752
:103D60000FFB002818BFFCF745FD40F6AC30C2F24F
:103D700000006946FEF70CF9002818BFFCF73AFD71
:103D80000CB080BD10B58CB040F63C4040F2004114
:103D90000024C2F20000C4F20101C0E900140321B2
:103DA000CDE9031401214FF6FF72CDE90514CDE9E9
:103DB000091403A9CDE90044C0E90242C0E9044462
:103DC0008461CDE907440B94FEF7DAFA002818BFA6
:103DD000FCF710FD40F63C40C2F200006946CDE918
:103DE0000044FEF7D5F8002818BFFCF703FD0CB01F
:103DF00010BD0000B0B592B044F2000540F684401A
:103E0000C4F201050021C2F200004FF6FF720B91CF
:103E1000CDE909110791CDE90511CDE90311CDE9EE
:103E20000111C0E90051C0E9021201618161FEF790
:103E30000DF9002818BFFCF7DDFC4FF48050089006
:103E400040F68440C2F2000008A9FEF7C9F9002834
:103E500018BFFCF7CFFC40F68440C2F20000FEF72A
:103E60009BFD002818BFFCF7C5FC602001900020D6
:103E7000CDE90200059040F68440C2F2000001A99D
:103E80000022FEF777FC002818BFFCF7B3FC40F6D1
:103E90008444C2F2000401A920460422FEF76AFC11
:103EA000002818BFFCF7A6FC20680021A8420D914D
:103EB0001ED041F60001C4F2000188422CD0B0F1BE
:103EC000804F47D100200C9043F63000C4F202002E
:103ED000016841F0010101600068012100F001006A
:103EE0000C900C980F200D9005F5404029E000BF84
:103EF00043F630000C91C4F20200016841F0100159
:103F000001600068032100F010000C900C98602004
:103F10000D9005F5504014E000200C9043F6300061
:103F2000C4F20200016841F0020101600068092149
:103F300000F002000C900C984FF440400D9005F5F5
:103F4000444002220E92002211910DA9CDE90F22C8
:103F5000FDF73EFB12B0B0BD80B540F65C5044F6B4
:103F60000041C2F20000C4F2000100234FF00C0C2B
:103F70004FF4E13280E80E00C0E90333C0E905C325
:103F8000C361FFF7D3F8002808BF80BDBDE88040BB
:103F9000FCF730BC80B540F6A45045F20001C2F2F7
:103FA0000000C4F2000100234FF00C0C4FF4E1328A
:103FB00080E80E00C0E90333C0E905C3C361FFF721
:103FC000B5F8002808BF80BDBDE88040FCF712BCF2
:103FD00080B540F6CC4044F20041C2F20000C4F289
:103FE000000100234FF00C0C4FF4E13280E80E008A
:103FF000C0E90333C0E905C3C361FFF797F80028A0
:1040000008BF80BDBDE88040FCF7F4BB80B540F63A
:10401000145044F60001C2F20000C4F20001002373
:104020004FF00C0C4FF4407E4FF4E13280E80E006C
:10403000C0E90333C0E905CEC361FFF777F8002874
:1040400008BF80BDBDE88040FCF7D4BB80B540F61A
:10405000EC5041F20041C2F20000C4F20101002321
:104060004FF00C0C4FF4E13280E80E00C0E903334E
:10407000C0E905C3C361FFF759F8002808BF80BD38
:10408000BDE88040FCF7B6BBFEE70000FEE700009D
:10409000EFF30980BFF36F8F154B1A681EF0100FF6
:1040A00008BF20ED108A20E9F04F10602DE90900CB
:1040B0004FF0500080F31188BFF34F8FBFF36F8F25
:1040C00003F07CFA4FF0000080F31188BDE809008E
:1040D00019680868B0E8F04F1EF0100F08BFB0EC88
:1040E000108A80F30988BFF36F8F704700BF00BF4D
:1040F000F0000020000000000000000000000000B0
:10410000074B19680868B0E8F04F80F30988BFF3DF
:104110006F8F4FF0000080F31188704700BF00BF21
:10412000F000002080B54EF21000CEF200000068D2
:1041300003F024FF012808BF80BDBDE8804003F0E4
:104140005FBB0000B0B592B0002443F64000CDE95B
:104150000A44CDE908440594CDE90344CDE901447E
:104160000094C4F202000168022541F08051016010
:10417000006800F080500090009847F20000009422
:10418000C4F20000016841F480410160006800F45D
:10419000804000900098012006904FF480300790F6
:1041A0004FF480000D9008200E904FF4A870CDE9D8
:1041B0000F050420119006A80C95FDF70DFD18B110
:1041C00072B600BFFEE700BF0F20CDE901054FF436
:1041D000A05004904FF48050059001A8052103944D
:1041E000FDF7CAFB10B172B6FEE700BF12B0B0BD5A
:1041F0004EF68850CEF20000016841F47001016073
:104200007047000040F6F430C2F20000FEF708BA32
:1042100040F63C40C2F20000FEF702BA10B540F68C
:10422000FF3E0368C4F2000E40F2004C7045C4F239
:10423000010C27DCB0F1804F31D040F20042C4F2D3
:10424000000290422BD040F60002C4F200029042DD
:1042500025D041F6FF72C4F20002904229DC70457D
:104260003CDCB0F1804F5FD040F20042C4F200026B
:10427000904259D040F60002C4F20002904253D05E
:1042800056E000BF40F60042C4F20002904206D061
:10429000604504D00022C4F201029042D9D14A689C
:1042A00023F07003134341F6FF72C4F20002904200
:1042B000D5DD43F6FF72C4F20102904222DC42F2E5
:1042C0000002C4F2000290422ED00022C4F2010289
:1042D000904229D0604527D02AE000BF40F6004236
:1042E000C4F2000290421FD041F60002C4F2000264
:1042F000904219D041F60042C4F20002904213D01D
:1043000016E000BF44F20002C4F2010290420BD05A
:1043100044F60002C4F20102904205D044F2004289
:10432000C4F20102904203D1CA6823F440731343DC
:1043300023F080024B69D1F800E08C681A430260D8
:10434000C46240F48062C0F828E0624504BF096995
:104350000163012141610169C90708BF10BD0169FD
:1043600021F00101016110BD40F65C50C2F2000075
:10437000FEF724BC40F6A450C2F20000FEF71EBCBB
:10438000806B0021C185C184FEF7FEBB81B090F82F
:104390004210222921D183680246B3F5805F09D1FA
:1043A00052F8281F52F8183C002B63D003685B6852
:1043B0000AE000BF52F8281F13B90369002BF5D09B
:1043C00003685B6803F07F030B70116801311160B3
:1043D000C18D01390A04C18502D001B0704700BF08
:1043E0000168CA6822F02002CA60CA6822F480729A
:1043F000CA604A6922F001024A61202180F8421015
:1044000000214163026B012A3CD10163016851E83C
:10441000031F026821F0100142E80313DBB10168B9
:1044200051E8031F026821F0100142E8031393B121
:10443000016851E8031F026821F0100142E80313EC
:104440004BB1016851E8031F026821F0100142E8F6
:104450000313002BDAD101680A68D20606D50022C0
:1044600000920A680092496800910099818D01B01C
:10447000FEF7D0BA026852686FF35F2221F8022B70
:104480008162A5E701B0FFF759B8000010B50446F6
:104490000068D4E902C22369016921F44051114343
:1044A0000161626943EA0C01E3691143C26819437F
:1044B00049F20C639A431143C1604169A26921F436
:1044C000407141F20043114340F48062C4F20103A1
:1044D0009A42416102D1FDF735FB01E0FDF71EFB79
:1044E000E16963681922B1F5004FA0FB020123D1F5
:1044F0005A00DB0FFBF7D0FE48F21F51C5F2EB115B
:10450000A0FB01235A094FF69C73C0F6FF7303F119
:10451000805302FB0300322303EBC000A0FB010128
:104520004FF4F87000EA111000EB0210C1F34211D1
:1045300008442168886010BD9A009B0FFBF7ACFE11
:1045400048F21F51C5F2EB11A0FB01235A094FF6A7
:104550009C73C0F6FF7302FB0300322303EB0010D1
:10456000A0FB0101F02000EA511000EB0210C1F3A2
:10457000431108442168886010BD000040F6CC401B
:10458000C2F20000FEF71ABB40F61450C2F200005F
:10459000FEF714BBFEE700002DE9F04140F2F430D5
:1045A000C2F20000A0F16C044FF0000818264FF48E
:1045B000A06700F5876500BF44F86C8F04F1140014
:1045C0005021E660FBF74FFF04F16C00A842A7669C
:1045D000F2D1BDE8F081000010B52DED0C8B40F25A
:1045E000A0049FED68AA9FED68BA9FED68CA9FED91
:1045F000688A9FED68DA40F6D470C2F20004B0EE2B
:10460000089AC2F20000012122460123B0EE4A0AB4
:10461000F0EE490AB0EE4A1AF0EE4B1AB0EE4C2A10
:10462000F0EE482AB0EE4D3A01F032F841F2AC100B
:10463000C2F20000022122460123B0EE4A0AF0EE47
:10464000490AB0EE4A1AF0EE4B1AB0EE4C2AF0EEE0
:10465000482AB0EE4D3A01F01BF840F6E860C2F28D
:104660000000032122460123B0EE4A0AF0EE490A77
:10467000B0EE4A1AF0EE4B1AB0EE4C2AF0EE482A91
:10468000B0EE4D3A01F004F841F2C000C2F2000071
:10469000042122460123B0EE4A0AF0EE490AB0EEA8
:1046A0004A1AF0EE4B1AB0EE4C2AF0EE482AB0EE61
:1046B0004D3A00F0EDFF40F27024C2F20004201DDC
:1046C00000F0B2F9204600F0EDFB40F2C8049FED87
:1046D000329A9FED32AA9FED32BA9FED32CA9FED1A
:1046E00032DA40F63460C2F20004C2F20000012166
:1046F00022460023B0EE490AF0EE4A0AB0EE4B1A09
:10470000F0EE4C1AB0EE4D2A00F0B6FE41F2384001
:10471000C2F20000022122460023B0EE490AF0EE68
:104720004A0AB0EE4B1AF0EE4C1AB0EE4D2A00F0E9
:10473000A3FE40F62C0040F6CC41C2F20000C2F2CB
:104740000001002200F012FB41F2982040F65C517B
:10475000C2F20000C2F20001002200F007FB40F2AA
:104760001C3040F61451C2F20000C2F20001B0EE5B
:10477000480AF0EE480A0022BDEC0C8BBDE8104060
:1047800000F0A0BD0000AC42000061436666264018
:10479000000000000AD7233E27A0994100000042F4
:1047A0005C8F423F9A9909410000D44270B540F2B3
:1047B000CC15C2F200052978044629B3002600BFB3
:1047C00005EB8600806901680968884700BA04EB38
:1047D0004601000CA1F84400287801368642EFD348
:1047E0004FF40070214641F8140F40F2A00001F18F
:1047F000300201F14003C2F20000FCF717F8012873
:1048000004BF012084F85C00287928B3002600BF8B
:1048100005EB8600806D01680968884700BA04EBE3
:104820004601000CA1F84400287901368642EFD3F6
:1048300040F2FF10214641F8140F40F2A00001F1B0
:10484000300201F14003C2F20000FBF7EFFF012844
:1048500004BF012084F85C00687828B3002600BFFC
:1048600005EB8600806A01680968884700BA04EB96
:104870004601000CA1F84C00687801368642EFD35F
:104880004FF40070214641F82C0F40F2C80001F1AE
:10489000200201F12C03C2F20000FBF7C7FF002841
:1048A0001CBF012084F85C00687928B3002600BF93
:1048B00005EB8600806E01680968884700BA04EB42
:1048C0004601000CA1F84C00687901368642EFD30E
:1048D00040F2FF10214641F82C0F40F2C80001F1D0
:1048E000200201F12C03C2F20000FBF79FFF002819
:1048F0001CBF012084F85C000020C4E91100C4E959
:10490000130070BD80B58AB00020CDE90500CDE967
:104910000000CDE9020004900E200121099040F230
:10492000A000CDE90711C2F200006946FBF7D2FFF3
:10493000002818BFFBF75EFF40F2A000C2F20000A3
:10494000FCF70EFC002818BFFBF754FF40F2A00054
:10495000C2F200000221FBF751FF002818BFFBF74D
:1049600049FF40F28800C2F200000021042208231F
:10497000C0E90112C0E9031301750AB080BD00004F
:1049800080B58AB00E2005900021099040F2C80041
:1049900006910122CDE90011CDE902110491C2F284
:1049A00000006946CDE90722FBF794FF002818BFF5
:1049B000FBF720FF40F2C800C2F20000FCF7D0FB7A
:1049C000002818BFFBF716FF40F2C800C2F2000033
:1049D0000221FBF713FF002818BFFBF70BFF40F283
:1049E0008800C2F20000002104220823C0E901125D
:1049F000C0E9031301750AB080BD000080B5FFF760
:104A000081FFFFF7BDFF40F2A000C2F200000221CB
:104A1000FBF7F4FE40F2C800C2F200000221BDE83C
:104A20008040FBF7EBBE000048F65842C0F600029B
:104A3000302108320171002102600822C0F80510FF
:104A4000C0F80910C0F80D100161C0E91111C0E9EA
:104A50001311C0E9151180F85C10C0E9071142621A
:104A600080F828104161C0E90D11C26380F8401040
:104A7000C1627047602101F030BC0000F0B581B028
:104A8000054600F59C774FF6FC3095F8AC10A5F87C
:104A9000380195F8AF0085F83A0185F83B1119B354
:104AA000042901F0030001D200220BE001F0FC0315
:104AB000002200BFAE18D6F8F44004329342C6F884
:104AC0003C41F7D180B105F1F404A65C53190128EB
:104AD00083F83C6108D022445678022883F83D616F
:104AE0001CBF907883F83E0105F1F400FBF700FE4F
:104AF00095F8AC10A5F834016E1886F83C01000A50
:104B000086F83D014FF6FD64686801F108023946F8
:104B10004FF0FF33A6F83E4101B0BDE8F040FEF78C
:104B200031BD00002DE9F04782B0044690F89C01A9
:104B3000082800F21581DFE800F005111D25314538
:104B40004D556100FC2956D1012084F89C01FC20C0
:104B500084F8210002B0BDE8F08700BFFB2940F0D7
:104B6000FF80022084F89C01FB2084F8220002B020
:104B7000BDE8F08784F82310032084F89C0102B07C
:104B8000BDE8F087002084F8201084F8800104201C
:104B900084F89C0102B0BDE8F08700BF204610F801
:104BA000202F90F860315F1CFEB280F860711844CD
:104BB000964281711FD3052084F89C0102B0BDE8A4
:104BC000F08700BF84F8A810062084F89C0102B08A
:104BD000BDE8F08784F8A910072084F89C0102B092
:104BE000BDE8F087FD2940F0BB80082084F89C01D7
:104BF000FD2084F8AA0002B0BDE8F087FE2940F04D
:104C0000AF8094F8811194F82080FE20002984F868
:104C1000AB005CD004F126004146FBF769FDB4F817
:104C2000A810A08488424CD194F82080B8F1000FDD
:104C300025D0B8F1040F08F0030001D2002109E0EB
:104C400008F0FC0200216318D3F8267004318A4270
:104C50009F66F8D198B1631893F8263004F1680282
:104C6000012853540BD04B1CE71897F826700228E4
:104C7000D75404D0881C211891F826101154D4F868
:104C8000981101291ADB94F8239004F1680704F5C0
:104C9000C27A002603E000BF01368E420EDA5AF8CF
:104CA00026000028F8D0016842468D6849463B46F8
:104CB0000097A847D4F89811EEE700BF002084F8C9
:104CC0009C0194F8810100284AD194F82080B8F121
:104CD000000F27D0B8F1040F08F0030002D2002122
:104CE0000BE000BF08F0FC02002100BF6318D3F8FE
:104CF000267004318A429F66F8D198B1631893F800
:104D0000263004F16802012853540BD04B1CE718DD
:104D100097F826700228D75404D0881C211891F8DF
:104D200026101154D4F89811012919DB94F8239016
:104D300004F1680704F5C27A002602E001368E42CB
:104D40000EDA5AF826000028F8D0016842468D682D
:104D500049463B460097A847D4F89811EEE700BFB4
:104D6000002084F89C0102B0BDE8F08770B51546BC
:104D7000044600F0E1F83020207448F66C40C0F69C
:104D8000000000F10801203000262160E06004F1FD
:104D900068004021C4F81160C4F81560C4F81960B7
:104DA000E66184F8206084F82360A684FBF75BFB4F
:104DB00004F1F400402184F8AC6084F8AF60A4F8FA
:104DC000B060FBF750FB204684F8806184F8815185
:104DD000C4E96166C4E96366C4E9656684F89C61F8
:104DE00070BD00004FF4D07101F077BA7047000039
:104DF00040F2F431C2F200016C2200FB021000F11B
:104E0000640400F1100500F1140602E0286801F0C6
:104E1000A7FA20680128F9DB002703E020680137A2
:104E20008742F3DA56F827000028F7D001680968AE
:104E30008847F3E7092988BF70472DE9F0418AB018
:104E400040F2F435C2F200056C2001FB00570C461D
:104E50003E4656F8640F13281FDC07EB80004261C2
:104E60003868B8B90DF1040840462421FBF7FBFA75
:104E70006C2004FB00504246011D0191816EC06808
:104E8000CDE9061044F6F150C0F60000214601F0CD
:104E9000A9FA38603068013030600AB0BDE8F041EE
:104EA0007047000070B540F2F43C46F274134FF0C6
:104EB000000EC2F2000CC6F673335F2100220024FC
:104EC0000CEB02056C3204F13006B2F5876F04F189
:104ED00001046B6029726E7285F80AE0F0D130210E
:104EE0000122CCE9031220210223CCE91E13052361
:104EF000CCE939131821CCE954130A23CCE96F13F8
:104F00001021CCE98A130F23CCE9A5130821CCE9A1
:104F1000C0131423CCE9DB13CCE9F62370BD0000E9
:104F20007047000070470000426800F10801104619
:104F30000122FEF7D9BA000080B540F2442EC2F239
:104F4000000E48F6B44CDEF80030C0F6000C0CF150
:104F50000802092BC0E90021C8BF80BD591CCEF84A
:104F600000100EEB8301486080BD00007047000018
:104F700090ED0C1AB5EE400AF1EE10FAB0EE403AA0
:104F8000B4EE401A9FED332AC8BFB0EE423AF1EEBC
:104F900010FAC8BFB0EE430AB1EE411AB5EE400AAE
:104FA000F1EE10FAB0EE403AB4EE410AB8BFB0EEFE
:104FB000423AF1EE10FAC8BFB0EE430A90ED0E6A25
:104FC00090ED001A90ED075AB1EE467A90ED013A55
:104FD00020EE011A30EE055AB4EE470A80ED0F0AB2
:104FE00090ED024A80ED061AF1EE10FAB8BFB0EE6D
:104FF000425AB4EE460AF1EE10FAC8BFB0EE425A79
:1050000025EE032A90ED083A80ED080A30EE433A87
:1050100023EE043A32EE010A90ED0B1A30EE030A49
:10502000B4EE410AF1EE10FA80ED075A80ED042A41
:1050300080ED053A80ED090A07DCB1EE411AB4EEC5
:10504000410AF1EE10FAA8BF7047B0EE410A80EDB8
:10505000091A704700000000002100F1280280ECCE
:10506000030AC0E90311C0E90511C0E90711416253
:10507000C2EC031A4163C0E90F1180ED0E3A70478C
:1050800070470000182101F028B9000010B504464F
:10509000407A84F85710042848D8DFE800F0033B32
:1050A000074313000D2943D1012040E0A07A2218C4
:1050B0000130C3B2182BA07282F8681038BF10BD3F
:1050C000032034E00D2931D194F868002146D4F84A
:1050D000692001F8840FD4F86D00C4F88520D4F855
:1050E0007120C4F88900D4F87500C4F88D20D4F874
:1050F0007920C4F89100B4F87D00C4F8952094F8A4
:105100007F20A4F89900204684F89B2000F012F834
:105110000CE000BF0D290BD00A2907D10220A4F80A
:10512000090010BD0A2901D1042000E000206072AE
:1051300010BD000010B52DED0C8B044690F8550005
:1051400080B194F856000130C2B2072A84F85600A4
:1051500008D3002004F1380CD4E913238CE80D00A7
:1051600084F8550094ED082A94ED091A94ED0A0A82
:1051700084ED032A84ED041A84ED050A91ED003ACA
:1051800094F8540084ED0A3A91ED034A30B184ED6D
:10519000084A91ED045AB1EE455A05E0B1EE444A91
:1051A00084ED084A91ED045A33EE400A94ED0E3A2C
:1051B00084ED0D0A33EE000A9FED403A84ED095A62
:1051C00034EE422A35EE411A94ED0F4A94ED105A0E
:1051D00020EE038A94ED13AA84ED0E0AB1EE406A24
:1051E00034EE02BA35EE01CAB0EE480A84ED0B2A5D
:1051F00084ED0C1A84ED2A8A84ED2B6A84ED0FBAB3
:1052000084ED10CA03F0B8F8B0EE409A2AEE00DA46
:10521000B0EE480A03F0B0F994ED141A21EE002A1A
:105220002AEE000A21EE091A3DEE422A31EE000A6A
:1052300084ED120A3BEE421A3CEE400A84ED112A3C
:1052400084ED2C1A84ED2D0AFCF798FA616E49B3AF
:10525000411A00EE101A9FED1A3AB8EE400A20EEFD
:10526000032A94ED2C0A94ED2D1AB5EE402AF1EEA6
:1052700010FA84ED182A19DD94ED164A94ED175AA8
:1052800030EE444A31EE455A24EE034A25EE033A05
:1052900084EE024A83EE022A84ED2E4A84ED2F2A00
:1052A00004E000BF94ED2C0A94ED2D1A84ED160A4B
:1052B00084ED171A6066BDEC0C8B10BD4DF38EBCEF
:1052C0006F12833A70B52DED048B1546B0EE608AEF
:1052D000B0EE409A0446FFF72FFE48F6D440C0F6E1
:1052E000000008302060002604F10C004021A4F8E2
:1052F0000960FBF7B8F8012084F8550004F1A0001C
:10530000302184F8545004F15605C4E92166C4E9FB
:105310002366C4E92566A4F89C60FBF7A4F8284638
:105320002C21FBF77EF884ED139A204684ED148A35
:10533000BDEC048B70BD000070B50D46098800F10E
:105340001406044649BA304600F006FF84ED050A0B
:10535000688800BA000C2083A888C1BA304600F0E3
:105360001FFF207C84ED070A022818BF70BD94F847
:10537000590058B194F858000130C1B2072984F897
:10538000580022BF0020E06484F8590094ED051A0B
:105390009FED1B3A94ED142AB4EE431A31EE420A03
:1053A000F1EE10FA84ED112A84ED141A84ED150A39
:1053B0000ADDB0EE083AB4EE432AF1EE10FA15DA3F
:1053C0009FED110A0EE000BFB0EE084AB4EE441A99
:1053D000F1EE10FA0ADAB4EE432AF1EE10FA05DD26
:1053E0009FED080A30EE420A30EE010A94ED131ADE
:1053F00084ED120A31EE000A84ED130A70BD00BF7D
:105400000080B2430000B4430000B4C370B590ED17
:105410000B0A90ED0D1A00F15C05044620EE010A1E
:10542000284600F051FAB4F9180004F1140600EE11
:10543000100AB8EEC00A284600F094F9304600F091
:105440009DFE94ED100A0546304600F097FE411986
:1054500008B2218470BD0000B0F9181090ED0B1A4D
:1054600000EE101AB8EEC00A80EE010A7047000084
:1054700080ED0D0A7047000070B52DED0C8B1C46B9
:105480000B460021B0EE428AB0EE619AB0EE41AA1E
:10549000B0EE60BAB0EE40CA0546002600F044FA0D
:1054A00048F69840C0F600009FED1BDA0830E8602F
:1054B00005F11400B0EE4D0A4FF4804141F6FF7241
:1054C0002E7400F07FFE48F6E040C0F6000000F1C8
:1054D000080124302960E86005F13000292185EDBC
:1054E0000BCAFAF7C0FF012085F8590005F15C00EE
:1054F000F1EE042AB0EE4B0AF0EE4A0AB0EE491A79
:10550000F0EE481AB0EE4D2A00F0E2F928462C746D
:10551000BDEC0C8B70BD00BF00409C4670B50C46C6
:10552000098800F10C06054649BA304600F014FE21
:1055300085ED030A608800BA000C2882A088C1BAF1
:10554000304600F02DFE85ED050A70BDB0B52DED9D
:10555000068B90ED030A9FED41AA9FED418A90EDE5
:105560000B9A30EE0A0AF0EE480A044602F0ACFF4D
:105570009FED3C1A30EE010AB4EE410AF1EE10FA4A
:1055800008BFB0EE4A0A20EE091AB5EE401AF1EE55
:1055900010FA84ED0E0A11DAB5EE400AF1EE10FAB7
:1055A00010DDB5EE409AF1EE10FA0BDA38EE401A43
:1055B00031EE091A39EE400A16E000BF39EE400A12
:1055C0001BE000BFB5EE400AF1EE10FA17DAB5EEB7
:1055D000409AF1EE10FA12DD9FED232A39EE401ABF
:1055E00039EE022A32EE400AB0EEC12AB0EEC03ADD
:1055F000B4EE432AF1EE10FA24DD84ED0F0A94F89C
:10560000980028B394ED0F0A04F19C00FFF7B0FC5A
:1056100004F14005284684ED0C0A00F055F9B4F970
:10562000100000EE100AB8EEC00A284600F09AF802
:10563000BDEEC00A10EE100AA08600B2BDEC068BCB
:10564000B0BD00BF84ED0F1A94F898000028D9D19E
:10565000A08E00B2BDEC068BB0BD00BF000034438D
:105660000000B443000034C30000B4C390ED0E0A40
:1056700070470000B0F9100000EE100AB8EEC00A42
:105680007047000080ED3A0A704700007047000044
:1056900070B52DED0E8B1D460B460421B0EE438AEE
:1056A000B0EE629AB0EE42AAB0EE61BAB0EE41CA74
:1056B000B0EE60DAB0EE40EA044600F035F99FED56
:1056C000230A0C304FF4804141F6FF7200F07AFD5E
:1056D0004FF48070208548F61850C0F6000000F1A5
:1056E00008012C309FED1A2A6062002604F1400068
:1056F000F7EE002AB0EE4E0AF0EE4D0AB0EE4C1A6C
:10570000F0EE4B1A2160C4E90B66A686C4E90E666A
:1057100000F0DEF8DFED0F1A9FED0F2ADFED0F2A04
:105720009FED0F3A04F19C00B0EE4A0AF0EE490AF0
:10573000B0EE481A84F89850FFF78EFCC4E938663A
:105740002046C4F8E860BDEC0E8B70BD00803B4580
:105750000050C34600401C46000096430AD7233C35
:105760000000704210B52DED028BB0EE408A044669
:10577000FCF704F8A16959B1411A00EE101A9FED27
:10578000501AB8EE400A80EE010A84ED050A01E0E5
:1057900094ED050A94ED001A94ED012A94ED023A75
:1057A00094ED034AB8EE006A21EE015A32EE432A24
:1057B00021EE061A21EE041A25EE022A31EE021A13
:1057C00024EE002A21EE000A30EE040A32EE032A0B
:1057D00084ED030A94ED0E0A84ED041A32EE481AA1
:1057E000B4EE401AF1EE10FAA06184ED022A84EDC5
:1057F0000A2A84ED071A04DAB5EE401AF1EE10FA1F
:105800000BDCB1EE400AB4EE401AF1EE10FA08DDFE
:10581000B5EE401AF1EE10FA03DA9FED2A1A0020D5
:10582000E06194F8540038B10020B0EE410AB0EEC7
:10583000412A84F8540003E094ED082A94ED090A03
:1058400094ED0F6A94ED107A31EE424A94ED0C5AC1
:1058500026EE044A21EE076A32EE027AD4ED110AEE
:1058600031EE477A30EE070A84ED144A34EE054AE9
:1058700094ED0D3A20EE200A36EE044A84ED130A28
:1058800030EE040AB4EE430AF1EE10FA84ED126A27
:1058900084ED0B0A06DCB1EE433AB4EE430AF1EEB6
:1058A00010FA03DAB0EE430A84ED0B3A84ED081ADD
:1058B00084ED092A84ED0C0ABDEC028B10BD00BFFB
:1058C00000007A440000000080ED010A70470000EB
:1058D00010B52DED0A8B0446E0EC011A3021B0EE34
:1058E000628AB0EE429AB0EE41AAB0EE60BAB0EE73
:1058F00040CAFAF7B8FD0020C4E912002065012073
:1059000084ED0D9A84ED0E8A84ED0FCA84ED10BAF1
:1059100084F85400204684ED11AABDEC0A8B10BD1A
:1059200070470000002070472DE9F04F48F65857A7
:10593000C0F600070837C0E9007240F2A007C2F2C3
:105940000007BA420172437208D040F2C807C2F29F
:105950000007BA4200F00C82BDE8F08F0529FBD8A1
:10596000DFE801F00604043E78B000BFF4E700BFB2
:1059700040F2CC1EC2F2000E9EF800C0BCF1030F34
:10598000EAD8BCF1000F00F0D580DEF81840647A48
:105990009C4240F2DF804FF0000BDC4540F2698111
:1059A000ACEB0B056FEA0B0715F0030607EB0C08D1
:1059B00000F03881ACF101050EF1180757F8259079
:1059C000012E47F82C9000F03B81ACF1020957F80A
:1059D00029A0022E47F825A040F02C814D462FE14A
:1059E00040F2CC1EC2F2000E9EF806C0BCF1030FBE
:1059F000B2D8BCF1000F00F0A18040F2D42AC2F26C
:105A0000000ADAF80040647A9C4240F2A9804FF024
:105A1000000BDC4540F24C81ACEB0B066FEA0B054A
:105A200016F0030705EB0C0800F0FE80ACF1010650
:105A30005AF82650012F4AF82C5000F02581ACF17D
:105A400002095AF82950022F4AF8265040F01681D0
:105A50004E4619E140F2CC1EC2F2000E9EF804C080
:105A6000BCF1030F3FF678AFBCF1000F6AD0DEF84F
:105A70005840647A9C4279D94FF0000BDC4540F2E3
:105A80004081ACEB0B056FEA0B0715F0030607EB43
:105A90000C0800F0CB80ACF101050EF1580757F867
:105AA0002590012E47F82C9000F01281ACF10209EC
:105AB00057F829A0022E47F825A040F003814D4653
:105AC00006E100BF40F2CC1EC2F2000E9EF802C0FA
:105AD000BCF1030F3FF640AFBCF1000F36D0DEF84B
