:020000040800F2
:100000008074002059020008394000088936000831
:10001000354000082D070008814700080000000057
:10002000000000000000000000000000B1400008D7
:10003000650800080000000041400008D5400008A5
:1000400073020008730200087302000873020008BC
:1000500073020008730200087302000873020008AC
:10006000730200087302000873020008730200089C
:100070007302000873020008290800083508000808
:1000800073020008410800087302000873020008A8
:1000900031070008730200087302000873020008A9
:1000A000730200087302000873020008730200085C
:1000B000730200087302000873020008730200084C
:1000C000730200087302000873020008730200083C
:1000D00073020008730200085D47000869470008C2
:1000E000730200087302000873020008730200081C
:1000F00073020008BD410008730200084D080008A3
:100100007302000873020008B1410008730200087E
:100110001543000821430008730200087302000819
:1001200073020008730200087302000873020008DB
:1001300073020008730200087302000873020008CB
:100140003D070008730200087302000873020008EC
:100150007302000859080008730200087547000878
:10016000730200087302000873020008730200089B
:100170007302000873020008730200080000000008
:10018000730200087302000800F002F800F054F84F
:1001900014A696E8000CB244B344DA4501D100F04D
:1001A0004BF8BAE80F000FA696E83000A5EB04055F
:1001B00004EB0607AAEB0704A7F101074FEA1515A0
:1001C0004FEA3414A4F10104AC4201D300F034F836
:1001D00013F0010F18BFFB1A43F0010300F001F800
:1001E000DBE71847D8BD0000F8BD0000103A24BF77
:1001F00078C878C1FAD8520724BF30C830C144BF8C
:1002000004680C6070470000704700000023002461
:1002100000250026103A28BF78C1FBD8520728BF16
:1002200030C148BF0B6070471FB50BF025F800F0D8
:10023000A3F91FBD10B510BD00F004FA1146FFF779
:10024000F3FF08F049FC00F022FA03B4FFF7F2FFD5
:1002500003BC00F0EDF90000094880470948004759
:10026000FEE7FEE7FEE7FEE7FEE7FEE7FEE7FEE766
:10027000FEE7FEE704480549054A064B70470000C3
:100280009D41000889010008806E002080740020D4
:10029000807000208070002053EA020C00F069801A
:1002A0002DE9F04B4FF00006002B1FBFB3FA83F58A
:1002B00003FA05F424FA05F65E4012BF1643B2FABB
:1002C00082F502FA05F4C5F120051EBF22FA05FCED
:1002D00044EA0C04203556EA044C4FEA144418BF93
:1002E000641C4FF000084FF00009904271EB030CC2
:1002F00039D3002919BFB1FA81F701FA07F6B0FA2C
:1003000080F700FA07F6C7F120071EBF20FA07FCA6
:1003100046EA0C062037B6FBF4FCA7EB0507103FB6
:1003200007F01F0BCBF120062CFA06F60CFA0BFB9C
:1003300044BFB3460026202FA4BF5E464FF0000BFB
:100340005BEA060C08BF4FF0010B19EB0B0948EBF9
:100350000608ABFB027C06FB02CC0BFB03CCC01BEC
:1003600071EB0C01C1E70B46024641464846BDE829
:10037000F08B13B5084318BF4FF0FF300146AFF3C1
:100380000080BDE81C40704740EA010310B59B07A0
:100390000FD1042A0DD310C808C9121F9C42F8D0EF
:1003A00020BA19BA884201D9012010BD4FF0FF30A0
:1003B00010BD1AB1D30703D0521C07E0002010BDB6
:1003C00010F8013B11F8014B1B1B07D110F8013B42
:1003D00011F8014B1B1B01D1921EF1D1184610BD23
:1003E000032A40F2308010F0030C00F0158011F861
:1003F000013BBCF1020F624498BF11F801CB00F839
:10040000013B38BF11F8013BA2F1040298BF00F88C
:1004100001CB38BF00F8013B11F0030300F0258049
:10042000083AC0F0088051F8043B083A51F804CB70
:10043000A0E80810F5E7121D5CBF51F8043B40F836
:10044000043BAFF30080D20724BF11F8013B11F841
:1004500001CB48BF11F8012B24BF00F8013B00F885
:1004600001CB48BF00F8012B704710B5203AC0F00F
:100470000B80B1E81850A0E81850B1E81850A0E877
:100480001850203ABFF4F5AF5FEA027C24BFB1E810
:100490001850A0E8185044BF18C918C0BDE8104053
:1004A0005FEA827C24BF51F8043B40F8043B08BF5C
:1004B0007047D20728BF31F8023B48BF11F8012B23
:1004C00028BF20F8023B48BF00F8012B704702F01C
:1004D000FF0343EA032242EA024200F024B84FF04D
:1004E00000020429C0F0128010F0030C00F01B8001
:1004F000CCF1040CBCF1020F18BF00F8012BA8BF0F
:1005000020F8022BA1EB0C0100F00DB85FEAC17CD2
:1005100024BF00F8012B00F8012B48BF00F8012B85
:1005200070474FF0000200B51346944696462039B6
:1005300022BFA0E80C50A0E80C50B1F12001BFF49C
:10054000F7AF090728BFA0E80C5048BF0CC05DF802
:1005500004EB890028BF40F8042B08BF704748BF50
:1005600020F8022B11F0804F18BF00F8012B7047C4
:10057000704770477047000008487CB57844009089
:1005800007487844009C0546019004E02046016835
:1005900008448047241DAC42F8D17CBD5CBA000001
:1005A0005EBA000070B50446051F00F02DF8006823
:1005B000002C14BF446870BD002C18BFAC423CBF77
:1005C00020466468F8D301680A18AA4218BF45603B
:1005D00003D12A6805461144016028684119A142E7
:1005E0001CBF6C6070BD6168696021680844286048
:1005F00070BD10B500F00CF8006810BD10B50446D1
:1006000000F006F8046010BD004870473800002074
:10061000004870473000002010B5002000F040F87E
:10062000FFF708FEBDE81040012000F001B800000F
:1006300001491820ABBEFEE72600020000487047C3
:10064000300000207546FFF7F9FFAE460500694609
:10065000534620F00700854618B020B5FFF70AFE84
:10066000BDE820404FF000064FF000074FF00008B3
:100670004FF0000BAC46ACE8C009ACE8C009ACE8F0
:10068000C009ACE8C00921F007018D46704710B5DC
:100690000446AFF300802046BDE81040FFF7D5BD0B
:1006A00010B500F00BF8BDE8104000F001B870473D
:1006B000002801D0FFF7BCBF7047000010B5002133
:1006C00002A000F013F8012010BD0000534947417B
:1006D0004252543A2041626E6F726D616C207465B3
:1006E000726D696E6174696F6E00000070B50546C9
:1006F0000C460A2000E06D1C00F011F835B1287896
:100700000028F8D102E0641C00F009F814B1207848
:100710000028F8D1BDE870400A20AFF3008008B58A
:1007200069468DF800000320ABBE08BDFEE700005F
:1007300040F2A800C2F2000000F00EBA40F2D00071
:10074000C2F2000000F008BA91B1F0B54BF2BE223F
:1007500001F0030C0429C0F600020DD24FF0000E88
:100760000021BCF1000F3AD1BDE8F04088B27047DB
:10077000002188B2704700BF01F0FC01C1F1000EFA
:10078000431C00216FF003041D19EE788FB286EA36
:10079000172632F816602F7986EA012189B287EA96
:1007A000112132F811106F7981EA0626B6B287EA74
:1007B000162632F81660AD7986EA012189B285EAFB
:1007C000112132F8111004340EEB0405043581EACE
:1007D0000621D9D104F1040EBCF1000FC4D010F8E9
:1007E0000E408BB284EA132332F81340BCF1010FA0
:1007F00084EA0121B8D07044437889B283EA112198
:1008000032F81130BCF1020F83EA0421ACD08078B9
:1008100089B280EA112032F8100080EA0321BDE895
:10082000F04088B27047000040F6D430C2F20000B9
:1008300000F064BD40F6B420C2F2000000F05EBDDE
:1008400040F67430C2F2000000F058BD40F614309B
:10085000C2F2000000F052BD40F63440C2F2000087
:1008600000F04CBD7047000072B600BFFEE700000C
:1008700090F82020013A012A08D8006800F11402FB
:100880000020136819431160704700BF00F1240273
:1008900001204FF480211368194311607047000054
:1008A00010B590F820E0D0F800C0AEF1010EBEF116
:1008B000010FDCF808E011D81EF0E05F18D0CEF38D
:1008C000016E012000FA0EF018608B68D3B1486801
:1008D000CC6844EAC000034318E000BF00F12401E3
:1008E00001204FF480220B681A430A6010BD00BF3C
:1008F00000F1240101204FF400120B681A430A6032
:1009000010BD00BF0868CB6843EA40530CEB0E10E3
:10091000C0F880310B69C0F88431097D012905D107
:1009200000F5C2710B6843F480730B605168C0F826
:100930008C11126800F5C071C0F8882100200122D6
:100940000B681A430A6010BD90F82020013A012A72
:1009500030D8B0B546F20060C4F20000026842F040
:1009600001020260026822F47C520260D1F814E0B5
:10097000CC694A6A0368012C43EA022202600EF045
:100980001F024FF0010303FA02F2C3696FEA020C7F
:1009900023EA0203C36113D02CBBC36803EA0C0330
:1009A000C360CB688C8844EA034300EBCE04236425
:1009B0000B4611E0416A41F48021416201207047F9
:1009C000C3681343C3600B688C8844EA034300EB9D
:1009D000CE04236401F10C038C681B8843EA0443B2
:1009E00000EBCE04636443688D6943EA0204D1F8E6
:1009F00010E0096A002D08BF03EA0C044460436953
:100A0000BEF1000F43EA020408BF03EA0C04012907
:100A1000446102D1C1691143C161016821F0010142
:100A200001600020B0BD00007047000010B590F8D4
:100A30002040013C012C7BD8D0F800C000290CBF1D
:100A4000DCF80C40DCF81040A4077BD00CEB011C58
:100A5000DCF8B0410CF5D87E14F004049460DCF8A6
:100A6000B04119BFE4085460640D1460DEF8004022
:100A70000CF5DA7E04F00204D460DCF8B4412407FB
:100A80005ABFDEF8004004F00F0408241461DEF8B9
:100A900000400029C4F307249461DEF800404FEAC7
:100AA00014445461DCF8B8211A70026802EB011298
:100AB000D2F8B8214FEA12225A70026802EB0112F2
:100AC000D2F8B8214FEA12429A70026802EB011282
:100AD000D2F8B8214FEA1262DA70026802EB011212
:100AE000D2F8BC211A71026802EB0112D2F8BC21C3
:100AF0004FEA12225A71026802EB0112D2F8BC21AD
:100B00004FEA12429A71026802EB0112D2F8BC213C
:100B10004FEA1262DA7100680CBF00F10C0100F1BB
:100B20001001002020220B681A430A6010BD00BF8C
:100B300000F1240101204FF480220B681A430A605F
:100B400010BD00BF00F1240101204FF400120B681A
:100B50001A430A6010BD00002DE9F04F81B0044631
:100B600000684669D0F804908768D0F80CB0D0F8D7
:100B700010A0D0F81880F10704D1002530071DD44B
:100B800024E000BFF90710D00121BA07816009D421
:100B9000780700F1AF80380700F1B680204600F0FA
:100BA00045FB02E0204600F043FB0025F80500F17C
:100BB0008780F80300F1B180300707D51BF01000E3
:100BC00004D0206845F400751021C160700708D575
:100BD0001BF0080005D020680821C160204600F005
:100BE00001FAB00706D52068C068800702D0204609
:100BF00000F0FAF9700607D51AF0100004D020684A
:100C000045F4806510210161B00608D51AF008008E
:100C100005D0206808210161204600F0D3FAF006D3
:100C200006D520680069800702D0204600F0CCFA83
:100C3000B00308D519F0100005D0206810214160DC
:100C4000204600F0C3FAF00308D519F0080005D0DB
:100C5000206808214160204600F0F4FA300440F199
:100C60009B805FEA497040F1948006F4807008EA46
:100C7000102028435FEA8871014648BF41F0020115
:100C8000B20558BF01465FEA48700D4648BF45F0BF
:100C90000405700558BF0D46300540F17A8018F004
:100CA000700000F076801038000905286CD8DFE865
:100CB00000F003595D61656945F0080564E000BF17
:100CC00020684FF48071BA0581600BD4780515D483
:100CD00038051DD4204600F0ADFAF8037FF56CAF5F
:100CE0001BE000BF204600F0A7FAF8037FF564AFD1
:100CF00013E000BF4FF4006558E700BF05F500554D
:100D0000F8037FF559AF08E04FF480554EE700BF78
:100D100005F58045F8037FF54FAF20684FF480312B
:100D2000BA0381600AD4780310D4380314D420465F
:100D300000F084FA30073FF541AF47E7204600F066
:100D40007FFA30073FF53AAF40E700BF05F50045B1
:100D500030073FF533AF39E705F5803530073FF50C
:100D60002DAF33E745F010050EE000BF45F020053C
:100D70000AE000BF45F0400506E000BF45F08005F1
:100D800002E000BF45F480752068816921F07001A0
:100D9000816120680421416055B1606A40EA050123
:100DA0002046616201B0BDE8F04FFFF73DBE00BFD5
:100DB00001B0BDE8F08F0000002804BF012070479B
:100DC000B0B5044690F8200010B9204600F06EF847
:100DD0002068016841F00101016000F04FFD054607
:100DE00020684168C90705D100F048FD401B0B2869
:100DF000F6D310E0016821F00201016000F03EFD31
:100E0000054600BF2068416889070DD500F036FD12
:100E1000401B0B28F6D3606A052140F40030606265
:100E2000012084F82010B0BD217E0268012922F043
:100E3000800208BF80320260617E0268012922F0D0
:100E4000400208BF40320260A17E0268012922F000
:100E5000200208BF20320260E17E0268012922F0F0
:100E6000100218BF10320260217F0268012922F0AF
:100E7000080208BF08320260617F0268012922F07F
:100E8000040208BF04320260D4E901C2D4E9033588
:100E900061691A432A431143ACF101021143C16154
:100EA00000200121606284F82010B0BD10B586B02A
:100EB000006846F60002C4F2000200219042CDE92B
:100EC0000411CDE90211019140D046F20041C4F273
:100ED0000001884240F0848040F2F821C2F2000113
:100EE0000A6843F64000C4F20200531C0B6052B97A
:100EF00000210091016841F000710160016801F07A
:100F00000071009100990021009150F8102C42F0DE
:100F1000010240F8102C50F8100C00F00100009075
:100F200000984FF4C05001900220CDE90201032047
:100F30000490092005900020C4F2020001A900F0ED
:100F4000C1FB142007210022142444E043F6400092
:100F5000C4F202000091016841F080610160016803
:100F600001F080610091009940F2F821C2F2000185
:100F70000A68531C0B6052B900210091016841F0CE
:100F800000710160016801F0007100910099002179
:100F9000009150F8102C42F0020240F8102C50F84A
:100FA000100C00F00200009000984FF440500190A7
:100FB0000220CDE9020103200490092005900020C1
:100FC000C4F2020000F5806001A900F07BFB402024
:100FD00008210022402400F013FD204600F0FEFC12
:100FE00006B010BD70470000B0B588B040F2A8014F
:100FF000C2F20001884207D040F2D001C2F20001E3
:10100000884229D008B0B0BD40F2D415C2F2000524
:1010100005F1080440F2A800C2F2000001AA002174
:101020002346FFF703FD039800283DD00299A1F560
:101030001060082846D84FF0FF3050FA81F003289E
:10104000E0D8DFE800F003656B7100BF40F2B0202C
:10105000C2F200000068ACE040F2D415C2F2000514
:1010600005F1100440F2D000C2F2000001AA0021F4
:101070002346FFF7DBFC039800282FD00299A1F547
:101080001060082838D84FF0FF3050FA81F003285C
:10109000B8D8DFE800F003555B6100BF40F2B02034
:1010A000C2F20000006984E00198A0F20120072844
:1010B000A8D8DFE800F00557595B5D5F616300BFAA
:1010C000A86976E0C1F3032003283FF69BAFDFE871
:1010D00000F00331333500BFA86B56E00198A0F251
:1010E000012007283FF68EAFDFE800F0585A5C5E1B
:1010F00004626004A86E5CE0C1F3032003283FF69D
:1011000081AFDFE800F0033D3F4100BFA86C3CE049
:1011100040F2B020C2F2000040684AE040F2B02045
:10112000C2F20000806844E040F2B020C2F2000049
:10113000C0683EE0E86B28E0286C26E0686C24E09C
:1011400040F2B020C2F20000406932E040F2B0202C
:10115000C2F2000080692CE040F2B020C2F2000030
:10116000C06926E0E86924E0286A22E0686A20E095
:10117000A86D1EE0E86D1CE0286E1AE0686E18E0AD
:10118000E86C02E0286D00E0686D00283FF43AAF9B
:10119000026893682246984708B0B0BDA86A08E084
:1011A000E86A06E0286B04E0686B02E0286F00E064
:1011B000E86E00283FF426AF01684A682146904750
:1011C00008B0B0BD704700007047000070470000D5
:1011D000B0B5044690F8200001281DD1022084F803
:1011E00020002068016821F00101016000F046FB49
:1011F000054600BF20684068C00713D000F03EFBE2
:10120000401B0B28F6D3606A40F400306062052072
:1012100084F820000120B0BD606A40F400206062C4
:101220000120B0BD00206062B0BD0000704700002A
:1012300070470000704700007047000070470000D2
:10124000704700007047000070B5866D044600F0DE
:1012500015FB94F83510022928D105462068216C29
:10126000026822F016020260426922F080024261A6
:1012700009B9A16C19B1016821F008010160016888
:1012800021F00101016000BF20680068C00715D08F
:1012900000F0F4FA401B0628F6D3202060650320F6
:1012A00084F83500002184F8341070BD802060651A
:1012B0000120002184F8341070BD00BFE06D3F2193
:1012C00001FA00F0B060012084F835000020002110
:1012D00084F8341070BD000090F83510022909D14F
:1012E000052180F835100068016821F001010160D6
:1012F000002070478021416501207047F0B581B022
:1013000004460020009040F20800C2F2000002688B
:10131000D4E9166048F2B51337680821C1F64E3398
:1013200081403942A2FB03250CD0226813685B0779
:1013300008D5136823F004031360B160616D41F0B8
:101340000101616501218140394208D0226852695A
:10135000120604D5B160616D41F00201616504219E
:101360008140394208D022681268920704D5B160E2
:10137000616D41F00401616510218140394217D04F
:1013800020680268120713D5B16002680168520331
:1013900008D4C90508D4016821F008010160216C56
:1013A00021B905E008033FD4216C09B120468847E4
:1013B000E16D202000FA01F23A4241D02068036832
:1013C000DB063DD5B26094F835300268052B1BD1A1
:1013D00022F016020260426922F080024261226C11
:1013E0000AB9A26C1AB1026822F0080202603F201A
:1013F0008840B060012084F83500216D002000296C
:1014000084F8340052D157E00168520310D4C90562
:1014100012D4016821F010010160012084F8350028
:10142000002084F8340007E0A16C0029BED1BFE79A
:10143000080301D4616C00E0E16B09B120468847E4
:10144000606DC8B3606DC0072ED0052084F83500EC
:101450002068A90A026822F001020260009A0132A3
:101460008A4200921AD80268D20717D0009A013235
:101470008A42009212D80268D2070FD0009A013235
:101480008A4200920AD80268D20707D0009A013235
:101490008A42009202D80268D207DFD1012084F884
:1014A0003500002084F83400E16C29B1204601B0F9
:1014B000BDE8F040084700BF01B0F0BD2DE9F041A4
:1014C000044600F0DBF9ECB10546022084F8350053
:1014D0000020216884F83400086820F001000860CA
:1014E00021680868C00711D000F0C8F9401B052822
:1014F000F6D9032520230320636584F83550BDE821
:10150000F08100BF0120BDE8F08100BF086848F20B
:101510003F02CFF21002D4E9013500EA020C04F1D7
:101520000C0898E8C10143EA0C032B431843D4E9A3
:10153000072E304338431043626A40EA0E00042A03
:1015400040EA08031CD1206BD4E90A2E40EA0E00C1
:10155000184308604869BEF1000F20F0030040EA1C
:10156000020040F0040C11D0B8F5005F36D0B8F19D
:10157000000F45D1022A46D0012A3BD032B942E0C1
:101580000B60486920F0070040EA020C01F0F80007
:101590004AF6AB221038CAF6AA22A0FB02231A0987
:1015A0004BF2A873C1F814C0C0F600039A5C40F275
:1015B000FF335F284FF03F0021EA030100FA02F0F9
:1015C00088BF0431C4E91612886000230125002079
:1015D000636584F83550BDE8F08100BF032AD5D893
:1015E000012540230120DFE802F0030E030500BFC0
:1015F00082E700BFAEF1C070B0FA80F0400904E0AD
:10160000032A04D3C2D1CEF300600028BED0012546
:1016100040230120636584F83550BDE8F081000067
:1016200090F834C0BCF1010F04BF0220704770B5C0
:101630004FF0010C80F834C0D0F858E090F835C075
:10164000BCF1010F38D14FF0020C80F835C04FF0DB
:10165000000CC0F854C0D0F800C08468056CC06DA0
:10166000DCF80060402C26F48026CCF80060CCF832
:1016700004300B4604BF13460A463F2101FA00F02E
:10168000CCF80830CCF80C20CEF80800DCF80000CC
:1016900040F01600CCF800002DB1DCF8000040F05E
:1016A0000800CCF80000DCF8000040F00100CCF8A5
:1016B0000000002070BD00BF002180F8341002201F
:1016C00070BD00002DE9F04F82B000F13E4707F1F8
:1016D000FF77860546EA972741F60046C4F20206E0
:1016E000082243F6004EB04208BF0722C4F2010EA2
:1016F000072F38BF3A46002600274FF00008009217
:1017000009E000BF08F101080237B8F1100F06F137
:10171000040600F0A3800D68012202FA08F415EA1D
:101720000409EFD0D1F804B003220BF0030CACF1A4
:101730000105BA40012D6FEA020A0FD88268CD6810
:1017400002EA0A02BD402A4382604268A243CBF308
:10175000001404FA08F42243426005E0BCF1030FD0
:1017600002D14FF0030C1EE0C2688C6802EA0A0244
:10177000BC402243BCF1020FC26014D16FF00302DF
:1017800002EA58020244D2F820C006F01C040F23DB
:101790000D69A3402CEA0303A5402B431362D1F843
:1017A00004B00BF0030C02680CFA07F302EA0A0219
:1017B0001A431BF4403F0260A4D0002243F64403C6
:1017C0000192C4F202031A684FF6084C42F48042B8
:1017D0001A601A68CFF6FF7C02F480420192019AE7
:1017E00028F00302724452F80C3006F00C050F2466
:1017F000AC40A343009C04FA05F52B4342F80C309F
:10180000DEF808204B6842EA090543F60C4CDC027E
:1018100058BF22EA0905CEF80850C4F2010CDCF8E2
:1018200000209C0242EA090558BF22EA0905CCF8CB
:101830000050DEF804209C0342EA090558BF22EA62
:101840000905CEF80450DEF80020DB0342EA090562
:1018500058BF22EA0905CEF8005053E702B0BDE8B0
:10186000F08F00000069084018BF01207047000099
:10187000002A08BF090481617047000046F21C304D
:10188000C2F200000068704740F2000046F21C31CE
:10189000C2F20000C2F2000100780A681044086039
:1018A0007047000080B543F60040C4F202000168B2
:1018B00041F400710160016841F4806101600168D8
:1018C00041F480710160032000F0C6F80F2000F0A1
:1018D00005F800F061F8002080BD000070B586B00A
:1018E000002543F640010195C4F202010A6804464E
:1018F00042F008020A60096801A801F0080101919C
:101900000199694600F06AF9049E002E18BF01266D
:1019100000F084F94DF68361B040C4F21B31A0FBA6
:1019200001014FF0FF3000EB914140F6FC5040F6D2
:101930000042C2F20000C4F2000240F2E733C0E904
:101940000021C0E902530561856100F0FFFB0546F7
:1019500010B1284606B070BD40F6FC50C2F200003F
:1019600000F068FC05460028F3D1322000F036F87C
:101970000F2C0DD8322021460022002500F040F81F
:1019800040F20400C2F200000460284606B070BDB8
:101990000125284606B070BD82B0002043F6400104
:1019A0000190C4F202014A6842F480424A604A68E7
:1019B00002F480420192019A00900868002240F0EF
:1019C0008050086008680F2100F080500090009857
:1019D0006FF0010002B000F013B80000002848BF0B
:1019E000704700F01F01012202FA01F11C2202EAF5
:1019F000D0004EF20012CEF200028150704700007B
:101A000010B54EF60C5CCEF2000CDCF80030C3F3DF
:101A1000022E8EF00704042C28BF0424BEF1030319
:101A20004FF0FF3E0EFA04F438BF0023A143994063
:101A30000EFA03F39A43114300F00F0200F16043E2
:101A40000901043A03F564436244002848BF02F1E7
:101A50000C03197010BD00004EF60C51CEF20001BF
:101A60000A684FF6FF031A4060F30A2242F08060D2
:101A700040F0FD7008607047002804BF01207047E7
:101A80002DE9F04143F60808C4F202080446D8F8EC
:101A9000F8030D4600F00700884207D288F8F85393
:101AA000D8F8F80300F00700A84277D12068810732
:101AB00017D5410705D5D8F8001041F4E051C8F812
:101AC0000010010705D5D8F8001041F46041C8F8AE
:101AD0000010D8F80010A26821F0F0011143C8F8F6
:101AE0000010C00740D1D8F8F80300F00700A84262
:101AF00007D988F8F853D8F8F80300F00700A8428F
:101B00004CD12068410707D5D8F80010E26821F4CD
:101B1000E0511143C8F80010000708D5D8F80000BC
:101B2000216920F4604040EAC100C8F8000000F0DC
:101B30009DF8D8F800104BF2A522C1F30311C0F6AE
:101B40000002515C40F2080220FA01F140F2040068
:101B5000C2F200000068C2F200021160FFF7BEFE90
:101B60000020BDE8F08100BF6068811E022907D215
:101B700058F8081C89015CBF0120BDE8F08111E024
:101B8000012807D158F8081C89035CBF0120BDE873
:101B9000F08107E058F8081C890703D40120BDE84C
:101BA000F08100BFD8F8001021F003010843C8F805
:101BB0000000FFF763FE064641F28837D8F80000C0
:101BC000616800F00C00B0EB810F8CD0FFF756FE7F
:101BD000801BB842F2D90320BDE8F0810F220260D9
:101BE00043F60802C4F20202136803F003034360E1
:101BF000136803F0F0038360136803F4E053C360D9
:101C0000D2F800C04FF4E05303EADC030361D2F8DA
:101C1000F80300F0070008607047000040F2080079
:101C200043F60801C2F20000C4F20201006809682C
:101C30004BF2B522C1F38221C0F60002515CC840CC
:101C40007047000040F2080043F60801C2F20000AD
:101C5000C4F20201006809684BF2B522C1F34231B7
:101C6000C0F60002515CC8407047000010B543F652
:101C70000404C4F20204606800F00C0142F2004067
:101C80000829C0F2F40007D0042918BF10BD41F2A2
:101C90000020C0F27A0010BD216801F03F022168E7
:101CA00023684902C3F3881106D4A1FB0001002375
:101CB000FEF7F2FA07E000BF41F20020C0F27A001E
:101CC0004843B0FBF2F021680222C1F3014102EB6C
:101CD0004101B0FBF1F010BD002804BF01207047A6
:101CE0002DE9F04182B00446007843F60006C007B3
:101CF000C4F202060CD0B06800F00C00042840F0DA
:101D000081803068800303D56068002800F06A8114
:101D1000207880071BD5B06810F00C0F09D0B06890
:101D200000F00C00082840F087807068400200F145
:101D300083803068800703D5E068012840F0528135
:101D40003068216920F0F80040EAC1003060207856
:101D5000000713D4207840072AD4A569002D00F08D
:101D60003C81B06800F00C00082840F0A180012DF3
:101D700040F01081012002B0BDE8F08160690028C8
:101D800040F20000C4F2472000F07E800121C0F83C
:101D9000801EFFF773FD0546706F8007DAD4FFF7EA
:101DA0006DFD401B0228F7D9032002B0BDE8F08189
:101DB000306C5FEAC0080AD400200190306C40F01B
:101DC00080503064306C00F080500190019847F2F0
:101DD0000007C4F200073868C00547D4386840F4EB
:101DE00080703860FFF74AFD054600BF3868C005BF
:101DF0003CD4FFF743FD401B0228F7D9032002B073
:101E0000BDE8F081B06800F00C00082803D17068CC
:101E100040023FF576AF6068B0F5803F07D0B0F57F
:101E2000A02F40F09B80306840F480203060306804
:101E300040F4803030609BE0E06800285CD00020F7
:101E4000C4F2472001210160FFF718FD054600BFDD
:101E5000306880073FF574AFFFF710FD401B022884
:101E6000F6D9032002B0BDE8F08100BFA0680128C8
:101E700005D0052854D1306F40F004003067306F32
:101E800040F00100306755E00021C0F8801EFFF7E8
:101E9000F5FC0546706F80077FF55CAFFFF7EEFC41
:101EA000401B0228F6D9032002B0BDE8F08100BF34
:101EB0000027C4F2472700203866FFF7DFFC022D19
:101EC00005460DD13068800140F19080FFF7D6FCC7
:101ED000401B02284FF00300F4D902B0BDE8F081A6
:101EE0003068800179D5FFF7C9FC401B02284FF00C
:101EF0000300F5D9F1E700BF0020C4F2472000211C
:101F00000160FFF7BBFC0546306880077FF51FAF17
:101F1000FFF7B4FC401B02284FF00300F4D9DCE7C4
:101F2000316F002821F001013167316F21F0040188
:101F300031677DD0FFF7A2FC054641F2883700BF2C
:101F4000306F800700F18680FFF798FC401BB84295
:101F5000F6D9032002B0BDE8F08100BF3168002847
:101F600021F480313160316821F4802131607BD0EF
:101F7000FFF784FC054600BF306880033FF5C8AE1C
:101F8000FFF77CFC401B6428F6D9032002B0BDE8B3
:101F9000F08100BF7068E16900F480028A4221D1BB
:101FA000216A00F03F028A421CD147F6C071626A82
:101FB0000140B1EB821F15D1A16A4FF6FF73C9032F
:101FC000994300F44032A1F580318A420AD1E16A96
:101FD00000F07060B0EB016F04D1002002B0BDE8EA
:101FE000F08100BF012002B0BDE8F08104F11C05C2
:101FF0002FCD084340EA8210D9034FF6FF72914378
:10200000A1F5803140EA0560084370600120386620
:10201000FFF734FC044600BF30688001DDD4FFF7D1
:102020002DFC001B02284FF00300F5D955E700BF37
:10203000FFF724FC054641F2883700BF306F800768
:1020400008D5FFF71BFC401BB8424FF00300F5D941
:1020500043E700BFB8F1000F3FF57FAE306C20F0D2
:102060008050306479E600BFFFF708FC054600BFEA
:10207000306880037FF54CAEFFF700FC401B6428FE
:102080004FF00300F4D928E77047000070470000C4
:1020900090F83C20012A4FF0020254D010B580F88D
:1020A0003D200268D2F804E0D2F808C00C682EF097
:1020B0007003234341F2FF74C4F20004A242536050
:1020C0000EDC40F2FF73C4F200039A4216DCB2F158
:1020D000804F2BD040F20043C4F2000324E000BF45
:1020E00040F2FF33C4F201039A4213DC41F60003CD
:1020F000C4F200039A4219D0002313E040F6000313
:10210000C4F200039A4211D040F60043C4F2000327
:102110000AE000BF44F20003C4F201039A4205D072
:1021200040F20043C4F201039A4204D149682CF002
:102130008003194391600121002280F83D1080F84E
:102140003C20BDE81040104670470000002804BF46
:102150000120704710B5044690F83D0028B90020D2
:1021600084F83C00204600F01FF8022084F83D006F
:102170002068211D02F028F8012084F8460084F828
:102180003E0084F83F0084F8400084F8410084F861
:10219000420084F8430084F8440084F8450084F841
:1021A0003D00002010BD000083B0006844F2000133
:1021B000C4F20101884219D041F60001C4F20001C5
:1021C000884225D0B0F1804F31D10020029043F6F3
:1021D0004000C4F20200016841F0010101600068A2
:1021E00000F001000290029803B0704700200190B7
:1021F00043F64000C4F20200416841F4803141607E
:10220000406800F480300190019803B0704700BF2F
:102210000020009043F64000C4F20200016841F043
:1022200040010160006800F040000090009803B099
:102230007047000090F83D1001291CBF0120704735
:10224000022180F83D10006841F2FF72C168C4F2BB
:102250000002904241F00101C1600DDC40F2FF71CB
:10226000C4F20001884215DCB0F1804F2AD040F260
:102270000041C4F2000123E040F2FF31C4F2010149
:10228000884213DC41F60001C4F20001884219D0F3
:10229000002113E040F60001C4F20001884211D091
:1022A00040F60041C4F200010AE000BF44F2000120
:1022B000C4F20101884205D040F20041C4F201019C
:1022C000884206D1816801F00701062904BF002079
:1022D0007047016841F00101016000207047000073
:1022E00090F83C20012A4FF0020200F0C58080B532
:1022F00080F83D20D0F800C04FF67772DCF8083047
:1023000023EA0202CCF808200B684F2B28DC1F2B95
:1023100044DD202B45D0302B43D0402B40F0AE8005
:10232000D1F804E0C968DCF82030DCF8202022F085
:102330000102CCF82020DCF8182022F0F00242EA5A
:10234000011123F00A0242EA0E02CCF81810CCF870
:102350002020DCF8081041F0470121F0300180E036
:102360006F2B27DDB3F5005F48D0B3F5805F7AD0DF
:10237000702B40F08380D1E901E3C968DCF80820C4
:1023800043EA0E0322F47F4243EA01211143CCF8D1
:102390000810DCF8081041F0770162E00BB1102B57
:1023A0006CD1DCF8081021F07001194341F00701ED
:1023B00057E000BF502B35D0602B5FD1D1F804E03F
:1023C000C968DCF82030DCF8202022F01002CCF8BC
:1023D0002020DCF8182022F4704242EA013123F078
:1023E000A00242EA0E12CCF81810CCF82020DCF83B
:1023F000081041F0670121F0100132E0D1E901E35A
:10240000C968DCF8082043EA0E0322F47F4243EA5D
:1024100001211143CCF80810DCF8081041F4804188
:102420001FE000BFD1F804E0C968DCF82030DCF818
:10243000202022F00102CCF82020DCF8182022F025
:10244000F00242EA011123F00A0242EA0E02CCF83D
:102450001810CCF82020DCF8081041F0570121F0CA
:102460002001CCF808100022012180F83D10002145
:1024700080F83C10BDE88040104670470122F3E729
:10248000002804BF012070472DE9F047044690F86A
:102490003D000D4628B9002084F83C00204600F09D
:1024A00049F8022084F83D00206844F20702816860
:1024B00091438160211D01F087FE20684FF6FF786F
:1024C00081688269D0F820C0D5E9003ED5E9026A6A
:1024D00043EA0109AB6922EA080246EA03234FF600
:1024E000FC46B343D5E9076742EA0A0229691A4361
:1024F00042EA062242EA01112CF0AA026B6942EA82
:102500000E0241EA073142EA0312C0F808908161E5
:102510000262012084F8460084F83E0084F83F00FF
:1025200084F8420084F8430084F83D000020BDE8B0
:10253000F0870000F0B587B000684FF6FF71C4F275
:10254000000188424FF000010691CDE90411CDE968
:1025500002114FDC40F20041C4F20001884200F059
:10256000818040F60001C4F20001884240F0D3802F
:10257000002543F630000195C4F2020001690027EE
:1025800041F0040101610169C4F2020701F0040194
:10259000019101990195016802AC41F008010160C7
:1025A0000168022601F00801019101990195016875
:1025B00041F0020101600068214600F00200019034
:1025C00001984FF40050029007F54060CDE9036593
:1025D000CDE90556FFF776F84020CDE90206CDE9B2
:1025E0000455069607F580602146FFF76BF807B0A3
:1025F000F0BD00BF40F20041C4F20101884259D051
:102600000021C4F20101884240F08580002043F699
:1026100030010190C4F202014A6942F001024A61AC
:102620004A6902F001020192019A01900A6842F09F
:1026300010020A60096801F01001019101994FF43C
:10264000206102910221CDE903100590012006903E
:102650000020C4F2020000F5805002A9FFF732F812
:1026600007B0F0BD002043F630010190C4F2020132
:102670000A6942F002020A610A6902F0020201924A
:10268000019A01900A6842F001020A60096801F0AB
:10269000010101910199C02102910221CDE90310AC
:1026A000CDE905010020C4F2020002A9FFF70AF8F3
:1026B00007B0F0BD002043F630010190C4F20201E2
:1026C0004A6942F002024A614A6902F0020201923A
:1026D000019A01900A6842F004020A60096801F058
:1026E000040101910199C02102910221CDE9031059
:1026F0000590032006900020C4F2020000F500605F
:1027000002A9FEF7DFFF2D2005210022FFF778F94F
:102710002D20FFF763F907B0F0BD000070470000FF
:1027200070B504460068C5680669B10716D515F08E
:10273000020113D06FF0020101610121217780694C
:10274000800703D02046FFF7E9FF05E0204600F0B0
:102750008FF8204600F0D0F900202077700719D5B7
:1027600015F0040016D020686FF004010161022109
:102770002177806910F4407F04D02046FFF7CEFF18
:1027800006E000BF204600F073F8204600F0B4F9E0
:1027900000202077300717D515F0080014D02068E6
:1027A0006FF00801016104212177C069800703D01F
:1027B0002046FFF7B3FF05E0204600F059F8204619
:1027C00000F09AF900202077F00619D515F01000D6
:1027D00016D020686FF01001016108212177C069CF
:1027E00010F4407F04D02046FFF798FF06E000BFBA
:1027F000204600F03DF8204600F07EF900202077CA
:10280000F00718BF15F0010002D1300609D412E01C
:1028100020686FF001010161204600F06FF9300679
:1028200009D515F0800006D020686FF080010161A5
:102830002046FFF729FC700609D515F0400006D0A8
:1028400020686FF040010161204600F061F9B00698
:1028500058BF70BD15F0200008D021686FF020022D
:1028600020460A61BDE87040FFF710BC70BD000053
:102870007047000090F83C30012B04BF02207047E5
:102880004FEAB202032A00F201812DE9F043DFE8AA
:1028900002F0033F7FBF00BF036840F200461C6A9E
:1028A0001A6A24F0020422F001021A621A46D3F8CE
:1028B00004C052F818EF8F6843F48065C4F2010633
:1028C000B54244EA070405D1CF6824F00C0427F090
:1028D00004073C430F68B54206D1D1E905582CF4F2
:1028E00040762E4346EA080C2EF073063743C3F8B1
:1028F00004C09F614F6809695F631C629F6947F06C
:1029000008079F619F6927F004079F61B2E000BF3D
:10291000036840F200481C6A1A6A24F0200422F07E
:1029200010021A621A46D3F804C052F818EF8F68E2
:1029300043F48065C4F20108454544EA071407D111
:10294000CF686FF0400624F0C00406EA071634434F
:10295000D1F80090454506D1D1E905562CF44067E1
:102960002E4347EA860C2EF4E64747EA0927C3F8C8
:1029700004C09F614F6809699F631C629F6947F4A7
:1029800000679F619F6927F480679F6171E000BFC6
:10299000036840F200481C6A1A6A24F4007422F4A6
:1029A00080721A621A46D3F804C052F81CEF8F687E
:1029B00043F48065C4F20108454544EA072408D180
:1029C000CF6840F2FF463F0224F4406427EA06063F
:1029D0003443D1F80090454506D1D1E905562CF491
:1029E00040572E4347EA061C2EF0730747EA0907B3
:1029F000C3F804C0DF614F680969DF631C62DF69E7
:102A000047F00807DF61DF6927F00407DF6131E085
:102A1000036840F20045D3F820C01A6A43F4806787
:102A200022F480521A621A465C6852F81CEFD1F800
:102A300000808E68C4F20105AF4204D14D6924F4D0
:102A4000804444EA85142CF4005747EA06372EF4F4
:102A5000E64646EA08265C60DE614E6809691E6447
:102A60001F62DF6947F40067DF61DF6927F4806771
:102A7000DF6109021368194311600021BDE8F043CA
:102A8000002280F83C200846704700BF0121002248
:102A900080F83C2008467047002804BF012070479A
:102AA00010B5044690F83D0028B9002084F83C0099
:102AB000204600F01FF8022084F83D002068211D08
:102AC00001F082FB012084F8460084F83E0084F87F
:102AD0003F0084F8400084F8410084F8420084F804
:102AE000430084F8440084F8450084F83D00002049
:102AF00010BD00007047000070470000006840F6FD
:102B00000041C4F20001884218BF7047FEF7BCBE06
:102B1000704700007047000070470000B0B582B0F9
:102B2000044600680168C368426901F02F05202D42
:102B300003F0200506D12DB1204602B0BDE8B0401B
:102B400001F014BD5FEA017C1EBF02F0010E03F428
:102B5000907212EB0E0243D1226BCD0618D5012ADA
:102B600016D113F0100213D00021019101680191D8
:102B7000416801910199406940063BD4A08DE18DE7
:102B8000E28D002A18BF884240F0F28102B0B0BD49
:102B90000A0640F1E78013F0800200F0E38094F829
:102BA00041102129F2D1A168B1F5805F03D12169DB
:102BB000002900F06382216A4A1C22620978416080
:102BC000E18C01390A04E184E0D1C16821F080017F
:102BD000C160C16841F04001C16002B0B0BD00BF3A
:102BE000CA0718BF13F4807240F0D0804A0700F182
:102BF000D380D8E0E06B016849688AB2002AC5D06A
:102C0000A38D9A42C2D2E185C069B0F5807F00F001
:102C10009D80206850E8030F216820F4807041E80F
:102C20000302DAB1206850E8030F216820F48070B5
:102C300041E8030292B1206850E8030F216820F4B4
:102C4000807041E803024AB1206850E8030F216810
:102C500020F4807041E80302002ADAD1206850E8AD
:102C6000050F216820F0010041E80502BAB3206891
:102C700050E8050F216820F0010041E8050272B319
:102C8000206850E8050F216820F0010041E80502A6
:102C90002AB3206850E8050F216820F0010041E8C0
:102CA0000502002ADAD11AE0206850E8050F2168F1
:102CB00020F0400041E80502DAB1206850E8050F35
:102CC000216820F0400041E8050292B1206850E8F8
:102CD000050F216820F0400041E805024AB1206854
:102CE00050E8050F216820F0400041E80502002A65
:102CF000DAD1202084F8420000202063206850E8C8
:102D0000030F216820F0100041E80302DAB12068C7
:102D100050E8030F216820F0100041E8030292B14F
:102D2000206850E8030F216820F0100041E80302FA
:102D30004AB1206850E8030F216820F0100041E8F4
:102D40000302002ADAD1E06BFEF77EFA022060630C
:102D5000A08DE18D401A81B2204602B0BDE8B0409E
:102D6000FFF7D8BE49067FF511AF13F040013FF4DD
:102D70000DAFC16821F04001C1602021204684F8D8
:102D8000411002B0BDE8B04000F07ABC626C42F085
:102D9000010262644A0706D5BEF1000F03D0626CDF
:102DA00042F0020262648A0706D5BEF1000F03D02A
:102DB000626C42F004026264BCF1000F06D55EEA68
:102DC000050203D0626C42F008026264626C002A61
:102DD0003FF4DCAE890604D51DB1204601F0C6FBE8
:102DE00020684069616C00F0400001F00801401863
:102DF00000F0B680206850E8030F216820F490703E
:102E000041E80302BAB3206850E8030F216820F4B8
:102E1000907041E8030272B3206850E8030F216804
:102E200020F4907041E803022AB3206850E8030FB1
:102E3000216820F4907041E80302002ADAD11AE0F8
:102E4000206850E8050F216820F0010041E80502E4
:102E5000DAB1206850E8050F216820F0010041E850
:102E6000050292B1206850E8050F216820F00100AA
:102E700041E805024AB1206850E8050F216820F0BA
:102E8000010041E80502002ADAD1206B012824D193
:102E9000206850E8030F216820F0100041E8030289
:102EA000DAB1206850E8030F216820F0100041E8F3
:102EB000030292B1206850E8030F216820F010004F
:102EC00041E803024AB1206850E8030F216820F06E
:102ED000100041E80302002ADAD1202084F84200E1
:102EE0000020206320684069400640F1C1802068CE
:102EF00050E8050F216820F0400041E80502DAB1F2
:102F0000206850E8050F216820F0400041E80502E4
:102F100092B1206850E8050F216820F0400041E898
:102F200005024AB1206850E8050F216820F04000F2
:102F300041E80502002ADAD1E06B002800F0988011
:102F400044F22D31C0F600010165FEF7C5F90028F5
:102F50003FF41CAEE06B016D02B0BDE8B040084725
:102F60002046FFF7D9FD0020606402B0B0BD00BF6D
:102F7000401A00BF216851E8031F226821F49071B4
:102F800042E80313BBB3216851E8031F226821F410
:102F9000907142E8031373B3216851E8031F22685C
:102FA00021F4907142E803132BB3216851E8031F09
:102FB000226821F4907142E80313002BDAD11AE061
:102FC000216851E8051F226821F0010142E805133C
:102FD000DBB1216851E8051F226821F0010142E8B8
:102FE000051393B1216851E8051F226821F0010102
:102FF00042E805134BB1216851E8051F226821F012
:10300000010142E80513002BDAD1202184F8421097
:1030100000212163216851E8031F226821F010017B
:1030200042E80313DBB1216851E8031F226821F055
:10303000100142E8031393B1216851E8031F22688D
:1030400021F0100142E803134BB1216851E8031F3E
:10305000226821F0100142E80313002BDAD102228A
:1030600081B22046626302B0BDE8B040FFF752BDB6
:10307000204602B0BDE8B040FFF74EBD216A31F8EE
:10308000022B6FF35F224260216299E5002804BFA2
:103090000120704710B5044690F8410028B900207F
:1030A00084F84000204600F021F8242084F84100F4
:1030B0002068C16821F40051C160204601F0D6FAB1
:1030C0002068016921F490410161416921F02A01E0
:1030D0004161C16841F40051C16000202021606459
:1030E00084F8411084F84210606310BD2DE9F04768
:1030F00086B00446006844F6FF31C4F200018842FD
:103100004FF000010591CDE90311CDE9011167DD13
:1031100041F20041C4F20101884200F0DB8045F237
:103120000001C4F20001884200F0288144F6004109
:10313000C4F20001884240F0E081002643F63000EE
:103140000096C4F20200016941F4002101610169A5
:1031500001F40021009100990096016841F00401FA
:103160000160006801A900F00400009000984FF48D
:10317000406001900220CDE902060320049008205F
:10318000059040F60040C4F20200A0F58060FEF712
:1031900099FA46F25800C4F2020040F6B4251830FD
:1031A000C2F200054FF00061402285E847004FF46D
:1031B00080304FF48063C5E908062846C5E9043627
:1031C000C5E90666FEF77AF9002818BFFDF74CFB43
:1031D000A563AC63342005210022342488E100BFBC
:1031E00044F20041C4F20001884200F0338144F609
:1031F0000001C4F20001884240F07F81002743F6BD
:1032000030000097C4F20200016940F6004541F425
:10321000802101610169C4F2020501F4802100915D
:1032200000990097016801AE41F002010160016858
:103230004FF0020801F00201009100990097016827
:103240004FF0030941F00801016000684FF0070AE0
:1032500000F00800009000984FF440600190A5F540
:1032600000603146CDE90287CDF81090CDF814A06A
:10327000FEF728FA4FF4C050CDE9010803A880E812
:10328000800628463146FEF71DFA40F6D43546F250
:103290005800C2F20005C4F202004FF00061402263
:1032A00085E887004FF480304FF48063C5E9080754
:1032B0002846C5E90437C5E90677FEF7FFF8002878
:1032C00018BFFDF7D1FAA563AC63272003210022C4
:1032D00027240DE1002643F630000096C4F20200D8
:1032E000416941F020014161416901F020010091F3
:1032F00000990096016841F040010160006801A951
:1033000000F04000009000984FF4844001900220AB
:10331000CDE90206032004900820059040F6004005
:10332000C4F2020000F54060FEF7CCF946F2580006
:10333000C4F2020040F6344500F58960C2F200058F
:103340004FF02061402285E847004FF480304FF471
:103350008063C5E908062846C5E90436C5E906665E
:10336000FEF7ACF8002818BFFDF77EFAA563AC6342
:103370004720062100224724BAE000BF002743F679
:1033800030000097C4F20200016940F6004541F4A4
:10339000801101610169C4F2020501F480110091FC
:1033A00000990097016801AE41F0040101600168D5
:1033B0004FF0020801F004010091009900970168A4
:1033C0004FF0030941F00801016000684FF0080A5E
:1033D00000F00800009000984FF480500190A5F58F
:1033E00080603146CDE90287CDF81090CDF814A069
:1033F000FEF768F90420CDE9010803A880E88006FB
:1034000028463146FEF75EF946F25800C4F2020043
:1034100040F614356030C2F200054FF000614022E2
:1034200085E887004FF480304FF48063C5E90807D2
:103430002846C5E90437C5E90677FEF73FF80028B6
:1034400018BFFDF711FAA563AC63352005210022F2
:1034500035244DE0002643F630000096C4F2020009
:10346000016941F400310161016901F40031009109
:1034700000990096016841F008010160006801A907
:1034800000F0080000900098602001900220CDE933
:103490000206032004900720059040F60040C4F285
:1034A0000200FEF70FF946F25800C4F2020040F69F
:1034B00074354830C2F200054FF00061402285E8C3
:1034C00047004FF480304FF48063C5E90806284672
:1034D000C5E90436C5E90666FDF7F0FF002818BF08
:1034E000FDF7C2F9A563AC6326200421002226243F
:1034F000FEF786FA2046FEF771FA06B0BDE8F087BF
:1035000090F84230202B07D100294FF0010318BF5B
:10351000002A05D11846704702231846704700BF9D
:1035200000230363816222218285C285436480F87F
:1035300042100169006819B1C16841F48071C1602D
:10354000416941F001014161C16841F02001C16060
:1035500018467047F0B581B040F26075C2F20005C0
:103560002968044601290BDB40F23876C2F20006D6
:1035700030684268A24219D0013906F10406F7D139
:103580002868012810DB40F238770026C2F20007D5
:1035900057F82600012200F108012046FFF7B0FF8E
:1035A000286801368642F3DB01B0F0BD0268017A7B
:1035B000126890473068012200F10801204601B0EE
:1035C000BDE8F040FFF79CBFB0B5044690F841005D
:1035D00020281CBF0220B0BD00294FF001004DD0B3
:1035E000002A134608BFB0BD4FF0000C2120216215
:1035F000A384E384C4F844C084F84100A06B44F27F
:10360000B54E44F265552268C0F6000EC0F60005BE
:10361000C0E90FE544F23935C0F600050432C0E9CF
:10362000135CFDF7FDFF20686FF04001016000BFF3
:10363000206850E8050F216840F0800041E805024D
:10364000DAB1206850E8050F216840F0800041E8B9
:10365000050292B1206850E8050F216840F0800013
:1036600041E805024AB1206850E8050F216840F0A2
:10367000800041E80502002ADAD10020B0BD000038
:103680007047000070470000FEE7000080B540F280
:10369000900046F20041C2F20000C4F2000140F87E
:1036A000181F03210022C0E9011200F10C014FF4A0
:1036B00000234FF4401C81E80C1082618283FDF7E7
:1036C0007BFB002808BF80BDBDE88040FDF7CCB87B
:1036D00080B540F2900046F60001C2F20000C4F24C
:1036E000000140F8401F03210022C0E9011200F14F
:1036F0000C014FF400234FF4401C81E80C104FF4F0
:1037000080710183C0F81A20FDF756FB002808BF1E
:1037100080BDBDE88040FDF7A7B8000080B582B04D
:10372000002043F630010190C4F202010A6842F41D
:1037300000120A600A6802F400120192019A0090D5
:103740000868002240F4800008600868052100F441
:103750008000009000980E20FEF752F90E20FEF730
:103760003DF90F2005210022FEF74AF90F20FEF750
:1037700035F9112005210022FEF742F91120FEF74C
:103780002DF92F2005210022FEF73AF92F20FEF710
:1037900025F9452005210022FEF732F9452002B027
:1037A000BDE88040FEF71AB92DE9F04387B0002745
:1037B00043F6300006970197C4F20200016841F217
:1037C000004941F0100101600168C4F2020901F0F2
:1037D00010010191019901970168A9F5406541F037
:1037E000040101600168002201F0040101910199C6
:1037F000019701684AF20F0641F02001016001685B
:1038000001F02001019101990197016841F08001C7
:103810000160016801F0800101910199019701683F
:1038200041F001010160016801F00101019101997C
:103830000197016841F002010160016801F0020195
:10384000019101990197016841F008010160016847
:1038500001F00801019101990197016841F04001CF
:10386000016000684AF20F0100F0400001900198E9
:103870002846FDF7FDFF48461E2100224FF01E0896
:10388000FDF7F6FF029602AE012428463146CDE947
:1038900003470597FDF716FF48463146CDE90284F8
:1038A000CDE90477FDF70EFF4FF47150CDE9020723
:1038B000484631460494FDF705FF07B0BDE8F083A4
:1038C000B0B592B041F6000540F6DC40C4F2000508
:1038D0000021C2F2000040F28F6240F2E7330B9108
:1038E000CDE909110791CDE90511CDE90311CDE924
:1038F0000111C0E90052C0E9021301618161FEF7C4
:1039000025FC002818BFFCF7AFFF4FF4805008904B
:1039100040F6DC40C2F2000008A9FEF7E1FC0028F6
:1039200018BFFCF7A1FF40F6DC40C2F20000FFF731
:10393000B3F8002818BFFCF797FF60200190002023
:10394000CDE90200059040F6DC40C2F2000001A97A
:103950000022FEF78FFF002818BFFCF785FF40F616
:10396000DC44C2F2000401A920460422FEF782FFD3
:10397000002818BFFCF778FF206844F20002C4F268
:103980000102002190420D911AD0A8422CD0B0F132
:10399000804F47D100200C9043F63000C4F2020063
:1039A000016841F0010101600068012100F001009F
:1039B0000C900C980F200D9005F5F43029E000BF15
:1039C00043F630000C91C4F20200016841F010018E
:1039D00001600068032100F010000C900C9860203A
:1039E0000D9005F5FC3014E000200C9043F63000FB
:1039F000C4F20200016841F002010160006809217F
:103A000000F002000C900C984FF440400D9005F52A
:103A1000F63002220E92002211910DA9CDE90F225B
:103A2000FDF750FE12B0B0BD10B58CB040F694401A
:103A300000210024C2F20000C4F20101C0E9001418
:103A40000321CDE9031401214FF6FF72CDE90514DE
:103A5000CDE9091403A9CDE90044C0E90242C0E957
:103A600004448461CDE907440B94FEF709FD002866
:103A700018BFFCF7F9FE40F69440C2F20000694618
:103A8000CDE90044FEF704FB002818BFFCF7ECFE6C
:103A90000CB010BD10B594B040F624500021C2F215
:103AA00000004FF08042072340F2E7340D91CDE94A
:103AB0000B110991CDE90711CDE90511CDE90311EC
:103AC000CDE90111C0E90023C0E90214016181615F
:103AD000FEF73CFB002818BFFCF7C6FE4FF48050F1
:103AE0000A9040F62450C2F200000AA9FEF7F8FB43
:103AF000002818BFFCF7B8FE40F62450C2F20000C0
:103B0000FEF7CAFF002818BFFCF7AEFE40F62450AF
:103B10000024C2F2000008A9CDE90844FEF7B8FA73
:103B2000002818BFFCF7A0FE6020CDE9010440F694
:103B30002450C2F2000001A9002203940594FEF76C
:103B400099FE002818BFFCF78FFE40F62450C2F201
:103B5000000001A90422FEF78DFE002818BFFCF723
:103B600083FE40F62450C2F2000001A90822FEF7AD
:103B700081FE002818BFFCF777FE40F62454C2F2FD
:103B8000000401A920460C22FEF774FE002818BF8D
:103B9000FCF76AFE206844F20002C4F20102002130
:103BA00090420F911ED041F60001C4F200018842FC
:103BB00030D0B0F1804F4ED100200E9043F630004F
:103BC000C4F20200016841F00101016000680121B6
:103BD00000F001000E900E980F200F900020C4F20C
:103BE00002002FE043F630000E91C4F2020001689B
:103BF00041F0100101600068032100F010000E90F8
:103C00000E9860200F900020C4F2020000F5805052
:103C100018E000BF00200E9043F63000C4F202000E
:103C2000016841F0020101600068092100F0020012
:103C30000E900E984FF440400F900020C4F2020006
:103C400000F5806002221092002213910FA9CDE9A5
:103C50001122FDF737FD14B010BD000080B58CB007
:103C600040F66C5040F200420021C2F20000C4F263
:103C70000002C0E9002103224FF6FF73CDE90321C2
:103C80000122CDE90011C0E9021301618161CDE992
:103C90000521CDE90711CDE909210B9103A9FEF713
:103CA000EFFB002818BFFCF7DFFD40F66C50C2F2B6
:103CB00000006946FEF7ECF9002818BFFCF7D4FDB8
:103CC0000CB080BD80B58CB040F6B45040F6000218
:103CD0000021C2F20000C4F20002C0E90021032268
:103CE0004FF6FF73CDE903210122CDE90011C0E9B0
:103CF000021301618161CDE90521CDE90711CDE90B
:103D000009210B9103A9FEF7BBFB002818BFFCF7A4
:103D1000ABFD40F6B450C2F200006946FEF7B8F9B8
:103D2000002818BFFCF7A0FD0CB080BD10B58CB00A
:103D300040F6446040F200410024C2F20000C4F2A8
:103D40000101C0E900140321CDE9031401214FF65C
:103D5000FF72CDE90514CDE9091403A9CDE90044AA
:103D6000C0E90242C0E904448461CDE907440B94F0
:103D7000FEF786FB002818BFFCF776FD40F644608E
:103D8000C2F200006946CDE90044FEF781F900283F
:103D900018BFFCF769FD0CB010BD0000B0B592B0C3
:103DA00044F2000540F68C60C4F201050021C2F225
:103DB000000040F28F6240F2CF730B91CDE9091100
:103DC0000791CDE90511CDE90311CDE90111C0E954
:103DD0000052C0E9021301618161FEF7B7F90028C2
:103DE00018BFFCF741FD4FF48050089040F68C60FE
:103DF000C2F2000008A9FEF773FA002818BFFCF70A
:103E000033FD40F68C60C2F20000FEF745FE00284C
:103E100018BFFCF729FD602001900020CDE90200C9
:103E2000059040F68C60C2F2000001A90022FEF766
:103E300021FD002818BFFCF717FD40F68C64C2F284
:103E4000000401A920460422FEF714FD002818BF33
:103E5000FCF70AFD20680021A8420D911ED041F612
:103E60000001C4F2000188422CD0B0F1804F47D14C
:103E700000200C9043F63000C4F20200016841F0CB
:103E8000010101600068012100F001000C900C9814
:103E90000F200D9005F5404029E000BF43F63000AB
:103EA0000C91C4F20200016841F010010160006849
:103EB000032100F010000C900C9860200D9005F587
:103EC000504014E000200C9043F63000C4F2020091
:103ED000016841F0020101600068092100F0020060
:103EE0000C900C984FF440400D9005F54440022290
:103EF0000E92002211910DA9CDE90F22FDF7E2FBF0
:103F000012B0B0BD80B540F6647044F60041C2F214
:103F10000000C4F2000100234FF00C0C4FF4E1321A
:103F200080E80E00C0E90333C0E905C3C361FFF7B1
:103F3000ADF8002808BF80BDBDE88040FCF794BC08
:103F400080B540F6AC7045F20001C2F20000C4F248
:103F5000000100234FF00C0C4FF4E13280E80E001A
:103F6000C0E90333C0E905C3C361FFF78FF8002838
:103F700008BF80BDBDE88040FCF776BC80B540F648
:103F8000D46044F20041C2F20000C4F200010023F8
:103F90004FF00C0C4FF4E13280E80E00C0E903331F
:103FA000C0E905C3C361FFF771F8002808BF80BDF1
:103FB000BDE88040FCF758BC80B540F61C7044F664
:103FC0000001C2F20000C4F2000100234FF00C0C0B
:103FD0004FF4407E4FF4E13280E80E00C0E9033335
:103FE000C0E905CEC361FFF751F8002808BF80BDC6
:103FF000BDE88040FCF738BC80B540F6F47041F273
:104000000041C2F20000C4F2010100234FF00C0C89
:104010004FF4165280E80E00C0E90333C0E905C32F
:10402000C361FFF733F8002808BF80BDBDE88040BA
:10403000FCF71ABCFEE70000FEE7000000000000ED
:10404000EFF30980BFF36F8F154B1A681EF0100F46
:1040500008BF20ED108A20E9F04F10602DE909001B
:104060004FF0500080F31188BFF34F8FBFF36F8F75
:1040700005F06EFF4FF0000080F31188BDE80900E5
:1040800019680868B0E8F04F1EF0100F08BFB0ECD8
:10409000108A80F30988BFF36F8F704700BF00BF9D
:1040A000F8000020000000000000000000000000F8
:1040B000074B19680868B0E8F04F80F30988BFF330
:1040C0006F8F4FF0000080F31188704700BF00BF72
:1040D000F800002080B54EF21000CEF2000000681B
:1040E00006F06AFD012808BF80BDBDE8804006F0EB
:1040F00051B80000B0B592B0002443F64000CDE9BD
:104100000A44CDE908440594CDE90344CDE90144CE
:104110000094C4F202000168022541F08051016060
:10412000006800F080500090009847F20000009472
:10413000C4F20000016841F480410160006800F4AD
:10414000804000900098012006904FF48030079046
:104150004FF480000D9004200E90A820CDE90F05AB
:104160000720119006A80C95FDF7B6FD10B172B6A8
:10417000FEE700BF0F20CDE901054FF4A0500490E9
:104180004FF48050059001A805210394FDF774FCBD
:1041900010B172B6FEE700BF12B0B0BD4EF6885047
:1041A000CEF20000016841F4700101607047000028
:1041B00040F6FC50C2F20000FEF7B2BA40F644608E
:1041C000C2F20000FEF7ACBA10B540F6FF3E03683D
:1041D000C4F2000E40F2004C7045C4F2010C27DC22
:1041E000B0F1804F31D040F20042C4F20002904260
:1041F0002BD040F60002C4F20002904225D041F6D6
:10420000FF72C4F20002904229DC70453CDCB0F140
:10421000804F5FD040F20042C4F20002904259D079
:1042200040F60002C4F20002904253D056E000BFB4
:1042300040F60042C4F20002904206D0604504D02D
:104240000022C4F201029042D9D14A6823F07003DF
:10425000134341F6FF72C4F200029042D5DD43F6EB
:10426000FF72C4F20102904222DC42F20002C4F268
:10427000000290422ED00022C4F20102904229D0C6
:10428000604527D02AE000BF40F60042C4F2000299
:1042900090421FD041F60002C4F20002904219D0B1
:1042A00041F60042C4F20002904213D016E000BF73
:1042B00044F20002C4F2010290420BD044F6000224
:1042C000C4F20102904205D044F20042C4F201025D
:1042D000904203D1CA6823F44073134323F0800251
:1042E0004B69D1F800E08C681A430260C46240F464
:1042F0008062C0F828E0624504BF096901630121BA
:1043000041610169C90708BF10BD016921F00101C0
:10431000016110BD40F66470C2F20000FEF7FEBB02
:1043200040F6AC70C2F20000FEF7F8BB806B0021D3
:10433000C185C184FEF7F0BB806B01684A6990F8C3
:104340004130212B2DD112F080022AD00021C184CE
:10435000016851E8031F026821F0C00142E803131D
:10436000DBB1016851E8031F026821F0C00142E897
:10437000031393B1016851E8031F026821F0C001E3
:1043800042E803134BB1016851E8031F026821F0B2
:10439000C00142E80313002BDAD1202180F841103C
:1043A0000168496990F84220222A40F07D8011F08E
:1043B000400179D00021C185016851E8031F0268DE
:1043C00021F4907142E80313BBB3016851E8031F65
:1043D000026821F4907142E8031373B3016851E855
:1043E000031F026821F4907142E803132BB30168A4
:1043F00051E8031F026821F4907142E80313002B77
:10440000DAD11AE0016851E8051F026821F00101C4
:1044100042E80513DBB1016851E8051F026821F08D
:10442000010142E8051393B1016851E8051F0268D4
:1044300021F0010142E805134BB1016851E8051F65
:10444000026821F0010142E80513002BDAD1016B6B
:10445000012924D1016851E8031F026821F01001ED
:1044600042E80313DBB1016851E8031F026821F041
:10447000100142E8031393B1016851E8031F026879
:1044800021F0100142E803134BB1016851E8031F0A
:10449000026821F0100142E80313002BDAD1202139
:1044A00080F8421000210163416C41F01001416429
:1044B000FEF732BB0168806B0968C90548BFFFF78A
:1044C000DFB80021C18400BF016851E8051F026800
:1044D00021F0800142E8051383B3016851E8051F0C
:1044E000026821F0800142E805133BB3016851E8FE
:1044F000051F026821F0800142E80513F3B101684D
:1045000051E8051F026821F0800142E80513002BE5
:10451000DAD113E0016851E8031F026841F040015D
:1045200042E80313002B08BF7047016851E8031FDE
:10453000026841F0400142E8031393B1016851E879
:10454000031F026841F0400142E803134BB10168C8
:1045500051E8031F026841F0400142E80313002BB9
:10456000D8D17047806BFFF78DB8000081B090F80C
:104570004210222921D183680246B3F5805F09D118
:1045800052F8281F52F8183C002B63D003685B6870
:104590000AE000BF52F8281F13B90369002BF5D0B9
:1045A00003685B6803F07F030B70116801311160D1
:1045B000C18D01390A04C18502D001B0704700BF26
:1045C0000168CA6822F02002CA60CA6822F48072B8
:1045D000CA604A6922F001024A61202180F8421033
:1045E00000214163026B012A3CD10163016851E85B
:1045F000031F026821F0100142E80313DBB10168D8
:1046000051E8031F026821F0100142E8031393B13F
:10461000016851E8031F026821F0100142E803130A
:104620004BB1016851E8031F026821F0100142E814
:104630000313002BDAD101680A68D20606D50022DE
:1046400000920A680092496800910099818D01B03A
:10465000FEF760BA026852686FF35F2221F8022BFE
:104660008162A5E701B0FEF775BF000010B50446F2
:104670000068D4E902C22369016921F44051114361
:104680000161626943EA0C01E3691143C26819439D
:1046900049F20C639A431143C1604169A26921F454
:1046A000407141F20043114340F48062C4F20103BF
:1046B0009A42416102D1FDF7C5FA01E0FDF7AEFA79
:1046C000E16963681922B1F5004FA0FB020123D113
:1046D0005A00DB0FFBF7E0FD48F21F51C5F2EB116A
:1046E000A0FB01235A094FF69C73C0F6FF7303F138
:1046F000805302FB0300322303EBC000A0FB010147
:104700004FF4F87000EA111000EB0210C1F34211EF
:1047100008442168886010BD9A009B0FFBF7BCFD20
:1047200048F21F51C5F2EB11A0FB01235A094FF6C5
:104730009C73C0F6FF7302FB0300322303EB0010EF
:10474000A0FB0101F02000EA511000EB0210C1F3C0
:10475000431108442168886010BD000040F6D46011
:10476000C2F20000FEF7DAB940F61C70C2F2000097
:10477000FEF7D4B940F6F470C2F20000FEF7CEB9ED
:10478000FEE700002DE9F04140F20030C2F20000E7
:10479000A0F16C044FF0000818264FF4A06700F554
:1047A000876500BF44F86C8F04F114005021E66067
:1047B000FBF7B7FE04F16C00A842A766F2D1BDE892
:1047C000F0810000B0B52DED048B40F24C20C2F218
:1047D000000001F0C5F9043000F050FA40F60C106A
:1047E00040F6D462C2F20000C2F2000200210023AF
:1047F000002500F0B5FC40F2647040F6AC72C2F2E5
:104800000000C2F200020021002300F0A9FC41F2E6
:104810003C0040F6F471C2F20000C2F2000101F067
:10482000BFFE40F2A8049FED758A42F26C20C2F2EE
:104830000004C2F20000022122460023B0EE480A22
:1048400003F07EF841F2F040C2F20000042122465B
:104850000123B0EE480A03F073F841F22430C2F2AB
:104860000000032122460123B0EE480A03F068F855
:1048700041F2BC60C2F20000012122460123B0EEE9
:10488000480A03F05DF841F2CC00C2F2000001F0EA
:104890008FFF42F2E440C2F2000000F02BFA42F235
:1048A0003840C2F20000302101714BF20851C0F6CD
:1048B000000101F108021C3100239FED518AC0E97B
:1048C00005154CF28F21C4F24833C0F80550C0F8EA
:1048D0000950C0F80D5005610260C0E90755C0E9F4
:1048E0000955C0E90B55C3F675514CF6CD42C0E9E8
:1048F0000E5500F1400CC0E913535430B0EE480A95
:10490000F0EE480AB0EE481AF0EE481AB0EE482A27
:10491000F0EE482AC3F6CC628CE8260003F016F9C4
:1049200040F2D00446F6D810C2F20004B0EE089A65
:10493000C2F20000012122461523B0EE490AF0EE32
:10494000480AB0EE481AF0EE481AB0EE482A02F0D3
:104950007FFB46F68820C2F2000002212246152382
:10496000B0EE490AF0EE480AB0EE481AF0EE481AE6
:10497000B0EE482A02F06CFB46F63830C2F2000076
:10498000032122461523B0EE490AF0EE480AB0EEA4
:10499000481AF0EE481AB0EE482A02F059FB41F6E8
:1049A0008800C2F20000B7EE000A04212246072365
:1049B000F0EE480AB0EE481AF0EE481AB0EE482A77
:1049C00002F046FB46F62840C2F2000001F0BEFAB3
:1049D00041F68860C2F20000052100F0E3FF42F2D8
:1049E0002000C2F20000B3EE040AF2EE080ABDECA9
:1049F000048BBDE8B04001F097BF00BF27A09941EC
:104A00000000000070B540F2D415C2F2000529780C
:104A1000044629B3002600BF05EB860080690168C3
:104A20000968884700BA04EB4601000CA1F844006D
:104A3000287801368642EFD34FF40070214641F8C2
:104A4000140F40F2A80001F1300201F14003C2F25C
:104A50000000FBF725FF012804BF012084F85C005B
:104A6000287928B3002600BF05EB8600806D016819
:104A70000968884700BA04EB4601000CA1F844001D
:104A8000287901368642EFD34FF4FF70214641F872
:104A9000140F40F2A80001F1300201F14003C2F20C
:104AA0000000FBF7FDFE012804BF012084F85C0034
:104AB000687828B3002600BF05EB8600806A01688D
:104AC0000968884700BA04EB4601000CA1F84C00C5
:104AD000687801368642EFD34FF40070214641F8E2
:104AE0002C0F40F2D00001F1200201F12C03C2F2A0
:104AF0000000FBF7D5FE00281CBF012084F85C00F5
:104B0000687918B3002600BF05EB8600806E016847
:104B100009688847697900BA0136000C8E42A4F80A
:104B20005200F1D34FF4FF70214641F82C0F40F2B0
:104B3000D00001F1200201F12C03C2F20000FBF7CA
:104B4000AFFE00281CBF012084F85C000020C4E9EF
:104B50001100C4E9130070BD80B58AB00020CDE912
:104B60000500CDE90000CDE9020004900E200121EE
:104B7000099040F2A800CDE90711C2F20000694691
:104B8000FBF7E2FE002818BFFBF76EFE40F2A8001C
:104B9000C2F20000FCF71CFB002818BFFBF764FE04
:104BA00040F2A800C2F200000221FBF761FE0028DB
:104BB00018BFFBF759FE40F29000C2F2000000213E
:104BC00004220823C0E90112C0E9031301750AB0E9
:104BD00080BD000080B58AB00E20059000210990AC
:104BE00040F2D00006910122CDE90011CDE9021179
:104BF0000491C2F200006946CDE90722FBF7A4FE4A
:104C0000002818BFFBF730FE40F2D000C2F20000CF
:104C1000FCF7DEFA002818BFFBF726FE40F2D000B2
:104C2000C2F200000221FBF723FE002818BFFBF7A9
:104C30001BFE40F29000C2F2000000210422082373
:104C4000C0E90112C0E9031301750AB080BD00007C
:104C500080B5FFF781FFFFF7BDFF40F2A800C2F269
:104C600000000221FBF704FE40F2D000C2F2000077
:104C70000221BDE88040FBF7FBBD00004BF2C042C3
:104C8000C0F60002302108320171002102600822C2
:104C9000C0F80510C0F80910C0F80D100161C0E996
:104CA0001111C0E91311C0E9151180F85C10C0E9B9
:104CB0000711426280F828104161C0E90D11C263FA
:104CC00080F84010C1627047602103F034BD0000DD
:104CD00010B500F15C01044602F00EFA204602F025
:104CE00065FA94ED150A94ED161A30EE410A84ED3A
:104CF0008C0A10BD80B5302380F820324BF2D443AB
:104D0000C0F60003002103F1080246F2666CC0E918
:104D1000002103F12802C4F2660CC0F81C2200F145
:104D20001C0300F11D024FF07F5EC0E9041C00F57A
:104D30000D7CC0E917320122C0F82112C0F82512FB
:104D4000C0F82912C0F82C12C0E902EEC0F83012E7
:104D500080F83412C0F864C080F86820C0E91B11E4
:104D6000416780BD4FF40E7103F0E5BC7047000051
:104D700070B52DED028B0446C06B0168C96A884787
:104D800094ED101A04F1140530EE410A284684ED22
:104D9000120A01F053FC002858D0284601F052FCBA
:104DA000B7EE001A31EE400A94ED111A94ED102A74
:104DB00020EE010AB4EE401AF1EE10FAB8BFB0EEE0
:104DC000410AB4EE420AF1EE10FAB0EE401A84ED58
:104DD000130AB8BFB0EE421A04DBB5EE401AF1EE8A
:104DE00010FA0CDC9FED1E0AB5EE401AF1EE10FA37
:104DF000D8BFB0EE401AB0EE410A84ED131A04F1A8
:104E0000540002F09FFEA66B284601F01BFC3068A0
:104E100094ED141A416820EE010A3046884728466E
:104E200001F010FCA06B94ED141A016820EE018AC9
:104E300009688847F0EE400A2846B0EE480ABDEC03
:104E4000028BBDE8704001F001BC00BFA06B9FED7C
:104E5000040A01680969BDEC028BBDE8704008478F
:104E600000000000AC2103F066BC000070B5A4B0E7
:104E700001AD0446002005F148068DF804008DF8C8
:104E80000700ADF8080030464021FBF74AFBD4F894
:104E9000380129460022002303F08AFE10B124B015
:104EA00070BD00BF4FF6FC309DF80450A4F83C01E3
:104EB0009DF8070084F83E0184F83F512DB104F5B8
:104EC000A07031462A46FBF7D0FA94F8850138B134
:104ED00030462946FBF738FC9DF8045001E000BF3E
:104EE00000206119020A81F841214FF6FD62A1F804
:104EF000422181F8400194F8A511ADF88C000029F9
:104F0000CDD1606804F59E7105F10802FEF75CFBE7
:104F100024B070BD2DE9F04381B0044690F88C01B7
:104F2000082800F20D81DFE800F005111D2531454C
:104F30004D556100FC2956D1012084F88C01FC20DC
:104F400084F8210001B0BDE8F08300BFFB2940F0E8
:104F5000F780022084F88C01FB2084F8220001B045
:104F6000BDE8F08384F82310032084F88C0101B09D
:104F7000BDE8F083002084F8201084F88401042028
:104F800084F88C0101B0BDE8F08300BF204610F822
:104F9000202F90F864315F1CFEB280F864711844D1
:104FA000964281711FD3052084F88C0101B0BDE8C1
:104FB000F08300BF84F8A810062084F88C0101B0AB
:104FC000BDE8F08384F8A910072084F88C0101B0B3
:104FD000BDE8F083FD2940F0B380082084F88C01FF
:104FE000FD2084F8AA0001B0BDE8F083FE2940F05E
:104FF000A78094F8852194F82010FE20002A84F8D8
:10500000AB0058D004F12600FBF79EFBB4F8A810C3
:10501000A084884249D194F8201021B3042901F0DA
:10502000030001D2002109E001F0FC020021631815
:10503000D3F8267004318A429F66F8D198B163187C
:1050400093F8263004F16802012853540BD04B1C0E
:10505000E71897F826700228D75404D0881C211826
:1050600091F826101154D4F8881101291ADB04F1A3
:10507000680904F5C878002703E000BF01378F42B4
:1050800010DA58F827000028F8D0016894F820605A
:1050900094F823300D6849464A460096A847D4F84C
:1050A0008811EBE7002084F88C0194F88501002832
:1050B00046D194F8201029B3042901F0030001D24D
:1050C00000210AE001F0FC02002100BF6318D3F8C0
:1050D000267004318A429F66F8D198B1631893F81C
:1050E000263004F16802012853540BD04B1CE718FA
:1050F00097F826700228D75404D0881C211891F8FC
:1051000026101154D4F88811012919DB04F168091B
:1051100004F5C878002702E001378F4210DA58F80A
:1051200027000028F8D0016894F8206094F8233014
:105130000D6849464A460096A847D4F88811EBE71F
:10514000002084F88C0101B0BDE8F08310B504465E
:1051500005208C21002203F071FDC4F8380110BD38
:10516000F0B581B00C46114622461E46054600F0B9
:105170004FFD302028744BF22850C0F6000000F19B
:105180000801203000272960E86005F1680040210F
:10519000C5F81170C5F81570C5F81970EF6185F87C
:1051A000207085F82370AF84FBF7BBF905F1F4009C
:1051B000402185F8AC7085F8AF70A5F8B070FBF7AA
:1051C000B0F985F8847185F88561C5F8887185F82E
:1051D0008C7185F8A471284685F8A54101B0F0BD11
:1051E0004FF4D47103F0A7BA7047000010B5DDE9A1
:1051F000024EC0F89C10C0F8A030C0F8A4E08C307B
:10520000DDF810C080E8141010BD000010B52DEDC1
:105210000C8B0446007EB0EE418AB0EE609A052801
:10522000B0EE40AA6CD0032878D194ED0A0A94ED30
:105230000B1A3AEE49BA31EE000A94ED092A28EE2B
:10524000000A30EE4B0A80EE020A9FED36CAD4F80F
:105250008C009FED35DA0168496880EE0C0A20EE7B
:105260000D0A884794ED0A0A94ED0B1A39EE0A9A52
:1052700031EE000A94ED092A28EE000A39EE400AC0
:1052800080EE020AD4F890009FED281A0168496860
:1052900080EE0C0A20EE010A884794ED0A0A94ED8C
:1052A0000B1A94ED092A31EE000A28EE000A30EEBE
:1052B0000B0A80EE020AD4F894000168496880EE77
:1052C0000C0A20EE0D0A884794ED0A0A94ED0B1A99
:1052D00094ED092A31EE000A28EE000A30EE090AA0
:1052E00080EE020AD4F898000168496880EE0C0A42
:1052F00020EE0D0ABDEC0C8BBDE81040084700BF46
:105300002046B0EE4A0AF0EE490AB0EE481ABDEC6B
:105310000C8BBDE8104000F021B900BFBDEC0C8B38
:1053200010BD00BFDB0FC94000007042000070C21A
:10533000B0B52DED068B82B00446407E062800F203
:10534000BB80DFE800F0050F1B4BB9B9910000BF2F
:10535000A17E00200329E063206440F0C98094ED21
:10536000161AD2E0A07E94ED0F8A94ED109A0328CD
:1053700040F0D88094ED161AE1E000BF94ED119A48
:1053800094ED12AA684602F00DFC206A0168096AD1
:10539000884703F0F5F9206AB0EE408A0168096A8F
:1053A000884703F039FA2AEE000A29EE081A31EE8E
:1053B000000A206A8DED000A0168096A884703F037
:1053C000DFF9206AB0EE408A0168096A884703F075
:1053D00023FA20EE090A2AEE081A3BE0206A04F1BB
:1053E000E00501684968884794ED131AD4ED141A52
:1053F000284603F057F86846B0EE408AB0EE609A4F
:1054000002F0D0FB206A0168096A884703F0B8F906
:10541000206AB0EE40AA0168096A884703F0FCF9E7
:1054200029EE000A28EE0A1A31EE000A206A8DEDF4
:10543000000A0168096A884703F0A2F9206AB0EE01
:1054400040AA0168096A884703F0E6F920EE080AD5
:1054500029EE0A1AA07E9DED008A032831EE409ABB
:105460002ED194ED161A38E0207E052824D1D4F8E8
:10547000BC00B4F8CC10FCF7F5F9D4F8C020B4F8AF
:10548000CE1084F8D4001046FCF7ECF9D4F8C42010
:10549000B4F8D01084F8D5001046FCF7E3F9D4F83E
:1054A000C820B4F8D21084F8D6001046FCF7DAF918
:1054B00084F8D7000020607602B0BDEC068BB0BD4A
:1054C000206A04F59C750168C9698847D4ED150AFE
:1054D000284600F0D5FBB0EE401A2046B0EE480A50
:1054E000F0EE490AFFF792FE02B0BDEC068BB0BDAC
:1054F000206A04F59C750168C9698847D4ED150ACE
:10550000284600F0BDFBB0EE401A9FED130A20467E
:10551000F0EE400A02B0BDEC068BBDE8B040FFF7EC
:1055200075BE00BF206A04F59C750168C96988478B
:10553000D4ED150A284600F0A3FBB0EE401A204631
:10554000B0EE480AF0EE490A02B0BDEC068BBDE8A9
:10555000B040FFF75BBE00BF0000000070B52DED4E
:105560000C8B0446D0F8BC00B4F8CC10B0EE419AD5
:10557000B0EE608AB0EE40AAFCF774F9D4F8C0200F
:10558000B4F8CE1084F8D4001046FCF76BF9D4F8C8
:10559000C420B4F8D01084F8D5001046FCF762F9A6
:1055A000D4F8C820B4F8D21084F8D6001046FCF71E
:1055B00059F99FEDE70A84F8D70029EE000A3AEE80
:1055C000000AB5EE400A0020F1EE10FA4FF000019B
:1055D000B5EE408A84ED1B0A18BF0121F1EE10FAE6
:1055E00018BF012004F16C05084384ED1C8A0BD020
:1055F000F0EE480A05F0DEFC9FEDD61A20EE010A17
:1056000084ED170A02E000BF94ED170A9FEDD2BAAD
:10561000B1EE49DAB4EE4B0AF1EE10FA22DB9FED5F
:10562000CF1AB4EE410AF1EE10FA1BDCD4F88C600C
:10563000284602F065FF94ED091A306880EE010AF1
:105640009FEDC71A4168304680EE010A9FEDC51AEA
:1056500020EE010A8847D4F89C0094ED170A0168EF
:10566000C9683CE09FEDBD1AB4EE410AF1EE10FAB4
:105670000CDD9FEDBD1AB4EE410AF1EE10FA05DC27
:10568000D4F89C009FEDB91A10E000BF9FEDB71A47
:10569000B4EE410AF1EE10FA22DBB4EE4B0AF1EE61
:1056A00010FA1DDAD4F89C009FEDAF1A0168C968A2
:1056B00030EE010A8847D4F88C60284602F020FFBB
:1056C00094ED091A306880EE010A9FEDA51A416831
:1056D000304680EE010A9FEDA61A20EE010A8847A7
:1056E0009FEDA40A002029EE00CA3CEE0A9A2DEE96
:1056F000000A70EE080AB5EE409AF1EE10FA4FF08B
:105700000001F5EE400A84ED1D9A18BF0121F1EE6B
:1057100010FA18BF012004F174050843C4ED1E0AF5
:1057200010D0B0EE490A05F045FC9FED8A1A20EE34
:10573000010A84ED180AB4EE4B0AF1EE10FA08DA09
:105740002AE000BF94ED180AB4EE4B0AF1EE10FA0D
:1057500022DB9FED821AB4EE410AF1EE10FA1BDC57
:10576000D4F89060284602F0CBFE94ED091A306818
:1057700080EE010A9FED7A1A4168304680EE010AF8
:105780009FED7B1A20EE010A8847D4F8A00094ED23
:10579000180A0168C9683CE09FED701AB4EE410A2E
:1057A000F1EE10FA0CDD9FED701AB4EE410AF1EE45
:1057B00010FA05DCD4F8A0009FED6C1A10E000BFD1
:1057C0009FED6A1AB4EE410AF1EE10FA22DBB4EE54
:1057D0004B0AF1EE10FA1DDAD4F8A0009FED621A20
:1057E0000168C96830EE010A8847D4F890602846FD
:1057F00002F086FE94ED091A306880EE010A9FEDF2
:10580000581A4168304680EE010A9FED561A20EE84
:10581000010A8847B5EE409A7CEE080A0020F1EEB6
:1058200010FA4FF00001F5EE400A18BF012184ED97
:105830001F9AF1EE10FA18BF012004F17C0508430D
:10584000C4ED200A10D0B0EE490A05F0B3FB9FED7D
:10585000411A20EE010A84ED190AB4EE4B0AF1EE6A
:1058600010FA08DA2EE000BF94ED190AB4EE4B0AE4
:10587000F1EE10FA26DB9FED391AB4EE410AF1EE93
:1058800010FA1FDCD4F89460284602F039FE94ED3B
:10589000091A306880EE010A9FED311A41683046DE
:1058A00080EE010A9FED2F1A20EE010A8847D4F8F6
:1058B000A40094ED190A0168C968BDEC0C8BBDE821
:1058C000704008479FED251AB4EE410AF1EE10FA38
:1058D0000CDD9FED251AB4EE410AF1EE10FA05DC5D
:1058E000D4F8A4009FED211A10E000BF9FED1F1A0D
:1058F000B4EE410AF1EE10FA26DBB4EE4B0AF1EEFB
:1059000010FA21DAD4F8A4009FED171A0168C968CB
:1059100030EE010A8847D4F89460284602F0F0FD82
:1059200094ED091A306880EE010A9FED0D1A416866
:10593000304680EE010A9FED0E1A20EE010ABDEC02
:105940000C8BBDE870400847BDEC0C8B70BD00BFF0
:10595000AE47E1BE1B2F65420000B4C20000B44256
:10596000DB0FC9400000704200003443000034C324
:10597000000070C2BD52C63E10B5DDF810C0DDE9B2
:10598000024EA0F8CC2000F1BC02A0F8CE4082E884
:105990000A40A0F8D0C010BD2430DDF800C080E877
:1059A0000E107047B0B52DED028B044630202071EB
:1059B0004BF25450C0F600000830206040F2063030
:1059C0000025C4F8190004F13C00C4F80550C4F8DF
:1059D0000950C4F80D50256165612176C4E9085568
:1059E000C4E90A55C4E90C55A56302F0DBF804F1DB
:1059F000440002F0D7F804F14C0002F0D3F804F1AF
:105A00006C00C4E91555C4E91755C4E9195502F0ED
:105A1000C9F804F1740002F0C5F804F17C0002F04A
:105A2000C1F804F1840002F0BDF804F18C004C21AF
:105A3000FAF777FD9FED1A8A012084F8D80004F167
:105A4000E400B0EE480AF0EE480AB0EE481AF0EE74
:105A5000481AB0EE482AF0EE482AB0EE483AC4F8A8
:105A6000E050C4F8D95001F03DFA04F5A270B0EE50
:105A7000480AF0EE480AB0EE481AF0EE481AB0EEC6
:105A8000482AF0EE482AB0EE483AC4E94E55C4F828
:105A9000405101F027FA2046BDEC028BB0BD00BF9B
:105AA000000000004FF4CC7102F045BE40F200311E
:105AB000C2F200016C2200FB021000F1640400F14C
:105AC000100500F1140602E0286803F02FF82068A2
:105AD0000128F9DB002703E0206801378742F3DA69
