:020000040800F2
:10000000585F002059020008C13500082D31000852
:10001000BD35000875060008D13A00080000000050
:100020000000000000000000000000004136000851
:100030008907000800000000D13500086536000877
:1000400073020008730200087302000873020008BC
:1000500073020008730200087302000873020008AC
:10006000730200087302000873020008730200089C
:10007000730200087302000873020008730200088C
:100080007107000873020008730200087302000879
:100090007906000873020008730200088D07000843
:1000A000730200087302000873020008730200085C
:1000B0004537000851370008730200087302000832
:1000C000730200087302000873020008730200083C
:1000D00073020008AD3A0008B93A0008C53A0008B2
:1000E000730200087302000873020008730200081C
:1000F000730200087302000873020008730200080C
:1001000073020008730200087302000873020008FB
:10011000A1380008AD380008730200087302000817
:10012000730200087D0700087302000873020008CC
:1001300073020008730200087302000873020008CB
:1001400085060008730200087302000873020008A5
:1001500073020008730200087302000873020008AB
:10016000730200087302000873020008730200089B
:100170007302000873020008730200080000000008
:10018000730200087302000800F002F800F054F84F
:1001900014A696E8000CB244B344DA4501D100F04D
:1001A0004BF8BAE80F000FA696E83000A5EB04055F
:1001B00004EB0607AAEB0704A7F101074FEA1515A0
:1001C0004FEA3414A4F10104AC4201D300F034F836
:1001D00013F0010F18BFFB1A43F0010300F001F800
:1001E000DBE718474874000068740000103A24BF29
:1001F00078C878C1FAD8520724BF30C830C144BF8C
:1002000004680C6070470000704700000023002461
:1002100000250026103A28BF78C1FBD8520728BF16
:1002200030C148BF0B6070471FB507F059F800F0A8
:1002300023F91FBD10B510BD00F0A8F91146FFF756
:10024000F3FF05F057F800F0C6F903B4FFF7F2FF2B
:1002500003BC00F091F900000948804709480047B5
:10026000FEE7FEE7FEE7FEE7FEE7FEE7FEE7FEE766
:10027000FEE7FEE704480549054A064B70470000C3
:10028000313700088901000858590020585F0020C4
:10029000585B0020585B002053EA020C00F0698094
:1002A0002DE9F04B4FF00006002B1FBFB3FA83F58A
:1002B00003FA05F424FA05F65E4012BF1643B2FABB
:1002C00082F502FA05F4C5F120051EBF22FA05FCED
:1002D00044EA0C04203556EA044C4FEA144418BF93
:1002E000641C4FF000084FF00009904271EB030CC2
:1002F00039D3002919BFB1FA81F701FA07F6B0FA2C
:1003000080F700FA07F6C7F120071EBF20FA07FCA6
:1003100046EA0C062037B6FBF4FCA7EB0507103FB6
:1003200007F01F0BCBF120062CFA06F60CFA0BFB9C
:1003300044BFB3460026202FA4BF5E464FF0000BFB
:100340005BEA060C08BF4FF0010B19EB0B0948EBF9
:100350000608ABFB027C06FB02CC0BFB03CCC01BEC
:1003600071EB0C01C1E70B46024641464846BDE829
:10037000F08B13B5084318BF4FF0FF300146AFF3C1
:100380000080BDE81C407047032A40F2308010F026
:10039000030C00F0158011F8013BBCF1020F624420
:1003A00098BF11F801CB00F8013B38BF11F8013BB1
:1003B000A2F1040298BF00F801CB38BF00F8013B5E
:1003C00011F0030300F09580083AC0F0088051F85E
:1003D000043B083A51F804CBA0E80810F5E7121DD9
:1003E0005CBF51F8043B40F8043BAFF30080D207F8
:1003F00024BF11F8013B11F801CB48BF11F8012BC4
:1004000024BF00F8013B00F801CB48BF00F8012BE6
:10041000704702F0FF0343EA032242EA024200F07F
:1004200002B84FF0000200B51346944696462039B4
:1004300022BFA0E80C50A0E80C50B1F12001BFF49D
:10044000F7AF090728BFA0E80C5048BF0CC05DF803
:1004500004EB890028BF40F8042B08BF704748BF51
:1004600020F8022B11F0804F18BF00F8012B7047C5
:10047000704770477047000008487CB5784400908A
:1004800007487844009C0546019004E02046016836
:1004900008448047241DAC42F8D17CBDCC710000DB
:1004A000CE71000070B50446051F00F055F80068D5
:1004B000002C14BF446870BD002C18BFAC423CBF78
:1004C00020466468F8D301680A18AA4218BF45603C
:1004D00003D12A6805461144016028684119A142E8
:1004E0001CBF6C6070BD6168696021680844286049
:1004F00070BD10B5203AC0F00B80B1E81850A0E8EC
:100500001850B1E81850A0E81850203ABFF4F5AFE1
:100510005FEA027C24BFB1E81850A0E8185044BF3D
:1005200018C918C0BDE810405FEA827C24BF51F8AA
:10053000043B40F8043B08BF7047D20728BF31F89E
:10054000023B48BF11F8012B28BF20F8023B48BFEF
:1005500000F8012B70470000004870473000002071
:1005600010B5002000F040F8FFF764FEBDE8104031
:10057000012000F001B8000001491820ABBEFEE7E1
:100580002600020000487047280000207546FFF74B
:10059000F9FFAE4605006946534620F00700854640
:1005A00018B020B5FFF766FEBDE820404FF000060A
:1005B0004FF000074FF000084FF0000BAC46ACE8DE
:1005C000C009ACE8C009ACE8C009ACE8C00921F03A
:1005D00007018D46704710B50446AFF300802046F2
:1005E000BDE81040FFF731BE10B500F00BF8BDE8D4
:1005F000104000F001B87047002801D0FFF7BCBFE1
:100600007047000010B5002102A000F013F801208F
:1006100010BD0000534947414252543A2041626E96
:100620006F726D616C207465726D696E6174696F53
:100630006E00000070B505460C460A2000E06D1CF7
:1006400000F011F835B128780028F8D102E0641CD8
:1006500000F009F814B120780028F8D1BDE8704006
:100660000A20AFF3008008B569468DF8000003202A
:10067000ABBE08BDFEE7000040F2A000C2F20000E1
:1006800000F000BA40F2C800C2F2000000F0FAB96F
:1006900091B1F0B547F2123201F0030C0429C0F613
:1006A00000020DD24FF0000E0021BCF1000F3AD134
:1006B000BDE8F04088B27047002188B2704700BFA3
:1006C00001F0FC01C1F1000E431C00216FF0030496
:1006D0001D19EE788FB286EA172632F816602F7948
:1006E00086EA012189B287EA112132F811106F7967
:1006F00081EA0626B6B287EA162632F81660AD7988
:1007000086EA012189B285EA112132F811100434F8
:100710000EEB0405043581EA0621D9D104F1040E5B
:10072000BCF1000FC4D010F80E408BB284EA132342
:1007300032F81340BCF1010F84EA0121B8D07044B3
:10074000437889B283EA112132F81130BCF1020FEB
:1007500083EA0421ACD0807889B280EA112032F893
:10076000100080EA0321BDE8F04088B27047000025
:1007700040F68C20C2F2000000F018BD40F6EC20DC
:10078000C2F2000000F012BD70470000402000F0EF
:10079000A3BE000072B600BFFEE7000090F8202064
:1007A000013A012A08D8006800F1140200201368F9
:1007B00019431160704700BF00F1240201204FF47B
:1007C00080211368194311607047000010B590F83C
:1007D00020E0D0F800C0AEF1010EBEF1010FDCF850
:1007E00008E011D81EF0E05F18D0CEF301640120BC
:1007F000A04018608B68DBB1D1F804E0C86840EA1B
:10080000CE0040EA030E17E000F1240301204FF46C
:1008100080211A681143196010BD00BF00F1240344
:1008200001204FF400111A681143196010BD00BF78
:100830000868CB6843EA405E0CF5C07000EB041317
:10084000240140F804E00C69184640F8044F097D83
:10085000012903D1016841F48071016050680121D0
:10086000D8601068986000201A681143196010BDA4
:1008700090F82020013A012A30D8B0B546F2006045
:10088000C4F20000026842F001020260026822F431
:100890007C520260D1F814E0CC694A6A0368012CEA
:1008A00043EA022202600EF01F024FF0010303FA36
:1008B00002F2C3696FEA020C23EA0203C36113D098
:1008C0002CBBC36803EA0C03C360CB688C8844EA82
:1008D000034300EBCE0423640B4611E0416A41F46C
:1008E0008021416201207047C3681343C3600B68D5
:1008F0008C8844EA034300EBCE04236401F10C032B
:100900008C681B8843EA044300EBCE0463644368AD
:100910008D6943EA0204D1F810E0096A002D08BF8E
:1009200003EA0C0444604369BEF1000F43EA020489
:1009300008BF03EA0C040129446102D1C1691143D3
:10094000C161016821F0010101600020B0BD00001B
:1009500070470000B0B590F82040013C012C7DD8D4
:10096000D0F800C000290CBFDCF80C40DCF81040C7
:10097000A4077DD00CF5D8754FEA011C55F80C4042
:1009800014F00404946055F80CE005EB011C19BF49
:100990004FEADE0555604FEA5E551560DCF8005001
:1009A000E64605F00205D5605EF8044F24075ABFFD
:1009B000DEF8004004F00F0408241461DEF8004063
:1009C0000029C4F307249461DEF800504FEA15456E
:1009D0005561DCF808201A70026802EB0112D2F8A7
:1009E000B8214FEA12225A70026802EB0112D2F8C3
:1009F000B8214FEA12429A70026802EB0112D2F853
:100A0000B8214FEA1262DA70026802EB0112D2F8E2
:100A1000BC211A71026802EB0112D2F8BC214FEA24
:100A200012225A71026802EB0112D2F8BC214FEA7D
:100A300012429A71026802EB0112D2F8BC214FEA0D
:100A40001262DA7100680CBF00F10C0100F11001B4
:100A5000002020220B681A430A60B0BD00F1240177
:100A600001204FF480220B681A430A60B0BD00BF1A
:100A700000F1240101204FF400120B681A430A60B0
:100A8000B0BD00002DE9F04F81B004460068466912
:100A9000D0F804908768D0F80CB0D0F810A0D0F847
:100AA0001880F10704D1002530071DD424E000BFD1
:100AB000F90710D00121BA07816009D4780700F145
:100AC000AF80380700F1B680204600F005FB02E059
:100AD000204600F003FB0025F80500F18780F803AD
:100AE00000F1B180300707D51BF0100004D020685A
:100AF00045F400751021C160700708D51BF008008F
:100B000005D020680821C160204600F001FAB00736
:100B100006D52068C068800702D0204600F0FAF9A8
:100B2000700607D51AF0100004D0206845F48065DF
:100B300010210161B00608D51AF0080005D0206820
:100B400008210161204600F093FAF00606D52068DE
:100B50000069800702D0204600F08CFAB00308D567
:100B600019F0100005D0206810214160204600F0E7
:100B700083FAF00308D519F0080005D02068082191
:100B80004160204600F0B4FA300440F19B805FEAF7
:100B9000497040F1948006F4807008EA10202843E0
:100BA0005FEA8871014648BF41F00201B20558BFB3
:100BB00001465FEA48700D4648BF45F004057005E0
:100BC00058BF0D46300540F17A8018F0700000F0F3
:100BD00076801038000905286CD8DFE800F003653E
:100BE0005D61596945F0080564E000BF20684FF475
:100BF0008071BA0581600BD4780515D438051DD4F1
:100C0000204600F06DFAF8037FF56CAF1BE000BFE3
:100C1000204600F067FAF8037FF564AF13E000BFE9
:100C20004FF4006558E700BF05F50055F8037FF560
:100C300059AF08E04FF480554EE700BF05F58045F9
:100C4000F8037FF54FAF20684FF48031BA0381601D
:100C50000AD4780310D4380314D4204600F044FAA0
:100C600030073FF541AF47E7204600F03FFA300735
:100C70003FF53AAF40E700BF05F5004530073FF5C7
:100C800033AF39E705F5803530073FF52DAF33E752
:100C900045F080050EE000BF45F020050AE000BFEA
:100CA00045F0400506E000BF45F0100502E000BF3A
:100CB00045F480752068816921F0700181612068A8
:100CC0000421416055B1606A40EA05012046616235
:100CD00001B0BDE8F04FFFF73BBE00BF01B0BDE87B
:100CE000F08F0000002804BF01207047B0B5044613
:100CF00090F8200010B9204600F06EF820680168D6
:100D000041F00101016000F0C9FC0546206841681E
:100D1000C90705D100F0C2FC401B0B28F6D310E038
:100D2000016821F00201016000F0B8FC054600BF37
:100D30002068416889070DD500F0B0FC401B0B28E6
:100D4000F6D3606A052140F400306062012084F827
:100D50002010B0BD217E0268012922F0800208BF68
:100D600080320260617E0268012922F0400208BFE1
:100D700040320260A17E0268012922F0200208BFF1
:100D800020320260E17E0268012922F0100218BFC1
:100D900010320260217F0268012922F0080208BF98
:100DA00008320260617F0268012922F0040208BF54
:100DB00004320260D4E901C2D4E9033561691A43FF
:100DC0002A431143ACF101021143C161002001210A
:100DD000606284F82010B0BD10B586B0006846F699
:100DE0000002C4F2000200219042CDE90411CDE9D5
:100DF0000211019140D046F20041C4F20001884244
:100E000040F0848040F2FC21C2F200010A6843F6FF
:100E10004000C4F20200531C0B6052B90021009143
:100E2000016841F000710160016801F000710091FA
:100E300000990021009150F8102C42F0010240F876
:100E4000102C50F8100C00F00100009000984FF4A6
:100E5000C05001900220CDE9020103200490092036
:100E600005900020C4F2020001A900F041FB14200B
:100E700007210022142444E043F64000C4F202009B
:100E80000091016841F080610160016801F08061BA
:100E90000091009940F2FC21C2F200010A68531C43
:100EA0000B6052B900210091016841F000710160AE
:100EB000016801F00071009100990021009150F843
:100EC000102C42F0020240F8102C50F8100C00F0E8
:100ED0000200009000984FF4405001900220CDE9AC
:100EE000020103200490092005900020C4F20200B2
:100EF00000F5806001A900F0FBFA402008210022E3
:100F0000402400F089FC204600F074FC06B010BDBF
:100F100070470000B0B588B040F2A001C2F20001F5
:100F2000884207D040F2C801C2F2000188421FD0B7
:100F300008B0B0BD40F2CC15C2F2000505F11804AE
:100F400040F2A000C2F2000001AA00212346FFF7F0
:100F500001FD0398002827D00299C1F3032003283C
:100F6000E6D8DFE800F003413D3F00BFA86C42E057
:100F700040F2CC15C2F2000505F1200440F2C80091
:100F8000C2F2000001AA00212346FFF7E3FC039808
:100F9000C0B10299C1F303200328C9D8DFE800F0EB
:100FA000022A2628A86D26E00198A0F20120072831
:100FB000BED8DFE800F005312B2D2933352F00BFD7
:100FC000A86A4CE00198A0F2012007283FF6B0AFD4
:100FD000DFE800F004382E30283A4032A86B3EE0BB
:100FE000286D08E0686D06E0E86C04E0286E02E019
:100FF000686E00E0E86D00283FF49AAF02689368DD
:101000002246984708B0B0BDA86E28E0286B26E0BD
:10101000686B24E0686F22E0E86A20E0E86E1EE07A
:10102000286F1CE040F23C70C2F20000006816E03D
:10103000286C14E0686C12E040F23C70C2F20000D0
:10104000C0680CE0E86B0AE040F23C70C2F20000BD
:10105000406804E040F23C70C2F200008068002862
:101060003FF466AF01684A682146904708B0B0BDBA
:10107000704700007047000070470000B0B504469C
:1010800090F8200001281DD1022084F8200020685B
:10109000016821F00101016000F000FB054600BF7E
:1010A00020684068C00713D000F0F8FA401B0B28F6
:1010B000F6D3606A40F400306062052084F82000B6
:1010C0000120B0BD606A40F4002060620120B0BD24
:1010D00000206062B0BD0000704700007047000053
:1010E0007047000070470000704700007047000024
:1010F0007047000070B5866D044600F0CFFA94F892
:101100003510022928D105462068216C026822F09A
:1011100016020260426922F08002426109B9A16CA4
:1011200019B1016821F008010160016821F0010195
:10113000016000BF20680068C00715D000F0AEFA5B
:10114000401B0628F6D320206065032084F8350074
:10115000002184F8341070BD8020606501200021DA
:1011600084F8341070BD00BFE06D3F2101FA00F03B
:10117000B060012084F835000020002184F834108C
:1011800070BD000090F83510022909D1052180F8C2
:1011900035100068016821F00101016000207047EE
:1011A0008021416501207047406D7047F0B581B0E6
:1011B0000021009140F20801C2F200010B68D0E961
:1011C000166148F2B51537680822C1F64E358A40D7
:1011D0003A42A3FB05350CD003681C68640708D5A8
:1011E0001C6824F004041C60B260426D42F00102ED
:1011F000426501228A403A4208D003685B691B06B7
:1012000004D5B260426D42F00202426504228A4077
:101210003A4208D003681B689B0704D5B260426D50
:1012200042F00402426510228A403A4219D0016815
:101230000B681B0715D5B2600B680A685B0309D4FD
:10124000D20509D40A6822F008020A60016C29B9A3
:1012500007E000BF110341D4016C11B10446884777
:101260002046C26D202101FA02F33B4243D00168BF
:101270000F68FF063FD5B36090F835700B68052FF7
:101280001CD123F016030B604B6923F080034B61E4
:10129000036C0BB9836C1BB10B6823F008030B6064
:1012A0003F219140B160012180F83510016D00228D
:1012B000002980F8342054D158E000BF0A685B034D
:1012C00010D4D20512D40A6822F010020A6001215B
:1012D00080F83510002180F8341007E0816C002977
:1012E000BCD1BEE7110301D4416C00E0C16B11B168
:1012F000044688472046416DC1B3416DC9072ED0D1
:10130000052180F835100168AA0A0B6823F0010353
:101310000B60009B0133934200931AD80B68DB07E4
:1013200017D0009B01339342009312D80B68DB0760
:101330000FD0009B0133934200930AD80B68DB0760
:1013400007D0009B01339342009302D80B68DB0760
:10135000DFD1012180F83510002180F83410C16CF4
:1013600021B101B0BDE8F040084700BF01B0F0BDB9
:101370002DE9F041044600F091F9ECB10546022058
:1013800084F835000020216884F83400086820F0D3
:101390000100086021680868C00711D000F07EF9DC
:1013A000401B0528F6D9032520230320636584F814
:1013B0003550BDE8F08100BF0120BDE8F08100BFDD
:1013C000086848F23F02CFF21002D4E9013500EA82
:1013D000020C04F10C0898E8C10143EA0C032B430A
:1013E0001843D4E9072E304338431043626A40EA79
:1013F0000E00042A40EA08031CD1206BD4E90A2E0F
:1014000040EA0E00184308604869BEF1000F20F062
:10141000030040EA020040F0040C11D0B8F5005F70
:1014200036D0B8F1000F45D1022A46D0012A3BD070
:1014300032B942E00B60486920F0070040EA020C34
:1014400001F0F8004AF6AB221038CAF6AA22A0FB37
:1014500002231A0947F21C63C1F814C0C0F6000346
:101460009A5C40F2FF335F284FF03F0021EA03010E
:1014700000FA02F088BF0431C4E916128860002324
:1014800001250020636584F83550BDE8F08100BF78
:10149000032AD5D8012540230120DFE802F0030EFE
:1014A000030500BF82E700BFAEF1C070B0FA80F064
:1014B000400904E0032A04D3C2D1CEF3006000281F
:1014C000BED0012540230120636584F83550BDE876
:1014D000F08100007047000043F61441C4F201019E
:1014E0000A68024214BF08607047FFF7F3BF0000AC
:1014F0002DE9F04F83B000F1200200F13E4741F6A4
:101500000045009207F1FF77C4F2020508224FEA76
:10151000B726A84208BF072200254FF000084FF069
:101520000009072E38BF4FEAB72201920AE000BF38
:1015300009F1010908F10208B9F1100F05F10405DC
:1015400000F0A2800F68012202FA09FE17EA0E0AD3
:10155000EED0D1F804C003220CF003077E1E02FA7D
:1015600008F4012E6FEA040B12D88468CE6804EAEE
:101570000B0406FA08F634438460446824EA0E0635
:10158000CCF3001404FA09F42643466004E000BFDB
:10159000032F01D103271EE0C6688C6806EA0B06FC
:1015A00004FA08F42643022FC66014D16FF0030238
:1015B000009E02EA590756F807C005F01C040F22E6
:1015C0000B69A2402CEA0202A3401A43F251D1F85F
:1015D00004C00CF00307026807FA08F302EA0B02E2
:1015E0001A431CF4403F0260A2D0002243F6440399
:1015F0000292C4F202031A6843F6004442F48042A5
:101600001A601A68C4F2010402F480420292029A3B
:1016100029F003024FF6084C2244CFF6FF7C52F823
:101620000C3005F00C070F26BE40B343019E06FAAE
:1016300007F73B4342F80C30A2684B6842EA0A07BE
:1016400043F60C4CDE0258BF22EA0A07A760C4F238
:10165000010CDCF800209E0242EA0A0758BF22EA89
:101660000A07CCF8007062689E0342EA0A0758BF76
:1016700022EA0A0767602268DB0342EA0A0758BFCA
:1016800022EA0A07276053E703B0BDE8F08F0000A5
:10169000002A08BF090481617047000045F25C2000
:1016A000C2F200000068704740F2000045F25C2181
:1016B000C2F20000C2F2000100780A68104408601B
:1016C0007047000080B543F60040C4F20200016894
:1016D00041F400710160016841F4806101600168BA
:1016E00041F480710160032000F0C2F80F2000F087
:1016F00005F800F05DF8002080BD000070B586B0F0
:10170000002543F640010195C4F202010A6804462F
:1017100042F002020A60096801A801F00201019189
:101720000199694600F066F9049E002E18BF012653
:1017300000F080F94DF68361B040C4F21B31A0FB8C
:1017400001014FF0FF3000EB914140F6943040F240
:101750000042C2F20000C4F2000240F2E733C0E9E6
:101760000021C0E902530561856100F0F9FB08B171
:1017700006B070BD40F69430C2F2000000F040FCAC
:101780000028F5D11D2000F035F80F2C0CD81D20B5
:101790002146002200F040F840F204010020C2F28D
:1017A00000010C6006B070BD012006B070BD0000E5
:1017B00082B0002043F640010190C4F202014A6861
:1017C00042F480424A604A6802F480420192019ADF
:1017D00000900868002240F08050086008680F21DF
:1017E00000F08050009000986FF0010002B000F00F
:1017F00013B80000002848BF704700F01F01012205
:1018000002FA01F11C2202EAD0004EF20012CEF2DE
:10181000000281507047000010B54EF60C5CCEF20D
:10182000000CDCF80030C3F3022E8EF00704042C09
:1018300028BF0424BEF103034FF0FF3E0EFA04F468
:1018400038BF0023A14399400EFA03F39A43114392
:1018500000F00F0200F160430901043A03F564430C
:101860006244002848BF02F10C03197010BD00004B
:101870004EF60C51CEF200010A684FF6FF031A40F3
:1018800060F30A2242F0806040F0FD70086070470B
:10189000002804BF012070472DE9F04143F60808F5
:1018A000C4F202080446D8F8F8030D4600F0070019
:1018B000884207D288F8F853D8F8F80300F00700F8
:1018C000A84277D12068810717D5410705D5D8F8F8
:1018D000001041F4E051C8F80010010705D5D8F810
:1018E000001041F46041C8F80010D8F80010A26858
:1018F00021F0F0011143C8F80010C00740D1D8F81A
:10190000F80300F00700A84207D988F8F853D8F880
:10191000F80300F00700A8424CD12068410707D522
:10192000D8F80010E26821F4E0511143C8F8001023
:10193000000708D5D8F80000216920F4604040EA8B
:10194000C100C8F8000000F09DF8D8F8001047F278
:10195000FA22C1F30311C0F60002515C40F2080202
:1019600020FA01F140F20400C2F200000068C2F265
:1019700000021160FFF7C2FE0020BDE8F08100BF49
:101980006068811E022907D258F8081C89015CBFD3
:101990000120BDE8F08111E0012807D158F8081CAA
:1019A00089035CBF0120BDE8F08107E058F8081CFE
:1019B000890703D40120BDE8F08100BFD8F80010EA
:1019C00021F003010843C8F80000FFF767FE064650
:1019D00041F28837D8F80000616800F00C00B0EBE5
:1019E000810F8CD0FFF75AFE801BB842F2D903203A
:1019F000BDE8F0810F22026043F60802C4F2020241
:101A0000136803F003034360136803F0F00383607B
:101A1000136803F4E053C360D2F800C04FF4E053FE
:101A200003EADC030361D2F8F80300F00700086062
:101A30007047000040F2080043F60801C2F20000BF
:101A4000C4F202010068096847F20A32C1F3822138
:101A5000C0F60002515CC8407047000040F2080028
:101A600043F60801C2F20000C4F2020100680968EE
:101A700047F20A32C1F34231C0F60002515CC8405D
:101A80007047000010B543F60404C4F20204606815
:101A900000F00C0142F200400829C0F2F40007D027
:101AA000042918BF10BD41F20020C0F27A0010BD19
:101AB000216801F03F02216823684902C3F38811BD
:101AC00006D4A1FB00010023FEF7E6FB07E000BF00
:101AD00041F20020C0F27A004843B0FBF2F02168E6
:101AE0000222C1F3014102EB4101B0FBF1F010BD54
:101AF000002804BF012070472DE9F04182B0044660
:101B0000007843F60006C007C4F202060CD0B068A5
:101B100000F00C00042840F081803068800303D579
:101B20006068002800F06881207880071BD5B068C5
:101B300010F00C0F09D0B06800F00C00082840F03D
:101B400087807068400200F183803068800703D589
:101B5000E068012840F050813068216920F0F800E9
:101B600040EAC10030602078000713D42078400795
:101B70002AD4A569002D00F03A81B06800F00C006D
:101B8000082840F0A580012D40F00E81012002B010
:101B9000BDE8F0816069002800F082800020C4F276
:101BA00047200121C0F8801EFFF778FD054600BFE1
:101BB000706F8007DAD4FFF771FD401B0228F7D958
:101BC000032002B0BDE8F081306C5FEAC0080AD49F
:101BD00000200190306C40F080503064306C00F098
:101BE00080500190019847F20007C4F2000738685E
:101BF000C00547D4386840F480703860FFF74EFD68
:101C0000054600BF3868C0053CD4FFF747FD401BC0
:101C10000228F7D9032002B0BDE8F081B06800F0D7
:101C20000C00082803D1706840023FF576AF616868
:101C30003068B1F5803F07D0B1F5A02F40F09A8011
:101C400040F480203060306840F4803030609AE0AA
:101C5000E068002840F20000C4F247205CD0012177
:101C60000160FFF71BFD0546306880073FF574AF44
:101C7000FFF714FD401B0228F6D9032002B0BDE88F
:101C8000F08100BFA168306F012905D0052955D129
:101C900040F004003067306F40F00100306756E0DC
:101CA0000020C4F247200021C0F8801EFFF7F6FC98
:101CB000054600BF706F80077FF558AFFFF7EEFC59
:101CC000401B0228F6D9032002B0BDE8F08100BF16
:101CD0000027C4F2472700203866FFF7DFFC022DFB
:101CE00005460DD13068800140F18A80FFF7D6FCAF
:101CF000401B02284FF00300F4D902B0BDE8F08188
:101D00003068800173D5FFF7C9FC401B02284FF0F3
:101D10000300F5D9F1E700BF00210160FFF7BEFC29
:101D2000054600BF306880077FF51DAFFFF7B6FCA2
:101D3000401B02284FF00300F4D9DEE720F0010039
:101D40003067306F002920F0040030677AD0FFF749
:101D5000A5FC054641F28837306F800700F184808A
:101D6000FFF79CFC401BB842F6D9032002B0BDE847
:101D7000F08100BF20F4803030603068002920F40A
:101D8000802030607AD0FFF789FC054630688003F8
:101D90003FF5CAAEFFF782FC401B6428F6D903204A
:101DA00002B0BDE8F08100BF7068E16900F4800214
:101DB0008A4221D1216A00F03F028A421CD147F6B3
:101DC000C071626A0140B1EB821F15D1A16A4FF662
:101DD000FF73C903994300F44032A1F580318A4270
:101DE0000AD1E16A00F07060B0EB016F04D100200D
:101DF00002B0BDE8F08100BF012002B0BDE8F08173
:101E000004F11C052FCD084340EA8210D9034FF698
:101E1000FF729143A1F5803140EA0560084370608C
:101E200001203866FFF73AFC044600BF30688001A5
:101E3000DDD4FFF733FC001B02284FF00300F5D977
:101E40005BE700BFFFF72AFC054641F2883700BF79
:101E5000306F800708D5FFF721FC401BB8424FF0D8
:101E60000300F5D949E700BFB8F1000F3FF581AE97
:101E7000306C20F0805030647BE600BFFFF70EFC32
:101E8000054600BF306880037FF54EAEFFF706FCC5
:101E9000401B64284FF00300F4D92EE77047000080
:101EA0007047000090F83C20012A4FF0020254D005
:101EB00010B580F83D200268D2F804E0D2F808C0DE
:101EC0000C682EF07003234341F2FF74C4F2000447
:101ED000A24253600EDC40F2FF73C4F200039A4248
:101EE00016DCB2F1804F2BD040F20043C4F2000365
:101EF00024E000BF40F2FF33C4F201039A4213DC36
:101F000041F60003C4F200039A4219D0002313E003
:101F100040F60003C4F200039A4211D040F6004399
:101F2000C4F200030AE000BF44F20003C4F201035C
:101F30009A4205D040F20043C4F201039A4204D110
:101F400049682CF08003194391600121002280F838
:101F50003D1080F83C20BDE810401046704700005E
:101F6000002804BF0120704710B5044690F83D00DA
:101F700028B9002084F83C00204600F01FF8022019
:101F800084F83D002068211D01F0E8FB012084F861
:101F9000460084F83E0084F83F0084F8400084F84E
:101FA000410084F8420084F8430084F8440084F837
:101FB000450084F83D00002010BD00000068B0F12D
:101FC000804F18BF704780B582B00020019043F663
:101FD0004000C4F202000168002241F001010160EA
:101FE0000068052100F00100019001981C20FFF716
:101FF00013FC1C2002B0BDE88040FFF7FBBB0000D3
:1020000090F83D1001291CBF01207047022180F883
:102010003D10006841F2FF72C168C4F200029042B4
:1020200041F00101C1600DDC40F2FF71C4F200011A
:10203000884215DCB0F1804F2AD040F20041C4F252
:10204000000123E040F2FF31C4F20101884213DCB9
:1020500041F60001C4F20001884219D0002113E0CA
:1020600040F60001C4F20001884211D040F6004160
:10207000C4F200010AE000BF44F20001C4F2010111
:10208000884205D040F20041C4F20101884206D1E5
:10209000816801F00701062904BF0020704701682C
:1020A00041F00101016000207047000090F83C20E1
:1020B000012A4FF002026CD080B580F83D20D0F8A4
:1020C00000C04FF67772DCF8083023EA0202CCF841
:1020D00008200B684F2B29DC1F2B45DD202B46D019
:1020E000302B44D0402B40F0AF80D1F804E0C968D9
:1020F000DCF82030DCF8202022F00102CCF820208F
:10210000DCF8182022F0F00242EA011123F00A0262
:1021100042EA0E02CCF81810CCF82020DCF80810A7
:1021200041F0470121F0300128E000BF6F2B33DD83
:10213000B3F5005F74D0B3F5805F21D0702B40F011
:102140008380D1E901E3C968DCF8082043EA0E0383
:1021500022F47F4243EA01211143CCF80810DCF855
:10216000081041F0770109E00BB1102B6CD1DCF8BD
:10217000081021F07001194341F00701CCF8081054
:102180000022012180F83D10002180F83C10BDE8BC
:1021900080401046704700BF502B21D0602B53D198
:1021A000D1F804E0C968DCF82030DCF8202022F007
:1021B0001002CCF82020DCF8182022F4704242EA09
:1021C000013123F0A00242EA0E12CCF81810CCF82C
:1021D0002020DCF8081041F0670121F01001CDE764
:1021E000D1F804E0C968DCF82030DCF8202022F0C7
:1021F0000102CCF82020DCF8182022F0F00242EA9C
:10220000011123F00A0242EA0E02CCF81810CCF8B1
:102210002020DCF8081041F0570121F02001ADE743
:10222000D1E901E3C968DCF8082043EA0E0322F48F
:102230007F4243EA01211143CCF80810DCF8081072
:1022400041F480419AE700BF01229AE770470000FD
:1022500070B504460068C5680669B10716D515F063
:10226000020113D06FF00201016101212177806921
:10227000800703D02046FFF7E9FF05E0204600F085
:102280008FF8204600F08EF800202077700719D5CF
:1022900015F0040016D020686FF0040101610221DE
:1022A0002177806910F4407F04D02046FFF7CEFFED
:1022B00006E000BF204600F073F8204600F072F8F8
:1022C00000202077300717D515F0080014D02068BB
:1022D0006FF00801016104212177C069800703D0F4
:1022E0002046FFF7B3FF05E0204600F059F82046EE
:1022F00000F058F800202077F00619D515F01000EE
:1023000016D020686FF01001016108212177C069A3
:1023100010F4407F04D02046FFF798FF06E000BF8E
:10232000204600F03DF8204600F03CF800202077E1
:10233000F00718BF15F0010002D1300609D412E0F1
:1023400020686FF001010161204600F02DF8300691
:1023500009D515F0800006D020686FF0800101617A
:102360002046FFF79BFD700609D515F0400006D00A
:1023700020686FF040010161204600F01FF8B006B0
:1023800058BF70BD15F0200008D021686FF0200202
:1023900020460A61BDE87040FFF782BD70BD0000B5
:1023A0007047000070470000006840F20041C4F22E
:1023B0000001884218BF7047FFF776B970470000E8
:1023C0007047000010B50446206850E8030F2168EC
:1023D00020F4907041E80302BAB3206850E8030F7C
:1023E000216820F4907041E8030272B3206850E83D
:1023F000030F216820F4907041E803022AB320689B
:1024000050E8030F216820F4907041E80302002A8D
:10241000DAD11AE0206850E8050F216820F00100A9
:1024200041E80502DAB1206850E8050F216820F084
:10243000010041E8050292B1206850E8050F2168CB
:1024400020F0010041E805024AB1206850E8050F7C
:10245000216820F0010041E80502002ADAD1206B52
:10246000012824D1206850E8030F216820F01000D3
:1024700041E80302DAB1206850E8030F216820F038
:10248000100041E8030292B1206850E8030F216870
:1024900020F0100041E803024AB1206850E8030F21
:1024A000216820F0100041E80302002ADAD12068F8
:1024B0004069400636D500BF206850E8050F216806
:1024C00020F0400041E80502DAB1206850E8050F2D
:1024D000216820F0400041E8050292B1206850E8F0
:1024E000050F216820F0400041E805024AB120684C
:1024F00050E8050F216820F0400041E80502002A5D
:10250000DAD1E06B70B100210165FEF7F3FD48B14F
:10251000E06BFEF749FE202804D110206064032000
:1025200010BD00BF00202021E08584F84210206308
:1025300010BD000040F64451C2F20001884218BFAD
:10254000704780B540F64450C2F20000FFF73AFFF2
:1025500040F6EC20C2F200000068016821F008019A
:102560000160BDE880407047B0B582B001680A687C
:10257000CC684B6902F02F05202D04F0200505D111
:1025800025B102B0BDE8B04001F09CB95FEA027C21
:102590001EBF03F0010E04F4907313EB0E0341D140
:1025A000036BD50618D5012B16D114F0100313D0E8
:1025B000002201920A6801924A680192019A4969CF
:1025C00049064BD4818DC28DC38D002B18BF91421B
:1025D00040F0F48102B0B0BD13062DD514F0800395
:1025E0002AD090F84120212AF4D18268B2F5805F88
:1025F00003D10269002A00F06782026A531C036259
:1026000012784A60C28C013A1304C284E2D1C868CD
:1026100020F08000C860C86840F04000C86002B088
:10262000B0BD00BFD30718BF14F4807340F0D08052
:10263000530700F1D380D8E05206CBD514F0400206
:10264000C8D0CA6822F04002CA60202180F8411038
:1026500002B0BDE8B04000F067BD00BFC16B0A68C2
:10266000526893B2002BB5D0858DAB42B2D2C285F1
:10267000C969B1F5807F00F0A080016851E8031FAF
:10268000026821F4807142E80313DBB1016851E86C
:10269000031F026821F4807142E8031393B10168BB
:1026A00051E8031F026821F4807142E803134BB123
:1026B000016851E8031F026821F4807142E80313A6
:1026C000002BDAD1016851E8051F026821F00101F1
:1026D00042E80513BBB3016851E8051F026821F009
:1026E000010142E8051373B3016851E8051F026850
:1026F00021F0010142E805132BB3016851E8051FE1
:10270000026821F0010142E80513002BDAD11AE03A
:10271000016851E8051F026821F0400142E80513F5
:10272000DBB1016851E8051F026821F0400142E871
:10273000051393B1016851E8051F026821F04001BB
:1027400042E805134BB1016851E8051F026821F00A
:10275000400142E80513002BDAD1202180F8421015
:1027600000210163016851E8031F026821F0100194
:1027700042E80313DBB1016851E8031F026821F04E
:10278000100142E8031393B1016851E8031F026886
:1027900021F0100142E803134BB1016851E8031F17
:1027A000026821F0100142E80313002BDAD1C16B5B
:1027B00004460846FEF79EFC204602214163818DB7
:1027C000C28D891A89B202B0BDE8B040FFF7F8BDEA
:1027D000436C43F001034364530706D5BEF1000F79
:1027E00003D0436C43F002034364930706D5BEF164
:1027F000000F03D0436C43F004034364BCF1000FAB
:1028000006D55EEA050303D0436C43F00803436436
:10281000436C002B3FF4DEAE920605D525B104468D
:1028200001F050F8216820464969426C01F04001EE
:1028300002F00802891800F0B98000BF016851E871
:10284000031F026821F4907142E80313BBB30168CF
:1028500051E8031F026821F4907142E8031373B337
:10286000016851E8031F026821F4907142E80313E4
:102870002BB3016851E8031F026821F4907142E80C
:102880000313002BDAD11AE0016851E8051F026832
:1028900021F0010142E80513DBB1016851E8051F91
:1028A000026821F0010142E8051393B1016851E883
:1028B000051F026821F0010142E805134BB10168D0
:1028C00051E8051F026821F0010142E80513002BC1
:1028D000DAD1016B012924D1016851E8031F026894
:1028E00021F0100142E80313DBB1016851E8031F36
:1028F000026821F0100142E8031393B1016851E826
:10290000031F026821F0100142E803134BB1016874
:1029100051E8031F026821F0100142E80313002B65
:10292000DAD1202180F84210002101630168496951
:10293000490640F1C380016851E8051F026821F093
:10294000400142E80513DBB1016851E8051F026848
:1029500021F0400142E8051393B1016851E8051FD9
:10296000026821F0400142E805134BB1016851E8CB
:10297000051F026821F0400142E80513002BDAD15F
:10298000C16B002900F09A8043F6B902C0F600023C
:10299000044608460A65FEF7F5FB00283FF41AAE28
:1029A000E06B016D02B0BDE8B04008470446FFF798
:1029B000C1FD0020606402B0B0BD00BF891A00BF35
:1029C000026852E8032F036822F4907243E803255B
:1029D000BDB3026852E8032F036822F4907243E803
:1029E000032575B3026852E8032F036822F490723E
:1029F00043E803252DB3026852E8032F036822F44D
:102A0000907243E80325002DDAD11AE0026852E8FB
:102A1000052F036822F0010243E80525DDB10268B5
:102A200052E8052F036822F0010243E8052595B11D
:102A3000026852E8052F036822F0010243E80525E9
:102A40004DB1026852E8052F036822F0010243E805
:102A50000525002DDAD1202280F8422000220263D1
:102A6000026852E8032F036822F0100243E80325AE
:102A7000DDB1026852E8032F036822F0100243E838
:102A8000032595B1026852E8032F036822F0100273
:102A900043E803254DB1026852E8032F036822F092
:102AA000100243E80325002DDAD1022289B24263E5
:102AB00002B0BDE8B040FFF783BC00BF02B0BDE884
:102AC000B040FFF737BD00BF026A32F8023B6FF338
:102AD0005F234B60026295E5002804BF0120704728
:102AE00010B5044690F8410028B9002084F8400051
:102AF000204600F021F8242084F841002068C168B5
:102B000021F40051C160204600F05CFF206801699B
:102B100021F490410161416921F02A014161C168BC
:102B200041F40051C16000202021606484F841100C
:102B300084F84210606310BD2DE9F04387B001684E
:102B400044F6FF72C4F2000291424FF00002069276
:102B5000CDE90422CDE9022248DC44F20042C4F26D
:102B60000002914200F0A88044F60000C4F2000088
:102B7000814200F03D8144F60040C4F200008142F1
:102B800040F0B681002043F630010190C4F202010A
:102B90000A6942F400220A610A6902F400220192E1
:102BA000019A01900A6842F004020A60096801F083
:102BB0000401019101994FF4406102910221CDE994
:102BC0000310032005900820069040F60040C4F250
:102BD0000200A0F5806002A9FEF78AFC34200621DD
:102BE0000022FEF719FE342080E100BF45F200020A
:102BF000C4F20002914200F0AF8041F20002C4F240
:102C00000102914200F0408141F20042C4F201020F
:102C1000914240F06D810546002643F63000019652
:102C2000C4F20200416941F020014161416901F0B3
:102C30002001019101990196016841F04001016074
:102C4000006802A900F04000019001984FF4844010
:102C500002900220CDE9030603200590082006908B
:102C600040F60040C4F2020000F54060FEF740FC70
:102C700046F28800C4F2020040F6EC2400F56870C9
:102C8000C2F200044FF020614FF4806284E84300F8
:102C90002046C4E90362C4E90566C4E907666662C2
:102CA000FEF766FB002818BFFDF774FDEC63A56313
:102CB00007B0BDE8F08300BF0546002643F63000AC
:102CC0000196C4F20200016941F400310161016919
:102CD00001F40031019101990196016841F0080168
:102CE0000160006802A900F00800019001986020CE
:102CF00002900220CDE903060320059007200690EC
:102D000040F60040C4F20200FEF7F2FB40F68C24CD
:102D100046F28800C2F20004C4F202004FF00061E3
:102D20004FF4806284E843002046C4E90362C4E9AA
:102D30000566C4E907666662FEF71AFB002818BF3D
:102D4000FDF728FD262005210022EC63A563FEF790
:102D500063FD2620CAE000BF002643F6300001963E
:102D6000C4F20200016940F6004441F4801101619F
:102D70000169C4F2020401F48011019101990196E4
:102D8000016802AD41F00401016001684FF00208E2
:102D900001F0040101910199019601684FF00309C6
:102DA00041F0080101600068082700F00800019068
:102DB00001984FF480500290A4F580602946CDE937
:102DC0000386CDF814900697FEF792FB0420CDE918
:102DD000020820462946CDE904690697FEF788FBDC
:102DE000352005210022FEF717FD35207EE000BFCB
:102DF000002643F630000196C4F20200016940F655
:102E0000004441F4802101610169C4F2020401F42B
:102E10008021019101990196016802AD41F0020102
:102E2000016001684FF0020801F00201019101996F
:102E3000019601684FF0030941F008010160006844
:102E4000072700F00800019001984FF49840029085
:102E5000A4F500602946CDE90386CDF814900697C5
:102E6000FEF746FB4FF40060CDE9020820462946F4
:102E7000CDE904690697FEF73BFB272003210022DA
:102E8000FEF7CAFC272031E0002043F63001019014
:102E9000C4F202014A6942F010024A614A6902F032
:102EA00010020192019A01900A6842F001020A6040
:102EB000096801F00101019101994FF4C06102918B
:102EC0000221CDE90310032005900720069040F66B
:102ED0000040C4F20200A0F5406002A9FEF708FB22
:102EE000252005210022FEF797FC2520FEF782FC15
:102EF00007B0BDE8F083000090F84230202B07D1E6
:102F000000294FF0010318BF002A05D11846704769
:102F100002231846704700BF002303638162222109
:102F20008285C285436480F842100169006819B146
:102F3000C16841F48071C160416941F001014161A2
:102F4000C16841F02001C16018467047F0B581B0FA
:102F500040F24425C2F200052968012918DB044625
:102F6000002602E001368E4212DA05EB8607786809
:102F70004268A242F6D10268017A126890477868E6
:102F8000012200F108012046FFF7B6FF2968E9E7B2
:102F900001B0F0BD2DE9F04381B0044690F8410046
:102FA000202809D100294FF0010018BF002A07D1BD
:102FB00001B0BDE8F08300BF022001B0BDE8F0839E
:102FC0000020606421201D460E4684F8410017460B
:102FD000FEF764FBA784E784A1688146B1F5805FB2
:102FE00002D1206900285DD037460020E28C21689C
:102FF000002A5DD06A1C24D0002D4AD0804600BF34
:103000000868000608D4FEF749FBA0EB0900A842B7
:103010007AD82168C868F3E717B117F8010B04E004
:1030200038F8020B00276FF35F204860E08C01380E
:10303000E084E08C0028E3D13AE000BF0A68120681
:1030400009D40A68120606D40A6812065CBF0A6828
:103050005FEA0262F2D51FB117F8012B05E000BF4D
:1030600030F8022B00276FF35F224A60E28C013AAE
:10307000E284E28C002AE4D11AE000BF30F8022B8F
:1030800000276FF35F224A60E28C013AE284E28C0F
:1030900072B10A68120635D5002FEFD017F8012B50
:1030A000F1E700BF00273046E28C2168002AA1D159
:1030B000086840061ED42DB3681C14D10868400669
:1030C0002AD40868400627D40868400624D4086833
:1030D00040064FF00000F1D50DE000BF2068C16848
:1030E0000068400618D4FEF7D9FAA0EB0900A84200
:1030F000F4D909E00020202184F8411001B0BDE896
:10310000F08300BFFEF7CAFA0320202184F84110A3
:1031100001B0BDE8F08300BF0020202184F84110F9
:1031200001B0BDE8F083000070470000FEE700003A
:1031300080B540F2880046F20041C2F20000C4F2BD
:10314000000140F8181F03210022C0E9011200F11C
:103150000C014FF400234FF4401C4FF0012E81E886
:103160000C508283FDF7BEFD002808BF80BDBDE87E
:103170008040FDF70FBB000080B540F2880046F6A6
:103180000001C2F20000C4F2000140F8401F032118
:103190000022C0E9011200F10C014FF400234FF4AA
:1031A000401C81E80C104FF480710183C0F81A2094
:1031B000FDF798FD002808BF80BDBDE88040FDF701
:1031C000E9BA000080B582B0002043F630010190DA
:1031D000C4F202010A6842F400120A600A6802F4AA
:1031E00000120192019A00900868002240F48000C9
:1031F00008600868072100F4800000900098102003
:10320000FEF70AFB1020FEF7F5FA3920052100220F
:10321000FEF702FB392002B0BDE88040FEF7EABAB3
:103220002DE9F04F87B0002543F630000695CDE933
:103230000455CDE902550195C4F20200016840F23F
:10324000000841F0040101600168C4F2020801F0C5
:103250000401019101990195016808F5A05441F01C
:10326000200101600168002201F020010191019913
:10327000019501684FF0800B41F080010160016809
:1032800001F08001019101990195016841F001016E
:103290000160016801F00101019101990195016846
:1032A00041F010010160016801F0100101910199E4
:1032B0000195016841F002010160016801F002011D
:1032C000019101990195016841F0080101600168CF
:1032D00001F00801019101990195016841F0400157
:1032E00001600068802100F04000019001982046B4
:1032F000FEF7CEF940464FF4C17101220127FEF7D7
:10330000C7F908F5805A50464FF400610122FEF7D4
:10331000BFF908F58069484610210122FEF7B8F987
:10332000402002904FF4881002AECDE903052046FC
:103330003146FEF7DDF80220CDE904002046314693
:10334000CDE902B7FEF7D4F840463146CDE9027523
:103350000497FEF7CDF84FF4C170CDE9020740465F
:103360003146CDE90477FEF7C3F84FF40060CDE9AC
:10337000020750463146CDE90477FEF7B9F84FF41D
:10338000004002A9A1C148463146FEF7B1F84FF40A
:10339000804002A9A1C108F540603146FEF7A8F8B7
:1033A0004FF4007002A9A1C108F500603146FEF794
:1033B0009FF81020CDE9020748463146CDE9047751
:1033C000FEF796F8172000210022FEF725FA1720B5
:1033D000FEF710FA07B0BDE8F08F000080B586B0A8
:1033E00040F64C300021C2F2000042F2107C059100
:1033F000CDE90311CDE900114FF080425323C0E91C
:10340000021C01618021C0E900238161FEF7A8FD53
:10341000002818BFFDF7BEF94FF48050029040F627
:103420004C30C2F2000002A9FEF740FE002818BF8F
:10343000FDF7B0F940F64C30C2F200006946FEF7E5
:1034400031FD002818BFFDF7A5F906B080BD0000CA
:1034500080B540F6B44044F60041C2F20000C4F228
:10346000000100234FF00C0C4FF4E13280E80E0015
:10347000C0E90333C0E905C3C361FFF72DFB002892
:1034800008BF80BDBDE88040FDF784B980B540F637
:10349000FC4045F20001C2F20000C4F2000100232A
:1034A0004FF00C0C4FF4E13280E80E00C0E903331A
:1034B000C0E905C3C361FFF70FFB002808BF80BD4B
:1034C000BDE88040FDF766B980B540F6DC3041F2DA
:1034D0000001C2F20000C4F2010100234FF00C0C05
:1034E0004FF4E13280E80E00C0E90333C0E905C3C0
:1034F000C361FFF7F1FA002808BF80BDBDE8804036
:10350000FDF748B980B540F6244044F20041C2F2CC
:103510000000C4F2000100234FF00C0C4FF4E13224
:1035200080E80E00C0E90333C0E905C3C361FFF7BB
:10353000D3FA002808BF80BDBDE88040FDF72AB956
:1035400080B540F66C4044F60001C2F20000C4F2BF
:10355000000100234FF00C0C4FF4407E4FF4E13299
:1035600080E80E00C0E90333C0E905CEC361FFF770
:10357000B3FA002808BF80BDBDE88040FDF70AB956
:1035800080B540F6445041F20041C2F20000C4F25E
:10359000010100234FF00C0C4FF4E13280E80E00E3
:1035A000C0E90333C0E905C3C361FFF795FA0028FA
:1035B00008BF80BDBDE88040FDF7ECB8FEE7000025
:1035C000FEE7000000000000000000000000000016
:1035D000EFF30980BFF36F8F154B1A681EF0100FC1
:1035E00008BF20ED108A20E9F04F10602DE9090096
:1035F0004FF0500080F31188BFF34F8FBFF36F8FF0
:1036000002F098FF4FF0000080F31188BDE8090038
:1036100019680868B0E8F04F1EF0100F08BFB0EC52
:10362000108A80F30988BFF36F8F704700BF00BF17
:10363000F00000200000000000000000000000007A
:10364000074B19680868B0E8F04F80F30988BFF3AA
:103650006F8F4FF0000080F31188704700BF00BFEC
:10366000F000002080B54EF21000CEF2000000689D
:1036700003F04AFC012808BF80BDBDE8804003F08C
:1036800083B8000070B592B006AC20463021FCF73C
:10369000C8FE002543F640000595CDE90355CDE968
:1036A00001550095C4F202000168022641F08051E4
:1036B0000160006800F080500090009847F2000020
:1036C0000095C4F20000016841F480410160006887
:1036D00000F4804000900098012006904FF4803064
:1036E00007904FF480000D9008200E904FF4A870C2
:1036F000CDE90F060420119020460C96FEF7F8F94C
:1037000010B172B6FEE700BF0F20CDE901064FF4FD
:10371000A05004904FF48050059001A80521039516
:10372000FEF7B6F810B172B6FEE700BF12B070BD7A
:103730004EF68850CEF20000016841F4700101603D
:103740007047000040F64C30C2F20000FEF780BD2A
:1037500040F69430C2F20000FEF77ABD10B540F694
:10376000FF3E0368C4F2000E40F2004C7045C4F204
:10377000010C25DCB0F1804F2FD040F20042C4F2A2
:103780000002904229D040F60002C4F200029042AA
:1037900023D041F6FF72C4F20002904227DC70454C
:1037A0003ADCB0F1804F5BD040F20042C4F200023C
:1037B000904255D040F60002C4F200024EE000BF35
:1037C00040F60042C4F20002904206D0604504D0A8
:1037D0000022C4F201029042DBD14A6823F0700358
:1037E000134341F6FF72C4F200029042D7DD43F664
:1037F000FF72C4F20102904220DC42F20002C4F2E5
:10380000000290422CD00022C4F20102904227D044
:10381000604525D028E000BF40F60042C4F2000217
:1038200090421DD041F60002C4F20002904217D02F
:1038300041F60042C4F2000210E000BF44F2000270
:10384000C4F2010290420BD044F60002C4F201021D
:10385000904205D044F20042C4F20102904203D1EA
:10386000CA6823F44073134323F080024B69D1F8F4
:1038700000E08C681A430260C46240F48062C0F8C1
:1038800028E0624504BF09690163012141610169C2
:10389000C90708BF10BD016921F00101016110BD18
:1038A00040F6B440C2F20000FEF75EBE40F6FC40B7
:1038B000C2F20000FEF758BE806B0021C185C184B2
:1038C000FEF738BE81B090F84210222921D18368DA
:1038D0000246B3F5805F09D152F8281F52F8183C10
:1038E000002B63D003685B680AE000BF52F8281F12
:1038F00013B90369002BF5D003685B6803F07F03FD
:103900000B70116801311160C18D01390A04C18544
:1039100002D001B0704700BF0168CA6822F02002DF
:10392000CA60CA6822F48072CA604A6922F0010241
:103930004A61202180F8421000214163026B012A74
:103940003CD10163016851E8031F026821F01001B6
:1039500042E80313DBB1016851E8031F026821F05C
:10396000100142E8031393B1016851E8031F026894
:1039700021F0100142E803134BB1016851E8031F25
:10398000026821F0100142E80313002BDAD101682C
:103990000A68D20606D5002200920A680092496899
:1039A00000910099818D01B0FEF70ABD026852684E
:1039B0006FF35F2221F8022B8162A5E701B0FFF7C8
:1039C000C5BA0000B0B50446006804F108030ECB88
:1039D0000569194325F440552A4302616269E36988
:1039E0001143C268194349F20C639A431143C16001
:1039F0004169A26921F4407141F20043114340F44E
:103A00008062C4F201039A42416103D1FEF726F8B5
:103A100002E000BFFEF70EF8E1694FF69C7563689F
:103A20001922C0F6FF75B1F5004FA0FB02011FD1AE
:103A30005A00DB0FFCF730FC48F21F51C5F2EB11C6
:103A4000A0FB01235A0905F1805302FB0300322336
:103A500003EBC000A0FB01014FF4F87000EA111065
:103A600000EB0210C1F34211084421688860B0BD28
:103A70009A009B0FFCF710FC48F21F51C5F2EB11A6
:103A8000A0FB01235A0902FB0500322303EB0010BF
:103A9000A0FB0101F02000EA511000EB0210C1F37D
:103AA0004311084421688860B0BD000040F6DC3056
:103AB000C2F20000FEF758BD40F62440C2F20000FA
:103AC000FEF752BD40F66C40C2F20000FEF74CBD5E
:103AD000FEE700002DE9F04381B040F204354FF0DD
:103AE0000008C2F200054FF018094FF48067002467
:103AF0002E1906F11400502145F80480C6F80C90E8
:103B0000FCF78FFC6C34B4F5876FB766F0D101B069
:103B1000BDE8F08370B540F6286440F2A006DFED02
:103B2000280AC2F20004C2F20006B7EE000A2046DC
:103B300001213246B0EE601AF0EE601AB0EE602A53
:103B400000F09AFE40F68C55C2F200059FED1D0A6A
:103B5000DFED1D0A9FED1D1ADFED1D1A9FED1D2AD9
:103B600028460221324600F087FE40F27020C2F261
:103B7000000000F02DFC043000F072F941F2144016
:103B800004F10C0105F10C02C2F2000000F0D8F9BA
:103B900040F24C7040F6FC41C2F20000C2F200015B
:103BA000002200F085FB40F6EC0040F6DC31C2F26A
:103BB0000000C2F200010022BDE8704000F078BBB6
:103BC0000000000027A09941000000425C8F423FA6
:103BD0009A9909410000D442F0B581B040F2CC1569
:103BE000C2F2000529680446012925DB002600BF32
:103BF00005EB8600806A01680968884700BA04EB13
:103C00004601000CA1F84400286801368642EFDB2B
:103C10004FF40070214641F8140F40F2A00001F16A
:103C2000300201F14003C2F20000FCF7CFFD012891
:103C300004BF012084F85C002869012824DB0026E9
:103C400005EB8600806E01680968884700BA04EBBE
:103C50004601000CA1F84400286901368642EFDBDA
:103C600040F2FF10214641F8140F40F2A00001F18C
:103C7000300201F14003C2F20000FCF7A7FD012869
:103C800004BF012084F85C006868012824DB00265A
:103C900005EB8600806B01680968884700BA04EB71
:103CA0004601000CA1F84C00686801368642EFDB43
:103CB0004FF40070214641F82C0F40F2C80001F18A
:103CC000200201F12C03C2F20000FCF77FFD002866
:103CD0001CBF012084F85C006869012827DB40F2E2
:103CE0003C770026C2F2000757F8260001680968F1
:103CF000884700BA04EB4601000CA1F84C00686943
:103D000001368642F0DB40F2FF10214641F82C0FCD
:103D100040F2C80001F1200201F12C03C2F20000C0
:103D2000FCF754FD00281CBF012084F85C00002033
:103D3000C4E91100C4E9130001B0F0BD80B58AB038
:103D40000020CDE90500CDE90000CDE90200049096
:103D50000E200121099040F2A000CDE90711C2F226
:103D600000006946FCF784FD002818BFFCF712FD2F
:103D700040F2A000C2F20000FDF780F9002818BF51
:103D8000FCF708FD40F2A000C2F200000221FCF79F
:103D900005FD002818BFFCF7FDFC40F28800C2F2C8
:103DA0000000002104220823C0E90112C0E9031326
:103DB00001750AB080BD000080B58AB00E20059064
:103DC0000021099040F2C80006910122CDE90011BE
:103DD000CDE902110491C2F200006946CDE9072243
:103DE000FCF746FD002818BFFCF7D4FC40F2C800E1
:103DF000C2F20000FDF742F9002818BFFCF7CAFC28
:103E000040F2C800C2F200000221FCF7C7FC002803
:103E100018BFFCF7BFFC40F28800C2F2000000218E
:103E200004220823C0E90112C0E9031301750AB096
:103E300080BD000080B5FFF781FFFFF7BDFF40F2B6
:103E4000A000C2F200000221FCF7A8FC40F2C8006A
:103E5000C2F200000221BDE88040FCF79FBC0000D8
:103E600047F21452C0F600023021083201710021DD
:103E700002600822C0F80510C0F80910C0F80D1043
:103E80000161C0E91111C0E91311C0E9151180F8F1
:103E90005C10C0E90711426280F828104161C0E956
:103EA0000D11C26380F84010C1627047602101F0BB
:103EB00008BA000010B500F19C01044600F00EFBAA
:103EC00004F18001204600F009FB204600F060FB71
:103ED00094F8380290B1012808D0022818D146F28F
:103EE00000009FED140AC4F24D500DE04AF20000AC
:103EF0009FED120AC4F2085006E000BF48F200002D
:103F00009FED0D0AC4F25D40C4F83C0202E000BF20
:103F100094ED8F0AD4F8400294ED151A94ED162A08
:103F2000016831EE421A496821EE000ABDE81040EE
:103F3000084700BF00604D4500805D4400A0084573
:103F400070B5B7EE080A9FED141A14460D4600210D
:103F50000022F0EE400A002600F028FC302180F814
:103F6000281247F22851C0F6000101F10802283159
:103F7000C0F824120121C0F82962C0F82D62C0F8EF
:103F80003162C0F83462026080F83812C0E98F658F
:103F9000C0F8444270BD00BF666666404FF41271BF
:103FA00001F08FB97047000070B5054600F59C76AA
:103FB0004FF6FC3095F8AC10A5F8380195F8AF0035
:103FC00085F83A0185F83B1149B3042901F0030E45
:103FD00002D200220CE000BF01F0FC03002200BF6F
:103FE000A818D0F8F44004329342C0F83C41F7D10D
:103FF000BEF1000F13D005F1F403985C02EB060C40
:10400000BEF1010F8CF8040009D01A445078BEF1BB
:10401000020F8CF805001CBF90788CF8060005F1A3
:10402000F400FCF735FB95F8AC10A5F834018C19B9
:104030002071000A60714FF6FD6C686801F108029A
:1040400031464FF0FF33A4F806C0BDE87040FEF7DC
:10405000A1BF0000D0F89821042A07DC00EB820CF5
:10406000531CC0F89831CCF8841148600020052A10
:10407000B8BF0120704700002DE9F04782B0044628
:1040800090F89C01082800F20D81DFE800F005455A
:10409000252D115159396100FC293AD1012084F8AC
:1040A0009C01FC2084F8210002B0BDE8F08700BF2D
:1040B00094F8800194F8202023180130C7B2974269
:1040C00084F8800183F8261023D3052084F89C010E
:1040D00002B0BDE8F08700BF84F82310032084F805
:1040E0009C0102B0BDE8F087002084F8201084F81D
:1040F0008001042084F89C0102B0BDE8F08700BF75
:10410000FD2940F0CF80082084F89C01FD2084F830
:10411000AA0002B0BDE8F087FB2940F0C38002206E
:1041200084F89C01FB2084F8220002B0BDE8F087EF
:1041300084F8A810062084F89C0102B0BDE8F0873E
:1041400084F8A910072084F89C0102B0BDE8F0872C
:10415000FE2940F0A78094F8811194F82080FE2079
:10416000002984F8AB0058D004F1260630464146B9
:10417000FCF78EFAB4F8A810A084884247D194F8CE
:104180002080B8F1000F20D0B8F1040F08F0030030
:1041900002D200210AE000BF08F0FC0200216318EF
:1041A000D3F8267004318A429F66F8D168B1735CF7
:1041B00004F168020128535407D04B1CF75C022815
:1041C000D75402D0881C315C1154D4F898110129BD
:1041D0001ADB94F8239004F1680704F5C27A0026EC
:1041E00003E000BF01368E420EDA5AF8260000289E
:1041F000F8D0016842468D6849463B460097A8477B
:10420000D4F89811EEE700BF002084F89C0194F8E0
:104210008101002846D194F82080B8F1000F23D006
:10422000B8F1040F08F0030002D200210BE000BF38
:1042300008F0FC02002100BF6318D3F82670043197
:104240008A429F66F8D178B104F12602575C04F1E6
:10425000680301285F5407D04F1CD65D0228DE5545
:1042600002D0881C115C1954D4F89811012919DB6B
:1042700094F8239004F1680704F5C27A002602E05E
:1042800001368E420EDA5AF826000028F8D001686E
:1042900042468D6849463B460097A847D4F8981196
:1042A000EEE700BF002084F89C0102B0BDE8F08773
:1042B00070B51546044600F0D3F83020207447F25C
:1042C0005C50C0F6000000F108012030002621609B
:1042D000E06004F168004021C4F81160C4F8156082
:1042E000C4F81960E66184F8206084F82360A6842D
:1042F000FCF797F804F1F400402184F8AC6084F8EE
:10430000AF60A4F8B060FCF78CF8204684F88061B8
:1043100084F88151C4E96166C4E96366C4E96566ED
:1043200084F89C6170BD00004FF4D07100F0C9BFEB
:104330007047000040F20431C2F200016C2200FB21
:10434000021404F1140502E0206900F0F9FF606E28
:104350000128F9DB002603E0606E01368642F3DABD
:1043600055F826000028F7D0016809688847F3E768
:10437000092988BF704770B58AB040F20430C2F294
:1043800000006C2301FB0306706E13281CDC06EB97
:10439000800042613068A0B901AC20460D4624215E
:1043A000FCF73FF8301D0190B06EF1682246CDE970
:1043B000060144F23530C0F60000294601F002F84B
:1043C0003060706E013070660AB0BDE870407047B2
:1043D00070B540F2043C46F274134FF0000EC2F286
:1043E000000CC6F673335F21002200240CEB02059B
:1043F0006C3244F03006B2F5876F04F101046B6053
:1044000029726E7285F80AE0F0D130210122CCE9E0
:10441000031220210223CCE91E130523CCE9391312
:104420001821CCE954130A23CCE96F131021CCE9ED
:104430008A130F23CCE9A5130821CCE9C013142358
:10444000CCE9DB13CCE9F62370BD00007047000017
:10445000426800F1080110460122FEF74DBD000040
:1044600080B540F2442EC2F2000E47F29C5CDEF8AA
:104470000030C0F6000C0CF10802092BC0E9002145
:10448000C8BF80BD591CCEF800100EEB83014860F8
:1044900080BD00007047000070470000B0B540F2DA
:1044A0004C75C2F2000505F1680040F6286490ECF6
:1044B000040AC2F2000404F1440000F0E1FA2046CC
:1044C00000F0CAF9606BE16E85ED3D0AC5E93E0179
:1044D000B0BD0000142100F0F4BE000010B50A6861
:1044E000127812B14A68127822B1D1E9000100783D
:1044F000087010BD0A69032AF7D8DFE802F0033913
:10450000152300BF88680028EFD002780B7B0132AA
:104510000133B2FBF3F404FB13220270D1E9000172
:104520000078087010BD00BF88680028DDD00278D0
:10453000002A1CBF013A0270D1E90001007808701E
:1045400010BD00BFD1E905C303F0010454EA0C0219
:10455000CBD0002C00EB63000C4602D0016851F870
:104560000CC0E0472146D1E900010078087010BD79
:1045700088680028B9D002780B7B9A423CBF013290
:104580000270D1E900010078087010BD704700008A
:10459000028F47F618118A4248F6B70110D9002356
:1045A0008A4243641AD900EE102A9FED3F1AB8EEF2
:1045B000400A9FED3E2A20EE010A30EE020A0BE08F
:1045C00000EE102A9FED371AB8EE400A20EE010ADD
:1045D000B7EE001A30EE010A80ED110A428F47F65D
:1045E00018139A4210D900238A4283641AD900EE24
:1045F000102A9FED2D1AB8EE400A9FED2C2A20EECE
:10460000010A30EE020A0BE000EE102A9FED251A97
:10461000B8EE400A20EE010AB7EE001A30EE010AA9
:1046200080ED120A818F47F619128A1A92B240F66B
:104630009E739A4202D80021C1641BE000EE101A5A
:1046400047F618129142B8EE400A09D89FED151AA4
:1046500020EE010AB7EE001A30EE010A08E000BFB2
:104660009FED111A9FED112A20EE010A30EE020A89
:1046700080ED130AB0F842109FED0D1A00EE101AEB
:10468000B0F84010B8EE400A02EE101AB8EE422A16
:1046900020EE010A22EE011A80ED151A80ED160AAD
:1046A000704700BFD54C07B84C5C09B885B7923F3E
:1046B0000820803A704700001C2A18BF70471978FC
:1046C000002918BF012101765978002918BF01215E
:1046D00081769978002918BF01210177D9780029BE
:1046E00018BF012181771979002918BF012180F8AD
:1046F00020105979002918BF012180F822109979DA
:10470000002918BF012180F82410D979002918BF89
:10471000012180F82610197A002918BF012180F89C
:104720002810597A002918BF012180F82A10997A97
:10473000002918BF012180F82C10D97A002918BF50
:10474000012180F82E10197B002918BF012180F863
:104750003010597B002918BF012180F83210997B55
:10476000002918BF012180F83410D97B002918BF17
:10477000012180F83610198A09BA090C0187598A73
:1047800009BA090C4187998A09BA090C8187D98A23
:1047900009BA090CC187198B09BA090CA0F8401095
:1047A000598B09BA090CA0F84210704747F2BC5364
:1047B000C0F600034FF0000C0833C0E9003C80ED68
:1047C000020AC0ED030AC0F810C080ED051AC0E966
:1047D000171270474FF4097100F073BD70B50C46A5
:1047E000098800F11406054649BA304600F06EFC0F
:1047F00085ED050A608800BA000C2883A088C1BA3C
:10480000304600F087FC85ED070A70BD70B590ED6D
:104810000B0A90ED0D1A00F14405044620EE010A42
:10482000284600F029F9B4F9180004F1140600EE46
:10483000100AB8EEC00A284600F06CF8304600F0C6
:1048400057FC94ED100A0546304600F051FC411922
:1048500008B2218470BD0000B0F9181090ED0B1A59
:1048600000EE101AB8EEC00A80EE010A7047000090
:1048700080ED0D0A70470000B0B52DED0C8B0B4696
:104880000021B0EE428AB0EE619AB0EE41AAB0EEDD
:1048900060BAB0EE40CA0446002500F025F947F2A0
:1048A0008850C0F6000008309FED19DAE060032060
:1048B000207404F11400B0EE4D0A4FF4804141F62B
:1048C000FF7200F039FC47F2D850C0F6000000F14A
:1048D00008012430E06004F14400F1EE042AB0EE57
:1048E0004B0AF0EE4A0AB0EE491AF0EE481AB0EE62
:1048F0004D2A216084ED0BCAC4E90C55C4E90E555C
:10490000256400F0C5F82046BDEC0C8BB0BD00BF9F
:1049100000409C4610B52DED028BB0EE408A044657
:10492000FCF7BCFEA16959B1411A00EE101A9FEDC7
:10493000501AB8EE400A80EE010A84ED050A01E043
:1049400094ED050A94ED001A94ED012A94ED023AD3
:1049500094ED034AB8EE006A21EE015A32EE432A82
:1049600021EE061A21EE041A25EE022A31EE021A71
:1049700024EE002A21EE000A30EE040A32EE032A69
:1049800084ED030A94ED0E0A84ED041A32EE481AFF
:10499000B4EE401AF1EE10FAA06184ED022A84ED23
:1049A0000A2A84ED071A04DAB5EE401AF1EE10FA7D
:1049B0000BDCB1EE400AB4EE401AF1EE10FA08DD5D
:1049C000B5EE401AF1EE10FA03DA9FED2A1A002034
:1049D000E06194F8540038B10020B0EE410AB0EE26
:1049E000412A84F8540003E094ED082A94ED090A62
:1049F00094ED0F6A94ED107A31EE424A94ED0C5A20
:104A000026EE044A21EE076A32EE027AD4ED110A4C
:104A100031EE477A30EE070A84ED144A34EE054A47
:104A200094ED0D3A20EE200A36EE044A84ED130A86
:104A300030EE040AB4EE430AF1EE10FA84ED126A85
:104A400084ED0B0A06DCB1EE433AB4EE430AF1EE14
:104A500010FA03DAB0EE430A84ED0B3A84ED081A3B
:104A600084ED092A84ED0C0ABDEC028B10BD00BF59
:104A700000007A440000000080ED010A7047000049
:104A800000F13C0181EC030AC0ED001A7047000000
:104A900010B52DED0A8B0446E0EC011A3021B0EE82
:104AA000628AB0EE429AB0EE41AAB0EE60BAB0EEC1
:104AB00040CAFBF7B6FC0020C4E9120020650120C3
:104AC00084ED0D9A84ED0E8A84ED0FCA84ED10BA40
:104AD00084F85400204684ED11AABDEC0A8B10BD69
:104AE00070470000002070472DE9F04747F2086743
:104AF000C0F600070837C0E9007240F2A007C2F212
:104B00000007BA420172437208D040F2C807C2F2ED
:104B10000007BA4200F07C81BDE8F08705296FD01C
:104B2000042937D00029F7D140F2CC1EC2F2000E82
:104B3000DEF800C0BCF1030FEEDCBCF1010FE24671
:104B4000C0F25781DEF82840647A9C4240F2A88087
:104B50004FF0000AD44540F24C81ACEB0A0515F049
:104B60000306654600F02A81ACF101050EF1280725
:104B700057F82580012E47F82C8000F01F81ACF1FA
:104B8000020857F82890022E47F8259040F010812F
:104B9000454613E140F2CC1EC2F2000EDEF810C012
:104BA000BCF1030FB8DCBCF1010FE246C0F2D180CA
:104BB000DEF86840647A9C4258D94FF0000AD44528
:104BC00040F2C780ACEB0A0515F00306654600F01D
:104BD000A580ACF101050EF1680757F82580012E7C
:104BE00047F82C8000F09A80ACF1020857F8289022
:104BF000022E47F8259040F08B8045468EE000BF9E
:104C000040F2CC1EC2F2000EDEF808C0BCF1030F69
:104C10003FF782AFBCF1010FE246C0F2C280DEF87E
:104C20004840647A9C422DD94FF0000AD44540F2A6
:104C3000B880ACEB0A0515F00306654600F09680D7
:104C4000ACF101050EF1480757F82580012E47F811
:104C50002C8000F08B80ACF1020857F82890022ECF
:104C600047F825907CD1454680E000BFBCF1010F9C
:104C7000E2466ED0DEF86C40647A9C421ED94FF05A
:104C8000010A9CE7BCF1010FE24600F08A80DEF8E1
:104C90004C40647A9C421FD94FF0010AC6E700BF1E
:104CA000BCF1010FE24600F0A480DEF82C40647AEB
:104CB0009C421FD94FF0010A4CE700BFBCF1020F24
:104CC000E24646D0DEF87040E246647A9C4240D923
:104CD0004FF0020A73E700BFBCF1020FE24660D05A
:104CE000DEF85040E246647A9C425AD94FF0020AFC
:104CF0009CE700BFBCF1020FE2467AD0DEF83040FC
:104D0000E246647A9C4274D94FF0020A22E700BF5F
:104D1000ACF1030557F8256047F82860AAEB0C06AC
:104D200016F1040F15D8682606EB85060EEB8507ED
:104D30007C6E0EEB06084EF80640D7E91794043D4A
:104D4000C7E9189458F8104C5545A6F11006FC65B3
:104D5000ECDC0EEB8A0468340EF1100E4CE000BF60
:104D6000ACF1030557F8256047F82860AAEB0C065C
:104D700016F1040F15D8482606EB85060EEB8507BD
:104D80007C6C0EEB06084EF80640D7E90F94043D04
:104D9000C7E9109458F8104C5545A6F11006FC636D
:104DA000ECDC0EEB8A0448340EF1080E24E000BF60
:104DB000ACF1030557F8256047F82860AAEB0C060C
:104DC00016F1040F15D8282606EB85060EEB85078D
:104DD0007C6A0EEB06084EF80640D7E90794043DBE
:104DE000C7E9089458F8104C5545A6F11006FC6127
:104DF000ECDC0EEB8A0428340CF101072060CEF8BD
:104E0000007040F2C807C2F20007BA427FF484AED5
:104E1000052969D0042935D000297FF47DAE40F200
:104E2000CC1EC2F2000EDEF8041003293FF774AE68
:104E300001298846C0F24081DEF838707F7A9F42AF
:104E400040F29A804FF00008414540F23581A1EBD5
:104E5000080313F003070B4600F013814B1E0EF1FD
:104E6000380656F82350012F46F8215000F00981EA
:104E70008D1E56F825C0022F46F823C040F0FC8056
:104E80002B46FEE040F2CC12C2F200025169032927
:104E90003FF742AE40F23C7C0129C2F2000C0C46C6
:104EA000C0F2E180DCF800707F7A9F4258D900247C
:104EB000A14240F2D8800B1B13F003070B4600F011
:104EC000BC804B1E5CF82360012F4CF8216000F081
:104ED000B4808E1E5CF82650022F4CF8235040F010
:104EE000A7803346A9E000BF40F2CC1EC2F2000EFC
:104EF000DEF80C100329C8BFBDE8F08701298846F9
:104F0000C0F28B80DEF858707F7A9F421CD94FF038
:104F10000008414540F28180A1EB080313F003072C
:104F20000B465ED04B1E0EF1580656F82350012F4B
:104F300046F8215055D08D1E56F825C0022F46F850
:104F400023C049D12B464CE00129884665D0DEF8C4
:104F50005C707F7A9F421BD94FF00108D9E700BFF0
:104F600001290C4600F07F80DCF804707F7A9F42B4
:104F70001AD901249CE700BF0129884600F09C80D3
:104F8000DEF83C707F7A9F421AD94FF001085BE748
:104F90000229884641D0DEF8607088467F7A9F42B9
:104FA0003BD94FF00208B4E702290C465BD0DCF88D
:104FB00008700C467F7A9F4255D9022478E700BFDB
:104FC0000229884678D0DEF8407088467F7A9F4272
:104FD00072D94FF0020837E7CB1E56F8237046F817
:104FE0002570A8EB010717F1040F16D8582707EB17
:104FF000830600BF0EEB83077D6D0EEB06024EF8B5
:105000000650D7E91345043BC7E9144552F8102C64
:105010004345A6F11006FA64ECDC0EEB8803583326
:105020000EF10C02013118601160BDE8F08700BF7D
:10503000CB1E5CF823704CF82670671A17F1040F2A
:1050400011D80CEB8307A7F10806D6E90057043BFB
:10505000C6E9015756E90257A342376046F8045C97
:10506000A6F11006F1DC0CEB840314320131186058
:105070001160BDE8F08700BFCB1E56F8237046F8DC
:105080002570A8EB010717F1040F15D8382707EB97
:1050900083060EEB83077D6B0EEB06024EF806507F
:1050A000D7E90B45043BC7E90C4552F8102C4345A2
:1050B000A6F11006FA62ECDC0EEB880338330EF131
:1050C0000402013118601160BDE8F087C08A00EE6B
:1050D000101A9FED062AB8EE400A01EE100AB8EE4B
:1050E000411A20EE020A80EE010A70470000B44324
:1050F000B0F9141090ED041A02EE101AB8EEC22A9C
:1051000022EE000A80EE010ABDEEC00A10EE100A7F
:105110007047000000EE101AB0F9141090ED042A48
:10512000B8EEC00A01EE101AB8EEC11A22EE000A5B
:1051300080EE010A704700000023036083808360D3
:10514000838180ED040A8182C282704770B5054672
:1051500000F596764FF6FC3095F8A010A5F82C01D6
:1051600095F8A30085F82E0185F82F1149B304297D
:1051700001F0030E02D200220CE000BF01F0FC039C
:10518000002200BFA818D0F8E84004329342C0F8CB
:105190003041F7D1BEF1000F13D005F1E803985C60
:1051A00002EB060CBEF1010F8CF8040009D01A4482
:1051B0005078BEF1020F8CF805001CBF90788CF877
:1051C000060005F1E800FBF763FA95F8A010A5F8D2
:1051D00028018C192071000A60714FF6FD6C55F89A
:1051E000080C01F1080231464FF0FF33A4F806C065
:1051F000BDE87040FDF7CEBE0C384FF4D07100F022
:1052000060B8000070470000B0F90C1090ED081A6B
:1052100000EE101AB8EEC00A80EE010A70470000D6
:1052200080ED0A0A70470000B0B5A0F50975044684
:10523000A0F5C4712846FFF751F9A4F5D2712846AC
:10524000FFF74CF92846FFF7A3F9207D90B101281C
:1052500008D0022816D146F200009FED120AC4F2CF
:105260004D500DE04AF200009FED100AC4F20850C4
:1052700006E000BF48F200009FED0B0AC4F25D405B
:10528000A06101E094ED060AE06914ED741A14EDD2
:10529000732A016831EE421A496821EE000ABDE81E
:1052A000B040084700604D4500805D4400A00845BF
:1052B000A0F509704FF4127100F003B87047FBF7C6
:1052C000F1B8FFF7FCBF000001A000F011F800BF2B
:1052D00050757265207669727475616C2066756EA2
:1052E0006374696F6E2063616C6C656421000000FB
:1052F000FBF736F9FCF7E6F9FEF7C4F9FDF790FF86
:10530000FDF760FFFDF714FFFEF7DEF8FDF734FF51
:10531000FEF764F8FEF714F9FEF79AF8FEF7F2F8D4
:10532000FEF72EF9FEF7B2F840F64C30C2F200005C
:10533000FCF766FE00F014F800F0C6FCFEE7000083
:10534000EFF3058100291CBF6FF0050070470028AE
:1053500004BF0020704780B500F0A2FF002080BD90
:10536000EFF3058000281CBF6FF00500704740F286
:105370000030C2F200000168002911BF4FF0FF3079
:105380000121016000207047EFF3058000281CBF59
:105390006FF00500704740F20030C2F20000016873
:1053A00001291CBF4FF0FF30704780B54EF61F51EA
:1053B000CEF2000100220A700221016001F03AF8E9
:1053C000002080BDF0B585B08C4600230493EFF338
:1053D0000581B0B3A9BB2AB39469002C08BF182477
:1053E000382C2ED81179C9072BD15669D2E902572A
:1053F0004FEA960E1168002E734608BF80231DB336
:105400005C2F25D312690023002A18BF002E18D064
:10541000CDE9004272466346029501F039FD05B0C0
:10542000F0BD00BF80231824002104AF9AB2634668
:10543000CDE9004701F0FCFC00230499012808BFD6
:105440000B46184605B0F0BD17B91269002AECD01A
:105450000023184605B0F0BD2DE9F041044600F0E8
:1054600009FE40F2F006C2F20006F06840F6B4759C
:105470000130F0603068C2F2000558B13069002890
:1054800040F007813068E16AC06A884298BF3460A2
:10549000FFE000BF3460F068012840F0FA80284641
:1054A00000F08EFD05F1140000F08AFD05F12800E2
:1054B00000F086FD05F13C0000F082FD05F1500092
:1054C00000F07EFD05F1640000F07AFD05F1780042
:1054D00000F076FD05F18C0000F072FD05F1A000F2
:1054E00000F06EFD05F1B40000F06AFD05F1C800A2
:1054F00000F066FD05F1DC0000F062FD05F1F00052
:1055000000F05EFD05F5827000F05AFD05F58C7027
:1055100000F056FD05F5967000F052FD05F5A070FF
:1055200000F04EFD05F5AA7000F04AFD05F5B470D7
:1055300000F046FD05F5BE7000F042FD05F5C870AF
:1055400000F03EFD05F5D27000F03AFD05F5DC7087
:1055500000F036FD05F5E67000F032FD05F5F0705F
:1055600000F02EFD05F5FA7000F02AFD05F5027039
:1055700000F026FD05F5077000F022FD05F50C7022
:1055800000F01EFD05F5117000F01AFD05F516700E
:1055900000F016FD05F51B7000F012FD05F52070FA
:1055A00000F00EFD05F5257000F00AFD05F52A70E6
:1055B00000F006FD05F52F7000F002FD05F53470D2
:1055C00000F0FEFC05F5397000F0FAFC05F53E70C0
:1055D00000F0F6FC05F5437000F0F2FC05F54870AC
:1055E00000F0EEFC05F54D7000F0EAFC05F5527098
:1055F00000F0E6FC05F5577000F0E2FC05F55C7084
:1056000000F0DEFC05F5617000F0DAFC05F566706F
:1056100000F0D6FC05F56B7000F0D2FC05F570705B
:1056200000F0CEFC05F5757000F0CAFC05F57A7047
:1056300000F0C6FC05F57F7000F0C2FC05F5826045
:1056400000F0BEFC05F2244000F0BAFC05F58760CE
:1056500000F0B6FC05F24C4000F0B2FC40F2D42859
:10566000C2F20008404600F0ABFC08F114073846CF
:1056700000F0A6FC06F1640000F0A2FC06F13C007C
:1056800000F09EFC06F1500000F09AFCC6F81C8069
:1056900037627068716A421CE06A726088426264B4
:1056A00088BF706200EB800005EB8000211D00F0D8
:1056B000C9FC00F003FD306988B13068E16AC06A56
:1056C000884228BFBDE8F0814EF60450CEF20000BB
:1056D0004FF080510160BFF34F8FBFF36F8FBDE874
:1056E000F081000040F2F00540F6B4764EF6045822
:1056F000C2F20005C2F20006CEF200084FF0805759
:1057000003E000BF204600F0F1FCA868D0B100F033
:10571000B1FCA86CC468201D00F024FCE8680138C6
:10572000E860A8680138A86000F0C8FC94F8590047
:105730000228EAD00128E5D070B9206B00F0D6FC31
:10574000E0E700BF30680228DFD3C8F80070BFF37D
:105750004F8FBFF36F8FD8E74FF0500080F3118861
:10576000BFF36F8FBFF34F8FFEE700002DE9F047C7
:105770000A9C8246206B16460F46DDE908599100C7
:10578000A5229846FAF745FE206B002F00EB860015
:10579000A0F1040020F0070644D0387884F83400E3
:1057A000D8B3787884F83500B8B3B87884F8360080
:1057B00098B3F87884F8370078B3387984F83800EB
:1057C00058B3787984F8390038B3B87984F83A0056
:1057D00018B3F87984F83B00F8B1387A84F83C00C3
:1057E000D8B1787A84F83D00B8B1B87A84F83E0030
:1057F00098B1F87A84F83F0078B1387B84F840009B
:1058000058B1787B84F8410038B1B87B84F8420005
:1058100000281CBFF87B84F84300002084F8430074
:1058200003E000BF002084F834000027201D372D3E
:1058300028BF3725E562C4E9135700F0CDFB04F11A
:10584000180000F0C9FBC5F13800A0613046514690
:10585000424624616462676584F8587000F070FB0A
:10586000B9F1000F206018BFC9F80040BDE8F0870B
:1058700008480068006880F308884FF0000080F353
:10588000148862B661B6BFF34F8FBFF36F8F00DF2E
:1058900000BF000008ED00E081B00020009040F261
:1058A0002000C2F2000000684FF0500181F311881F
:1058B000BFF36F8FBFF34F8F013007D0FEE700BFFC
:1058C000009830B9009820B9009810B900980028C5
:1058D000F6D001B07047000088B040F2681AC2F2FA
:1058E000000A0DF11009EB46DAF8080005681DB151
:1058F000C068046801E000BF002400F013FE01F05E
:1059000013FBDAF810100646884220D3002DCAF89F
:10591000106051D0A6424FD301F010FCDAF8080015
:10592000C068C7683D1D284600F01CFB97F828009A
:10593000410745D400F0FA0087F8280082E000BF54
:105940007860DAF8080029463F6100F049FBDAF890
:105950000800016831B3C068C76804683D1D284667
:1059600000F000FB396A3846884797F8280040075E
:10597000EDD5B8692044A042E2D8DAF8000000284A
:1059800000F04081002004A991C101F0BDFADAF8CD
:10599000000049460022002300F07CFF0028D6D1F9
:1059A00030E100BFDAF80C10CAF81060CAE9021042
:1059B00001F0C4FB4FE000BF65B1002210E000BF62
:1059C000B8693F610119B14279601DD90AF1080037
:1059D0001FE000BFDAF80C000068B0FA80F042095E
:1059E000DAF80000A11B00F031FC01F0A7FB90BB2E
:1059F0004EF60450CEF200004FF080510160BFF32C
:105A00004F8FBFF36F8F26E0311B814206D20AF120
:105A10000C000068294600F0E3FA13E0DAF8000011
:105A2000002800F00D81002004A991C101F06CFA5A
:105A3000DAF8000049460022002300F02BFF00287E
:105A400000F0FE80396A3846884704E00AF10C020B
:105A5000106800F0C5FADAF800005946002201F09B
:105A600079F800283FF440AF0098B0F1FF3F06DC22
:105A7000DDE901200399904700980028EBD4029EAD
:105A8000706910B1301D00F06DFA01F04DFADAF8CE
:105A90001010074688420CD30098CAF810700928E5
:105AA0003DD9D8E76860DAF8080021462D6100F09A
:105AB00097FADAF80800016841B3C068C568D0F801
:105AC00000802C1D204600F04DFA296A28468847A0
:105AD00095F828004007ECD5A86940444045E1D836
