:020000040800F2
:10000000A06A00202D0200084D400008513600086B
:1000100049400008810600089D47000800000000D4
:10002000000000000000000000000000C1400008C7
:10003000C10700080000000051400008E54000082A
:10004000470200084702000847020008470200086C
:10005000470200084702000847020008470200085C
:10006000470200084702000847020008470200084C
:1000700047020008470200087907000885070008C2
:1000800047020008910700084702000847020008DD
:1000900085060008470200084702000847020008DA
:1000A000470200084702000847020008470200080C
:1000B00047020008470200084702000847020008FC
:1000C00047020008470200084702000847020008EC
:1000D000470200086D470008794700088547000877
:1000E00047020008470200084702000847020008CC
:1000F00047020008CD410008470200089D0700089C
:100100004702000847020008C141000847020008F2
:100110002543000831430008470200084702000851
:100120004702000847020008A90700084702000824
:10013000470200084702000847020008470200087B
:10014000910600084702000847020008470200081D
:1001500047020008B5070008470200089147000859
:10016000470200084702000847020008470200084B
:10017000470200084702000847020008000000008C
:10018000470200084702000800F002F800F03EF8BD
:100190000AA090E8000C82448344AAF10107DA45E2
:1001A00001D100F033F8AFF2090EBAE80F0013F0F6
:1001B000010F18BFFB1A43F0010318479498000081
:1001C000B4980000103A24BF78C878C1FAD8520712
:1001D00024BF30C830C144BF04680C6070470000C1
:1001E0000023002400250026103A28BF78C1FBD840
:1001F000520728BF30C148BF0B6070471FB509F0D8
:1002000003FA00F077F91FBD10B510BD00F0CDF96D
:100210001146FFF7F3FF07F01BF800F0EBF903B40A
:10022000FFF7F2FF03BC00F0A9F90000094880477E
:1002300009480047FEE7FEE7FEE7FEE7FEE7FEE7C8
:10024000FEE7FEE7FEE7FEE704480549054A064BE0
:1002500070470000AD41000889010008A06400203B
:10026000A06A0020A0660020A066002053EA020CCD
:1002700000F069802DE9F04B4FF00006002B1FBF06
:10028000B3FA83F503FA05F424FA05F65E4012BFCB
:100290001643B2FA82F502FA05F4C5F120051EBF35
:1002A00022FA05FC44EA0C04203556EA044C4FEAD5
:1002B000144418BF641C4FF000084FF0000990422E
:1002C00071EB030C39D3002919BFB1FA81F701FA98
:1002D00007F6B0FA80F700FA07F6C7F120071EBF4D
:1002E00020FA07FC46EA0C062037B6FBF4FCA7EB25
:1002F0000507103F07F01F0BCBF120062CFA06F67E
:100300000CFA0BFB44BFB3460026202FA4BF5E4669
:100310004FF0000B5BEA060C08BF4FF0010B19EB26
:100320000B0948EB0608ABFB027C06FB02CC0BFB7F
:1003300003CCC01B71EB0C01C1E70B4602464146E2
:100340004846BDE8F08B13B5084318BF4FF0FF30A7
:100350000146AFF30080BDE81C407047032A40F21D
:10036000308010F0030C00F0158011F8013BBCF157
:10037000020F624498BF11F801CB00F8013B38BF6F
:1003800011F8013BA2F1040298BF00F801CB38BF7D
:1003900000F8013B11F0030300F02580083AC0F09B
:1003A000088051F8043B083A51F804CBA0E8081043
:1003B000F5E7121D5CBF51F8043B40F8043BAFF376
:1003C0000080D20724BF11F8013B11F801CB48BFD0
:1003D00011F8012B24BF00F8013B00F801CB48BF06
:1003E00000F8012B704710B5203AC0F00B80B1E83F
:1003F0001850A0E81850B1E81850A0E81850203A5A
:10040000BFF4F5AF5FEA027C24BFB1E81850A0E862
:10041000185044BF18C918C0BDE810405FEA827C7C
:1004200024BF51F8043B40F8043B08BF7047D20793
:1004300028BF31F8023B48BF11F8012B28BF20F834
:10044000023B48BF00F8012B704702F0FF0343EA6C
:10045000032242EA024200F024B84FF000020429CD
:10046000C0F0128010F0030C00F01B80CCF1040CE3
:10047000BCF1020F18BF00F8012BA8BF20F8022B17
:10048000A1EB0C0100F00DB85FEAC17C24BF00F8BD
:10049000012B00F8012B48BF00F8012B70474FF0EB
:1004A000000200B5134694469646203922BFA0E8C4
:1004B0000C50A0E80C50B1F12001BFF4F7AF0907D0
:1004C00028BFA0E80C5048BF0CC05DF804EB8900C1
:1004D00028BF40F8042B08BF704748BF20F8022B04
:1004E00011F0804F18BF00F8012B7047704770471C
:1004F0007047000070B5064C7C44064D7D4404E016
:100500002046016808448047241DAC42F8D170BDE4
:10051000749500007895000070B50446051F00F042
:1005200033F80068002C14BF446870BD002C18BF5D
:10053000AC423CBF20466468F8D301680A18AA425E
:1005400018BF456003D12A68054611440160286838
:100550004119A1421CBF6C6070BD6168696021686F
:100560000844286070BD10B5002000F011F8FFF7B6
:100570004BFEBDE810400120AFF300800149182078
:10058000ABBEFEE7260002000048704718000020BE
:1005900010B500F03DF8BDE8104000F034B80000A0
:1005A000004870471000002070477546FFF7F8FFBD
:1005B000AE4605006946534620F00700854618B050
:1005C00020B5FFF741FEBDE820404FF000064FF098
:1005D00000074FF000084FF0000BAC46ACE8C00934
:1005E000ACE8C009ACE8C009ACE8C00921F00701DB
:1005F0008D46704710B50446AFF300802046BDE835
:100600001040FFF70CBE002801D0FFF7B7BF7047BE
:1006100010B5002102A000F013F8012010BD000069
:10062000534947414252543A2041626E6F726D61A4
:100630006C207465726D696E6174696F6E00000084
:1006400070B505460C460A2000E06D1C00F011F85C
:1006500035B128780028F8D102E0641C00F009F8D0
:1006600014B120780028F8D1BDE870400A20AFF31B
:10067000008008B569468DF800000320ABBE08BDB8
:10068000FEE7000040F28800C2F2000000F016BA57
:1006900040F2B000C2F2000000F010BAF0B589B12B
:1006A0004A1E032A49F23A6201F0030CC0F6000226
:1006B0000CD24FF0000E0021BCF1000F39D188B2EE
:1006C000F0BD00BF002188B2F0BD00BF01F0FC0109
:1006D000C1F1000E431C00216FF003041D19EE78D8
:1006E0008FB286EA172632F816602F7986EA012142
:1006F00089B287EA112132F811106F7981EA062652
:10070000B6B287EA162632F81660AD7986EA01217C
:1007100089B285EA112132F8111004340EEB040578
:10072000043581EA0621D9D104F1040EBCF1000F91
:10073000C5D010F80E408BB284EA132332F8134070
:10074000BCF1010F84EA0121B9D07044437889B229
:1007500083EA112132F81130BCF1020F83EA04213F
:10076000ADD0807889B280EA112032F8100080EA9A
:10077000032188B2F0BD000040F66C20C2F20000F8
:1007800000F072BD40F6EC00C2F2000000F06CBD5B
:1007900040F60C20C2F2000000F066BD40F64C109E
:1007A000C2F2000000F060BD40F6AC10C2F20000E2
:1007B00000F05ABD40F6CC20C2F2000000F054BD5B
:1007C0007047000072B600BFFEE7000090F82020DE
:1007D000013A012A08D8006800F1140200201368C9
:1007E00019431160704700BF00F1240201204FF44B
:1007F00080211368194311607047000010B590F80C
:1008000020E0D0F800C0AEF1010EBEF1010FDCF81F
:1008100008E011D81EF0E05F18D0CEF3016E012081
:1008200000FA0EF018608B68D3B14868CC6844EACF
:10083000C000034318E000BF00F1240101204FF481
:1008400080220B681A430A6010BD00BF00F124012A
:1008500001204FF400120B681A430A6010BD00BF5C
:100860000868CB6843EA40530CEB0E10C0F88031A7
:100870000B69C0F88431097D012905D100F5C271E9
:100880000B6843F480730B605168C0F88C111268D8
:1008900000F5C071C0F88821002001220B681A43BE
:1008A0000A6010BDB0B590F82020013A012A2FD877
:1008B00046F20060C4F20000026842F001020260E9
:1008C000026822F47C520260D1F814E0CC694A6AD2
:1008D0000368012C43EA022202600EF01F024FF06F
:1008E000010303FA02F2C3696FEA020C23EA02036E
:1008F000C36113D02CBBC36803EA0C03C360CB688D
:100900008C8844EA034300EBCE0423640B4611E0D9
:10091000416A41F4802141620120B0BDC3681343A4
:10092000C3600B688C8844EA034300EBCE04236465
:1009300001F10C038C681B8843EA044300EBCE04EE
:10094000636443688D6943EA0204D1F810E0096AE0
:10095000002D08BF03EA0C0444604369BEF1000F98
:1009600043EA020408BF03EA0C040129446102D1EE
:10097000C1691143C161016821F0010101600020DA
:10098000B0BD00007047000010B590F82040013C59
:10099000012C7BD8D0F800C0002900F08180DCF861
:1009A0001040A40700F081800CEB011CDCF8B04182
:1009B0000CF5D87E14F004049460DCF8B04119BF43
:1009C000E4085460640D1460DEF800400CF5DA7E33
:1009D00004F00204D460DCF8B44124075ABFDEF806
:1009E000004004F00F0408241461DEF800400029E0
:1009F000C4F307249461DEF800404FEA14445461C4
:100A0000DCF8B8211A70026802EB0112D2F8B821A2
:100A10004FEA12225A70026802EB0112D2F8B82192
:100A20004FEA12429A70026802EB0112D2F8B82122
:100A30004FEA1262DA70026802EB0112D2F8BC21AE
:100A40001A71026802EB0112D2F8BC214FEA12229D
:100A50005A71026802EB0112D2F8BC214FEA12422D
:100A60009A71026802EB0112D2F8BC214FEA1262BD
:100A7000DA71006814BF00F1100100F10C010020D0
:100A800020220B681A430A6010BD00BF00F1240148
:100A900001204FF480220B681A430A6010BD00BF8A
:100AA000DCF80C40A4077FF47FAF00F124010120A3
:100AB0004FF400120B681A430A6010BD2DE9F04F85
:100AC00081B0044600684669D0F804908768D0F881
:100AD0000CB0D0F810A0D0F81880F10704D1002590
:100AE00030071DD424E000BFF90710D00121BA0758
:100AF000816009D4780700F1AF80380700F1B68033
:100B0000204600F049FB02E0204600F047FB0025AC
:100B1000F80500F18780F80300F1B180300707D5B0
:100B20001BF0100004D0206845F400751021C1604E
:100B3000700708D51BF0080005D020680821C160A7
:100B4000204600F001FAB00706D52068C06880078B
:100B500002D0204600F0FAF9700607D51AF010000E
:100B600004D0206845F4806510210161B00608D5E5
:100B70001AF0080005D0206808210161204600F025
:100B8000D7FAF00606D520680069800702D0204613
:100B900000F0D0FAB00308D519F0100005D0206895
:100BA00010214160204600F0C7FAF00308D519F083
:100BB000080005D0206808214160204600F0F8FABE
:100BC000300440F19B805FEA497040F1948006F464
:100BD000807008EA102028435FEA8871014648BF08
:100BE00041F00201B20558BF01465FEA48700D4668
:100BF00048BF45F00405700558BF0D46300540F16B
:100C00007A8018F0700000F076801038000905280E
:100C10006CD8DFE800F003595D61656945F00805AF
:100C200064E000BF20684FF48071BA0581600BD486
:100C3000780515D438051DD4204600F0B1FAF80324
:100C40007FF56CAF1BE000BF204600F0ABFAF80365
:100C50007FF564AF13E000BF4FF4006558E700BFB5
:100C600005F50055F8037FF559AF08E04FF48055BE
:100C70004EE700BF05F58045F8037FF54FAF2068CC
:100C80004FF48031BA0381600AD4780310D438035A
:100C900014D4204600F088FA30073FF541AF47E70B
:100CA000204600F083FA30073FF53AAF40E700BF37
:100CB00005F5004530073FF533AF39E705F58035D9
:100CC00030073FF52DAF33E745F010050EE000BFCC
:100CD00045F020050AE000BF45F0400506E000BFF2
:100CE00045F0800502E000BF45F480752068816909
:100CF00021F07001816120680421416055B1606A72
:100D000040EA05012046616201B0BDE8F04FFFF7FF
:100D100039BE00BF01B0BDE8F08F0000B0B5C8B16A
:100D2000044690F8200010B9204600F071F82068C1
:100D3000016841F00101016000F052FD054600BF6D
:100D400020684168C90707D100F04AFD401B0B2805
:100D5000F6D312E00120B0BD016821F0020101606C
:100D600000F03EFD054600BF2068416889070DD5AB
:100D700000F036FD401B0B28F6D3606A052140F4D5
:100D800000306062012084F82010B0BD217E02682E
:100D9000012922F0800208BF80320260617E026871
:100DA000012922F0400208BF40320260A17E0268A1
:100DB000012922F0200208BF20320260E17E026891
:100DC000012922F0100218BF10320260217F026850
:100DD000012922F0080208BF08320260617F026820
:100DE000012922F0040208BF04320260D4E901C2E2
:100DF000D4E9033561691A432A431143ACF1010276
:100E00001143C16100200121606284F82010B0BD4F
:100E100010B586B0006846F60002C4F20002002158
:100E20009042CDE90411CDE90211019140D046F282
:100E30000041C4F20001884240F0848040F2D82191
:100E4000C2F200010A6843F64000C4F20200531CDB
:100E50000B6052B900210091016841F000710160FE
:100E6000016801F00071009100990021009150F893
:100E7000102C42F0010240F8102C50F8100C00F039
:100E80000100009000984FF4C05001900220CDE97D
:100E9000020103200490092005900020C4F2020002
:100EA00001A900F0C3FB142007210022142444E010
:100EB00043F64000C4F202000091016841F08061F5
:100EC0000160016801F080610091009940F2D82131
:100ED000C2F200010A68531C0B6052B90021009154
:100EE000016841F000710160016801F0007100913A
:100EF00000990021009150F8102C42F0020240F8B5
:100F0000102C50F8100C00F00200009000984FF4E4
:100F1000405001900220CDE90201032004900920F5
:100F200005900020C4F2020000F5806001A900F0E5
:100F30007DFB402008210022402400F015FD2046C2
:100F400000F0FEFC06B010BD70470000B0B588B0E0
:100F500040F28801C2F20001884207D040F2B0019D
:100F6000C2F20001884229D008B0B0BD40F2B415E9
:100F7000C2F2000505F1080440F28800C2F2000048
:100F800001AA00212346FFF7FFFC039800283DD06B
:100F90000299A1F51060082846D84FF0FF3050FAAA
:100FA00081F00328E0D8DFE800F003656B7100BF33
:100FB00040F2B820C2F20000006894E040F2B4159C
:100FC000C2F2000505F1100440F2B000C2F20000C8
:100FD00001AA00212346FFF7D7FC039800282FD051
:100FE0000299A1F51060082838D84FF0FF3050FA68
:100FF00081F00328B8D8DFE800F003575D6300BF35
:1010000040F2B820C2F20000006988E00198A0F226
:1010100001200728A8D8DFE800F005595B5D5F6173
:10102000636500BFA8695EE0C1F3032003283FF6B3
:101030009BAFDFE800F00331333500BFA86B30E031
:101040000198A0F2012007283FF68EAFDFE800F0FC
:101050005C5E606204666404A86E60E0C1F3032015
:1010600003283FF681AFDFE800F00341434500BFAE
:10107000A86C40E040F2B820C2F20000406832E0C4
:1010800040F2B820C2F2000080682CE040F2B820A4
:10109000C2F20000C06826E0E86B02E0286C00E0C5
:1010A000686C58BB60E700BF40F2B820C2F2000095
:1010B000406934E040F2B820C2F2000080692EE0BE
:1010C00040F2B820C2F20000C06928E0E8690AE0F6
:1010D000286A08E0686A06E0A86D04E0E86D02E0AE
:1010E000286E00E0686EE8B93EE700BFE86C02E0F9
:1010F000286D00E0686D00283FF436AF0268936801
:101100002246984708B0B0BDA86A08E0E86A06E041
:10111000286B04E0686B02E0286F00E0E86E0028AE
:101120003FF422AF01684A682146904708B0B0BD3D
:10113000704700007047000070470000B0B50446DB
:1011400090F8200001281DD1022084F8200020689A
:10115000016821F00101016000F042FB054600BF7B
:1011600020684068C00713D000F03AFB401B0B28F2
:10117000F6D3606A40F400306062052084F82000F5
:101180000120B0BD606A40F4002060620120B0BD63
:1011900000206062B0BD0000704700007047000092
:1011A0007047000070470000704700007047000063
:1011B0007047000070B5866D044600F011FB94F88E
:1011C0003510022928D105462068216C026822F0DA
:1011D00016020260426922F08002426109B9A16CE4
:1011E00019B1016821F008010160016821F00101D5
:1011F000016000BF20680068C00715D000F0F0FA59
:10120000401B0628F6D320206065032084F83500B3
:10121000002184F8341070BD802060650120002119
:1012200084F8341070BD00BFE06D3F2101FA00F07A
:10123000B060012084F835000020002184F83410CB
:1012400070BD000090F83510022909D1052180F801
:1012500035100068016821F001010160002070472D
:101260008021416501207047F0B581B0044600201F
:10127000009040F20800C2F200000268D4E9166053
:1012800048F2B51337680821C1F64E338140394220
:10129000A2FB03250CD0226813685B0708D51368EE
:1012A00023F004031360B160616D41F001016165D9
:1012B00001218140394208D022685269120604D5C2
:1012C000B160616D41F002016165042181403942E4
:1012D00008D022681268920704D5B160616D41F0B0
:1012E0000401616510218140394217D020680268ED
:1012F000120713D5B16002680168520308D4C9050A
:1013000008D4016821F008010160216C21B905E0D1
:1013100008033FD4216C09B120468847E16D2020A5
:1013200000FA01F23A4241D020680368DB063DD55D
:10133000B26094F835300268052B1BD122F01602FA
:101340000260426922F080024261226C0AB9A26CFA
:101350001AB1026822F0080202603F208840B060A3
:10136000012084F83500216D0020002984F8340024
:1013700052D157E00168520310D4C90512D4016854
:1013800021F010010160012084F83500002084F86C
:10139000340007E0A16C0029BED1BFE7080301D4E7
:1013A000616C00E0E16B09B120468847606DC8B30D
:1013B000606DC0072ED0052084F835002068A90A8A
:1013C000026822F001020260009A01328A42009211
:1013D0001AD80268D20717D0009A01328A420092C6
:1013E00012D80268D2070FD0009A01328A420092C6
:1013F0000AD80268D20707D0009A01328A420092C6
:1014000002D80268D207DFD1012084F8350000201D
:1014100084F83400E16C29B1204601B0BDE8F04009
:10142000084700BF01B0F0BD2DE9F041044600F0CF
:10143000D7F9ECB10546022084F835000020216878
:1014400084F83400086820F001000860216808680A
:10145000C00711D000F0C4F9401B0528F6D90325B8
:1014600020230320636584F83550BDE8F08100BF78
:101470000120BDE8F08100BF086848F23F02CFF2CA
:101480001002D4E9013500EA020C04F10C0898E8D6
:10149000C10143EA0C032B431843D4E9072E304320
:1014A00038431043626A40EA0E00042A40EA080307
:1014B0001CD1206BD4E90A2E40EA0E0018430860C4
:1014C0004869BEF1000F20F0030040EA020040F03E
:1014D000040C11D0B8F5005F36D0B8F1000F45D13B
:1014E000022A46D0012A3BD032B942E00B6048695B
:1014F00020F0070040EA020C01F0F8004AF6AB22A7
:101500001038CAF6AA22A0FB02231A0949F6402382
:10151000C0F600039A5C40F2FF335F284FF03F00B3
:10152000C1F814C021EA030100FA02F088BF0431B7
:10153000C4E916128860002301250020636584F841
:101540003550BDE8F08100BF032AD5D801254023DE
:101550000120DFE802F0030E030500BF82E700BFB1
:10156000AEF1C070B0FA80F0400904E0032A04D361
:10157000C2D1CEF300600028BED001254023012057
:10158000636584F83550BDE8F081000070B590F8CF
:1015900034C0BCF1010F46D04FF0010C80F834C0CC
:1015A000D0F858E090F835C0BCF1010F38D14FF0B9
:1015B000020C80F835C04FF0000CC0F854C0D0F8D1
:1015C00000C08468056CC06DDCF80060402C26F417
:1015D0008026CCF80060CCF804300B4604BF1346DC
:1015E0000A463F2101FA00F0CCF80830CCF80C2074
:1015F000CEF80800DCF8000040F01600CCF800003F
:101600002DB1DCF8000040F00800CCF80000DCF858
:10161000000040F00100CCF80000002070BD00BFC9
:10162000002180F83410022070BD00002DE9F04F39
:1016300082B000F13E4241F6004502F1FF77C4F26C
:101640000205082243F6004E4FEAB726A84208BF1B
:101650000722C4F2010E072E38BF4FEAB722012538
:10166000002600274FF00008009208E008F101086A
:101670000437B8F1100F06F1020600F0A7800C68DD
:1016800005FA08F914EA090FF0D0D1F804B00322E2
:101690000BF0030CACF10104B240012C6FEA020A1A
:1016A00010D88268CC6802EA0A02B4402243826001
:1016B0004268CBF3001422EA090204FA08F4224338
:1016C000426005E0BCF1030F02D14FF0030C20E0B3
:1016D000C2688C6802EA0A02B4402243BCF1020FDD
:1016E000C26016D16FF0030202EA58020244D2F837
:1016F00020C007F01C050F230C69AB402CEA030344
:1017000004FA05F52B431362D1F804B001250BF060
:10171000030C02680CFA06F302EA0A021A431BF4ED
:10172000403F0260A2D0002243F644030192C4F27B
:1017300002031A684FF6084C42F480421A601A6895
:10174000CFF6FF7C02F480420192019A28F0030256
:10175000724452F80C3007F00C050F24AC40A34340
:10176000009C04FA05F52B4342F80C30DEF8082003
:101770004B6842EA090543F60C4CDC0258BF22EAEA
:101780000905CEF80850C4F2010CDCF800209C02D8
:1017900042EA090558BF22EA0905CCF80050DEF8F4
:1017A00004209C0342EA090558BF22EA0905CEF845
:1017B0000450DEF80020DB0342EA090558BF22EAA4
:1017C0000905CEF80050012550E700BF02B0BDE882
:1017D000F08F0000002A08BF0904816170470000F3
:1017E00045F69810C2F200000068704740F2000011
:1017F00045F69811C2F20000C2F2000100780A68B2
:10180000104408607047000080B543F60040C4F201
:101810000200016841F400710160016841F48061D7
:101820000160016841F480710160032000F0C8F894
:101830000F2000F005F800F061F8002080BD0000E6
:1018400070B586B0002543F640010195C4F202014F
:101850000A68044642F008020A60096801A801F01B
:10186000080101910199694600F06AF9049E002E71
:1018700018BF012600F084F94DF68361B040C4F230
:101880001B31A0FB01014FF0FF3000EB914140F60E
:10189000944040F60042C2F20000C4F2000240F25E
:1018A000E733C0E90021C0E902530561856100F01A
:1018B000DFFB054610B1284606B070BD40F69440E7
:1018C000C2F2000000F048FC05460028F3D13220A7
:1018D00000F036F80F2C0DD83220214600220025CA
:1018E00000F042F840F20400C2F200000460284612
:1018F00006B070BD0125284606B070BD82B000203C
:1019000043F640010190C4F202014A6842F4804269
:101910004A604A6802F480420192019A0090086885
:10192000002240F08050086008680F2100F08050CD
:10193000009000986FF0010002B000F015B80000B0
:10194000002848BF7047C1B200F01F00012202FA10
:1019500000F04EF20012CEF2000242EAD10121F074
:10196000030108607047000010B54EF60C5CCEF223
:10197000000CDCF80030C3F3022E8EF00704042CB8
:1019800028BF0424BEF103034FF0FF3E0EFA04F417
:1019900038BF0023A14399400EFA03F39A43114341
:1019A00000F00F0200F160430901043A03F56443BB
:1019B0006244002848BF02F10C03197010BD0000FA
:1019C0004EF60C51CEF200010A684FF6FF031A40A2
:1019D00060F30A2242F0806040F0FD7008607047BA
:1019E0002DE9F041002800F08B8043F60808C4F28E
:1019F00002080446D8F8F8030D4600F007008842B4
:101A000007D288F8F853D8F8F80300F00700A84286
:101A100076D12068810717D5410705D5D8F8001081
:101A200041F4E051C8F80010010705D5D8F80010BE
:101A300041F46041C8F80010D8F80010A26821F005
:101A4000F0011143C8F80010C0073FD1D8F8F803DF
:101A500000F00700A84207D988F8F853D8F8F8032F
:101A600000F00700A8424BD12068410707D5D8F8FD
:101A70000010E26821F4E0511143C8F8001000079B
:101A800008D5D8F80000216920F4604040EAC10080
:101A9000C8F8000000F09CF8D8F8001049F2226263
:101AA000C1F30311C0F60002515C40F2080220FAB3
:101AB00001F140F20400C2F200000068C2F200022C
:101AC0001160FFF7BDFE0020BDE8F0816068811E57
:101AD000022907D258F8081C89015CBF0120BDE823
:101AE000F08111E0012807D158F8081C89035CBF78
:101AF0000120BDE8F08107E058F8081C890703D4ED
:101B00000120BDE8F08100BFD8F8001021F00301EA
:101B10000843C8F80000FFF763FE064641F2883725
:101B2000D8F80000616800F00C00B0EB810F8DD098
:101B3000FFF756FE801BB842F2D90320BDE8F081C2
:101B40000F22026043F60802C4F20202136803F097
:101B500003034360136803F0F0038360136803F426
:101B6000E053C360D2F800C04FF4E05303EADC0353
:101B70000361D2F8F80300F0070008607047000026
:101B800040F2080043F60801C2F20000C4F202016C
:101B90000068096849F23262C1F38221C0F600028E
:101BA000515CC8407047000040F2080043F608014D
:101BB000C2F20000C4F202010068096849F2326210
:101BC000C1F34231C0F60002515CC84070470000CA
:101BD00010B543F60404C4F20204606800F00C017E
:101BE00042F200400829C0F2F40007D0042918BFCF
:101BF00010BD41F20020C0F27A0010BD216801F052
:101C00003F02216823684902C3F3881106D4A1FB6F
:101C100000010023FEF72AFB07E000BF41F200208D
:101C2000C0F27A004843B0FBF2F021680222C1F30F
:101C3000014102EB4101B0FBF1F010BD2DE9F04193
:101C400082B0002868D00446007843F60006C0073A
:101C5000C4F202060BD0B06800F00C00042840F07B
:101C60009F803068800302D56068002854D02078B7
:101C700080071AD5B06810F00C0F09D0B06800F0DA
:101C80000C00082840F0A6807068400200F1A28095
:101C90003068800702D5E06801283DD130682169AD
:101CA00020F0F80040EAC10030602078000737D407
:101CB000207840074CD4A56955B3B06800F00C00FB
:101CC000082840F0BB80012D26D07068E16900F43F
:101CD00080028A4220D1216A00F03F028A421BD151
:101CE00047F6C071626A0140B1EB821F14D1A16A4C
:101CF0004FF6FF73C903994300F44032A1F58031D8
:101D00008A4209D1E16A00F07060B0EB016F03D143
:101D1000002002B0BDE8F081012002B0BDE8F081F2
:101D20006069002840F20000C4F2472076D001210B
:101D3000C0F8801EFFF754FD054600BF706F800796
:101D4000B6D4FFF74DFD401B0228F7D9DDE000BFF8
:101D5000306C10F080580AD100200190306C40F0B7
:101D600080503064306C00F080500190019847F250
:101D70000007C4F200073868C00541D4386840F451
:101D800080703860FFF72CFD054600BF3868C0053D
:101D900036D4FFF725FD401B0228F7D9B5E000BF78
:101DA000B06800F00C00082803D1706840023FF5CD
:101DB00058AF6068B0F5803F07D0B0F5A02F40F075
:101DC0008D80306840F480203060306840F480308E
:101DD00030608DE0E068002852D00020C4F2472037
:101DE00001210160FFF7FCFC054600BF3068800759
:101DF0003FF554AFFFF7F4FC401B0228F6D984E00E
:101E0000A068012805D005284ED1306F40F00400AD
:101E10003067306F40F0010030674FE00021C0F8BC
:101E2000801EFFF7DDFC0546706F80077FF540AF31
:101E3000FFF7D6FC401B0228F6D966E00027C4F263
:101E4000472700203866FFF7CBFC022D05460BD153
:101E5000306880015ED5FFF7C3FC401B02284FF0BD
:101E60000300F5D955E700BF306880017FF550AF1A
:101E7000FFF7B6FC401B02284FF00300F4D948E7F7
:101E80000020C4F2472000210160FFF7A9FC0546AD
:101E9000306880077FF509AFFFF7A2FC401B0228DE
:101EA0004FF00300F4D934E7316F002821F001012D
:101EB0003167316F21F0040131674DD0FFF790FC9D
:101EC000054641F2883700BF306F800756D4FFF7D0
:101ED00087FC401BB842F7D917E000BF31680028E3
:101EE00021F480313160316821F4802131604FD09C
:101EF000FFF776FC054600BF306880033FF5B7AEBC
:101F0000FFF76EFC401B6428F6D9032002B0BDE841
:101F1000F08100BF04F11C052FCD084340EA821078
:101F2000D9034FF6FF729143A1F5803140EA056075
:101F30000843706001203866FFF752FC044600BF7A
:101F4000306880013FF5E4AEFFF74AFC001B022831
:101F50004FF00300F4D9DCE6FFF742FC054641F2FE
:101F6000883700BF306F800708D5FFF739FC401B6A
:101F7000B8424FF00300F5D9CBE600BFB8F1000F2F
:101F80007FF499AE306C20F08050306493E600BF4F
:101F9000FFF726FC054600BF306880037FF567AE7B
:101FA000FFF71EFC401B64284FF00300F4D9B0E695
:101FB000704700007047000010B590F83C20012ADF
:101FC0004FF0020251D080F83D200268D2F804E0C0
:101FD000D2F808C00C682EF07003234341F2FF745E
:101FE000C4F20004A24253600EDC40F2FF73C4F25C
:101FF00000039A4216DCB2F1804F2BD040F200432E
:10200000C4F2000324E000BF40F2FF33C4F2010336
:102010009A4213DC41F60003C4F200039A4219D03D
:10202000002313E040F60003C4F200039A4211D0EB
:1020300040F60043C4F200030AE000BF44F200038C
:10204000C4F201039A4205D040F20043C4F20103F6
:102050009A4204D149682CF0800319439160012110
:10206000002280F83D1080F83C20104610BD000092
:10207000002804BF0120704710B5044690F83D00C9
:1020800028B9002084F83C00204600F01FF8022008
:1020900084F83D002068211D02F09EF8012084F89C
:1020A000460084F83E0084F83F0084F8400084F83D
:1020B000410084F8420084F8430084F8440084F826
:1020C000450084F83D00002010BD000083B000688A
:1020D00044F20001C4F20101884219D041F6000126
:1020E000C4F20001884225D0B0F1804F31D10020E8
:1020F000029043F64000C4F20200016841F0010181
:102100000160006800F001000290029803B070477F
:102110000020019043F64000C4F20200416841F4FF
:1021200080314160406800F480300190019803B034
:10213000704700BF0020009043F64000C4F2020048
:10214000016841F040010160006800F0400000902B
:10215000009803B07047000090F83D1001291CBFA3
:1021600001207047022180F83D10006841F2FF72A3
:10217000C168C4F20002904241F00101C1600DDC6F
:1021800040F2FF71C4F20001884215DCB0F1804FCB
:102190002AD040F20041C4F2000123E040F2FF31B6
:1021A000C4F20101884213DC41F60001C4F20001CF
:1021B000884219D0002113E040F60001C4F200016A
:1021C000884211D040F60041C4F200010AE000BF8D
:1021D00044F20001C4F20101884205D040F20041FE
:1021E000C4F20101884206D1816801F00701062985
:1021F00004BF00207047016841F001010160002028
:102200007047000080B590F83C20012A4FF0020290
:1022100000F0C28080F83D20D0F800C04FF6777201
:10222000DCF8083023EA0202CCF808200B684F2BB8
:1022300028DC1F2B44DD202B45D0302B43D0402BF6
:1022400040F0AC80D1F804E0C968DCF82030DCF85C
:10225000202022F00102CCF82020DCF8182022F007
:10226000F00242EA011123F00A0242EA0E02CCF81F
:102270001810CCF82020DCF8081041F0470121F0BC
:10228000300180E06F2B27DDB3F5005F48D0B3F558
:10229000805F7AD0702B40F08180D1E901E3C9687A
:1022A000DCF8082043EA0E0322F47F4243EA0121CE
:1022B0001143CCF80810DCF8081041F0770162E017
:1022C0000BB1102B6AD1DCF8081021F07001194312
:1022D00041F0070157E000BF502B35D0602B5DD196
:1022E000D1F804E0C968DCF82030DCF8202022F0C6
:1022F0001002CCF82020DCF8182022F4704242EAC8
:10230000013123F0A00242EA0E12CCF81810CCF8EA
:102310002020DCF8081041F0670121F0100132E0C4
:10232000D1E901E3C968DCF8082043EA0E0322F48E
:102330007F4243EA01211143CCF80810DCF8081071
:1023400041F480411FE000BFD1F804E0C968DCF827
:102350002030DCF8202022F00102CCF82020DCF82C
:10236000182022F0F00242EA011123F00A0242EAA8
:102370000E02CCF81810CCF82020DCF8081041F040
:10238000570121F02001CCF808100022012180F82B
:102390003D10002180F83C10104680BD0122F5E779
:1023A000002804BF012070472DE9F047044690F84B
:1023B0003D000D4628B9002084F83C00204600F07E
:1023C00049F8022084F83D00206844F20702816841
:1023D00091438160211D01F0FFFE20684FF6FF78D8
:1023E00081688269D0F820C0D5E9003ED5E9026A4B
:1023F00043EA0109AB6922EA080246EA03234FF6E1
:10240000FC46B343D5E9076742EA0A0229691A4341
:1024100042EA062242EA01112CF0AA026B6942EA62
:102420000E0241EA073142EA0312C0F808908161C6
:102430000262012084F8460084F83E0084F83F00E0
:1024400084F8420084F8430084F83D000020BDE891
:10245000F0870000F0B587B000684FF6FF71C4F256
:10246000000188424FF000010691CDE90411CDE949
:1024700002114FDC40F20041C4F20001884200F03A
:10248000818040F60001C4F20001884240F0D38010
:10249000002543F630000195C4F2020001690027CF
:1024A00041F0040101610169C4F2020701F0040175
:1024B000019101990195016802AC41F008010160A8
:1024C0000168022601F00801019101990195016856
:1024D00041F0020101600068214600F00200019015
:1024E00001984FF40050029007F54060CDE9036574
:1024F000CDE90556FFF79AF84020CDE90206CDE96F
:102500000455069607F580602146FFF78FF807B05F
:10251000F0BD00BF40F20041C4F20101884259D031
:102520000021C4F20101884240F08580002043F67A
:1025300030010190C4F202014A6942F001024A618D
:102540004A6902F001020192019A01900A6842F080
:1025500010020A60096801F01001019101994FF41D
:10256000206102910221CDE903100590012006901F
:102570000020C4F2020000F5805002A9FFF756F8CF
:1025800007B0F0BD002043F630010190C4F2020113
:102590000A6942F002020A610A6902F0020201922B
:1025A000019A01900A6842F001020A60096801F08C
:1025B000010101910199C02102910221CDE903108D
:1025C000CDE905010020C4F2020002A9FFF72EF8B0
:1025D00007B0F0BD002043F630010190C4F20201C3
:1025E0004A6942F002024A614A6902F0020201921B
:1025F000019A01900A6842F004020A60096801F039
:10260000040101910199C02102910221CDE9031039
:102610000590032006900020C4F2020000F500603F
:1026200002A9FFF703F82D2005210022FFF79CF9EE
:102630002D20FFF785F907B0F0BD000070470000BE
:1026400070B504460068C5680669B10716D515F06F
:10265000020113D06FF0020101610121217780692D
:10266000800703D02046FFF7E9FF05E0204600F091
:102670008FF8204600F0D0F900202077700719D598
:1026800015F0040016D020686FF0040101610221EA
:102690002177806910F4407F04D02046FFF7CEFFF9
:1026A00006E000BF204600F073F8204600F0B4F9C1
:1026B00000202077300717D515F0080014D02068C7
:1026C0006FF00801016104212177C069800703D000
:1026D0002046FFF7B3FF05E0204600F059F82046FA
:1026E00000F09AF900202077F00619D515F01000B7
:1026F00016D020686FF01001016108212177C069B0
:1027000010F4407F04D02046FFF798FF06E000BF9A
:10271000204600F03DF8204600F07EF900202077AA
:10272000F00718BF15F0010002D1300609D412E0FD
:1027300020686FF001010161204600F06FF930065A
:1027400009D515F0800006D020686FF08001016186
:102750002046FFF72DFC700609D515F0400006D085
:1027600020686FF040010161204600F061F9B00679
:1027700058BF70BD15F0200008D021686FF020020E
:1027800020460A61BDE87040FFF714BC70BD000030
:10279000704700002DE9F04390F83C30012B04BF56
:1027A0000220BDE8F0834FEAB202032A00F2FC8067
:1027B000DFE802F0023E7EBE036840F200471C6A7A
:1027C0001A6A24F0020422F001021A621A46D3F8AF
:1027D00004E052F818CF8E6843F48065C4F2010714
:1027E000BD4244EA060405D1CE6824F00C0426F06C
:1027F000040634430E68BD4207D1D1E905572EF4D3
:10280000407E45EA0E0545EA070E2CF07307374374
:10281000C3F804E09F614F6809695F631C629F69A8
:1028200047F008079F619F6927F004079F61B1E0A7
:10283000036840F200481C6A1A6A24F0200422F05F
:1028400010021A621A46D3F804C052F818EF8F68C3
:1028500043F48065C4F20108454544EA071407D1F2
:10286000CF686FF0400624F0C00406EA0716344330
:10287000D1F80090454506D1D1E905562CF44067C2
:102880002E4347EA860C2EF4E64747EA0927C3F8A9
:1028900004C09F614F6809699F631C629F6947F488
:1028A00000679F619F6927F480679F6171E000BFA7
:1028B000036840F200481C6A1A6A24F4007422F487
:1028C00080721A621A46D3F804C052F81CEF8F685F
:1028D00043F48065C4F20108454544EA072408D161
:1028E000CF6840F2FF463F0224F4406427EA060620
:1028F0003443D1F80090454506D1D1E905562CF472
:1029000040572E4347EA061C2EF0730747EA090793
:10291000C3F804C0DF614F680969DF631C62DF69C7
:1029200047F00807DF61DF6927F00407DF6131E066
:10293000036840F20045D3F820C01A6A43F4806768
:1029400022F480521A621A465C6852F81CEFD1F8E1
:1029500000808E68C4F20105AF4204D14D6924F4B1
:10296000804444EA85142CF4005747EA06372EF4D5
:10297000E64646EA08265C60DE614E6809691E6428
:102980001F62DF6947F40067DF61DF6927F4806752
:10299000DF6109021368194311600021002280F8E9
:1029A0003C200846BDE8F0830121002280F83C204D
:1029B0000846BDE8F0830000002804BF01207047EE
:1029C00010B5044690F83D0028B9002084F83C007A
:1029D000204600F01FF8022084F83D002068211DE9
:1029E00001F0FAFB012084F8460084F83E0084F8E8
:1029F0003F0084F8400084F8410084F8420084F8E5
:102A0000430084F8440084F8450084F83D00002029
:102A100010BD00007047000070470000006840F6DD
:102A20000041C4F20001884218BF7047FEF7DEBEC5
:102A3000704700007047000070470000B0B582B0DA
:102A4000044600680168C368426901F02F05202D23
:102A500003F0200506D12DB1204602B0BDE8B040FC
:102A600001F08CBD5FEA017C1EBF02F0010E03F491
:102A7000907212EB0E0253D1226B012A05D111F094
:102A8000100218BF13F0100236D10A0622D513F037
:102A900080021FD094F8411021293FD1A168B1F5DF
:102AA000805F03D12169002900F07282216A4A1CEB
:102AB000226209784160E18C01390A04E1842DD158
:102AC000C16821F08001C160C16841F04001C1606E
:102AD00002B0B0BD490621D513F040011ED0C16837
:102AE00021F04001C1602021204684F8411002B04D
:102AF000BDE8B04000F0A8BD00210191016801913E
:102B00004168019101994069400613D4A08DE18D7F
:102B1000E28D002A18BF884240F0BC8102B0B0BDEF
:102B2000CA0718BF13F4807240F0B8804A0700F15A
:102B3000BB80C0E0E06B016849688AB2002AEDD032
:102B4000A38D9A42EAD2E185C069B0F5807F00F09A
:102B50009C80206850E8030F216820F4807041E8D1
:102B60000302DAB1206850E8030F216820F4807076
:102B700041E8030292B1206850E8030F216820F475
:102B8000807041E803024AB1206850E8030F2168D1
:102B900020F4807041E80302002ADAD1206850E86E
:102BA000050F216820F0010041E80502DAB1206834
:102BB00050E8050F216820F0010041E8050292B1BC
:102BC000206850E8050F216820F0010041E8050267
:102BD0004AB1206850E8050F216820F0010041E863
:102BE0000502002ADAD1206850E8050F216820F09C
:102BF000400041E80502DAB1206850E8050F21687D
:102C000020F0400041E8050292B1206850E8050F2D
:102C1000216820F0400041E805024AB1206850E8F0
:102C2000050F216820F0400041E80502002ADAD1B2
:102C3000202084F8420000202063206850E8030F21
:102C4000216820F0100041E80302DAB1206850E862
:102C5000030F216820F0100041E8030292B12068C0
:102C600050E8030F216820F0100041E803024AB148
:102C7000206850E8030F216820F0100041E80302AB
:102C8000002ADAD1E06BFEF795FA02206063A08D8E
:102C9000E18D401A81B2204675E100BF626C42F0BE
:102CA000010262644A0706D5BEF1000F03D0626CD0
:102CB00042F0020262648A0706D5BEF1000F03D01B
:102CC000626C42F004026264BCF1000F09D545EA6F
:102CD0000E02B2FA82F2520903D1626C42F008028B
:102CE0006264626C002A3FF419AF11F0200118BF32
:102CF000002D03D0204601F041FC20684069616C42
:102D000000F0400001F00801401800F0B58000BF5D
:102D1000206850E8030F216820F4907041E8030216
:102D2000BAB3206850E8030F216820F4907041E89E
:102D3000030272B3206850E8030F216820F49070FA
:102D400041E803022AB3206850E8030F216820F409
:102D5000907041E80302002ADAD11AE0206850E8B6
:102D6000050F216820F0010041E80502DAB1206872
:102D700050E8050F216820F0010041E8050292B1FA
:102D8000206850E8050F216820F0010041E80502A5
:102D90004AB1206850E8050F216820F0010041E8A1
:102DA0000502002ADAD1206B012824D1206850E8DE
:102DB000030F216820F0100041E80302DAB1206817
:102DC00050E8030F216820F0100041E8030292B19F
:102DD000206850E8030F216820F0100041E803024A
:102DE0004AB1206850E8030F216820F0100041E844
:102DF0000302002ADAD1202084F842000020206358
:102E00002068406940063FD5206850E8050F2168DA
:102E100020F0400041E80502DAB1206850E8050FD3
:102E2000216820F0400041E8050292B1206850E896
:102E3000050F216820F0400041E805024AB12068F2
:102E400050E8050F216820F0400041E80502002A03
:102E5000DAD1E06BC0B144F23D31C0F6000101654A
:102E6000FEF7F0F900283FF459AEE06B016D02B0B7
:102E7000BDE8B040084700BF2046FFF7DDFD002059
:102E8000606402B0B0BD00BF204602B0BDE8B040F3
:102E9000FFF7D2BD401A216851E8031F226821F4D0
:102EA000907142E80313DBB1216851E8031F2268E7
:102EB00021F4907142E8031393B1216851E8031F94
:102EC000226821F4907142E803134BB1216851E864
:102ED000031F226821F4907142E80313002BDAD11A
:102EE000216851E8051F226821F0010142E805131D
:102EF000DBB1216851E8051F226821F0010142E899
:102F0000051393B1216851E8051F226821F00101E2
:102F100042E805134BB1216851E8051F226821F0F2
:102F2000010142E80513002BDAD1202184F8421078
:102F300000212163216851E8031F226821F010015C
:102F400042E80313DBB1216851E8031F226821F036
:102F5000100142E8031393B1216851E8031F22686E
:102F600021F0100142E803134BB1216851E8031F1F
:102F7000226821F0100142E80313002BDAD102226B
:102F800081B22046626302B0BDE8B040FFF752BD97
:102F9000216A31F8022B6FF35F22426021628AE5D9
:102FA000002804BF0120704710B5044690F8410086
:102FB00028B9002084F84000204600F021F82420A1
:102FC00084F841002068C16821F40051C1602046A6
:102FD00001F054FB2068016921F4904101614169CD
:102FE00021F02A014161C16841F40051C160002013
:102FF0002021606484F8411084F84210606310BDA1
:103000002DE9F04786B00446006844F6FF71C4F22B
:10301000000188424FF000010591CDE90311CDE98F
:10302000011167DC44F20041C4F20001884200F063
:10303000C98044F60001C4F20001884200F0128108
:1030400044F60041C4F20001884240F03882002674
:1030500043F630000096C4F20200016941F40021F9
:103060000161016901F40021009100990096016855
:1030700041F004010160006801A900F00400009023
:1030800000984FF4406001900220CDE90206032031
:1030900004900820059040F60040C4F20200A0F51C
:1030A0008060FEF7C3FA46F25800C4F2020040F610
:1030B000EC051830C2F200054FF00061402285E8AF
:1030C00047004FF480304FF48063C5E90806284676
:1030D000C5E90436C5E90666FEF7A6F9002818BF5B
:1030E000FDF770FBA563AC63342005210022342476
:1030F000E0E100BF45F20001C4F20001884200F0A7
:103100001D8141F20001C4F20101884200F0828178
:1031100041F20041C4F20101884240F0D081002612
:1031200043F630000096C4F20200416941F02001EC
:103130004161416901F02001009100990096016808
:1031400041F040010160006801A900F040000090DA
:1031500000984FF4844001900220CDE9020603203C
:1031600004900820059040F60040C4F2020000F5EB
:103170004060FEF75BFA46F25800C4F2020040F6E7
:10318000CC2500F58960C2F200054FF02061402295
:1031900085E847004FF480304FF48063C5E90806A6
:1031A0002846C5E90436C5E90666FEF73DF900285C
:1031B00018BFFDF707FBA563AC634720062100227B
:1031C000472477E1002643F630000096C4F202005F
:1031D000016941F400310161016901F4003100919C
:1031E00000990096016841F008010160006801A99A
:1031F00000F0080000900098602001900220CDE9C6
:103200000206032004900720059040F60040C4F217
:103210000200FEF70BFA46F25800C4F2020040F634
:103220000C254830C2F200054FF00061402285E8CD
:1032300047004FF480304FF48063C5E90806284604
:10324000C5E90436C5E90666FEF7EEF8002818BFA2
:10325000FDF7B8FAA563AC632620042100222624DA
:1032600028E100BF002743F630000097C4F20200B7
:10327000016940F6004541F4802101610169C4F211
:10328000020501F48021009100990097016801AEC8
:1032900041F00201016001684FF0020801F00201F3
:1032A00000910099009701684FF0030941F008016F
:1032B000016000684FF0070A00F0080000900098D5
:1032C0004FF440600190A5F500603146CDE90287DA
:1032D000CDF81090CDF814A0FEF7A8F94FF4C05027
:1032E000CDE9010803A880E8800628463146FEF7AC
:1032F0009DF940F66C2546F25800C2F20005C4F272
:1033000002004FF00061402285E887004FF48030D2
:103310004FF48063C5E908072846C5E90437C5E9C5
:103320000677FEF781F8002818BFFDF74BFAA56372
:10333000AC632720032100222724BBE0002743F6AB
:1033400030000097C4F20200016940F6004541F4E4
:10335000801101610169C4F2020501F4801100913C
:1033600000990097016801AE41F004010160016815
:103370004FF0020801F004010091009900970168E4
:103380004FF0030941F00801016000684FF0080A9E
:1033900000F00800009000984FF480500190A5F5CF
:1033A00080603146CDE90287CDF81090CDF814A0A9
:1033B000FEF73CF90420CDE9010803A880E8800667
:1033C00028463146FEF732F946F25800C4F20200B0
:1033D00040F64C156030C2F200054FF0006140220B
:1033E00085E887004FF480304FF48063C5E9080713
:1033F0002846C5E90437C5E90677FEF715F8002821
:1034000018BFFDF7DFF9A563AC6335200521002265
:1034100035244FE0002643F630000096C4F2020047
:10342000416941F010014161416901F010010091D1
:1034300000990096016841F001010160006801A94E
:1034400000F00100009000984FF4C060019002204D
:10345000CDE90206032004900720059040F60040C5
:10346000C4F20200A0F54060FEF7E0F846F2580012
:10347000C4F2020040F6AC1500F57A70C2F2000505
:103480004FF000614FF4806285E843002846C5E9AB
:103490000362C5E90566C5E907666E62FDF7C4FF0C
:1034A000002818BFFDF78EF9E563AC6325200521E0
:1034B00000222524FEF758FA2046FEF741FA06B00E
:1034C000BDE8F08790F84230202B1CBF02207047E7
:1034D00000294FF0010318BF002A01D11846704798
:1034E00000230363816222218285C285436480F8C0
:1034F00042100169006819B1C16841F48071C1606E
:103500004169002341F001014161C16841F020019E
:10351000C160184670470000F0B581B040F24075B8
:10352000C2F200052968044601290BDB40F2187637
:10353000C2F2000630684268A24219D0013906F191
:103540000406F7D12868012810DB40F2187700261E
:10355000C2F2000757F82600012200F108012046B8
:10356000FFF7B0FF286801368642F3DB01B0F0BDFB
:103570000268017A126890473068012200F1080160
:10358000204601B0BDE8F040FFF79CBFB0B504464F
:1035900090F8410020281CBF0220B0BD00294FF048
:1035A00001004DD0002A134608BFB0BD4FF0000CFB
:1035B00021202162A384E384C4F844C084F841003C
:1035C000A06B44F2C54E44F275552268C0F6000E59
:1035D000C0F60005C0E90FE544F24935C0F6000524
:1035E0000432C0E9135CFDF7D1FF20686FF04001A1
:1035F000016000BF206850E8050F216840F080009E
:1036000041E80502F2B1206850E8050F216840F05A
:10361000800041E80502AAB1206850E8050F216842
:1036200040F0800041E8050262B1206850E8050FD3
:10363000216840F0800041E80502002ADAD100202C
:10364000B0BD00BF0020B0BD704700007047000053
:10365000FEE7000080B540F2700046F20041C2F281
:103660000000C4F2000140F8181F03210022C0E945
:10367000011200F10C014FF400234FF4401C81E8CB
:103680000C1082618283FDF749FB002808BF80BDD2
:10369000BDE88040FDF796B880B540F2700046F670
:1036A0000001C2F20000C4F2000140F8401F0321F3
:1036B0000022C0E9011200F10C014FF400234FF485
:1036C000401C81E80C104FF480710183C0F81A206F
:1036D000FDF724FB002808BF80BDBDE88040FDF752
:1036E00071B8000080B582B0002043F6300101902F
:1036F000C4F202010A6842F400120A600A6802F485
:1037000000120192019A00900868002240F48000A3
:1037100008600868052100F48000009000980E20E1
:10372000FEF722F90E20FEF70BF90F2005210022EB
:10373000FEF71AF90F20FEF703F9112005210022E8
:10374000FEF712F91120FEF7FBF82F2005210022C9
:10375000FEF70AF92F20FEF7F3F83A2005210022A0
:10376000FEF702F93A20FEF7EBF84520052100228A
:10377000FEF7FAF8452002B0BDE88040FEF7E0B859
:103780002DE9F04387B0002743F6300006970197F4
:10379000C4F20200016841F2004941F010010160E9
:1037A0000168C4F2020901F0100101910199019729
:1037B0000168A9F5406541F004010160016800223B
:1037C00001F0040101910199019701684EF20F0681
:1037D00041F020010160016801F02001019101998F
:1037E0000197016841F080010160016801F08001EA
:1037F000019101990197016841F00101016001689F
:1038000001F00101019101990197016841F0020164
:103810000160016801F002010191019901970168BD
:1038200041F008010160016801F00801019101996E
:103830000197016841F04001016000684EF20F01FC
:1038400000F04000019001982846FDF7C3FF48466C
:103850001E2100224FF01E08FDF7BCFF029602AEAB
:10386000012428463146CDE903470597FDF7DEFEE2
:1038700048463146CDE90284CDE90477FDF7D6FE0E
:103880004FF47150CDE90207484631460494FDF7E4
:10389000CDFE07B0BDE8F083B0B592B041F60005AB
:1038A00040F67430C4F200050021C2F2000040F27C
:1038B0008F6240F2E7330B91CDE909110791CDE911
:1038C0000511CDE90311CDE90111C0E90052C0E9AC
:1038D000021301618161FEF7CBFB002818BFFCF7E2
:1038E00071FF4FF48050089040F67430C2F200002F
:1038F00008A9FEF787FC002818BFFCF763FF40F615
:103900007430C2F20000FFF757F8002818BFFCF728
:1039100059FF602001900020CDE90200059040F69B
:103920007430C2F2000001A90022FEF733FF002824
:1039300018BFFCF747FF40F67434C2F2000401A937
:1039400020460422FEF726FF002818BFFCF73AFFA6
:10395000206844F20002C4F20102002190420D915D
:103960001AD0A8422CD0B0F1804F47D100200C9043
:1039700043F63000C4F20200016841F00101016029
:103980000068012100F001000C900C980F200D90B0
:1039900005F5F43029E000BF43F630000C91C4F285
:1039A0000200016841F0100101600068032100F08D
:1039B00010000C900C9860200D9005F5FC3014E080
:1039C00000200C9043F63000C4F20200016841F080
:1039D000020101600068092100F002000C900C98BF
:1039E0004FF440400D9005F5F63002220E92002271
:1039F00011910DA9CDE90F22FDF718FE12B0B0BD4F
:103A000010B58CB040F62C3000210024C2F200002A
:103A1000C4F20101C0E900140321CDE9031401211E
:103A20004FF6FF72CDE90514CDE9091403A9CDE9DC
:103A30000044C0E90242C0E904448461CDE907447E
:103A40000B94FEF7ADFC002818BFFCF7BBFE40F658
:103A50002C30C2F200006946CDE90044FEF7ACFA12
:103A6000002818BFFCF7AEFE0CB010BD10B594B026
:103A700040F6BC300021C2F200004FF08042072324
:103A800040F2E7340D91CDE90B110991CDE9071111
:103A9000CDE90511CDE90311CDE90111C0E90023FC
:103AA000C0E9021401618161FEF7E2FA002818BF43
:103AB000FCF788FE4FF480500A9040F6BC30C2F20A
:103AC00000000AA9FEF79EFB002818BFFCF77AFE4B
:103AD00040F6BC30C2F20000FEF76EFF002818BFAF
:103AE000FCF770FE40F6BC300024C2F2000008A9CA
:103AF000CDE90844FEF760FA002818BFFCF762FE23
:103B00006020CDE9010440F6BC30C2F2000001A9FA
:103B1000002203940594FEF73DFE002818BFFCF731
:103B200051FE40F6BC30C2F2000001A90422FEF7AB
:103B300031FE002818BFFCF745FE40F6BC30C2F24B
:103B4000000001A90822FEF725FE002818BFFCF797
:103B500039FE40F6BC34C2F2000401A920460C2212
:103B6000FEF718FE002818BFFCF72CFE206844F270
:103B70000002C4F20102002190420F911ED041F6D2
:103B80000001C4F20001884230D0B0F1804F4ED124
:103B900000200E9043F63000C4F20200016841F0AC
:103BA000010101600068012100F001000E900E98F3
:103BB0000F200F900020C4F202002FE043F63000E7
:103BC0000E91C4F20200016841F01001016000682A
:103BD000032100F010000E900E9860200F9000203E
:103BE000C4F2020000F5805018E000BF00200E90E3
:103BF00043F63000C4F20200016841F002010160A6
:103C00000068092100F002000E900E984FF4404029
:103C10000F900020C4F2020000F580600222109292
:103C2000002213910FA9CDE91122FDF7FFFC14B07A
:103C300010BD000080B58CB040F6044040F2004258
:103C40000021C2F20000C4F20002C0E900210322F8
:103C50004FF6FF73CDE903210122CDE90011C0E940
:103C6000021301618161CDE90521CDE90711CDE99B
:103C700009210B9103A9FEF793FB002818BFFCF75D
:103C8000A1FD40F60440C2F200006946FEF794F937
:103C9000002818BFFCF796FD0CB080BD80B58CB035
:103CA00040F64C4040F600020021C2F20000C4F28F
:103CB0000002C0E9002103224FF6FF73CDE9032182
:103CC0000122CDE90011C0E9021301618161CDE952
:103CD0000521CDE90711CDE909210B9103A9FEF7D3
:103CE0005FFB002818BFFCF76DFD40F64C40C2F2A8
:103CF00000006946FEF760F9002818BFFCF762FD76
:103D00000CB080BD10B58CB040F6DC4040F20041F4
:103D10000024C2F20000C4F20101C0E90014032132
:103D2000CDE9031401214FF6FF72CDE90514CDE969
:103D3000091403A9CDE90044C0E90242C0E90444E2
:103D40008461CDE907440B94FEF72AFB002818BFD5
:103D5000FCF738FD40F6DC40C2F200006946CDE9D0
:103D60000044FEF729F9002818BFFCF72BFD0CB022
:103D700010BD0000B0B592B044F2000540F62450EA
:103D8000C4F201050021C2F2000040F28F6240F24D
:103D9000CF730B91CDE909110791CDE90511CDE95B
:103DA0000311CDE90111C0E90052C0E9021301611C
:103DB0008161FEF75DF9002818BFFCF703FD4FF4A1
:103DC0008050089040F62450C2F2000008A9FEF787
:103DD00019FA002818BFFCF7F5FC40F62450C2F28F
:103DE0000000FEF7E9FD002818BFFCF7EBFC60209F
:103DF00001900020CDE90200059040F62450C2F267
:103E0000000001A90022FEF7C5FC002818BFFCF73E
:103E1000D9FC40F62454C2F2000401A92046042231
:103E2000FEF7B8FC002818BFFCF7CCFC2068002186
:103E3000A8420D911ED041F60001C4F20001884253
:103E40002CD0B0F1804F47D100200C9043F63000C9
:103E5000C4F20200016841F0010101600068012123
:103E600000F001000C900C980F200D9005F54040DB
:103E700029E000BF43F630000C91C4F20200016853
:103E800041F0100101600068032100F010000C9067
:103E90000C9860200D9005F5504014E000200C9027
:103EA00043F63000C4F20200016841F002010160F3
:103EB0000068092100F002000C900C984FF440407B
:103EC0000D9005F5444002220E92002211910DA999
:103ED000CDE90F22FDF7AAFB12B0B0BD80B540F6C8
:103EE000446044F60041C2F20000C4F20001002325
:103EF0004FF00C0C4FF4E13280E80E00C0E90333C0
:103F0000C0E905C3C361FFF74BF8002808BF80BDB7
:103F1000BDE88040FCF756BC80B540F68C6045F2A9
:103F20000001C2F20000C4F2000100234FF00C0CAB
:103F30004FF4E13280E80E00C0E90333C0E905C365
:103F4000C361FFF72DF8002808BF80BDBDE88040A1
:103F5000FCF738BC80B540F66C5041F20001C2F26B
:103F60000000C4F2010100234FF00C0C4FF4165274
:103F700080E80E00C0E90333C0E905C3C361FFF761
:103F80000FF8002808BF80BDBDE88040FCF71ABCD0
:103F900080B540F6B45044F20041C2F20000C4F2D1
:103FA000000100234FF00C0C4FF4E13280E80E00CA
:103FB000C0E90333C0E905C3C361FEF7F1FF002880
:103FC00008BF80BDBDE88040FCF7FCBB80B540F673
:103FD000FC5044F60001C2F20000C4F200010023CC
:103FE0004FF00C0C4FF4407E4FF4E13280E80E00AD
:103FF000C0E90333C0E905CEC361FEF7D1FF002855
:1040000008BF80BDBDE88040FCF7DCBB80B540F652
:10401000D46041F20041C2F20000C4F20101002369
:104020004FF00C0C4FF4165280E80E00C0E9033339
:10403000C0E905C3C361FEF7B3FF002808BF80BD18
:10404000BDE88040FCF7BEBBFEE70000FEE70000D5
:10405000EFF30980BFF36F8F154B1A681EF0100F36
:1040600008BF20ED108A20E9F04F10602DE909000B
:104070004FF0500080F31188BFF34F8FBFF36F8F65
:1040800004F0F4FA4FF0000080F31188BDE8090055
:1040900019680868B0E8F04F1EF0100F08BFB0ECC8
:1040A000108A80F30988BFF36F8F704700BF00BF8D
:1040B000D800002000000000000000000000000008
:1040C000074B19680868B0E8F04F80F30988BFF320
:1040D0006F8F4FF0000080F31188704700BF00BF62
:1040E000D800002080B54EF21000CEF2000000682B
:1040F00005F0A0F8012808BF80BDBDE8804004F0AD
:104100004DBC0000B0B592B0002443F64000CDE9AC
:104110000A44CDE908440594CDE90344CDE90144BE
:104120000094C4F202000168022541F08051016050
:10413000006800F080500090009847F20000009462
:10414000C4F20000016841F480410160006800F49D
:10415000804000900098012006904FF48030079036
:104160004FF480000D9004200E90A820CDE90F059B
:104170000720119006A80C95FDF760FD10B172B6EE
:10418000FEE700BF0F20CDE901054FF4A0500490D9
:104190004FF48050059001A805210394FDF720FC01
:1041A00010B172B6FEE700BF12B0B0BD4EF6885037
:1041B000CEF20000016841F4700101607047000018
:1041C00040F69440C2F20000FEF73ABA40F6DC40F6
:1041D000C2F20000FEF734BA10B540F6FF3E0368A5
:1041E000C4F2000E40F2004C7045C4F2010C27DC12
:1041F000B0F1804F31D040F20042C4F20002904250
:104200002BD040F60002C4F20002904225D041F6C5
:10421000FF72C4F20002904229DC70453CDCB0F130
:10422000804F5FD040F20042C4F20002904259D069
:1042300040F60002C4F20002904253D056E000BFA4
:1042400040F60042C4F20002904206D0604504D01D
:104250000022C4F201029042D9D14A6823F07003CF
:10426000134341F6FF72C4F200029042D5DD43F6DB
:10427000FF72C4F20102904222DC42F20002C4F258
:10428000000290422ED00022C4F20102904229D0B6
:10429000604527D02AE000BF40F60042C4F2000289
:1042A00090421FD041F60002C4F20002904219D0A1
:1042B00041F60042C4F20002904213D016E000BF63
:1042C00044F20002C4F2010290420BD044F6000214
:1042D000C4F20102904205D044F20042C4F201024D
:1042E000904203D1CA6823F44073134323F0800241
:1042F0004B69D1F800E08C681A430260C46240F454
:104300008062C0F828E0624504BF096901630121A9
:1043100041610169C90708BF10BD016921F00101B0
:10432000016110BD40F64460C2F20000FEF786BB9A
:1043300040F68C60C2F20000FEF780BB806B00216B
:10434000C185C184FEF778BB806B01684A6990F82B
:104350004130212B2DD112F080022AD00021C184BE
:10436000016851E8031F026821F0C00142E803130D
:10437000DBB1016851E8031F026821F0C00142E887
:10438000031393B1016851E8031F026821F0C001D3
:1043900042E803134BB1016851E8031F026821F0A2
:1043A000C00142E80313002BDAD1202180F841102C
:1043B0000168496990F84220222A40F07D8011F07E
:1043C000400179D00021C185016851E8031F0268CE
:1043D00021F4907142E80313BBB3016851E8031F55
:1043E000026821F4907142E8031373B3016851E845
:1043F000031F026821F4907142E803132BB3016894
:1044000051E8031F026821F4907142E80313002B66
:10441000DAD11AE0016851E8051F026821F00101B4
:1044200042E80513DBB1016851E8051F026821F07D
:10443000010142E8051393B1016851E8051F0268C4
:1044400021F0010142E805134BB1016851E8051F55
:10445000026821F0010142E80513002BDAD1016B5B
:10446000012924D1016851E8031F026821F01001DD
:1044700042E80313DBB1016851E8031F026821F031
:10448000100142E8031393B1016851E8031F026869
:1044900021F0100142E803134BB1016851E8031FFA
:1044A000026821F0100142E80313002BDAD1202129
:1044B00080F8421000210163416C41F01001416419
:1044C000FEF7BABA0168806B0968C90548BFFFF7F3
:1044D000BBB80021C18400BF016851E8051F026814
:1044E00021F0800142E8051383B3016851E8051FFC
:1044F000026821F0800142E805133BB3016851E8EE
:10450000051F026821F0800142E80513F3B101683C
:1045100051E8051F026821F0800142E80513002BD5
:10452000DAD113E0016851E8031F026841F040014D
:1045300042E80313002B08BF7047016851E8031FCE
:10454000026841F0400142E8031393B1016851E869
:10455000031F026841F0400142E803134BB10168B8
:1045600051E8031F026841F0400142E80313002BA9
:10457000D8D17047806BFFF769B8000081B090F820
:104580004210222921D183680246B3F5805F09D108
:1045900052F8281F52F8183C002B63D003685B6860
:1045A0000AE000BF52F8281F13B90369002BF5D0A9
:1045B00003685B6803F07F030B70116801311160C1
:1045C000C18D01390A04C18502D001B0704700BF16
:1045D0000168CA6822F02002CA60CA6822F48072A8
:1045E000CA604A6922F001024A61202180F8421023
:1045F00000214163026B012A3CD10163016851E84B
:10460000031F026821F0100142E80313DBB10168C7
:1046100051E8031F026821F0100142E8031393B12F
:10462000016851E8031F026821F0100142E80313FA
:104630004BB1016851E8031F026821F0100142E804
:104640000313002BDAD101680A68D20606D50022CE
:1046500000920A680092496800910099818D01B02A
:10466000FEF7E8B9026852686FF35F2221F8022B67
:104670008162A5E701B0FEF74FBF000010B5044608
:104680000068D4E902C22369016921F44051114351
:104690000161626943EA0C01E3691143C26819438D
:1046A00049F20C639A431143C1604169A26921F444
:1046B000407141F20043114340F48062C4F20103AF
:1046C0009A42416102D1FDF76FFA01E0FDF758FA15
:1046D000E16963681922B1F5004FA0FB020123D103
:1046E0005A00DB0FFBF7C2FD48F21F51C5F2EB1178
:1046F000A0FB01235A094FF69C73C0F6FF7303F128
:10470000805302FB0300322303EBC000A0FB010136
:104710004FF4F87000EA111000EB0210C1F34211DF
:1047200008442168886010BD9A009B0FFBF79EFD2E
:1047300048F21F51C5F2EB11A0FB01235A094FF6B5
:104740009C73C0F6FF7302FB0300322303EB0010DF
:10475000A0FB0101F02000EA511000EB0210C1F3B0
:10476000431108442168886010BD000040F66C5079
:10477000C2F20000FEF762B940F6B450C2F2000087
:10478000FEF75CB940F6FC50C2F20000FEF756B9E5
:1047900040F6D460C2F20000FEF750B9FEE7000018
:1047A0002DE9F04140F2E020C2F20000A0F16C04DB
:1047B0004FF0000818264FF4A06700F5876500BF8A
:1047C00044F86C8F04F114005021E660FBF767FE9B
:1047D00004F16C00A842A766F2D1BDE8F0810000A8
:1047E000B0B52DED048B40F22C20C2F2000000F099
:1047F00053FC043000F00EFA40F2447040F6B4521C
:10480000C2F20000C2F2000200210023002500F0E5
:10481000A5FB40F288049FED5F8A40F61C70C2F24F
:104820000004C2F20000012122460123B0EE480A32
:1048300001F048FD41F6CC30C2F2000002212246D0
:104840000023B0EE480A01F03DFD41F2B040C2F253
:104850000000032122460023B0EE480A01F032FD99
:1048600040F2B0049FED4C9A46F25400C2F20004AC
:10487000B0EE088AC2F20000012122461523B0EEF4
:10488000480AF0EE490AB0EE491AF0EE491AB0EEC5
:10489000492A01F0ABF846F2AC10C2F20000022146
:1048A00022461523B0EE480AF0EE490AB0EE491A46
:1048B000F0EE491AB0EE492A01F098F846F20430B9
:1048C000C2F20000032122461523B0EE480AF0EEA2
:1048D000490AB0EE491AF0EE491AB0EE492A01F041
:1048E00085F841F2E800C2F20000B7EE000A0421A8
:1048F00022460723F0EE490AB0EE491AF0EE491AB3
:10490000B0EE492A01F072F841F24020C2F20000F4
:10491000302380F8203249F6F8134FF07F51C0F66B
:10492000000346F26662C0E9021103F12801C4F2F5
:10493000660203F10804C0F81C120021C0E900451A
:10494000C0E90452C4F2D2310022002300244DF207
:104950000A7C00F5117EC0F82152C0F82552C0F83B
:104960002952C0F82C52C0E98C55C0E98E55C4F2CA
:10497000A022C4F21643C4F2D734C3F6236CC0E9B4
:104980009A558EE81E10C0E99655C0E99855BDECC1
:10499000048BB0BD27A099410000000070B540F223
:1049A000B415C2F200052978044629B3002600BFD9
:1049B00005EB8600806901680968884700BA04EB46
:1049C0004601000CA1F84400287801368642EFD356
:1049D0004FF40070214641F8140F40F2880001F1B5
:1049E000300201F14003C2F20000FBF707FF01288B
:1049F00004BF012084F85C00287928B3002600BF9A
:104A000005EB8600806D01680968884700BA04EBF1
:104A10004601000CA1F84400287901368642EFD304
:104A20004FF4FF70214641F8140F40F2880001F165
:104A3000300201F14003C2F20000FBF7DFFE012863
:104A400004BF012084F85C00687828B3002600BF0A
:104A500005EB8600806A01680968884700BA04EBA4
:104A60004601000CA1F84C00687801368642EFD36D
:104A70004FF40070214641F82C0F40F2B00001F1D4
:104A8000200201F12C03C2F20000FBF7B7FE002860
:104A90001CBF012084F85C00687918B3002600BFB1
:104AA00005EB8600806E016809688847697900BA5D
:104AB0000136000C8E42A4F85200F1D34FF4FF707F
:104AC000214641F82C0F40F2B00001F1200201F123
:104AD0002C03C2F20000FBF791FE00281CBF01204E
:104AE00084F85C000020C4E91100C4E9130070BD23
:104AF00080B58AB00020CDE90500CDE90000CDE900
:104B0000020004900E200121099040F28800CDE9B6
:104B10000711C2F200006946FBF7C4FE002818BF67
:104B2000FBF750FE40F28800C2F20000FCF706FBE3
:104B3000002818BFFBF746FE40F28800C2F20000D2
:104B40000221FBF743FE002818BFFBF73BFE40F2B3
:104B50007000C2F20000002104220823C0E9011203
:104B6000C0E9031301750AB080BD000080B58AB0AA
:104B70000E2005900021099040F2B000069101221C
:104B8000CDE90011CDE902110491C2F2000069469D
:104B9000CDE90722FBF786FE002818BFFBF712FEBF
:104BA00040F2B000C2F20000FCF7C8FA002818BFBB
:104BB000FBF708FE40F2B000C2F200000221FBF752
:104BC00005FE002818BFFBF7FDFD40F27000C2F2A1
:104BD0000000002104220823C0E90112C0E90313E8
:104BE00001750AB080BD000080B5FFF781FFFFF7B7
:104BF000BDFF40F28800C2F200000221FBF7E6FD93
:104C000040F2B000C2F200000221BDE88040FBF794
:104C1000DDBD000049F63C02C0F60002302108323A
:104C20000171002102600822C0F80510C0F80910C7
:104C3000C0F80D100161C0E91111C0E91311C0E9FC
:104C4000151180F85C10C0E90711426280F8281045
:104C50004161C0E90D11C26380F84010C162704724
:104C6000602102F0DCBA000070B5A4B001AD0446CA
:104C7000002005F148068DF804008DF80700ADF816
:104C8000080030464021FBF70AFCD4F838012946D9
:104C90000022002302F04AFB10B124B070BD00BF17
:104CA0004FF6FC309DF80450A4F83C019DF8070035
:104CB00084F83E0184F83F512DB104F5A0703146CF
:104CC0002A46FBF790FB94F8850138B13046294617
:104CD000FBF7E4FC9DF8045001E000BF00206119DF
:104CE000020A81F841214FF6FD62A1F8422181F8C4
:104CF000400194F8A511ADF88C000029CDD1606871
:104D000004F59E7105F10802FEF740FC24B070BD69
:104D10002DE9F04381B0044690F88C01082813D89F
:104D2000DFE800F00616222A36464E56620000BF23
:104D3000FC293AD1012084F88C01FC2084F8210060
:104D400001B0BDE8F08300BF002084F88C012CE0A6
:104D5000FB2940F0FD80022084F88C01FB2084F8C0
:104D6000220001B0BDE8F08384F82310032084F80A
:104D70008C0101B0BDE8F083002084F8201084F895
:104D80008401042084F88C0101B0BDE8F08300BFE9
:104D9000204610F8202F90F864315F1CFEB280F896
:104DA00064711844964281713ED201B0BDE8F0832F
:104DB00084F8A810062084F88C0101B0BDE8F083C7
:104DC00084F8A910072084F88C0101B0BDE8F083B5
:104DD000FD2940F0BD80082084F88C01FD2084F876
:104DE000AA0001B0BDE8F083FE2940F0B18094F83C
:104DF0008501FE21002884F8AB1060D094F82010C3
:104E000004F12600FBF74AFCB4F8A810A0848842FD
:104E100051D194F8201061B3481E032801F003001B
:104E200008D2002110E000BF052084F88C0101B0F9
:104E3000BDE8F08301F0FC0200216318D3F826706E
:104E400004318A429F66F8D198B1631893F82630EE
:104E500004F16802012853540BD04B1CE71897F853
:104E600026700228D75404D0881C211891F82610E7
:104E70001154D4F8881101291ADB04F1680904F5EA
:104E8000C878002703E000BF01378F4210DA58F8D6
:104E900027000028F8D0016894F8206094F82330A7
:104EA0000D6849464A460096A847D4F88811EBE7B2
:104EB000002084F88C0194F88501002848D194F8EA
:104EC000201039B3481E032801F0030002D200214C
:104ED0000BE000BF01F0FC02002100BF6318D3F813
:104EE000267004318A429F66F8D198B1631893F80E
:104EF000263004F16802012853540BD04B1CE718EC
:104F000097F826700228D75404D0881C211891F8ED
:104F100026101154D4F88811012919DB04F168090D
:104F200004F5C878002702E001378F4210DA58F8FC
:104F300027000028F8D0016894F8206094F8233006
:104F40000D6849464A460096A847D4F88811EBE711
:104F5000002084F88C0101B0BDE8F083F0B581B089
:104F60000C46114622461E46054600F0F1F8302058
:104F7000287449F65000C0F6000000F10801203006
:104F800000272960E86005F168004021C5F811702C
:104F9000C5F81570C5F81970EF6185F8207085F8AF
:104FA0002370AF84FBF77BFA05F1F400402185F80C
:104FB000AC7085F8AF70A5F8B070FBF770FA85F8A3
:104FC000847185F88561C5F8887185F88C7185F8DC
:104FD000A471284685F8A54101B0F0BD4FF4D47105
:104FE00002F01DB97047000040F2E021C2F200015A
:104FF0006C2200FB021000F1640400F1100500F1C6
:10500000140602E0286802F04FF920680128F9DB55
:10501000002703E0206801378742F3DA56F82700BB
:105020000028F7D0016809688847F3E72DE9F041C7
:105030008AB009292CD840F2E025C2F200056C2084
:1050400001FB00570C463E4656F8640F13281FDC40
:1050500007EB800042613868B8B90DF1040840469A
:105060002421FBF71CFA6C2004FB00504246011D72
:105070000191816EC068CDE9061044F6E970C0F672
:105080000000214602F0EAF93860306801303060F3
:105090000AB0BDE8F081000070B540F2E02C46F2A5
:1050A00074134FF0000EC2F2000CC6F673335F218A
:1050B000002200240CEB02056C3204F13006B2F53C
:1050C000876F04F101046B6029726E7285F80AE043
:1050D000F0D130210122CCE9031220210223CCE9B6
:1050E0001E130523CCE939131821CCE954130A23E4
:1050F000CCE96F131021CCE98A130F23CCE9A51357
:105100000821CCE9C0131423CCE9DB132821CCE916
:10511000F62170BD70470000704700007047000026
:1051200070470000704700007047000070470000A3
:10513000704700007047000070470000014640685B
:10514000002808BF704708310122FEF7BBB90000F4
:1051500049F6C403C0F600030833C0E900314272C7
:105160007AB940F24072C2F2000211680929C8BF40
:1051700070474B1C136040F21872C2F2000242F8F2
:10518000210070472DE9F041D0F804E08C469800EA
:10519000714601F8AC0F002B8EF8AFC042D0581EFC
:1051A000032803F0030C05D20020BCF1000F23D12B
:1051B00038E000BF03F0FC0302F10800C3F100086F
:1051C0000023002556590EEB0507C7F8F460461971
:1051D00056F8046C5419C7F8F8604659043BC7F8F0
:1051E000FC60E468984505F11005C7F80041E9D175
:1051F0005842BCF1000F15D052F820400EF1F403D4
:10520000BCF1010F43F820400CD0441C52F824504C
:10521000BCF1020F43F8245004D0023052F8202091
:1052200043F82020DEF838010022002302F0C2F803
:10523000B0FA80F04009BDE8F0810000704700003E
:10524000D1F888214160042AC8BF704701EB82036E
:10525000C3F89001501CC1F88801704770470000E6
:1052600041B1212907D32021C0F880100021C0E9D5
:10527000211170470021C0F880100021C0E92111E0
:105280007047000080B5D0F88010002908BF80BDAD
:10529000D0F88820D0F884E000EB8203013283ED5F
:1052A000000AB2FBF1F38E4503FB1122C0F88820FF
:1052B00004D20EF1010EC0F884E002E0BEF1000F4E
:1052C00044D0AEF1010103290EF0030C04D29FED8E
:1052D000250A00231CE000BF9FED220A2EF00302E6
:1052E000A0F11001002300BF91ED041A91ED052AF1
:1052F00091ED063A30EE010A91ED074A30EE020ACE
:1053000030EE030A0433103130EE040A9A42EBD136
:10531000BCF1000F13D000EB830090ED001ABCF13C
:10532000010F30EE010A0AD090ED011ABCF1020F14
:1053300030EE010A03D090ED021A30EE010A01EEC0
:1053400010EAB8EE411A80EE010A80BD9FED050A11
:105350004FF0000E01EE10EAB8EE411A80EE010A9D
:1053600080BD00BF0000000010B58C210446FBF793
:1053700096F8204610BD0000017999B190ED002A01
:1053800090ED031AB7EE003A33EE423A22EE000AED
:1053900023EE012A32EE000A80ED030A80ED021AA4
:1053A000704700BF012180ED030A017180ED020A00
:1053B0007047000000210171C0E9021180ED000A70
:1053C0007047000033EE626AB5EE406AB0EEC00A84
:1053D000B0EEE04AB0EEC17AF0EEE10AF0EEC23A89
:1053E000B0EEC65AF1EE10FA80ED020A80ED034AE3
:1053F00080ED047AC0ED050AC0ED063AC0ED072A3B
:1054000080ED083A80ED095A02DDB7EE003A06E079
:10541000B5EE406AF1EE10FA03DABFEE003A80ED25
:105420000C3A21EE016A21EEA11A22EE022A36EE92
:10543000417A30EE003A76EE420A34EE046A87EEA4
:10544000037AC0EE860A70EE871AF4EE451AF1EE82
:1054500010FA15DD25EE035A35EE015A22EE007AD8
:1054600025EE045A35EE075A34EE000A85EE000A9E
:1054700030EE411A30EE420A81EE037AC0EE060A9F
:10548000002180ED0A7AC0ED0B0A0171704700001F
:1054900090ED072A90ED091A30EE420AB0EEC00AEC
:1054A000B4EE410AF1EE10FA80ED000A18DA90ED40
:1054B0000A2AB4EE402AF1EE10FA1BDD90ED022A22
:1054C00090ED051A32EE022A21EE011A20EE020AB0
:1054D00030EE011A0021B1EEC10A017134E000BFC3
:1054E00090ED060A80ED001A90ED0C1A21EE000AEC
:1054F000704700BF90ED0B2A022131EE422AB4EE34
:10550000402AF1EE10FAC8BF0121022901710BD027
:10551000012929D190ED040A80ED0E0A90ED0C1AB4
:1055200021EE000A704700BF90ED033A90ED062A85
:1055300031EE400A33EE031A22EE022A20EE010A6F
:1055400030EE021AB1EEC10AB5EE401A9FED0B2AF9
:10555000F1EE10FAB8BFB0EE420A80ED0E0A90EDFF
:105560000C1A21EE000A704790ED060A80ED0E0A33
:1055700090ED0C1A21EE000A704700BF00000000F9
:10558000042101710021C0E90911C0E90B11704724
:105590000021042201600271C0E90211C0E9041176
:1055A0008161C0E90911C0E90B11C0E90D11704713
:1055B00010B52DED028B90ED031A90ED0C5A31EEE3
:1055C000401AB5EE401AF1EE10FAB0EE416AB4EEB0
:1055D000451A90ED003A90ED012A90ED074A9FEDB3
:1055E000380AC8BFB0EE406AF1EE10FAB8BFB0EEAC
:1055F000461AB1EE455AB5EE401AF1EE10FAB0EE89
:10560000416AB4EE451AB8BFB0EE406AF1EE10FA46
:10561000C8BFB0EE461A90ED0E5A21EE033AB1EE35
:10562000456A31EE044AB4EE461A80ED0F1A80ED59
:10563000063AF1EE10FAB8BFB0EE404AB4EE451AA1
:10564000F1EE10FAC8BFB0EE404AB5EE402A04466B
:10565000F1EE10FA80ED074A02BF0020E061B0EEE3
:10566000404A94ED080A24EE022A94ED024A31EEF3
:10567000400A20EE040A04F1440084ED042A84ED7B
:10568000050A84ED081A32EE038AFFF775FE94EDE1
:105690000B1A38EE000AB4EE410AF1EE10FA84ED6E
:1056A000090A06DCB1EE411AB4EE410AF1EE10FA35
:1056B00003DAB0EE410A84ED091ABDEC028B10BD8D
:1056C0000000000010B52DED028B90ED0C1AB5EE28
:1056D000400AF1EE10FAB0EE403AB4EE401A9FEDF7
:1056E000372AC8BFB0EE423AF1EE10FAC8BFB0EEAA
:1056F000430AB1EE411AB5EE400AF1EE10FAB0EEEF
:10570000403AB4EE410AB8BFB0EE423AF1EE10FAB8
:10571000C8BFB0EE430A90ED001A90ED075A20EE94
:10572000016A90ED0E1A30EE055AB1EE417AB4EEF0
:10573000470A80ED0F0A90ED013A90ED024A80EDA4
:10574000066AF1EE10FAB8BFB0EE425AB4EE410A62
:10575000F1EE10FAC8BFB0EE425A90ED081A25EEED
:10576000032A30EE411A21EE041A044680ED075A4E
:1057700080ED042A80ED051A80ED080A4430B0EE71
:10578000410A32EE068AFFF7F7FD94ED0B1A38EE68
:10579000000AB4EE410AF1EE10FA84ED090A06DCC3
:1057A000B1EE411AB4EE410AF1EE10FA03DAB0EEAE
:1057B000410A84ED091ABDEC028B10BD0000000007
:1057C00010B5044680EC030A0020C4E90300C4E9D4
:1057D0000500C4E90700606204F128016063C4E9C0
:1057E0000F0004F14400B7EE000AC1EC031A84ED87
:1057F0000E3AFFF7DFFD204610BD000010B50A6825
:10580000044610BA00EE100A94ED0D1AB8EEC00A64
:1058100080EE010A88889FED0A2AC0BA01EE100ABC
:10582000B8EEC11A21EE021A04F13C0084ED4D1AC3
:1058300084ED4C0AFFF726FD84ED4F0A10BD00BF32
:10584000CDCCCC3D002180ED4E0A80F83810704759
:1058500080B582B090F83810022915D0012919D0EE
:10586000002948D1417A90ED4E0A01F5807100225D
:10587000BDEEC00AC0F8D0100092019280ED550A2A
:1058800010EE102A13E000BF02B0BDE8804000F027
:1058900039B800BFD0F84821D2B1417A002301F5D0
:1058A0004071C0F84C21C0F8D010CDE90033130E80
:1058B0008DF80030130C8DF80130130A8DF802308A
:1058C0008DF803206B46012200F05AFF02B080BD24
:1058D000002201920022417AC7F21702009241F29F
:1058E000707201F50071C0F850216B460122C0F8BA
:1058F000D01000F045FF02B080BD000080ED500ADE
:1059000070470000B0B584B090ED4B0A00F1D405AB
:105910000446284600F004FF94ED4C0A284600F0A7
:105920008DFE94ED501A94F8C80030EE010A84ED13
:105930004E0A70B1D4E94B01D4F83C218DE8070040
:1059400004F128006A4601210323FFF71BFC94EDB4
:105950004E0A607ABDEEC00A00F580710020CDE9E4
:10596000000010EE100A020E8DF80020020C8DF8D7
:105970000120020A8DF802208DF803006B462046B4
:105980000122C4F8D01084ED550A00F0F9FE04B0ED
:10599000B0BD000090ED4C0A7047000090ED0C1A6D
:1059A00090ED0D2A21EE000A80ED4B0A20EE020A4E
:1059B000BDEEC00AB8EEC01A012180ED511A80ED8B
:1059C000520A80F83810704790ED0C1A90ED0D2AAD
:1059D00021EE000A80ED4B0A20EE020ABDEEC00A5D
:1059E000012180ED520A80F83810704770B52DED16
:1059F000028B1D460B460321B0EE408A044600F0A0
:105A0000D7FE3020207449F6D000C0F6000000F127
:105A10000801216000F13C01E16000F15001983083
:105A200000EE105A04F13C050026A062B8EE400AD0
:105A30002846C4F81160C4F81560C4F81960E6611E
:105A400084F82460E662216284ED0C8A84ED0D0AFC
:105A500084F83860FFF788FC9FED120A04F1D40047
:105A6000F0EE400AB0EE401AF0EE401AB0EE402AD6
:105A7000F0EE402A84F8C860C4E9336600F054FEB2
:105A800004F596702421FAF70AFD42F21070C4E979
:105A9000540628460221FFF7E3FB2046BDEC028BAB
:105AA00070BD00BF000000004FF4AC7101F0B7BB47
:105AB0007047000010B50C460968097811B161689B
:105AC000097829B1D4E900010078087010BD00BF41
:105AD00021690329F6D8DFE801F00315233100BF5F
