:020000040800F2
:100000002869002059020008B54000080D37000893
:10001000B1400008D5060008B54500080000000002
:100020000000000000000000000000003141000856
:10003000E907000800000000C14000085541000821
:1000400073020008730200087302000873020008BC
:1000500073020008730200087302000873020008AC
:10006000730200087302000873020008730200089C
:10007000730200087302000873020008730200088C
:10008000D107000873020008730200087302000819
:10009000D90600087302000873020008ED07000883
:1000A000730200087302000873020008730200085C
:1000B000730200087302000873020008730200084C
:1000C000730200087302000873020008730200083C
:1000D00073020008730200089D450008A945000846
:1000E000730200087302000873020008730200081C
:1000F00073020008414200087302000873020008FE
:1001000073020008730200083542000873020008F9
:10011000914300089D430008730200087302000821
:1001200073020008DD07000873020008730200086C
:1001300073020008730200087302000873020008CB
:10014000E506000873020008730200087302000845
:1001500073020008730200087302000873020008AB
:10016000730200087302000873020008730200089B
:100170007302000873020008730200080000000008
:10018000730200087302000800F002F800F054F84F
:1001900014A696E8000CB244B344DA4501D100F04D
:1001A0004BF8BAE80F000FA696E83000A5EB04055F
:1001B00004EB0607AAEB0704A7F101074FEA1515A0
:1001C0004FEA3414A4F10104AC4201D300F034F836
:1001D00013F0010F18BFFB1A43F0010300F001F800
:1001E000DBE71847649B0000849B0000103A24BFA3
:1001F00078C878C1FAD8520724BF30C830C144BF8C
:1002000004680C6070470000704700000023002461
:1002100000250026103A28BF78C1FBD8520728BF16
:1002200030C148BF0B6070471FB509F019FB00F0E3
:1002300077F91FBD10B510BD00F0D8F91146FFF7D2
:10024000F3FF06F051FE00F0F6F903B4FFF7F2FFFA
:1002500003BC00F0C1F90000094880470948004785
:10026000FEE7FEE7FEE7FEE7FEE7FEE7FEE7FEE766
:10027000FEE7FEE704480549054A064B70470000C3
:100280002142000889010008286300202869002015
:10029000286500202865002053EA020C00F06980E0
:1002A0002DE9F04B4FF00006002B1FBFB3FA83F58A
:1002B00003FA05F424FA05F65E4012BF1643B2FABB
:1002C00082F502FA05F4C5F120051EBF22FA05FCED
:1002D00044EA0C04203556EA044C4FEA144418BF93
:1002E000641C4FF000084FF00009904271EB030CC2
:1002F00039D3002919BFB1FA81F701FA07F6B0FA2C
:1003000080F700FA07F6C7F120071EBF20FA07FCA6
:1003100046EA0C062037B6FBF4FCA7EB0507103FB6
:1003200007F01F0BCBF120062CFA06F60CFA0BFB9C
:1003300044BFB3460026202FA4BF5E464FF0000BFB
:100340005BEA060C08BF4FF0010B19EB0B0948EBF9
:100350000608ABFB027C06FB02CC0BFB03CCC01BEC
:1003600071EB0C01C1E70B46024641464846BDE829
:10037000F08B13B5084318BF4FF0FF300146AFF3C1
:100380000080BDE81C407047032A40F2308010F026
:10039000030C00F0158011F8013BBCF1020F624420
:1003A00098BF11F801CB00F8013B38BF11F8013BB1
:1003B000A2F1040298BF00F801CB38BF00F8013B5E
:1003C00011F0030300F02580083AC0F0088051F8CE
:1003D000043B083A51F804CBA0E80810F5E7121DD9
:1003E0005CBF51F8043B40F8043BAFF30080D207F8
:1003F00024BF11F8013B11F801CB48BF11F8012BC4
:1004000024BF00F8013B00F801CB48BF00F8012BE6
:10041000704710B5203AC0F00B80B1E81850A0E842
:100420001850B1E81850A0E81850203ABFF4F5AFC2
:100430005FEA027C24BFB1E81850A0E8185044BF1E
:1004400018C918C0BDE810405FEA827C24BF51F88B
:10045000043B40F8043B08BF7047D20728BF31F87F
:10046000023B48BF11F8012B28BF20F8023B48BFD0
:1004700000F8012B704702F0FF0343EA032242EA2F
:10048000024200F024B84FF000020429C0F01280AC
:1004900010F0030C00F01B80CCF1040CBCF1020F37
:1004A00018BF00F8012BA8BF20F8022BA1EB0C010C
:1004B00000F00DB85FEAC17C24BF00F8012B00F802
:1004C000012B48BF00F8012B70474FF0000200B528
:1004D000134694469646203922BFA0E80C50A0E867
:1004E0000C50B1F12001BFF4F7AF090728BFA0E815
:1004F0000C5048BF0CC05DF804EB890028BF40F8E1
:10050000042B08BF704748BF20F8022B11F0804F22
:1005100018BF00F8012B7047704770477047000004
:1005200008487CB57844009007487844009C05460C
:10053000019004E02046016808448047241DAC4235
:10054000F8D17CBD409800004298000070B5044688
:10055000051F00F02DF80068002C14BF446870BD22
:10056000002C18BFAC423CBF20466468F8D3016839
:100570000A18AA4218BF456003D12A6805461144EB
:10058000016028684119A1421CBF6C6070BD6168A0
:10059000696021680844286070BD10B500F00CF84F
:1005A000006810BD10B5044600F006F8046010BDE8
:1005B00000487047300000200048704728000020A5
:1005C00010B5002000F040F8FFF734FEBDE8104001
:1005D000012000F001B8000001491820ABBEFEE781
:1005E0002600020000487047280000207546FFF7EB
:1005F000F9FFAE4605006946534620F007008546E0
:1006000018B020B5FFF736FEBDE820404FF00006D9
:100610004FF000074FF000084FF0000BAC46ACE87D
:10062000C009ACE8C009ACE8C009ACE8C00921F0D9
:1006300007018D46704710B50446AFF30080204691
:10064000BDE81040FFF701BE10B500F00BF8BDE8A3
:10065000104000F001B87047002801D0FFF7BCBF80
:100660007047000010B5002102A000F013F801202F
:1006700010BD0000534947414252543A2041626E36
:100680006F726D616C207465726D696E6174696FF3
:100690006E00000070B505460C460A2000E06D1C97
:1006A00000F011F835B128780028F8D102E0641C78
:1006B00000F009F814B120780028F8D1BDE87040A6
:1006C0000A20AFF3008008B569468DF800000320CA
:1006D000ABBE08BDFEE7000040F2A000C2F2000081
:1006E00000F000BA40F2C800C2F2000000F0FAB90F
:1006F00091B1F0B549F6A81201F0030C0429C0F637
:1007000000020DD24FF0000E0021BCF1000F3AD1D3
:10071000BDE8F04088B27047002188B2704700BF42
:1007200001F0FC01C1F1000E431C00216FF0030435
:100730001D19EE788FB286EA172632F816602F79E7
:1007400086EA012189B287EA112132F811106F7906
:1007500081EA0626B6B287EA162632F81660AD7927
:1007600086EA012189B285EA112132F81110043498
:100770000EEB0405043581EA0621D9D104F1040EFB
:10078000BCF1000FC4D010F80E408BB284EA1323E2
:1007900032F81340BCF1010F84EA0121B8D0704453
:1007A000437889B283EA112132F81130BCF1020F8B
:1007B00083EA0421ACD0807889B280EA112032F833
:1007C000100080EA0321BDE8F04088B270470000C5
:1007D00040F62040C2F2000000F056BD40F68040D6
:1007E000C2F2000000F050BD70470000402000F051
:1007F000E1BE000072B600BFFEE7000090F82020C6
:10080000013A012A08D8006800F114020020136898
:1008100019431160704700BF00F1240201204FF41A
:1008200080211368194311607047000010B590F8DB
:1008300020E0D0F800C0AEF1010EBEF1010FDCF8EF
:1008400008E011D81EF0E05F18D0CEF3016401205B
:10085000A04018608B68DBB1D1F804E0C86840EABA
:10086000CE0040EA030E17E000F1240301204FF40C
:1008700080211A681143196010BD00BF00F12403E4
:1008800001204FF400111A681143196010BD00BF18
:100890000868CB6843EA405E0CF5C07000EB0413B7
:1008A000240140F804E00C69184640F8044F097D23
:1008B000012903D1016841F4807101605068012170
:1008C000D8601068986000201A681143196010BD44
:1008D00090F82020013A012A30D8B0B546F20060E5
:1008E000C4F20000026842F001020260026822F4D1
:1008F0007C520260D1F814E0CC694A6A0368012C8A
:1009000043EA022202600EF01F024FF0010303FAD5
:1009100002F2C3696FEA020C23EA0203C36113D037
:100920002CBBC36803EA0C03C360CB688C8844EA21
:10093000034300EBCE0423640B4611E0416A41F40B
:100940008021416201207047C3681343C3600B6874
:100950008C8844EA034300EBCE04236401F10C03CA
:100960008C681B8843EA044300EBCE04636443684D
:100970008D6943EA0204D1F810E0096A002D08BF2E
:1009800003EA0C0444604369BEF1000F43EA020429
:1009900008BF03EA0C040129446102D1C169114373
:1009A000C161016821F0010101600020B0BD0000BB
:1009B00070470000B0B590F82040013C012C7DD874
:1009C000D0F800C000290CBFDCF80C40DCF8104067
:1009D000A4077DD00CF5D8754FEA011C55F80C40E2
:1009E00014F00404946055F80CE005EB011C19BFE9
:1009F0004FEADE0555604FEA5E551560DCF80050A1
:100A0000E64605F00205D5605EF8044F24075ABF9C
:100A1000DEF8004004F00F0408241461DEF8004002
:100A20000029C4F307249461DEF800504FEA15450D
:100A30005561DCF808201A70026802EB0112D2F846
:100A4000B8214FEA12225A70026802EB0112D2F862
:100A5000B8214FEA12429A70026802EB0112D2F8F2
:100A6000B8214FEA1262DA70026802EB0112D2F882
:100A7000BC211A71026802EB0112D2F8BC214FEAC4
:100A800012225A71026802EB0112D2F8BC214FEA1D
:100A900012429A71026802EB0112D2F8BC214FEAAD
:100AA0001262DA7100680CBF00F10C0100F1100154
:100AB000002020220B681A430A60B0BD00F1240117
:100AC00001204FF480220B681A430A60B0BD00BFBA
:100AD00000F1240101204FF400120B681A430A6050
:100AE000B0BD00002DE9F04F81B0044600684669B2
:100AF000D0F804908768D0F80CB0D0F810A0D0F8E7
:100B00001880F10704D1002530071DD424E000BF70
:100B1000F90710D00121BA07816009D4780700F1E4
:100B2000AF80380700F1B680204600F043FB02E0BA
:100B3000204600F041FB0025F80500F18780F8030E
:100B400000F1B180300707D51BF0100004D02068F9
:100B500045F400751021C160700708D51BF008002E
:100B600005D020680821C160204600F001FAB007D6
:100B700006D52068C068800702D0204600F0FAF948
:100B8000700607D51AF0100004D0206845F480657F
:100B900010210161B00608D51AF0080005D02068C0
:100BA00008210161204600F0D1FAF00606D5206840
:100BB0000069800702D0204600F0CAFAB00308D5C9
:100BC00019F0100005D0206810214160204600F087
:100BD000C1FAF00308D519F0080005D020680821F3
:100BE0004160204600F0F2FA300440F19B805FEA59
:100BF000497040F1948006F4807008EA1020284380
:100C00005FEA8871014648BF41F00201B20558BF52
:100C100001465FEA48700D4648BF45F0040570057F
:100C200058BF0D46300540F17A8018F0700000F092
:100C300076801038000905286CD8DFE800F00365DD
:100C40005D61596945F0080564E000BF20684FF414
:100C50008071BA0581600BD4780515D438051DD490
:100C6000204600F0ABFAF8037FF56CAF1BE000BF45
:100C7000204600F0A5FAF8037FF564AF13E000BF4B
:100C80004FF4006558E700BF05F50055F8037FF500
:100C900059AF08E04FF480554EE700BF05F5804599
:100CA000F8037FF54FAF20684FF48031BA038160BD
:100CB0000AD4780310D4380314D4204600F082FA02
:100CC00030073FF541AF47E7204600F07DFA300797
:100CD0003FF53AAF40E700BF05F5004530073FF567
:100CE00033AF39E705F5803530073FF52DAF33E7F2
:100CF00045F080050EE000BF45F020050AE000BF8A
:100D000045F0400506E000BF45F0100502E000BFD9
:100D100045F480752068816921F070018161206847
:100D20000421416055B1606A40EA050120466162D4
:100D300001B0BDE8F04FFFF73BBE00BF01B0BDE81A
:100D4000F08F0000002804BF01207047B0B50446B2
:100D500090F8200010B9204600F06EF82068016875
:100D600041F00101016000F007FD0546206841687F
:100D7000C90705D100F000FD401B0B28F6D310E099
:100D8000016821F00201016000F0F6FC054600BF99
:100D90002068416889070DD500F0EEFC401B0B2848
:100DA000F6D3606A052140F400306062012084F8C7
:100DB0002010B0BD217E0268012922F0800208BF08
:100DC00080320260617E0268012922F0400208BF81
:100DD00040320260A17E0268012922F0200208BF91
:100DE00020320260E17E0268012922F0100218BF61
:100DF00010320260217F0268012922F0080208BF38
:100E000008320260617F0268012922F0040208BFF3
:100E100004320260D4E901C2D4E9033561691A439E
:100E20002A431143ACF101021143C16100200121A9
:100E3000606284F82010B0BD10B586B0006846F638
:100E40000002C4F2000200219042CDE90411CDE974
:100E50000211019140D046F20041C4F200018842E3
:100E600040F0848040F2EC31C2F200010A6843F69F
:100E70004000C4F20200531C0B6052B900210091E3
:100E8000016841F000710160016801F0007100919A
:100E900000990021009150F8102C42F0010240F816
:100EA000102C50F8100C00F00100009000984FF446
:100EB000C05001900220CDE90201032004900920D6
:100EC00005900020C4F2020001A900F07FFB14206D
:100ED00007210022142444E043F64000C4F202003B
:100EE0000091016841F080610160016801F080615A
:100EF0000091009940F2EC31C2F200010A68531CE3
:100F00000B6052B900210091016841F0007101604D
:100F1000016801F00071009100990021009150F8E2
:100F2000102C42F0020240F8102C50F8100C00F087
:100F30000200009000984FF4405001900220CDE94B
:100F4000020103200490092005900020C4F2020051
:100F500000F5806001A900F039FB40200821002243
:100F6000402400F0C7FC204600F0B2FC06B010BDE3
:100F700070470000B0B588B040F2A001C2F2000195
:100F8000884207D040F2C801C2F20001884227D04F
:100F900008B0B0BD40F2CC15C2F2000505F108045E
:100FA00040F2A000C2F2000001AA00212346FFF790
:100FB00001FD0398002839D00299A1F51060082896
:100FC00042D801F00F0001380328E1D8DFE800F033
:100FD0000272626A40F2D420C2F200000068ACE003
:100FE00040F2CC15C2F2000505F1100440F2C80031
:100FF000C2F2000001AA00212346FFF7DBFC0398A0
:1010000000282DD00299A1F51060082836D801F0EB
:101010000F0001380328BBD8DFE800F00272626AD3
:1010200040F2D420C2F20000006986E00198A0F2EC
:1010300001200728ACD8DFE800F0054D4749454FAF
:10104000514B00BFA86978E0C1F3032003283FF6A5
:101050009FAFDFE800F00335252D00BFA86B56E0F9
:101060000198A0F2012007283FF692AFDFE800F0D8
:1010700004605A5C5862645EA86A5EE0C1F30320B3
:1010800003283FF685AFDFE800F00341313900BFA8
:10109000A86C3CE040F2D420C2F2000080684CE032
:1010A000286C34E040F2D420C2F20000C06844E072
:1010B000686C2CE040F2D420C2F2000040683CE0B2
:1010C000E86B24E0A86D38E0286A36E0686A34E00E
:1010D000686E32E0E86930E0E86D2EE0286E2CE0C2
:1010E00040F2D420C2F20000806926E0286D0EE0B4
:1010F00040F2D420C2F20000C0691EE0686D06E034
:1011000040F2D420C2F20000406916E0E86C0028EA
:101110003FF43EAF026893682246984708B0B0BDDE
:10112000A86E0AE0286B08E0686B06E0686F04E0D0
:10113000E86A02E0E86E00E0286F00283FF428AF7C
:1011400001684A682146904708B0B0BD704700006A
:101150007047000070470000B0B5044690F82000CA
:1011600001281DD1022084F820002068016821F0A8
:101170000101016000F000FB054600BF20684068E7
:10118000C00713D000F0F8FA401B0B28F6D3606AB2
:1011900040F400306062052084F820000120B0BDDA
:1011A000606A40F4002060620120B0BD00206062EF
:1011B000B0BD00007047000070470000704700009D
:1011C0007047000070470000704700007047000043
:1011D00070B5866D044600F0CFFA94F835100229F8
:1011E00028D105462068216C026822F016020260B0
:1011F000426922F08002426109B9A16C19B101680B
:1012000021F008010160016821F00101016000BFC7
:1012100020680068C00715D000F0AEFA401B062811
:10122000F6D320206065032084F83500002184F87F
:10123000341070BD802060650120002184F83410D6
:1012400070BD00BFE06D3F2101FA00F0B0600120E9
:1012500084F835000020002184F8341070BD0000AF
:1012600090F83510022909D1052180F83510006861
:10127000016821F001010160002070478021416573
:1012800001207047406D7047F0B581B0002100919A
:1012900040F20801C2F200010B68D0E9166148F281
:1012A000B51537680822C1F64E358A403A42A3FB8D
:1012B00005350CD003681C68640708D51C6824F049
:1012C00004041C60B260426D42F0010242650122DA
:1012D0008A403A4208D003685B691B0604D5B260B5
:1012E000426D42F00202426504228A403A4208D02E
:1012F00003681B689B0704D5B260426D42F004028C
:10130000426510228A403A4219D001680B681B07D7
:1013100015D5B2600B680A685B0309D4D20509D4FD
:101320000A6822F008020A60016C29B907E000BFD0
:10133000110341D4016C11B1044688472046C26DA7
:10134000202101FA02F33B4243D001680F68FF06F7
:101350003FD5B36090F835700B68052F1CD123F092
:1013600016030B604B6923F080034B61036C0BB9D0
:10137000836C1BB10B6823F008030B603F21914085
:10138000B160012180F83510016D0022002980F83C
:10139000342054D158E000BF0A685B0310D4D20552
:1013A00012D40A6822F010020A60012180F8351078
:1013B000002180F8341007E0816C0029BCD1BEE721
:1013C000110301D4416C00E0C16B11B104468847A0
:1013D0002046416DC1B3416DC9072ED0052180F86B
:1013E00035100168AA0A0B6823F001030B60009B0B
:1013F0000133934200931AD80B68DB0717D0009B88
:1014000001339342009312D80B68DB070FD0009B87
:101410000133934200930AD80B68DB0707D0009B87
:1014200001339342009302D80B68DB07DFD101211F
:1014300080F83510002180F83410C16C21B101B062
:10144000BDE8F040084700BF01B0F0BD2DE9F04114
:10145000044600F091F9ECB10546022084F835000D
:101460000020216884F83400086820F0010008603A
:1014700021680868C00711D000F07EF9401B0528DC
:10148000F6D9032520230320636584F83550BDE891
:10149000F08100BF0120BDE8F08100BF086848F27C
:1014A0003F02CFF21002D4E9013500EA020C04F148
:1014B0000C0898E8C10143EA0C032B431843D4E914
:1014C000072E304338431043626A40EA0E00042A74
:1014D00040EA08031CD1206BD4E90A2E40EA0E0032
:1014E000184308604869BEF1000F20F0030040EA8D
:1014F000020040F0040C11D0B8F5005F36D0B8F10E
:10150000000F45D1022A46D0012A3BD032B942E031
:101510000B60486920F0070040EA020C01F0F80077
:101520004AF6AB221038CAF6AA22A0FB02231A09F7
:1015300049F63853C1F814C0C0F600039A5C40F273
:10154000FF335F284FF03F0021EA030100FA02F069
:1015500088BF0431C4E916128860002301250020E9
:10156000636584F83550BDE8F08100BF032AD5D803
:10157000012540230120DFE802F0030E030500BF30
:1015800082E700BFAEF1C070B0FA80F0400904E01D
:10159000032A04D3C2D1CEF300600028BED00125B7
:1015A00040230120636584F83550BDE8F0810000D8
:1015B0007047000043F61441C4F201010A68024278
:1015C00014BF08607047FFF7F3BF00002DE9F04F2C
:1015D00083B000F1200200F13E4741F60045009241
:1015E00007F1FF77C4F2020508224FEAB726A842A6
:1015F00008BF072200254FF000084FF00009072E12
:1016000038BF4FEAB72201920AE000BF09F1010991
:1016100008F10208B9F1100F05F1040500F0A280ED
:101620000F68012202FA09FE17EA0E0AEED0D1F87D
:1016300004C003220CF003077E1E02FA08F4012EF8
:101640006FEA040B12D88468CE6804EA0B0406FA29
:1016500008F634438460446824EA0E06CCF3001490
:1016600004FA09F42643466004E000BF032F01D1C9
:1016700003271EE0C6688C6806EA0B0604FA08F425
:101680002643022FC66014D16FF00302009E02EAC7
:10169000590756F807C005F01C040F220B69A24039
:1016A0002CEA0202A3401A43F251D1F804C00CF014
:1016B0000307026807FA08F302EA0B021A431CF454
:1016C000403F0260A2D0002243F644030292C4F2DB
:1016D00002031A6843F6004442F480421A601A6812
:1016E000C4F2010402F480420292029A29F0030239
:1016F0004FF6084C2244CFF6FF7C52F80C3005F030
:101700000C070F26BE40B343019E06FA07F73B4382
:1017100042F80C30A2684B6842EA0A0743F60C4CC8
:10172000DE0258BF22EA0A07A760C4F2010CDCF807
:1017300000209E0242EA0A0758BF22EA0A07CCF8B4
:10174000007062689E0342EA0A0758BF22EA0A074D
:1017500067602268DB0342EA0A0758BF22EA0A07E9
:10176000276053E703B0BDE8F08F0000002A08BFF0
:10177000090481617047000045F6CC10C2F20000F8
:101780000068704740F2000045F6CC11C2F200003C
:10179000C2F2000100780A68104408607047000037
:1017A00080B543F60040C4F20200016841F40071C4
:1017B0000160016841F480610160016841F4807159
:1017C0000160032000F0C2F80F2000F005F800F0DF
:1017D0005DF8002080BD000070B586B0002543F69E
:1017E00040010195C4F202010A68044642F0080271
:1017F0000A60096801A801F0080101910199694690
:1018000000F066F9049E002E18BF012600F080F952
:101810004DF68361B040C4F21B31A0FB01014FF0D3
:10182000FF3000EB914140F6486040F60042C2F2C2
:101830000000C4F2000240F2E733C0E90021C0E931
:1018400002530561856100F0F9FB08B106B070BD77
:1018500040F64860C2F2000000F064FC0028F5D1B8
:10186000322000F035F80F2C0CD83220214600220F
:1018700000F040F840F204010020C2F200010C60C8
:1018800006B070BD012006B070BD000082B000201F
:1018900043F640010190C4F202014A6842F48042DA
:1018A0004A604A6802F480420192019A00900868F6
:1018B000002240F08050086008680F2100F080503E
:1018C000009000986FF0010002B000F013B8000023
:1018D000002848BF704700F01F01012202FA01F101
:1018E0001C2202EAD0004EF20012CEF20002815019
:1018F0007047000010B54EF60C5CCEF2000CDCF820
:101900000030C3F3022E8EF00704042C28BF0424F9
:10191000BEF103034FF0FF3E0EFA04F438BF00237C
:10192000A14399400EFA03F39A43114300F00F02CA
:1019300000F160430901043A03F56443624400285E
:1019400048BF02F10C03197010BD00004EF60C5197
:10195000CEF200010A684FF6FF031A4060F30A2234
:1019600042F0806040F0FD7008607047002804BFBE
:10197000012070472DE9F04143F60808C4F202083F
:101980000446D8F8F8030D4600F00700884207D255
:1019900088F8F853D8F8F80300F00700A84277D188
:1019A0002068810717D5410705D5D8F8001041F404
:1019B000E051C8F80010010705D5D8F8001041F42F
:1019C0006041C8F80010D8F80010A26821F0F001BA
:1019D0001143C8F80010C00740D1D8F8F80300F050
:1019E0000700A84207D988F8F853D8F8F80300F0A0
:1019F0000700A8424CD12068410707D5D8F800104D
:101A0000E26821F4E0511143C8F80010000708D53E
:101A1000D8F80000216920F4604040EAC100C8F80D
:101A2000000000F09DF8D8F8001049F69012C1F3BC
:101A30000311C0F60002515C40F2080220FA01F1E5
:101A400040F20400C2F200000068C2F2000211601D
:101A5000FFF7C2FE0020BDE8F08100BF6068811E74
:101A6000022907D258F8081C89015CBF0120BDE893
:101A7000F08111E0012807D158F8081C89035CBFE8
:101A80000120BDE8F08107E058F8081C890703D45D
:101A90000120BDE8F08100BFD8F8001021F003015B
:101AA0000843C8F80000FFF767FE064641F2883792
:101AB000D8F80000616800F00C00B0EB810F8CD00A
:101AC000FFF75AFE801BB842F2D90320BDE8F0812F
:101AD0000F22026043F60802C4F20202136803F008
:101AE00003034360136803F0F0038360136803F497
:101AF000E053C360D2F800C04FF4E05303EADC03C4
:101B00000361D2F8F80300F0070008607047000096
:101B100040F2080043F60801C2F20000C4F20201DC
:101B20000068096849F6A012C1F38221C0F60002DC
:101B3000515CC8407047000040F2080043F60801BD
:101B4000C2F20000C4F202010068096849F6A0125E
:101B5000C1F34231C0F60002515CC840704700003A
:101B600010B543F60404C4F20204606800F00C01EE
:101B700042F200400829C0F2F40007D0042918BF3F
:101B800010BD41F20020C0F27A0010BD216801F0C2
:101B90003F02216823684902C3F3881106D4A1FBE0
:101BA00000010023FEF778FB07E000BF41F20020B0
:101BB000C0F27A004843B0FBF2F021680222C1F380
:101BC000014102EB4101B0FBF1F010BD002804BF60
:101BD000012070472DE9F04182B00446007843F6B9
:101BE0000006C007C4F202060CD0B06800F00C007A
:101BF000042840F081803068800303D560680028A5
:101C000000F06881207880071BD5B06810F00C0FB9
:101C100009D0B06800F00C00082840F08780706898
:101C2000400200F183803068800703D5E068012816
:101C300040F050813068216920F0F80040EAC1008E
:101C400030602078000713D4207840072AD4A56993
:101C5000002D00F03A81B06800F00C00082840F038
:101C6000A580012D40F00E81012002B0BDE8F08179
:101C70006069002800F082800020C4F24720012122
:101C8000C0F8801EFFF778FD054600BF706F800723
:101C9000DAD4FFF771FD401B0228F7D9032002B008
:101CA000BDE8F081306C5FEAC0080AD400200190E2
:101CB000306C40F080503064306C00F08050019007
:101CC000019847F20007C4F200073868C00547D4FE
:101CD000386840F480703860FFF74EFD054600BF5D
:101CE0003868C0053CD4FFF747FD401B0228F7D9F0
:101CF000032002B0BDE8F081B06800F00C000828B5
:101D000003D1706840023FF576AF61683068B1F585
:101D1000803F07D0B1F5A02F40F09A8040F480209A
:101D20003060306840F4803030609AE0E06800282D
:101D300040F20000C4F247205CD001210160FFF7AF
:101D40001BFD0546306880073FF574AFFFF714FDB3
:101D5000401B0228F6D9032002B0BDE8F08100BF85
:101D6000A168306F012905D0052955D140F0040044
:101D70003067306F40F00100306756E00020C4F259
:101D800047200021C0F8801EFFF7F6FC054600BF83
:101D9000706F80077FF558AFFFF7EEFC401B0228FD
:101DA000F6D9032002B0BDE8F08100BF0027C4F2DD
:101DB000472700203866FFF7DFFC022D05460DD1CE
:101DC0003068800140F18A80FFF7D6FC401B022872
:101DD0004FF00300F4D902B0BDE8F0813068800113
:101DE00073D5FFF7C9FC401B02284FF00300F5D95B
:101DF000F1E700BF00210160FFF7BEFC054600BF10
:101E0000306880077FF51DAFFFF7B6FC401B022846
:101E10004FF00300F4D9DEE720F001003067306FA7
:101E2000002920F0040030677AD0FFF7A5FC0546B2
:101E300041F28837306F800700F18480FFF79CFC07
:101E4000401BB842F6D9032002B0BDE8F08100BFC4
:101E500020F4803030603068002920F48020306029
:101E60007AD0FFF789FC0546306880033FF5CAAE9B
:101E7000FFF782FC401B6428F6D9032002B0BDE8BE
:101E8000F08100BF7068E16900F480028A4221D1CC
:101E9000216A00F03F028A421CD147F6C071626A93
:101EA0000140B1EB821F15D1A16A4FF6FF73C90340
:101EB000994300F44032A1F580318A420AD1E16AA7
:101EC00000F07060B0EB016F04D1002002B0BDE8FB
:101ED000F08100BF012002B0BDE8F08104F11C05D3
:101EE0002FCD084340EA8210D9034FF6FF72914389
:101EF000A1F5803140EA0560084370600120386632
:101F0000FFF73AFC044600BF30688001DDD4FFF7DC
:101F100033FC001B02284FF00300F5D95BE700BF3C
:101F2000FFF72AFC054641F2883700BF306F800773
:101F300008D5FFF721FC401BB8424FF00300F5D94C
:101F400049E700BFB8F1000F3FF581AE306C20F0DB
:101F5000805030647BE600BFFFF70EFC054600BFF3
:101F6000306880037FF54EAEFFF706FC401B642807
:101F70004FF00300F4D92EE77047000070470000CF
:101F800090F83C20012A4FF0020254D010B580F89E
:101F90003D200268D2F804E0D2F808C00C682EF0A8
:101FA0007003234341F2FF74C4F20004A242536061
:101FB0000EDC40F2FF73C4F200039A4216DCB2F169
:101FC000804F2BD040F20043C4F2000324E000BF56
:101FD00040F2FF33C4F201039A4213DC41F60003DE
:101FE000C4F200039A4219D0002313E040F6000324
:101FF000C4F200039A4211D040F60043C4F2000339
:102000000AE000BF44F20003C4F201039A4205D083
:1020100040F20043C4F201039A4204D149682CF013
:102020008003194391600121002280F83D1080F85F
:102030003C20BDE81040104670470000002804BF57
:102040000120704710B5044690F83D0028B90020E3
:1020500084F83C00204600F01FF8022084F83D0080
:102060002068211D02F0F2F8012084F8460084F86F
:102070003E0084F83F0084F8400084F8410084F872
:10208000420084F8430084F8440084F8450084F852
:102090003D00002010BD000083B0006844F2000144
:1020A000C4F2010188422BD041F60001C4F20001C4
:1020B000884213D0B0F1804F1FD10020029043F628
:1020C0004000C4F20200016841F0010101600068B3
:1020D00000F001000290029803B0704700200090C9
:1020E00043F64000C4F20200016841F04001016083
:1020F000006800F040000090009803B0704700BFF7
:102100000020019043F64000C4F20200416841F40F
:1021100080314160406800F480300190019803B044
:102120007047000090F83D1001291CBF0120704746
:10213000022180F83D10006841F2FF72C168C4F2CC
:102140000002904241F00101C1600DDC40F2FF71DC
:10215000C4F20001884215DCB0F1804F2AD040F271
:102160000041C4F2000123E040F2FF31C4F201015A
:10217000884213DC41F60001C4F20001884219D004
:10218000002113E040F60001C4F20001884211D0A2
:1021900040F60041C4F200010AE000BF44F2000131
:1021A000C4F20101884205D040F20041C4F20101AD
:1021B000884206D1816801F00701062904BF00208A
:1021C0007047016841F00101016000207047000084
:1021D00090F83C20012A4FF002026CD080B580F8C4
:1021E0003D20D0F800C04FF67772DCF8083023EAC3
:1021F0000202CCF808200B684F2B29DC1F2B45DD91
:10220000202B46D0302B44D0402B40F0AF80D1F86B
:1022100004E0C968DCF82030DCF8202022F001025C
:10222000CCF82020DCF8182022F0F00242EA01115C
:1022300023F00A0242EA0E02CCF81810CCF8202053
:10224000DCF8081041F0470121F0300128E000BF20
:102250006F2B33DDB3F5005F74D0B3F5805F21D011
:10226000702B40F08380D1E901E3C968DCF80820D5
:1022700043EA0E0322F47F4243EA01211143CCF8E2
:102280000810DCF8081041F0770109E00BB1102BC1
:102290006CD1DCF8081021F07001194341F00701FE
:1022A000CCF808100022012180F83D10002180F8B0
:1022B0003C10BDE880401046704700BF502B21D035
:1022C000602B53D1D1F804E0C968DCF82030DCF889
:1022D000202022F01002CCF82020DCF8182022F474
:1022E000704242EA013123F0A00242EA0E12CCF819
:1022F0001810CCF82020DCF8081041F0670121F01C
:102300001001CDE7D1F804E0C968DCF82030DCF832
:10231000202022F00102CCF82020DCF8182022F046
:10232000F00242EA011123F00A0242EA0E02CCF85E
:102330001810CCF82020DCF8081041F0570121F0EB
:102340002001ADE7D1E901E3C968DCF8082043EAE0
:102350000E0322F47F4243EA01211143CCF8081016
:10236000DCF8081041F480419AE700BF01229AE7A7
:10237000002804BF012070472DE9F047044690F87B
:102380003D000D4628B9002084F83C00204600F0AE
:1023900049F8022084F83D00206844F20702816871
:1023A00091438160211D01F051FF20684FF6FF78B5
:1023B00081688269D0F820C0D5E9003ED5E9026A7B
:1023C00043EA0109AB6922EA080246EA03234FF611
:1023D000FC46B343D5E9076742EA0A0229691A4372
:1023E00042EA062242EA01112CF0AA026B6942EA93
:1023F0000E0241EA073142EA0312C0F808908161F7
:102400000262012084F8460084F83E0084F83F0010
:1024100084F8420084F8430084F83D000020BDE8C1
:10242000F0870000F0B587B000684FF6FF71C4F286
:10243000000188424FF000010691CDE90411CDE979
:1024400002114FDC40F20041C4F20001884200F06A
:10245000818040F60001C4F20001884240F0D38040
:10246000002543F630000195C4F2020001690027FF
:1024700041F0040101610169C4F2020701F00401A5
:10248000019101990195016802AC41F008010160D8
:102490000168022601F00801019101990195016886
:1024A00041F0020101600068214600F00200019045
:1024B00001984FF40050029007F54060CDE90365A4
:1024C000CDE90556FFF782F84020CDE90206CDE9B7
:1024D0000455069607F580602146FFF777F807B0A8
:1024E000F0BD00BF40F20041C4F20101884259D062
:1024F0000021C4F20101884240F08580002043F6AB
:1025000030010190C4F202014A6942F001024A61BD
:102510004A6902F001020192019A01900A6842F0B0
:1025200010020A60096801F01001019101994FF44D
:10253000206102910221CDE903100590012006904F
:102540000020C4F2020000F5805002A9FFF73EF817
:1025500007B0F0BD002043F630010190C4F2020143
:102560000A6942F002020A610A6902F0020201925B
:10257000019A01900A6842F001020A60096801F0BC
:10258000010101910199C02102910221CDE90310BD
:10259000CDE905010020C4F2020002A9FFF716F8F8
:1025A00007B0F0BD002043F630010190C4F20201F3
:1025B0004A6942F002024A614A6902F0020201924B
:1025C000019A01900A6842F004020A60096801F069
:1025D000040101910199C02102910221CDE903106A
:1025E0000590032006900020C4F2020000F5006070
:1025F00002A9FEF7EBFF2D2005210022FFF77AF953
:102600002D20FFF765F907B0F0BD0000704700000E
:1026100070B504460068C5680669B10716D515F09F
:10262000020113D06FF0020101610121217780695D
:10263000800703D02046FFF7E9FF05E0204600F0C1
:102640008FF8204600F0CEF900202077700719D5CA
:1026500015F0040016D020686FF00401016102211A
:102660002177806910F4407F04D02046FFF7CEFF29
:1026700006E000BF204600F073F8204600F0B2F9F3
:1026800000202077300717D515F0080014D02068F7
:102690006FF00801016104212177C069800703D030
:1026A0002046FFF7B3FF05E0204600F059F820462A
:1026B00000F098F900202077F00619D515F01000E9
:1026C00016D020686FF01001016108212177C069E0
:1026D00010F4407F04D02046FFF798FF06E000BFCB
:1026E000204600F03DF8204600F07CF900202077DD
:1026F000F00718BF15F0010002D1300609D412E02E
:1027000020686FF001010161204600F06DF930068C
:1027100009D515F0800006D020686FF080010161B6
:102720002046FFF729FC700609D515F0400006D0B9
:1027300020686FF040010161204600F05FF9B006AB
:1027400058BF70BD15F0200008D021686FF020023E
:1027500020460A61BDE87040FFF710BC70BD000064
:102760007047000090F83C30012B04BF02207047F6
:102770004FEAB202032A00F2FF802DE9F043DFE8BE
:1027800002F003B13F7F00BF036840F200461C6ABD
:102790001A6A24F0020422F001021A621A46D3F8DF
:1027A00004C052F818EF8F6843F48065C4F2010644
:1027B000B54244EA070405D1CF6824F00C0427F0A1
:1027C00004073C430F68B54206D1D1E905582CF403
:1027D00040762E4346EA080C2EF073063743C3F8C2
:1027E00004C09F614F6809695F631C629F6947F07D
:1027F00008079F619F6927F004079F61B1E000BF50
:10280000036840F200481C6A1A6A24F4007422F437
:1028100080721A621A46D3F804C052F81CEF8F680F
:1028200043F48065C4F20108454544EA072408D111
:10283000CF6840F2FF463F0224F4406427EA0606D0
:102840003443D1F80090454506D1D1E905562CF422
:1028500040572E4347EA061C2EF0730747EA090744
:10286000C3F804C0DF614F680969DF631C62DF6978
:1028700047F00807DF61DF6927F00407DF6170E0D8
:10288000036840F20045D3F820C01A6A43F4806719
:1028900022F480521A621A465C6852F81C8FD1F8F2
:1028A00000E08E68C4F20105AF4204D14D6924F402
:1028B000804444EA85142CF4005747EA063728F48C
:1028C000E64646EA0E265C60DE614E6809691E64D3
:1028D0001F62DF6947F40067DF61DF6927F4806703
:1028E000DF613DE0036840F200481C6A1A6A24F088
:1028F000200422F010021A621A46D3F804C052F8DB
:1029000018EF8F6843F48065C4F20108454544EA36
:10291000071407D1CF686FF0400624F0C00406EA20
:1029200007163443D1F80090454506D1D1E9055644
:102930002CF440672E4347EA860C2EF4E64747EA1C
:102940000927C3F804C09F614F6809699F631C622F
:102950009F6947F400679F619F6927F480679F61C3
:1029600009021368194311600021BDE8F0430022F9
:1029700080F83C20084670470121002280F83C2066
:1029800008467047002804BF0120704710B5044670
:1029900090F83D0028B9002084F83C00204600F063
:1029A0001FF8022084F83D002068211D01F04EFC34
:1029B000012084F8460084F83E0084F83F0084F843
:1029C000400084F8410084F8420084F8430084F811
:1029D000440084F8450084F83D00002010BD00004C
:1029E0007047000070470000006840F60041C4F2E4
:1029F0000001884218BF7047FEF7C4BE7047000050
:102A00007047000010B50446206850E8030F2168A5
:102A100020F4907041E80302BAB3206850E8030F35
:102A2000216820F4907041E8030272B3206850E8F6
:102A3000030F216820F4907041E803022AB3206854
:102A400050E8030F216820F4907041E80302002A47
:102A5000DAD11AE0206850E8050F216820F0010063
:102A600041E80502DAB1206850E8050F216820F03E
:102A7000010041E8050292B1206850E8050F216885
:102A800020F0010041E805024AB1206850E8050F36
:102A9000216820F0010041E80502002ADAD1206B0C
:102AA000012824D1206850E8030F216820F010008D
:102AB00041E80302DAB1206850E8030F216820F0F2
:102AC000100041E8030292B1206850E8030F21682A
:102AD00020F0100041E803024AB1206850E8030FDB
:102AE000216820F0100041E80302002ADAD12068B2
:102AF0004069400636D500BF206850E8050F2168C0
:102B000020F0400041E80502DAB1206850E8050FE6
:102B1000216820F0400041E8050292B1206850E8A9
:102B2000050F216820F0400041E805024AB1206805
:102B300050E8050F216820F0400041E80502002A16
:102B4000DAD1E06B70B100210165FEF741FB48B1BD
:102B5000E06BFEF797FB202804D11020606403206F
:102B600010BD00BF00202021E08584F842102063C2
:102B700010BD000041F24001C2F20001884218BFBE
:102B8000704780B541F24000C2F20000FFF73AFF03
:102B900040F68040C2F200000068016821F00801A0
:102BA0000160BDE880407047B0B582B001680A6836
:102BB000CC684B6902F02F05202D04F0200505D1CB
:102BC00025B102B0BDE8B04001F0F4BB5FEA027C81
:102BD0001EBF03F0010E04F4907313EB0E0341D1FA
:102BE000036BD50618D5012B16D114F0100313D0A2
:102BF000002201920A6801924A680192019A496989
:102C000049064BD4818DC28DC38D002B18BF9142D4
:102C100040F0F48102B0B0BD13062DD514F080034E
:102C20002AD090F84120212AF4D18268B2F5805F41
:102C300003D10269002A00F06782026A531C036212
:102C400012784A60C28C013A1304C284E2D1C86887
:102C500020F08000C860C86840F04000C86002B042
:102C6000B0BD00BFD30718BF14F4807340F0D0800C
:102C7000530700F1D380D8E05206CBD514F04002C0
:102C8000C8D0CA6822F04002CA60202180F84110F2
:102C900002B0BDE8B04000F037BD00BFC16B0A68AC
:102CA000526893B2002BB5D0858DAB42B2D2C285AB
:102CB000C969B1F5807F00F0A080016851E8031F69
:102CC000026821F4807142E80313DBB1016851E826
:102CD000031F026821F4807142E8031393B1016875
:102CE00051E8031F026821F4807142E803134BB1DD
:102CF000016851E8031F026821F4807142E8031360
:102D0000002BDAD1016851E8051F026821F00101AA
:102D100042E80513BBB3016851E8051F026821F0C2
:102D2000010142E8051373B3016851E8051F026809
:102D300021F0010142E805132BB3016851E8051F9A
:102D4000026821F0010142E80513002BDAD11AE0F4
:102D5000016851E8051F026821F0400142E80513AF
:102D6000DBB1016851E8051F026821F0400142E82B
:102D7000051393B1016851E8051F026821F0400175
:102D800042E805134BB1016851E8051F026821F0C4
:102D9000400142E80513002BDAD1202180F84210CF
:102DA00000210163016851E8031F026821F010014E
:102DB00042E80313DBB1016851E8031F026821F008
:102DC000100142E8031393B1016851E8031F026840
:102DD00021F0100142E803134BB1016851E8031FD1
:102DE000026821F0100142E80313002BDAD1C16B15
:102DF00004460846FEF7ECF9204602214163818D26
:102E0000C28D891A89B202B0BDE8B040FFF7F8BDA3
:102E1000436C43F001034364530706D5BEF1000F32
:102E200003D0436C43F002034364930706D5BEF11D
:102E3000000F03D0436C43F004034364BCF1000F64
:102E400006D55EEA050303D0436C43F008034364F0
:102E5000436C002B3FF4DEAE920605D525B1044647
:102E600001F0A8FA216820464969426C01F040014E
:102E700002F00802891800F0B98000BF016851E82B
:102E8000031F026821F4907142E80313BBB3016889
:102E900051E8031F026821F4907142E8031373B3F1
:102EA000016851E8031F026821F4907142E803139E
:102EB0002BB3016851E8031F026821F4907142E8C6
:102EC0000313002BDAD11AE0016851E8051F0268EC
:102ED00021F0010142E80513DBB1016851E8051F4B
:102EE000026821F0010142E8051393B1016851E83D
:102EF000051F026821F0010142E805134BB101688A
:102F000051E8051F026821F0010142E80513002B7A
:102F1000DAD1016B012924D1016851E8031F02684D
:102F200021F0100142E80313DBB1016851E8031FEF
:102F3000026821F0100142E8031393B1016851E8DF
:102F4000031F026821F0100142E803134BB101682E
:102F500051E8031F026821F0100142E80313002B1F
:102F6000DAD1202180F8421000210163016849690B
:102F7000490640F1C380016851E8051F026821F04D
:102F8000400142E80513DBB1016851E8051F026802
:102F900021F0400142E8051393B1016851E8051F93
:102FA000026821F0400142E805134BB1016851E885
:102FB000051F026821F0400142E80513002BDAD119
:102FC000C16B002900F09A8044F2A932C0F60002D9
:102FD000044608460A65FEF743F900283FF41AAE96
:102FE000E06B016D02B0BDE8B04008470446FFF752
:102FF000C1FD0020606402B0B0BD00BF891A00BFEF
:10300000026852E8032F036822F4907243E8032514
:10301000BDB3026852E8032F036822F4907243E8BC
:10302000032575B3026852E8032F036822F49072F7
:1030300043E803252DB3026852E8032F036822F406
:10304000907243E80325002DDAD11AE0026852E8B5
:10305000052F036822F0010243E80525DDB102686F
:1030600052E8052F036822F0010243E8052595B1D7
:10307000026852E8052F036822F0010243E80525A3
:103080004DB1026852E8052F036822F0010243E8BF
:103090000525002DDAD1202280F84220002202638B
:1030A000026852E8032F036822F0100243E8032568
:1030B000DDB1026852E8032F036822F0100243E8F2
:1030C000032595B1026852E8032F036822F010022D
:1030D00043E803254DB1026852E8032F036822F04C
:1030E000100243E80325002DDAD1022289B242639F
:1030F00002B0BDE8B040FFF783BC00BF02B0BDE83E
:10310000B040FFF737BD00BF026A32F8023B6FF3F1
:103110005F234B60026295E5002804BF01207047E1
:1031200010B5044690F8410028B9002084F840000A
:10313000204600F021F8242084F841002068C1686E
:1031400021F40051C160204601F0B4F92068016902
:1031500021F490410161416921F02A014161C16876
:1031600041F40051C16000202021606484F84110C6
:1031700084F84210606310BD2DE9F04387B0016808
:1031800044F6FF32C4F2000291424FF00002069270
:10319000CDE90422CDE902224CDD41F20042C4F225
:1031A0000102914200F0A48045F20000C4F2000048
:1031B000814200F0ED8044F60040C4F200008142FC
:1031C00040F0E380002043F630010190C4F2020198
:1031D0000A6942F400220A610A6902F4002201929B
:1031E000019A01900A6842F004020A60096801F03D
:1031F0000401019101994FF4406102910221CDE94E
:103200000310032005900820069040F60040C4F209
:103210000200A0F5806002A9FEF7D8F9342006214B
:103220000022FEF767FB3420FEF752FB07B0BDE833
:10323000F08300BF44F20042C4F20002914200F069
:10324000F78044F60000C4F20000814240F09D8007
:10325000002643F630000196C4F20200016940F6F0
:10326000004441F4802101610169C4F2020401F4C7
:103270008021019101990196016802AD41F002019E
:10328000016001684FF0020801F00201019101990B
:10329000019601684FF0030941F0080101600068E0
:1032A000072700F00800019001984FF44060029059
:1032B000A4F500602946CDE90386CDF81490069761
:1032C000FEF784F94FF4C050CDE9020820462946A4
:1032D000CDE904690697FEF779F92720032100223A
:1032E000FEF708FB2720FEF7F3FA07B0BDE8F083EE
:1032F0000546002643F630000196C4F202004169FB
:1033000041F020014161416901F0200101910199E1
:103310000196016841F040010160006802A900F0D7
:103320004000019001984FF4844002900220CDE9C2
:103330000306032005900820069040F60040C4F2E2
:10334000020000F54060FEF741F946F28800C4F241
:10335000020040F6804400F56870C2F200044FF0AD
:1033600020614FF4806284E843002046C4E9036290
:10337000C4E90566C4E907666662FEF767F80028D7
:1033800018BFFDF737FAEC63A56307B0BDE8F0831B
:10339000002643F630000196C4F20200016940F6AF
:1033A000004441F4801101610169C4F2020401F496
:1033B0008011019101990196016802AD41F004016B
:1033C000016001684FF0020801F0040101910199C8
:1033D000019601684FF0030941F00801016000689F
:1033E000082700F00800019001984FF480500290E7
:1033F000A4F580602946CDE90386CDF814900697A0
:10340000FEF7E4F80420CDE9020820462946CDE97C
:1034100004690697FEF7DAF8352005210022FEF749
:1034200069FA3520FEF754FA07B0BDE8F08300BF13
:103430000546002643F630000196C4F202000169F9
:1034400041F400310161016901F4003101910199F8
:103450000196016841F008010160006802A900F0CE
:10346000080001900198602002900220CDE9030637
:10347000032005900720069040F60040C4F20200A9
:10348000FEF7A4F840F6204446F28800C2F2000499
:10349000C4F202004FF000614FF4806284E8430000
:1034A0002046C4E90362C4E90566C4E907666662AA
:1034B000FDF7CCFF002818BFFDF79CF92620052159
:1034C0000022EC63A563FEF715FA2620FEF700FA4A
:1034D00007B0BDE8F083000090F84230202B07D100
:1034E00000294FF0010318BF002A05D11846704784
:1034F00002231846704700BF002303638162222124
:103500008285C285436480F842100169006819B160
:10351000C16841F48071C160416941F001014161BC
:10352000C16841F02001C16018467047F0B581B014
:1035300040F24425C2F200052968012918DB04463F
:10354000002602E001368E4212DA05EB8607786823
:103550004268A242F6D10268017A12689047786800
:10356000012200F108012046FFF7B6FF2968E9E7CC
:1035700001B0F0BD2DE9F04381B0044690F8410060
:10358000202809D100294FF0010018BF002A07D1D7
:1035900001B0BDE8F08300BF022001B0BDE8F083B8
:1035A0000020606421201D460E4684F84100174625
:1035B000FEF7E2F8A784E784A1688146B1F5805F51
:1035C00002D1206900285DD037460020E28C2168B6
:1035D000002A5DD06A1C24D0002D4AD0804600BF4E
:1035E0000868000608D4FEF7C7F8A0EB0900A84257
:1035F0007AD82168C868F3E717B117F8010B04E01F
:1036000038F8020B00276FF35F204860E08C013828
:10361000E084E08C0028E3D13AE000BF0A6812069B
:1036200009D40A68120606D40A6812065CBF0A6842
:103630005FEA0262F2D51FB117F8012B05E000BF67
:1036400030F8022B00276FF35F224A60E28C013AC8
:10365000E284E28C002AE4D11AE000BF30F8022BA9
:1036600000276FF35F224A60E28C013AE284E28C29
:1036700072B10A68120635D5002FEFD017F8012B6A
:10368000F1E700BF00273046E28C2168002AA1D173
:10369000086840061ED42DB3681C14D10868400683
:1036A0002AD40868400627D40868400624D408684D
:1036B00040064FF00000F1D50DE000BF2068C16862
:1036C0000068400618D4FEF757F8A0EB0900A8429E
:1036D000F4D909E00020202184F8411001B0BDE8B0
:1036E000F08300BFFEF748F80320202184F8411042
:1036F00001B0BDE8F08300BF0020202184F8411014
:1037000001B0BDE8F083000070470000FEE7000054
:1037100080B540F2880046F20041C2F20000C4F2D7
:10372000000140F8181F03210022C0E9011200F136
:103730000C014FF400234FF4401C4FF0012E81E8A0
:103740000C508283FDF7FEFA002808BF80BDBDE85B
:103750008040FDF74FB8000080B540F2880046F683
:103760000001C2F20000C4F2000140F8401F032132
:103770000022C0E9011200F10C014FF400234FF4C4
:10378000401C81E80C104FF480710183C0F81A20AE
:10379000FDF7D8FA002808BF80BDBDE88040FDF7DE
:1037A00029B8000080B582B0002043F630010190B6
:1037B000C4F202010A6842F400120A600A6802F4C4
:1037C00000120192019A00900868002240F48000E3
:1037D00008600868072100F480000090009810201D
:1037E000FEF788F81020FEF773F839200521002233
:1037F000FEF780F8392002B0BDE88040FEF768B8D7
:103800002DE9F04387B0002743F630000697CDE955
:103810000477CDE902770197C4F20200016841F212
:10382000004541F0100101600168C4F2020501F099
:1038300010010191019901970168002241F00401F2
:10384000016001681E2601F00401019101990197B0
:10385000016841F020010160016801F0200101913F
:1038600001990197016841F080010160016801F050
:103870008001019101990197016841F00101016006
:10388000016801F00101019101990197016841F07E
:1038900002010160016801F00201019101990197A3
:1038A000016841F008010160016801F0080101911F
:1038B00001990197016841F04001016000681E21F3
:1038C00000F04000019001982846FDF74FFFA5F554
:1038D000406420460F2100224FF00F08FDF746FFFD
:1038E000029602AE4FF0010928463146CDE9039712
:1038F0000597FDF76BFE402002904FF48810CDE94C
:10390000030728463146FDF761FE20463146CDE9E2
:103910000289CDE90477FDF759FE17200021002226
:10392000FDF7E8FF1720FDF7D3FF07B0BDE8F083F0
:10393000B0B592B041F6000540F62850C4F200053B
:103940000021C2F200004FF6FF720B91CDE9091180
:103950000791CDE90511CDE90311CDE90111C0E9C8
:103960000051C0E9021201618161FEF767FB002886
:1039700018BFFCF73FFF4FF48050089040F62850E6
:10398000C2F2000008A9FEF723FC002818BFFCF7CC
:1039900031FF40F62850C2F20000FEF7F3FF002886
:1039A00018BFFCF727FF602001900020CDE902003E
:1039B000059040F62850C2F2000001A90022FEF74F
:1039C000D1FE002818BFFCF715FF40F62854C2F2BC
:1039D000000401A920460422FEF7C4FE002818BFF7
:1039E000FCF708FF216844F20002C4F20102002043
:1039F0009142CDE91000CDE90E000D902ED0A942E4
:103A000016D0B1F1804F45D10C9043F63000C4F28E
:103A10000200016841F0010101600068012100F02D
:103A200001000C900C980F200D9005F5F43028E063
:103A30000C9043F63000C4F20200016841F002012C
:103A400001600068092100F002000C900C984FF40E
:103A500040400D9005F5F63013E000BF0C9043F6A2
:103A60003000C4F20200016841F0100101600068FA
:103A7000032100F010000C900C9860200D9005F5CB
:103A8000FC3002220E92002211910DA9CDE90F22E5
:103A9000FDF79CFD12B0B0BD10B58CB040F6E04013
:103AA00000210024C2F20000C4F20101C0E90014A8
:103AB0000321CDE9031401214FF6FF72CDE905146E
:103AC000CDE9091403A9CDE90044C0E90242C0E9E7
:103AD00004448461CDE907440B94FEF749FC0028B7
:103AE00018BFFCF787FE40F6E040C2F200006946CE
:103AF000CDE90044FEF744FA002818BFFCF77AFE2F
:103B00000CB010BD10B594B040F670500021C2F258
:103B100000004FF08042072340F2E7340D91CDE9D9
:103B20000B110991CDE90711CDE90511CDE903117B
:103B3000CDE90111C0E90023C0E9021401618161EE
:103B4000FEF77CFA002818BFFCF754FE4FF48050B3
:103B50000A9040F67050C2F200000AA9FEF738FB46
:103B6000002818BFFCF746FE40F67050C2F2000075
:103B7000FEF708FF002818BFFCF73CFE40F6705027
:103B80000024C2F2000008A9CDE90844FEF7F8F9C4
:103B9000002818BFFCF72EFE6020CDE9010440F696
:103BA0007050C2F2000001A9002203940594FEF7B0
:103BB000D9FD002818BFFCF71DFE40F67050C2F278
:103BC000000001A90422FEF7CDFD002818BFFCF774
:103BD00011FE40F67050C2F2000001A90822FEF763
:103BE000C1FD002818BFFCF705FE40F67054C2F274
:103BF000000401A920460C22FEF7B4FD002818BFDE
:103C0000FCF7F8FD216844F20002C4F20102002032
:103C10009142CDE91200CDE910000F9038D041F665
:103C20000000C4F20000814218D0B1F1804F4ED1A3
:103C300000200E9043F63000C4F20200016841F00B
:103C4000010101600068012100F001000E900E9852
:103C50000F200F900020C4F202002FE000200E90F1
:103C600043F63000C4F20200016841F00201016035
:103C70000068092100F002000E900E984FF44040B9
:103C80000F900020C4F2020000F5806016E000BF33
:103C90000E9043F63000C4F20200016841F01001BA
:103CA00001600068032100F010000E900E98602063
:103CB0000F900020C4F2020000F580500222109202
:103CC000002213910FA9CDE91122FDF77FFC14B05A
:103CD00010BD000080B58CB040F6B85040F20042F4
:103CE0000021C2F20000C4F20002C0E90021032258
:103CF0004FF6FF73CDE903210122CDE90011C0E9A0
:103D0000021301618161CDE90521CDE90711CDE9FA
:103D100009210B9103A9FEF72BFB002818BFFCF724
:103D200069FD40F6B850C2F200006946FEF728F976
:103D3000002818BFFCF75EFD0CB080BD80B58CB0CC
:103D400040F6006040F600020021C2F20000C4F21A
:103D50000002C0E9002103224FF6FF73CDE90321E1
:103D60000122CDE90011C0E9021301618161CDE9B1
:103D70000521CDE90711CDE909210B9103A9FEF732
:103D8000F7FA002818BFFCF735FD40F60060C2F2D4
:103D900000006946FEF7F4F8002818BFFCF72AFD7A
:103DA0000CB080BD10B58CB040F6906040F2004180
:103DB0000024C2F20000C4F20101C0E90014032192
:103DC000CDE9031401214FF6FF72CDE90514CDE9C9
:103DD000091403A9CDE90044C0E90242C0E9044442
:103DE0008461CDE907440B94FEF7C2FA002818BF9E
:103DF000FCF700FD40F69060C2F200006946CDE994
:103E00000044FEF7BDF8002818BFFCF7F3FC0CB027
:103E100010BD0000B0B592B044F2000540F6D86085
:103E2000C4F201050021C2F200004FF6FF720B91AF
:103E3000CDE909110791CDE90511CDE90311CDE9CE
:103E40000111C0E90051C0E9021201618161FEF770
:103E5000F5F8002818BFFCF7CDFC4FF4805008900F
:103E600040F6D860C2F2000008A9FEF7B1F90028B8
:103E700018BFFCF7BFFC40F6D860C2F20000FEF7A6
:103E800081FD002818BFFCF7B5FC602001900020E0
:103E9000CDE90200059040F6D860C2F2000001A909
:103EA0000022FEF75FFC002818BFFCF7A3FC40F6D9
:103EB000D864C2F2000401A920460422FEF752FC95
:103EC000002818BFFCF796FC21680020A942119039
:103ED000CDE90F000E900D9034D041F60000C4F2F1
:103EE0000000814218D0B1F1804F47D100200C90E2
:103EF00043F63000C4F20200016841F001010160A4
:103F00000068012100F001000C900C980F200D902A
:103F100005F5404029E000BF00200C9043F630003A
:103F2000C4F20200016841F0020101600068092149
:103F300000F002000C900C984FF440400D9005F5F5
:103F4000444012E00C9043F63000C4F202000168D5
:103F500041F0100101600068032100F010000C9096
:103F60000C9860200D9005F5504002220E92002220
:103F700011910DA9CDE90F22FDF728FB12B0B0BDBC
:103F800080B540F6B07044F60041C2F20000C4F2C1
:103F9000000100234FF00C0C4FF4E13280E80E00DA
:103FA000C0E90333C0E905C3C361FFF7B5F80028D2
:103FB00008BF80BDBDE88040FCF71CBC80B540F662
:103FC000F87045F20001C2F20000C4F200010023C3
:103FD0004FF00C0C4FF4E13280E80E00C0E90333DF
:103FE000C0E905C3C361FFF797F8002808BF80BD8B
:103FF000BDE88040FCF7FEBB80B540F6207044F27F
:104000000041C2F20000C4F2000100234FF00C0C8A
:104010004FF4E13280E80E00C0E90333C0E905C384
:10402000C361FFF779F8002808BF80BDBDE8804074
:10403000FCF7E0BB80B540F6687044F60001C2F2C0
:104040000000C4F2000100234FF00C0C4FF4407E3E
:104050004FF4E13280E80E00C0E90333C0E905CE39
:10406000C361FFF759F8002808BF80BDBDE8804054
:10407000FCF7C0BB80B541F2400041F20041C2F202
:104080000000C4F2010100234FF00C0C4FF4E132A8
:1040900080E80E00C0E90333C0E905C3C361FFF740
:1040A0003BF8002808BF80BDBDE88040FCF7A2BBFC
:1040B000FEE70000FEE70000000000000000000036
:1040C000EFF30980BFF36F8F154B1A681EF0100FC6
:1040D00008BF20ED108A20E9F04F10602DE909009B
:1040E0004FF0500080F31188BFF34F8FBFF36F8FF5
:1040F00004F0A8F84FF0000080F31188BDE8090033
:1041000019680868B0E8F04F1EF0100F08BFB0EC57
:10411000108A80F30988BFF36F8F704700BF00BF1C
:10412000F00000200000000000000000000000007F
:10413000074B19680868B0E8F04F80F30988BFF3AF
:104140006F8F4FF0000080F31188704700BF00BFF1
:10415000F000002080B54EF21000CEF200000068A2
:1041600004F05AFD012808BF80BDBDE8804004F07E
:1041700093B9000070B592B006AC20463021FCF730
:10418000A4F9002543F640000595CDE90355CDE996
:1041900001550095C4F202000168022641F08051E9
:1041A0000160006800F080500090009847F2000025
:1041B0000095C4F20000016841F48041016000688C
:1041C00000F4804000900098012006904FF4803069
:1041D00007904FF480000D9008200E904FF4A870C7
:1041E000CDE90F060420119020460C96FDF7EEFC59
:1041F00010B172B6FEE700BF0F20CDE901064FF403
:10420000A05004904FF48050059001A8052103951B
:10421000FDF7ACFB10B172B6FEE700BF12B070BD87
:104220004EF68850CEF20000016841F47001016042
:104230007047000040F64860C2F20000FEF7E8B99F
:1042400040F69060C2F20000FEF7E2B910B540F609
:10425000FF3E0368C4F2000E40F2004C7045C4F209
:10426000010C25DCB0F1804F2FD040F20042C4F2A7
:104270000002904229D040F60002C4F200029042AF
:1042800023D041F6FF72C4F20002904227DC704551
:104290003ADCB0F1804F5BD040F20042C4F2000241
:1042A000904255D040F60002C4F200024EE000BF3A
:1042B00040F60042C4F20002904206D0604504D0AD
:1042C0000022C4F201029042DBD14A6823F070035D
:1042D000134341F6FF72C4F200029042D7DD43F669
:1042E000FF72C4F20102904220DC42F20002C4F2EA
:1042F000000290422CD00022C4F20102904227D04A
:10430000604525D028E000BF40F60042C4F200021C
:1043100090421DD041F60002C4F20002904217D034
:1043200041F60042C4F2000210E000BF44F2000275
:10433000C4F2010290420BD044F60002C4F2010222
:10434000904205D044F20042C4F20102904203D1EF
:10435000CA6823F44073134323F080024B69D1F8F9
:1043600000E08C681A430260C46240F48062C0F8C6
:1043700028E0624504BF09690163012141610169C7
:10438000C90708BF10BD016921F00101016110BD1D
:1043900040F6B070C2F20000FEF706BC40F6F870BE
:1043A000C2F20000FEF700BC806B0021C185C18411
:1043B000FEF7E0BB81B090F84210222921D183683A
:1043C0000246B3F5805F09D152F8281F52F8183C15
:1043D000002B63D003685B680AE000BF52F8281F17
:1043E00013B90369002BF5D003685B6803F07F0302
:1043F0000B70116801311160C18D01390A04C1854A
:1044000002D001B0704700BF0168CA6822F02002E4
:10441000CA60CA6822F48072CA604A6922F0010246
:104420004A61202180F8421000214163026B012A79
:104430003CD10163016851E8031F026821F01001BB
:1044400042E80313DBB1016851E8031F026821F061
:10445000100142E8031393B1016851E8031F026899
:1044600021F0100142E803134BB1016851E8031F2A
:10447000026821F0100142E80313002BDAD1016831
:104480000A68D20606D5002200920A68009249689E
:1044900000910099818D01B0FEF7B2BA02685268AE
:1044A0006FF35F2221F8022B8162A5E701B0FFF7CD
:1044B0003DB80000B0B50446006804F108030ECB17
:1044C0000569194325F440552A4302616269E3698D
:1044D0001143C268194349F20C639A431143C16006
:1044E0004169A26921F4407141F20043114340F453
:1044F0008062C4F201039A42416103D1FDF71CFBC3
:1045000002E000BFFDF704FBE1694FF69C756368AC
:104510001922C0F6FF75B1F5004FA0FB02011FD1B3
:104520005A00DB0FFBF7B8FE48F21F51C5F2EB1142
:10453000A0FB01235A0905F1805302FB030032233B
:1045400003EBC000A0FB01014FF4F87000EA11106A
:1045500000EB0210C1F34211084421688860B0BD2D
:104560009A009B0FFBF798FE48F21F51C5F2EB1122
:10457000A0FB01235A0902FB0500322303EB0010C4
:10458000A0FB0101F02000EA511000EB0210C1F382
:104590004311084421688860B0BD000040F62070D7
:1045A000C2F20000FEF700BB40F66870C2F20000E5
:1045B000FEF7FABAFEE700002DE9F04381B040F2C1
:1045C000F4354FF00008C2F200054FF018094FF41F
:1045D000A06700242E1906F11400502145F804802C
:1045E000C6F80C90FBF771FF6C34B4F5876FB766B3
:1045F000F0D101B0BDE8F08370B52DED0C8B82B029
:1046000041F2741440F2C8059FED84AA9FED84BA6C
:104610009FED84CA9FED848A9FED84DAC2F2000484
:10462000C2F20005B0EE089A204604212A46012372
:10463000B0EE4A0AF0EE490AB0EE4A1AF0EE4B1A12
:10464000B0EE4C2AF0EE482AB0EE4D3A01F0F6FBFF
:1046500041F24C30C2F2000001212A460123B0EEA3
:104660004A0AF0EE490AB0EE4A1AF0EE4B1AB0EEE2
:104670004C2AF0EE482AB0EE4D3A01F0DFFB41F251
:104680008800C2F2000002212A460123B0EE4A0A45
:10469000F0EE490AB0EE4A1AF0EE4B1AB0EE4C2A90
:1046A000F0EE482AB0EE4D3A01F0C8FB41F260202E
:1046B000C2F2000003212A460123B0EE4A0AF0EEBE
:1046C000490AB0EE4A1AF0EE4B1AB0EE4C2AF0EE60
:1046D000482AB0EE4D3A01F0B1FB40F27025C2F22B
:1046E0000005281D00F0E6F9284600F0FFFC40F226
:1046F000A00546F22010C2F200051526C2F2000005
:1047000002212A460023B0EE490AF0EE480AB0EE34
:10471000481AF0EE481AB0EE482A009600F07CFFE6
:1047200046F25020C2F2000004212A460023B0EED7
:10473000490AF0EE480AB0EE481AF0EE481AB0EE18
:10474000482A009600F068FF46F28800C2F2000096
:1047500003212A460123B0EE490AF0EE480AB0EEE2
:10476000481AF0EE481AB0EE482A009600F054FFBE
:1047700046F2B810C2F2000001212A460023B0EE32
:10478000490AF0EE480AB0EE481AF0EE481AB0EEC8
:10479000482A009600F040FF40F6802040F6207145
:1047A000C2F20000C2F20001002200F00FFC41F250
:1047B000384040F6B071C2F20000C2F2000100229F
:1047C00000F004FC40F21C35C2F2000540F66871AE
:1047D000C2F200012846B0EE480AF0EE480A002274
:1047E00001F016FA41F628309FED110ADFED110AAB
:1047F000C2F20000294601F0B1FC00F1140640F6B7
:104800002C0004F12401C2F20000002200230096D3
:1048100000F000FA02B0BDEC0C8B70BD0000AC42A1
:10482000000061436666264000000000EC51B83E7F
:104830009F3C8C3E0681153D70B540F2CC15C2F20E
:1048400000052978044629B3002600BF05EB860041
:10485000806901680968884700BA04EB4601000CCA
:10486000A1F84400287801368642EFD34FF4007057
:10487000214641F8140F40F2A00001F1300201F18D
:104880004003C2F20000FBF7D1FF012804BF012062
:1048900084F85C00287928B3002600BF05EB860069
:1048A000806D01680968884700BA04EB4601000C76
:1048B000A1F84400287901368642EFD340F2FF1078
:1048C000214641F8140F40F2A00001F1300201F13D
:1048D0004003C2F20000FBF7A9FF012804BF01203A
:1048E00084F85C00687828B3002600BF05EB8600DA
:1048F000806A01680968884700BA04EB4601000C29
:10490000A1F84C00687801368642EFD34FF400706E
:10491000214641F82C0F40F2C80001F1200201F1BC
:104920002C03C2F20000FBF781FF00281CBF01200E
:1049300084F85C00687928B3002600BF05EB860088
:10494000806E01680968884700BA04EB4601000CD4
:10495000A1F84C00687901368642EFD340F2FF108F
:10496000214641F82C0F40F2C80001F1200201F16C
:104970002C03C2F20000FBF759FF00281CBF0120E6
:1049800084F85C000020C4E91100C4E9130070BD84
:1049900080B58AB00020CDE90500CDE90000CDE961
:1049A000020004900E200121099040F2A000CDE900
:1049B0000711C2F200006946FBF78AFF002818BF02
:1049C000FBF718FF40F2A000C2F20000FCF7C4FBA6
:1049D000002818BFFBF70EFF40F2A000C2F2000053
:1049E0000221FBF70BFF002818BFFBF703FF40F283
:1049F0008800C2F20000002104220823C0E901124D
:104A0000C0E9031301750AB080BD000080B58AB00B
:104A10000E2005900021099040F2C8000691012265
:104A2000CDE90011CDE902110491C2F200006946FE
:104A3000CDE90722FBF74CFF002818BFFBF7DAFE91
:104A400040F2C800C2F20000FCF786FB002818BF45
:104A5000FBF7D0FE40F2C800C2F200000221FBF7D3
:104A6000CDFE002818BFFBF7C5FE40F28800C2F259
:104A70000000002104220823C0E90112C0E9031349
:104A800001750AB080BD000080B5FFF781FFFFF718
:104A9000BDFF40F2A000C2F200000221FBF7AEFE13
:104AA00040F2C800C2F200000221BDE88040FBF7DE
:104AB000A5BE000049F6A832C0F600023021083237
:104AC0000171002102600822C0F80510C0F8091029
:104AD000C0F80D100161C0E91111C0E91311C0E95E
:104AE000151180F85C10C0E90711426280F82810A7
:104AF0004161C0E90D11C26380F84010C162704786
:104B0000602102F0D8B90000B0B500F19C01044664
:104B100000F0E2FD04F18001204600F0DDFD2046BA
:104B200000F034FE94F8380200250128C4F248351C
:104B30001DD143F23330C4F20310C4E902004CF635
:104B4000CD40C4F24C006061D4F8400294ED150AE7
:104B500094ED161A0168C4F83C5230EE410A9FEDFC
:104B6000271A496820EE010A884794F8380238B1BC
:104B7000022811D19FED240A9FED241A04E000BF02
:104B80009FED1F0A9FED1F1A84ED021A84ED031A90
:104B900084ED050AC4F83C52D4F84C02012101F01E
:104BA000B7F994ED110A94ED121A20EE002A21EEC5
:104BB000013A33EE022AB1EEC22A9FED156A0021B6
:104BC00094ED023A94ED034A94ED055A24EE000A5E
:104BD00061EE430AB4EE462A84ED942AF1EE10FA0F
:104BE000C8BF0121D4F84C0294ED132A80F8E410D8
:104BF00025EE421ABDE8B04001F08CB900004843F0
:104C0000CDCC8C3FCDCC8C4052B87E40295C1F412E
:104C10009A99193E2DE9F041B7EE080A9FED251A41
:104C200014460E46DDF8188000210022F0EE400AFE
:104C30001D46002700F0B8FE302180F8281249F602
:104C4000BC31C0F6000101F108022831C0E98F76BD
:104C500000F11A0300F11B060260C0F8241200F5EF
:104C60000E710122C0E99154C0E92036022300F1FF
:104C70001E0600F11F05C0F82972C0F82D72C0F899
:104C80003172C0F8347280F83822C0E99387C0F8D6
:104C9000881080F88C30C0E92427C0E92676C0E966
:104CA000285180F8A830C0E92B37C0F8B470BDE8AF
:104CB000F08100BF666666404FF4157102F0FBB8E4
:104CC0007047000070B5054600F59C764FF6FC3045
:104CD00095F8AC10A5F8380195F8AF0085F83A01C1
:104CE00085F83B1149B3042901F0030E02D20022DA
:104CF0000CE000BF01F0FC03002200BFA818D0F8B0
:104D0000F44004329342C0F83C41F7D1BEF1000FA9
:104D100013D005F1F403985C02EB060CBEF1010F11
:104D20008CF8040009D01A445078BEF1020F8CF8B8
:104D300005001CBF90788CF8060005F1F400FBF725
:104D4000D7FC95F8AC10A5F834018C192071000A35
:104D500060714FF6FD6C686801F1080231464FF052
:104D6000FF33A4F806C0BDE87040FEF703BC0000A6
:104D7000D0F89821042A07DC00EB820C531CC0F801
:104D80009831CCF8841148600020052AB8BF012072
:104D9000704700002DE9F04782B0044690F89C016E
:104DA000082800F20D81DFE800F00545252D11519E
:104DB00059396100FC293AD1012084F89C01FC207A
:104DC00084F8210002B0BDE8F08700BF94F88001AC
:104DD00094F8202023180130C7B2974284F880014C
:104DE00083F8261023D3052084F89C0102B0BDE887
:104DF000F08700BF84F82310032084F89C0102B0E0
:104E0000BDE8F087002084F8201084F88001042099
:104E100084F89C0102B0BDE8F08700BFFD2940F096
:104E2000CF80082084F89C01FD2084F8AA0002B0FD
:104E3000BDE8F087FB2940F0C380022084F89C0184
:104E4000FB2084F8220002B0BDE8F08784F8A810A7
:104E5000062084F89C0102B0BDE8F08784F8A91010
:104E6000072084F89C0102B0BDE8F087FE2940F0DD
:104E7000A78094F8811194F82080FE20002984F8FE
:104E8000AB0058D004F1260630464146FBF730FC13
:104E9000B4F8A810A084884247D194F82080B8F1D3
:104EA000000F20D0B8F1040F08F0030002D2002157
:104EB0000AE000BF08F0FC0200216318D3F8267056
:104EC00004318A429F66F8D168B1735C04F16802CC
:104ED0000128535407D04B1CF75C0228D75402D04A
:104EE000881C315C1154D4F8981101291ADB94F80C
:104EF000239004F1680704F5C27A002603E000BF9E
:104F000001368E420EDA5AF826000028F8D00168E1
:104F100042468D6849463B460097A847D4F8981109
:104F2000EEE700BF002084F89C0194F8810100287E
:104F300046D194F82080B8F1000F23D0B8F1040FC7
:104F400008F0030002D200210BE000BF08F0FC02D1
:104F5000002100BF6318D3F8267004318A429F668F
:104F6000F8D178B104F12602575C04F168030128F6
:104F70005F5407D04F1CD65D0228DE5502D0881C36
:104F8000115C1954D4F89811012919DB94F8239075
:104F900004F1680704F5C27A002602E001368E4269
:104FA0000EDA5AF826000028F8D0016842468D68CB
:104FB00049463B460097A847D4F89811EEE700BF52
:104FC000002084F89C0102B0BDE8F08770B515465A
:104FD000044600F0D5F83020207449F6F030C0F6D1
:104FE000000000F10801203000262160E06004F19B
:104FF00068004021C4F81160C4F81560C4F8196055
:10500000E66184F8206084F82360A684FBF75DFAEB
:1050100004F1F400402184F8AC6084F8AF60A4F897
:10502000B060FBF752FA204684F8806184F8815121
:10503000C4E96166C4E96366C4E9656684F89C6195
:1050400070BD00004FF4D07101F035BF7047000013
:1050500040F2F431C2F200016C2200FB021404F1B0
:10506000140502E0206901F069FF606E0128F9DB98
:10507000002603E0606E01368642F3DA55F826001A
:105080000028F7D0016809688847F3E7092988BF35
:10509000704770B58AB040F2F430C2F200006C2361
:1050A00001FB0306706E13281CDC06EB80004261D6
:1050B0003068A0B901AC20460D462421FBF705FA63
:1050C000301D0190B06EF1682246CDE9060145F22F
:1050D0005100C0F60000294601F072FF3060706E8A
:1050E000013070660AB0BDE87040704770B540F29C
:1050F000F43C46F274134FF0000EC2F2000CC6F6F8
:1051000073335F21002200240CEB02056C3244F063
:105110003006B2F5876F04F101046B6029726E727C
:1051200085F80AE0F0D130210122CCE903122021D8
:105130000223CCE91E130523CCE939131821CCE94D
:1051400054130A23CCE96F131021CCE98A130F23DF
:10515000CCE9A5130821CCE9C0131423CCE9DB1357
:10516000CCE9F62370BD00007047000070470000D6
:10517000426800F1080110460122FEF7ADB90000B7
:1051800080B540F2442EC2F2000E49F61C4CDEF807
:105190000030C0F6000C0CF10802092BC0E9002118
:1051A000C8BF80BD591CCEF800100EEB83014860CB
:1051B00080BD0000B0B52DED108BB0EE628AB0EE70
:1051C000429AB0EE61AAB0EE41CAB0EE60BAB0EE5B
:1051D00040DA044601F03EF9083001F03BF904F1F1
:1051E000100001F037F904F1180001F033F904F16F
:1051F000200001F02FF904F1280001F02BF904F14F
:10520000300001F027F904F1380001F023F904F12E
:10521000400001F01FF904F1480001F01BF90025DE
:1052200004F15800C4E9145501F014F945F6294079
:10523000C3F68F6020664FF08340C4E91A5004F132
:10524000740084F86450A4F8705000F03BF89FEDAF
:1052500018EA9FED19FADFED198A9FED162A04F17D
:10526000C400B0EE4D0AF0EE4C0AB0EE4B1AF0EE70
:105270004E1AF0EE4F2AB0EE683AC4F8C05000F073
:1052800045F99FED0F2A04F58470B0EE4A0AF0EE5E
:10529000490AB0EE481AF0EE4E1AF0EE4F2AB0EE80
:1052A000683A00F033F92046BDEC108BB0BD00BF6A
:1052B0000000C8427B14EE3F9A99194100006042F9
:1052C000CDCC0C4010B544210446FBF7FEF84FF05E
:1052D000FF3100222046C4E9111210BDFEDE00009D
:1052E000704700007047000090ED031A90ED002A0F
:1052F00031EE401A90ED0C0AB5EE401AF1EE10FABC
:10530000B0EE416AB4EE401A90ED073A90ED0A5AB9
:105310009FED434AC8BFB0EE446AF1EE10FAB8BF41
:10532000B0EE461AB1EE400AB5EE401AF1EE10FAB0
:10533000B0EE416AB4EE401AB8BFB0EE446AF1EE86
:1053400010FAC8BFB0EE461A21EE020A90ED0E2AFE
:1053500031EE036AB1EE423AB4EE431A80ED0F1A11
:1053600080ED060AF1EE10FAB8BFB0EE446AB4EE72
:10537000421AF1EE10FAC8BFB0EE446AB4EE456AC4
:10538000B0EE462AB1EE454AF1EE10FAC8BFB0EED3
:10539000452AB4EE442AF1EE10FAB0EE423AB4EEE9
:1053A000456AB8BFB0EE443AF1EE10FA80ED076AF4
:1053B00008DCB4EE442AF1EE10FAB8BF80ED073AEB
:1053C00002E000BF80ED073A90ED014A90ED086AD7
:1053D00090ED025A23EE043A31EE464A90ED0B2A44
:1053E00024EE054A33EE000A30EE040AB4EE420A17
:1053F000F1EE10FA80ED043A80ED054A80ED081ACE
:1054000080ED090A07DCB1EE422AB4EE420AF1EE61
:1054100010FAA8BF7047B0EE420A80ED092A704723
:105420000000000090ED0C1AB5EE400AF1EE10FA03
:10543000B0EE403AB4EE401A9FED332AC8BFB0EE4A
:10544000423AF1EE10FAC8BFB0EE430AB1EE411A8B
:10545000B5EE400AF1EE10FAB0EE403AB4EE410A71
:10546000B8BFB0EE423AF1EE10FAC8BFB0EE430A50
:1054700090ED0E6A90ED001A90ED075AB1EE467A63
:1054800090ED013A20EE011A30EE055AB4EE470ACB
:1054900080ED0F0A90ED024A80ED061AF1EE10FA47
:1054A000B8BFB0EE425AB4EE460AF1EE10FAC8BFE9
:1054B000B0EE425A25EE032A90ED083A80ED080A34
:1054C00030EE433A23EE043A32EE010A90ED0B1A25
:1054D00030EE030AB4EE410AF1EE10FA80ED075AFD
:1054E00080ED042A80ED053A80ED090A07DCB1EE73
:1054F000411AB4EE410AF1EE10FAA8BF7047B0EEBF
:10550000410A80ED091A704700000000002100F1F7
:10551000280280EC030AC0E90311C0E90511C0E9C3
:1055200007114162C2EC031A4163C0E90F1180ED1B
:105530000E3A704770470000182101F0BCBC000013
:105540000A68898812BA00EE102A90F82C20B8EE6A
:10555000C00A01EE102AB8EE411A80EE010AC9BA5B
:1055600001EE101A9FED052AB8EEC11A21EE021ABB
:1055700080ED221A80ED210A704700BFCDCCCC3DD2
:1055800080B582B0D0F88C20D2B190F83410437A34
:10559000002903F540714FF0000318BF5242CDE9D6
:1055A0000033130E8DF80030130C8DF80130130A00
:1055B000C0F8902081638DF802308DF803200DE053
:1055C0000022417A01920022C7F2170201F5007110
:1055D000009241F270728163C0F894206B46012200
:1055E00000F040FF02B080BD90ED210A704700003E
:1055F00090ED0A1A90F82C1021EE000A01EE101A14
:10560000B8EE411A80ED200A20EE010ABDEEC00A74
:1056100080ED230A70470000F0B581B02DED088BB6
:105620001D460B460E9F0321B0EE618AB0EE419AF3
:10563000B0EE60AAB0EE40BA044600F02BFF302076
:10564000207449F65040C0F6000000F108012160C6
:1056500000F130014430DFED1A1A9FED1A2A9FED58
:105660001A3A0026206204F13C00F3EE042AB0EE60
:105670004A0AF0EE490AB0EE481AC4F81160C4F8BC
:105680001560C4F81960E66184F82460E16084ED77
:105690000ABA84F82C70266384F83450A663FFF7A6
:1056A00035FF42F21071C4E92066C4E92266C4F8ED
:1056B00090602046C4F89410BDEC088B01B0F0BD9A
:1056C0000050C34600007A440000C843982101F00E
:1056D000F2BB00007047000010B50A68127812B1E2
:1056E0004A68127822B1D1E900010078087010BD33
:1056F0000A69032AF7D8DFE802F00339152300BF4F
:1057000088680028EFD002780B7B01320133B2FBAE
:10571000F3F404FB13220270D1E900010078087051
:1057200010BD00BF88680028DDD00278002A1CBFA9
:10573000013A0270D1E900010078087010BD00BF85
:10574000D1E905C303F0010454EA0C02CBD0002CCC
:1057500000EB63000C4602D0016851F80CC0E04732
:105760002146D1E900010078087010BD8868002842
:10577000B9D002780B7B9A423CBF01320270D1E96A
:1057800000010078087010BD70470000028F47F6D6
:1057900018118A4248F6B70110D900238A4243649F
:1057A0001AD900EE102A9FED3F1AB8EE400A9FED7D
:1057B0003E2A20EE010A30EE020A0BE000EE102A2B
:1057C0009FED371AB8EE400A20EE010AB7EE001A34
:1057D00030EE010A80ED110A428F47F618139A4203
:1057E00010D900238A4283641AD900EE102A9FED53
:1057F0002D1AB8EE400A9FED2C2A20EE010A30EE59
:10580000020A0BE000EE102A9FED251AB8EE400ABE
:1058100020EE010AB7EE001A30EE010A80ED120AFE
:10582000818F47F619128A1A92B240F69E739A42F5
:1058300002D80021C1641BE000EE101A47F61812CE
:105840009142B8EE400A09D89FED151A20EE010AE0
:10585000B7EE001A30EE010A08E000BF9FED111A02
:105860009FED112A20EE010A30EE020A80ED130AA4
:10587000B0F842109FED0D1A00EE101AB0F840106B
:10588000B8EE400A02EE101AB8EE422A20EE010AE3
:1058900022EE011A80ED151A80ED160A704700BF3E
:1058A000D54C07B84C5C09B885B7923F0820803AC0
:1058B000704700001C2A18BF70471978002918BFCC
:1058C000012101765978002918BF01218176997844
:1058D000002918BF01210177D978002918BF0121BB
:1058E00081771979002918BF012180F82010597992
:1058F000002918BF012180F822109979002918BFCA
:10590000012180F82410D979002918BF012180F8DD
:105910002610197A002918BF012180F82810597A19
:10592000002918BF012180F82A10997A002918BF90
:10593000012180F82C10D97A002918BF012180F8A4
:105940002E10197B002918BF012180F83010597BD7
:10595000002918BF012180F83210997B002918BF57
:10596000012180F83410D97B002918BF012180F86B
:105970003610198A09BA090C0187598A09BA090C23
:105980004187998A09BA090C8187D98A09BA090C11
:10599000C187198B09BA090CA0F84010598B09BAB4
:1059A000090CA0F84210704749F6A843C0F600035E
:1059B0004FF0000C0833C0E9003C80ED020AC0ED56
:1059C000030AC0F810C080ED051AC0E9171270472D
:1059D0004FF4097101F06FBA10B5427A80F8571090
:1059E000042A49D8DFE802F00440303C080000BF38
:1059F0000D2943D1012140E00D293DD190F86820C7
:105A0000D0F86930014601F8842FC0F88530D0F80D
:105A10006D20D0F87130C0F88920C0F88D30D0F8F2
:105A20007520D0F87930C0F89120C0F89530B0F8E2
:105A30007D2090F87F30A0F8992080F89B300446B4
:105A400000F01EF8204617E0827A83180132D4B2A3
:105A5000182C827283F8681038BF10BD03210CE047
:105A60000A2909D1042108E00D2907D00A2903D108
:105A70000221A0F8091010BD0021417210BD0000E4
:105A800010B52DED0C8B044690F8550080B194F8BC
:105A900056000130C2B2072A84F8560008D300200D
:105AA00004F1380CD4E913238CE80D0084F8550078
:105AB00094ED082A94ED091A94ED0A0A84ED032A5C
:105AC00084ED041A84ED050A91ED003A94F854002F
:105AD00084ED0A3A91ED034A30B184ED084A91ED24
