:020000040800F2
:10000000606200205902000821360008953100087E
:100010001D36000875060008413B0008000000007E
:10002000000000000000000000000000A1360008F1
:10003000890700080000000031360008C5360008B6
:1000400073020008730200087302000873020008BC
:1000500073020008730200087302000873020008AC
:10006000730200087302000873020008730200089C
:10007000730200087302000873020008730200088C
:100080007107000873020008730200087302000879
:100090007906000873020008730200088D07000843
:1000A000730200087302000873020008730200085C
:1000B000A5370008B1370008730200087302000872
:1000C000730200087302000873020008730200083C
:1000D000730200081D3B0008293B0008353B00085F
:1000E000730200087302000873020008730200081C
:1000F000730200087302000873020008730200080C
:1001000073020008730200087302000873020008FB
:100110000939000815390008730200087302000845
:10012000730200087D0700087302000873020008CC
:1001300073020008730200087302000873020008CB
:1001400085060008730200087302000873020008A5
:1001500073020008730200087302000873020008AB
:10016000730200087302000873020008730200089B
:100170007302000873020008730200080000000008
:10018000730200087302000800F002F800F054F84F
:1001900014A696E8000CB244B344DA4501D100F04D
:1001A0004BF8BAE80F000FA696E83000A5EB04055F
:1001B00004EB0607AAEB0704A7F101074FEA1515A0
:1001C0004FEA3414A4F10104AC4201D300F034F836
:1001D00013F0010F18BFFB1A43F0010300F001F800
:1001E000DBE7184780840000A0840000103A24BF99
:1001F00078C878C1FAD8520724BF30C830C144BF8C
:1002000004680C6070470000704700000023002461
:1002100000250026103A28BF78C1FBD8520728BF16
:1002200030C148BF0B6070471FB508F06FF800F091
:1002300023F91FBD10B510BD00F0A8F91146FFF756
:10024000F3FF05F0E5FC00F0C6F903B4FFF7F2FF99
:1002500003BC00F091F900000948804709480047B5
:10026000FEE7FEE7FEE7FEE7FEE7FEE7FEE7FEE766
:10027000FEE7FEE704480549054A064B70470000C3
:100280009137000889010008605C0020606200204E
:10029000605E0020605E002053EA020C00F069807E
:1002A0002DE9F04B4FF00006002B1FBFB3FA83F58A
:1002B00003FA05F424FA05F65E4012BF1643B2FABB
:1002C00082F502FA05F4C5F120051EBF22FA05FCED
:1002D00044EA0C04203556EA044C4FEA144418BF93
:1002E000641C4FF000084FF00009904271EB030CC2
:1002F00039D3002919BFB1FA81F701FA07F6B0FA2C
:1003000080F700FA07F6C7F120071EBF20FA07FCA6
:1003100046EA0C062037B6FBF4FCA7EB0507103FB6
:1003200007F01F0BCBF120062CFA06F60CFA0BFB9C
:1003300044BFB3460026202FA4BF5E464FF0000BFB
:100340005BEA060C08BF4FF0010B19EB0B0948EBF9
:100350000608ABFB027C06FB02CC0BFB03CCC01BEC
:1003600071EB0C01C1E70B46024641464846BDE829
:10037000F08B13B5084318BF4FF0FF300146AFF3C1
:100380000080BDE81C407047032A40F2308010F026
:10039000030C00F0158011F8013BBCF1020F624420
:1003A00098BF11F801CB00F8013B38BF11F8013BB1
:1003B000A2F1040298BF00F801CB38BF00F8013B5E
:1003C00011F0030300F09580083AC0F0088051F85E
:1003D000043B083A51F804CBA0E80810F5E7121DD9
:1003E0005CBF51F8043B40F8043BAFF30080D207F8
:1003F00024BF11F8013B11F801CB48BF11F8012BC4
:1004000024BF00F8013B00F801CB48BF00F8012BE6
:10041000704702F0FF0343EA032242EA024200F07F
:1004200002B84FF0000200B51346944696462039B4
:1004300022BFA0E80C50A0E80C50B1F12001BFF49D
:10044000F7AF090728BFA0E80C5048BF0CC05DF803
:1004500004EB890028BF40F8042B08BF704748BF51
:1004600020F8022B11F0804F18BF00F8012B7047C5
:10047000704770477047000008487CB5784400908A
:1004800007487844009C0546019004E02046016836
:1004900008448047241DAC42F8D17CBD0482000092
:1004A0000682000070B50446051F00F055F800688C
:1004B000002C14BF446870BD002C18BFAC423CBF78
:1004C00020466468F8D301680A18AA4218BF45603C
:1004D00003D12A6805461144016028684119A142E8
:1004E0001CBF6C6070BD6168696021680844286049
:1004F00070BD10B5203AC0F00B80B1E81850A0E8EC
:100500001850B1E81850A0E81850203ABFF4F5AFE1
:100510005FEA027C24BFB1E81850A0E8185044BF3D
:1005200018C918C0BDE810405FEA827C24BF51F8AA
:10053000043B40F8043B08BF7047D20728BF31F89E
:10054000023B48BF11F8012B28BF20F8023B48BFEF
:1005500000F8012B70470000004870472000002081
:1005600010B5002000F040F8FFF764FEBDE8104031
:10057000012000F001B8000001491820ABBEFEE7E1
:100580002600020000487047180000207546FFF75B
:10059000F9FFAE4605006946534620F00700854640
:1005A00018B020B5FFF766FEBDE820404FF000060A
:1005B0004FF000074FF000084FF0000BAC46ACE8DE
:1005C000C009ACE8C009ACE8C009ACE8C00921F03A
:1005D00007018D46704710B50446AFF300802046F2
:1005E000BDE81040FFF731BE10B500F00BF8BDE8D4
:1005F000104000F001B87047002801D0FFF7BCBFE1
:100600007047000010B5002102A000F013F801208F
:1006100010BD0000534947414252543A2041626E96
:100620006F726D616C207465726D696E6174696F53
:100630006E00000070B505460C460A2000E06D1CF7
:1006400000F011F835B128780028F8D102E0641CD8
:1006500000F009F814B120780028F8D1BDE8704006
:100660000A20AFF3008008B569468DF8000003202A
:10067000ABBE08BDFEE7000040F29000C2F20000F1
:1006800000F000BA40F2B800C2F2000000F0FAB97F
:1006900091B1F0B548F23E3201F0030C0429C0F6E6
:1006A00000020DD24FF0000E0021BCF1000F3AD134
:1006B000BDE8F04088B27047002188B2704700BFA3
:1006C00001F0FC01C1F1000E431C00216FF0030496
:1006D0001D19EE788FB286EA172632F816602F7948
:1006E00086EA012189B287EA112132F811106F7967
:1006F00081EA0626B6B287EA162632F81660AD7988
:1007000086EA012189B285EA112132F811100434F8
:100710000EEB0405043581EA0621D9D104F1040E5B
:10072000BCF1000FC4D010F80E408BB284EA132342
:1007300032F81340BCF1010F84EA0121B8D07044B3
:10074000437889B283EA112132F81130BCF1020FEB
:1007500083EA0421ACD0807889B280EA112032F893
:10076000100080EA0321BDE8F04088B27047000025
:1007700040F6A870C2F2000000F05ABD41F2080035
:10078000C2F2000000F054BD70470000402000F0AD
:10079000E3BE000072B600BFFEE7000090F8202024
:1007A000013A012A08D8006800F1140200201368F9
:1007B00019431160704700BF00F1240201204FF47B
:1007C00080211368194311607047000010B590F83C
:1007D00020E0D0F800C0AEF1010EBEF1010FDCF850
:1007E00008E011D81EF0E05F18D0CEF3016E0120B2
:1007F00000FA0EF018608B68D3B14868CC6844EA00
:10080000C000034318E000BF00F1240101204FF4B1
:1008100080220B681A430A6010BD00BF00F124015A
:1008200001204FF400120B681A430A6010BD00BF8C
:100830000868CB6843EA40530CEB0E10C0F88031D7
:100840000B69C0F88431097D012905D100F5C27119
:100850000B6843F480730B605168C0F88C11126808
:1008600000F5C071C0F88821002001220B681A43EE
:100870000A6010BD90F82020013A012A30D8B0B5A6
:1008800046F20060C4F20000026842F00102026019
:10089000026822F47C520260D1F814E0CC694A6A02
:1008A0000368012C43EA022202600EF01F024FF09F
:1008B000010303FA02F2C3696FEA020C23EA02039E
:1008C000C36113D02CBBC36803EA0C03C360CB68BD
:1008D0008C8844EA034300EBCE0423640B4611E00A
:1008E000416A41F48021416201207047C36813438B
:1008F000C3600B688C8844EA034300EBCE04236496
:1009000001F10C038C681B8843EA044300EBCE041E
:10091000636443688D6943EA0204D1F810E0096A10
:10092000002D08BF03EA0C0444604369BEF1000FC8
:1009300043EA020408BF03EA0C040129446102D11E
:10094000C1691143C161016821F00101016000200A
:10095000B0BD00007047000010B590F82040013C89
:10096000012C7BD8D0F800C000290CBFDCF80C406B
:10097000DCF81040A4077BD00CEB011CDCF8B04184
:100980000CF5D87E14F004049460DCF8B04119BF73
:10099000E4085460640D1460DEF800400CF5DA7E63
:1009A00004F00204D460DCF8B44124075ABFDEF836
:1009B000004004F00F0408241461DEF80040002910
:1009C000C4F307249461DEF800404FEA14445461F4
:1009D000DCF8B8211A70026802EB0112D2F8B821D3
:1009E0004FEA12225A70026802EB0112D2F8B821C3
:1009F0004FEA12429A70026802EB0112D2F8B82153
:100A00004FEA1262DA70026802EB0112D2F8BC21DE
:100A10001A71026802EB0112D2F8BC214FEA1222CD
:100A20005A71026802EB0112D2F8BC214FEA12425D
:100A30009A71026802EB0112D2F8BC214FEA1262ED
:100A4000DA7100680CBF00F10C0100F11001002008
:100A500020220B681A430A6010BD00BF00F1240178
:100A600001204FF480220B681A430A6010BD00BFBA
:100A700000F1240101204FF400120B681A430A60B0
:100A800010BD00002DE9F04F81B0044600684669B2
:100A9000D0F804908768D0F80CB0D0F810A0D0F847
:100AA0001880F10704D1002530071DD424E000BFD1
:100AB000F90710D00121BA07816009D4780700F145
:100AC000AF80380700F1B680204600F047FB02E017
:100AD000204600F045FB0025F80500F18780F8036B
:100AE00000F1B180300707D51BF0100004D020685A
:100AF00045F400751021C160700708D51BF008008F
:100B000005D020680821C160204600F001FAB00736
:100B100006D52068C068800702D0204600F0FAF9A8
:100B2000700607D51AF0100004D0206845F48065DF
:100B300010210161B00608D51AF0080005D0206820
:100B400008210161204600F0D5FAF00606D520689C
:100B50000069800702D0204600F0CEFAB00308D525
:100B600019F0100005D0206810214160204600F0E7
:100B7000C5FAF00308D519F0080005D0206808214F
:100B80004160204600F0F6FA300440F19B805FEAB5
:100B9000497040F1948006F4807008EA10202843E0
:100BA0005FEA8871014648BF41F00201B20558BFB3
:100BB00001465FEA48700D4648BF45F004057005E0
:100BC00058BF0D46300540F17A8018F0700000F0F3
:100BD00076801038000905286CD8DFE800F003594A
:100BE0005D61656945F0080564E000BF20684FF469
:100BF0008071BA0581600BD4780515D438051DD4F1
:100C0000204600F0AFFAF8037FF56CAF1BE000BFA1
:100C1000204600F0A9FAF8037FF564AF13E000BFA7
:100C20004FF4006558E700BF05F50055F8037FF560
:100C300059AF08E04FF480554EE700BF05F58045F9
:100C4000F8037FF54FAF20684FF48031BA0381601D
:100C50000AD4780310D4380314D4204600F086FA5E
:100C600030073FF541AF47E7204600F081FA3007F3
:100C70003FF53AAF40E700BF05F5004530073FF5C7
:100C800033AF39E705F5803530073FF52DAF33E752
:100C900045F010050EE000BF45F020050AE000BF5A
:100CA00045F0400506E000BF45F0800502E000BFCA
:100CB00045F480752068816921F0700181612068A8
:100CC0000421416055B1606A40EA05012046616235
:100CD00001B0BDE8F04FFFF73DBE00BF01B0BDE879
:100CE000F08F0000002804BF01207047B0B5044613
:100CF00090F8200010B9204600F06EF820680168D6
:100D000041F00101016000F009FD054620684168DD
:100D1000C90705D100F002FD401B0B28F6D310E0F7
:100D2000016821F00201016000F0F8FC054600BFF7
:100D30002068416889070DD500F0F0FC401B0B28A6
:100D4000F6D3606A052140F400306062012084F827
:100D50002010B0BD217E0268012922F0800208BF68
:100D600080320260617E0268012922F0400208BFE1
:100D700040320260A17E0268012922F0200208BFF1
:100D800020320260E17E0268012922F0100218BFC1
:100D900010320260217F0268012922F0080208BF98
:100DA00008320260617F0268012922F0040208BF54
:100DB00004320260D4E901C2D4E9033561691A43FF
:100DC0002A431143ACF101021143C161002001210A
:100DD000606284F82010B0BD10B586B0006846F699
:100DE0000002C4F2000200219042CDE90411CDE9D5
:100DF0000211019140D046F20041C4F20001884244
:100E000040F0848040F20C31C2F200010A6843F6DF
:100E10004000C4F20200531C0B6052B90021009143
:100E2000016841F000710160016801F000710091FA
:100E300000990021009150F8102C42F0010240F876
:100E4000102C50F8100C00F00100009000984FF4A6
:100E5000C05001900220CDE9020103200490092036
:100E600005900020C4F2020001A900F081FB1420CB
:100E700007210022142444E043F64000C4F202009B
:100E80000091016841F080610160016801F08061BA
:100E90000091009940F20C31C2F200010A68531C23
:100EA0000B6052B900210091016841F000710160AE
:100EB000016801F00071009100990021009150F843
:100EC000102C42F0020240F8102C50F8100C00F0E8
:100ED0000200009000984FF4405001900220CDE9AC
:100EE000020103200490092005900020C4F20200B2
:100EF00000F5806001A900F03BFB402008210022A2
:100F0000402400F0CDFC204600F0B8FC06B010BD37
:100F100070470000B0B588B040F29001C2F2000105
:100F2000884207D040F2B801C2F20001884229D0BD
:100F300008B0B0BD40F2BC15C2F2000505F10804CE
:100F400040F29000C2F2000001AA00212346FFF700
:100F500003FD039800283DD00299A1F510600828F0
:100F600046D84FF0FF3050FA81F00328E0D8DFE890
:100F700000F003656B7100BF40F2C420C2F20000B4
:100F80000068AEE040F2BC15C2F2000505F11004A5
:100F900040F2B800C2F2000001AA00212346FFF788
:100FA000DBFC039800282FD00299A1F510600828D7
:100FB00038D84FF0FF3050FA81F00328B8D8DFE876
:100FC00000F003555B6100BF40F2C420C2F2000094
:100FD000006986E00198A0F201200728A8D8DFE880
:100FE00000F00557595B5D5F616300BFA86978E059
:100FF000C1F3032003283FF69BAFDFE800F0033185
:10100000333500BFA86B56E00198A0F201200728F5
:101010003FF68EAFDFE800F004585A5C5E60646211
:10102000A86A5EE0C1F3032003283FF681AFDFE842
:1010300000F0033D3F4100BFA86C3CE040F2C420FB
:10104000C2F2000040684CE040F2C420C2F200004E
:10105000806846E040F2C420C2F20000C06840E070
:10106000E86B28E0286C26E0686C24E040F2C4209D
:10107000C2F20000406934E040F2C420C2F2000035
:1010800080692EE040F2C420C2F20000C06928E06E
:10109000E86926E0286A24E0686A22E0A86D20E07A
:1010A000E86D1EE0286E1CE0686E1AE0E86C02E055
:1010B000286D00E0686D00283FF43AAF026893683D
:1010C0002246984708B0B0BDE86A0AE0286B08E0FD
:1010D000686B06E0A86E04E0E86E02E0686F00E06E
:1010E000286F00283FF424AF01684A6821469047E2
:1010F00008B0B0BD704700007047000070470000A6
:10110000B0B5044690F8200001281DD1022084F8D3
:1011100020002068016821F00101016000F0FEFA62
:10112000054600BF20684068C00713D000F0F6FAFB
:10113000401B0B28F6D3606A40F400306062052043
:1011400084F820000120B0BD606A40F40020606295
:101150000120B0BD00206062B0BD000070470000FB
:1011600070470000704700007047000070470000A3
:10117000704700007047000070B5866D044600F0AF
:10118000CDFA94F83510022928D105462068216C43
:10119000026822F016020260426922F08002426177
:1011A00009B9A16C19B1016821F008010160016859
:1011B00021F00101016000BF20680068C00715D060
:1011C00000F0ACFA401B0628F6D32020606503200F
:1011D00084F83500002184F8341070BD80206065EB
:1011E0000120002184F8341070BD00BFE06D3F2164
:1011F00001FA00F0B060012084F8350000200021E1
:1012000084F8341070BD000090F83510022909D11F
:10121000052180F835100068016821F001010160A6
:10122000002070478021416501207047406D704764
:10123000F0B581B004460020009040F20800C2F2F0
:1012400000000268D4E9166048F2B5133768082137
:10125000C1F64E3381403942A2FB03250CD02268EF
:1012600013685B0708D5136823F004031360B160AB
:10127000616D41F00101616501218140394208D071
:1012800022685269120604D5B160616D41F0020115
:10129000616504218140394208D0226812689207B2
:1012A00004D5B160616D41F0040161651021814098
:1012B000394217D020680268120713D5B16002685E
:1012C0000168520308D4C90508D4016821F0080157
:1012D0000160216C21B905E008033FD4216C09B1FC
:1012E00020468847E16D202000FA01F23A4241D0C1
:1012F00020680368DB063DD5B26094F8353002689B
:10130000052B1BD122F016020260426922F08002F6
:101310004261226C0AB9A26C1AB1026822F008027A
:1013200002603F208840B060012084F83500216DC4
:101330000020002984F8340052D157E0016852039C
:1013400010D4C90512D4016821F0100101600120F8
:1013500084F83500002084F8340007E0A16C0029EF
:10136000BED1BFE7080301D4616C00E0E16B09B1B5
:1013700020468847606DC8B3606DC0072ED0052039
:1013800084F835002068A90A026822F00102026090
:10139000009A01328A4200921AD80268D20717D006
:1013A000009A01328A42009212D80268D2070FD006
:1013B000009A01328A4200920AD80268D20707D006
:1013C000009A01328A42009202D80268D207DFD125
:1013D000012084F83500002084F83400E16C29B144
:1013E000204601B0BDE8F040084700BF01B0F0BDA5
:1013F0002DE9F041044600F091F9ECB105460220D8
:1014000084F835000020216884F83400086820F052
:101410000100086021680868C00711D000F07EF95B
:10142000401B0528F6D9032520230320636584F893
:101430003550BDE8F08100BF0120BDE8F08100BF5C
:10144000086848F23F02CFF21002D4E9013500EA01
:10145000020C04F10C0898E8C10143EA0C032B4389
:101460001843D4E9072E304338431043626A40EAF8
:101470000E00042A40EA08031CD1206BD4E90A2E8E
:1014800040EA0E00184308604869BEF1000F20F0E2
:10149000030040EA020040F0040C11D0B8F5005FF0
:1014A00036D0B8F1000F45D1022A46D0012A3BD0F0
:1014B00032B942E00B60486920F0070040EA020CB4
:1014C00001F0F8004AF6AB221038CAF6AA22A0FBB7
:1014D00002231A0948F24C63C1F814C0C0F6000395
:1014E0009A5C40F2FF335F284FF03F0021EA03018E
:1014F00000FA02F088BF0431C4E9161288600023A4
:1015000001250020636584F83550BDE8F08100BFF7
:10151000032AD5D8012540230120DFE802F0030E7D
:10152000030500BF82E700BFAEF1C070B0FA80F0E3
:10153000400904E0032A04D3C2D1CEF3006000289E
:10154000BED0012540230120636584F83550BDE8F5
:10155000F08100007047000043F61441C4F201011D
:101560000A68024214BF08607047FFF7F3BF00002B
:101570002DE9F04F82B000F13E4707F1FF77860575
:1015800046EA972741F60046C4F20206082243F6CF
:10159000004EB04208BF0722C4F2010E072F38BF29
:1015A0003A46002600274FF00008009209E000BFED
:1015B00008F101080237B8F1100F06F1040600F037
:1015C000A3800D68012202FA08F415EA0409EFD09D
:1015D000D1F804B003220BF0030CACF10105BA40C2
:1015E000012D6FEA020A0FD88268CD6802EA0A026A
:1015F000BD402A4382604268A243CBF3001404FA40
:1016000008F42243426005E0BCF1030F02D14FF021
:10161000030C1EE0C2688C6802EA0A02BC40224346
:10162000BCF1020FC26014D16FF0030202EA58024B
:101630000244D2F820C006F01C040F230D69A34019
:101640002CEA0303A5402B431362D1F804B00BF03E
:10165000030C02680CFA07F302EA0A021A431BF4AD
:10166000403F0260A4D0002243F644030192C4F23A
:1016700002031A684FF6084C42F480421A601A6856
:10168000CFF6FF7C02F480420192019A28F0030217
:10169000724452F80C3006F00C050F24AC40A34302
:1016A000009C04FA05F52B4342F80C30DEF80820C4
:1016B0004B6842EA090543F60C4CDC0258BF22EAAB
:1016C0000905CEF80850C4F2010CDCF800209C0299
:1016D00042EA090558BF22EA0905CCF80050DEF8B5
:1016E00004209C0342EA090558BF22EA0905CEF806
:1016F0000450DEF80020DB0342EA090558BF22EA65
:101700000905CEF8005053E702B0BDE8F08F0000A5
:10171000002A08BF090481617047000045F260504B
:10172000C2F200000068704740F2000045F26051CC
:10173000C2F20000C2F2000100780A68104408609A
:101740007047000080B543F60040C4F20200016813
:1017500041F400710160016841F480610160016839
:1017600041F480710160032000F0C6F80F2000F002
:1017700005F800F061F8002080BD000070B586B06B
:10178000002543F640010195C4F202010A680446AF
:1017900042F002020A60096801A801F00201019109
:1017A0000199694600F06AF9049E002E18BF0126CF
:1017B00000F084F94DF68361B040C4F21B31A0FB08
:1017C00001014FF0FF3000EB914141F2B00040F2D7
:1017D0000042C2F20000C4F2000240F2E733C0E966
:1017E0000021C0E902530561856100F0FFFB054659
:1017F00010B1284606B070BD41F2B000C2F2000040
:1018000000F044FC05460028F3D11D2000F036F816
:101810000F2C0DD81D2021460022002500F040F895
:1018200040F20400C2F200000460284606B070BD19
:101830000125284606B070BD82B0002043F6400165
:101840000190C4F202014A6842F480424A604A6848
:1018500002F480420192019A00900868002240F050
:101860008050086008680F2100F0805000900098B8
:101870006FF0010002B000F013B80000002848BF6C
:10188000704700F01F01012202FA01F11C2202EA56
:10189000D0004EF20012CEF20002815070470000DC
:1018A00010B54EF60C5CCEF2000CDCF80030C3F341
:1018B000022E8EF00704042C28BF0424BEF103037B
:1018C0004FF0FF3E0EFA04F438BF0023A1439940C5
:1018D0000EFA03F39A43114300F00F0200F1604344
:1018E0000901043A03F564436244002848BF02F149
:1018F0000C03197010BD00004EF60C51CEF2000121
:101900000A684FF6FF031A4060F30A2242F0806033
:1019100040F0FD7008607047002804BF0120704748
:101920002DE9F04143F60808C4F202080446D8F84D
:10193000F8030D4600F00700884207D288F8F853F4
:10194000D8F8F80300F00700A84277D12068810793
:1019500017D5410705D5D8F8001041F4E051C8F873
:101960000010010705D5D8F8001041F46041C8F80F
:101970000010D8F80010A26821F0F0011143C8F857
:101980000010C00740D1D8F8F80300F00700A842C3
:1019900007D988F8F853D8F8F80300F00700A842F0
:1019A0004CD12068410707D5D8F80010E26821F42F
:1019B000E0511143C8F80010000708D5D8F800001E
:1019C000216920F4604040EAC100C8F8000000F03E
:1019D0009DF8D8F8001048F22632C1F30311C0F682
:1019E0000002515C40F2080220FA01F140F20400CA
:1019F000C2F200000068C2F200021160FFF7BEFEF2
:101A00000020BDE8F08100BF6068811E022907D276
:101A100058F8081C89015CBF0120BDE8F08111E085
:101A2000012807D158F8081C89035CBF0120BDE8D4
:101A3000F08107E058F8081C890703D40120BDE8AD
:101A4000F08100BFD8F8001021F003010843C8F866
:101A50000000FFF763FE064641F28837D8F8000021
:101A6000616800F00C00B0EB810F8CD0FFF756FEE0
:101A7000801BB842F2D90320BDE8F0810F2202603A
:101A800043F60802C4F20202136803F00303436042
:101A9000136803F0F0038360136803F4E053C3603A
:101AA000D2F800C04FF4E05303EADC030361D2F83C
:101AB000F80300F0070008607047000040F20800DB
:101AC00043F60801C2F20000C4F20201006809688E
:101AD00048F23632C1F38221C0F60002515CC840A0
:101AE0007047000040F2080043F60801C2F200000F
:101AF000C4F202010068096848F23632C1F342318B
:101B0000C0F60002515CC8407047000010B543F6B3
:101B10000404C4F20204606800F00C0142F20040C8
:101B20000829C0F2F40007D0042918BF10BD41F203
:101B30000020C0F27A0010BD216801F03F02216848
:101B400023684902C3F3881106D4A1FB00010023D6
:101B5000FEF7A2FB07E000BF41F20020C0F27A00CE
:101B60004843B0FBF2F021680222C1F3014102EBCD
:101B70004101B0FBF1F010BD002804BF0120704707
:101B80002DE9F04182B00446007843F60006C00714
:101B9000C4F202060CD0B06800F00C00042840F03B
:101BA00081803068800303D56068002800F06A8176
:101BB000207880071BD5B06810F00C0F09D0B068F2
:101BC00000F00C00082840F087807068400200F1A7
:101BD00083803068800703D5E068012840F0528197
:101BE0003068216920F0F80040EAC10030602078B8
:101BF000000713D4207840072AD4A569002D00F0EF
:101C00003C81B06800F00C00082840F0A180012D54
:101C100040F01081012002B0BDE8F0816069002829
:101C200040F20000C4F2472000F07E800121C0F89D
:101C3000801EFFF773FD0546706F8007DAD4FFF74B
:101C40006DFD401B0228F7D9032002B0BDE8F081EA
:101C5000306C5FEAC0080AD400200190306C40F07C
:101C600080503064306C00F080500190019847F251
:101C70000007C4F200073868C00547D4386840F44C
:101C800080703860FFF74AFD054600BF3868C00520
:101C90003CD4FFF743FD401B0228F7D9032002B0D4
:101CA000BDE8F081B06800F00C00082803D170682E
:101CB00040023FF576AF6068B0F5803F07D0B0F5E1
:101CC000A02F40F09B80306840F480203060306866
:101CD00040F4803030609BE0E06800285CD0002059
:101CE000C4F2472001210160FFF718FD054600BF3F
:101CF000306880073FF574AFFFF710FD401B0228E6
:101D0000F6D9032002B0BDE8F08100BFA068012829
:101D100005D0052854D1306F40F004003067306F93
:101D200040F00100306755E00021C0F8801EFFF749
:101D3000F5FC0546706F80077FF55CAFFFF7EEFCA2
:101D4000401B0228F6D9032002B0BDE8F08100BF95
:101D50000027C4F2472700203866FFF7DFFC022D7A
:101D600005460DD13068800140F19080FFF7D6FC28
:101D7000401B02284FF00300F4D902B0BDE8F08107
:101D80003068800179D5FFF7C9FC401B02284FF06D
:101D90000300F5D9F1E700BF0020C4F2472000217D
:101DA0000160FFF7BBFC0546306880077FF51FAF79
:101DB000FFF7B4FC401B02284FF00300F4D9DCE726
:101DC000316F002821F001013167316F21F00401EA
:101DD00031677DD0FFF7A2FC054641F2883700BF8E
:101DE000306F800700F18680FFF798FC401BB842F7
:101DF000F6D9032002B0BDE8F08100BF31680028A9
:101E000021F480313160316821F4802131607BD050
:101E1000FFF784FC054600BF306880033FF5C8AE7D
:101E2000FFF77CFC401B6428F6D9032002B0BDE814
:101E3000F08100BF7068E16900F480028A4221D11C
:101E4000216A00F03F028A421CD147F6C071626AE3
:101E50000140B1EB821F15D1A16A4FF6FF73C90390
:101E6000994300F44032A1F580318A420AD1E16AF7
:101E700000F07060B0EB016F04D1002002B0BDE84B
:101E8000F08100BF012002B0BDE8F08104F11C0523
:101E90002FCD084340EA8210D9034FF6FF729143D9
:101EA000A1F5803140EA0560084370600120386682
:101EB000FFF734FC044600BF30688001DDD4FFF733
:101EC0002DFC001B02284FF00300F5D955E700BF99
:101ED000FFF724FC054641F2883700BF306F8007CA
:101EE00008D5FFF71BFC401BB8424FF00300F5D9A3
:101EF00043E700BFB8F1000F3FF57FAE306C20F034
:101F00008050306479E600BFFFF708FC054600BF4B
:101F1000306880037FF54CAEFFF700FC401B64285F
:101F20004FF00300F4D928E7704700007047000025
:101F300090F83C20012A4FF0020254D010B580F8EE
:101F40003D200268D2F804E0D2F808C00C682EF0F8
:101F50007003234341F2FF74C4F20004A2425360B1
:101F60000EDC40F2FF73C4F200039A4216DCB2F1B9
:101F7000804F2BD040F20043C4F2000324E000BFA6
:101F800040F2FF33C4F201039A4213DC41F600032E
:101F9000C4F200039A4219D0002313E040F6000374
:101FA000C4F200039A4211D040F60043C4F2000389
:101FB0000AE000BF44F20003C4F201039A4205D0D4
:101FC00040F20043C4F201039A4204D149682CF064
:101FD0008003194391600121002280F83D1080F8B0
:101FE0003C20BDE81040104670470000002804BFA8
:101FF0000120704710B5044690F83D0028B9002034
:1020000084F83C00204600F01FF8022084F83D00D0
:102010002068211D01F0D2FB012084F8460084F8DD
:102020003E0084F83F0084F8400084F8410084F8C2
:10203000420084F8430084F8440084F8450084F8A2
:102040003D00002010BD00000068B0F1804F18BFB7
:10205000704780B582B00020019043F64000C4F282
:1020600002000168002241F00101016000680521C1
:1020700000F00100019001981C20FFF711FC1C20CA
:1020800002B0BDE88040FFF7F9BB000090F83D10BA
:1020900001291CBF01207047022180F83D10006813
:1020A00041F2FF72C168C4F20002904241F00101A6
:1020B000C1600DDC40F2FF71C4F20001884215DC02
:1020C000B0F1804F2AD040F20041C4F2000123E079
:1020D00040F2FF31C4F20101884213DC41F60001F5
:1020E000C4F20001884219D0002113E040F600013B
:1020F000C4F20001884211D040F60041C4F2000150
:102100000AE000BF44F20001C4F20101884205D098
:1021100040F20041C4F20101884206D1816801F019
:102120000701062904BF00207047016841F0010142
:10213000016000207047000090F83C20012A4FF019
:10214000020200F0C58080B580F83D20D0F800C0C4
:102150004FF67772DCF8083023EA0202CCF8082048
:102160000B684F2B28DC1F2B44DD202B45D0302B58
:1021700043D0402B40F0AE80D1F804E0C968DCF8D1
:102180002030DCF8202022F00102CCF82020DCF8FE
:10219000182022F0F00242EA011123F00A0242EA7A
:1021A0000E02CCF81810CCF82020DCF8081041F012
:1021B000470121F0300180E06F2B27DDB3F5005F90
:1021C00048D0B3F5805F7AD0702B40F08380D1E99E
:1021D00001E3C968DCF8082043EA0E0322F47F42D9
:1021E00043EA01211143CCF80810DCF8081041F053
:1021F000770162E00BB1102B6CD1DCF8081021F0F4
:102200007001194341F0070157E000BF502B35D052
:10221000602B5FD1D1F804E0C968DCF82030DCF82D
:10222000202022F01002CCF82020DCF8182022F424
:10223000704242EA013123F0A00242EA0E12CCF8C9
:102240001810CCF82020DCF8081041F0670121F0CC
:10225000100132E0D1E901E3C968DCF8082043EA63
:102260000E0322F47F4243EA01211143CCF8081007
:10227000DCF8081041F480411FE000BFD1F804E011
:10228000C968DCF82030DCF8202022F00102CCF80C
:102290002020DCF8182022F0F00242EA011123F09D
:1022A0000A0242EA0E02CCF81810CCF82020DCF822
:1022B000081041F0570121F02001CCF8081000224D
:1022C000012180F83D10002180F83C10BDE88040DD
:1022D000104670470122F3E77047000070B50446CE
:1022E0000068C5680669B10716D515F0020113D05C
:1022F0006FF002010161012121778069800703D01D
:102300002046FFF7E9FF05E0204600F08FF8204661
:1023100000F08EF800202077700719D515F0040022
:1023200016D020686FF004010161022121778069D5
:1023300010F4407F04D02046FFF7CEFF06E000BF38
:10234000204600F073F8204600F072F80020207755
:10235000300717D515F0080014D020686FF0080179
:10236000016104212177C069800703D02046FFF76F
:10237000B3FF05E0204600F059F8204600F058F879
:1023800000202077F00619D515F0100016D020682F
:102390006FF01001016108212177C06910F4407FBE
:1023A00004D02046FFF798FF06E000BF204600F06B
:1023B0003DF8204600F03CF800202077F00718BFD9
:1023C00015F0010002D1300609D412E020686FF048
:1023D00001010161204600F02DF8300609D515F005
:1023E000800006D020686FF0800101612046FFF771
:1023F0009BFD700609D515F0400006D020686FF0EF
:1024000040010161204600F01FF8B00658BF70BDC2
:1024100015F0200008D021686FF0200220460A61E4
:10242000BDE87040FFF782BD70BD0000704700003E
:1024300070470000006840F20041C4F20001884289
:1024400018BF7047FFF770B9704700007047000071
:1024500010B50446206850E8030F216820F49070FE
:1024600041E80302BAB3206850E8030F216820F462
:10247000907041E8030272B3206850E8030F2168AE
:1024800020F4907041E803022AB3206850E8030F5B
:10249000216820F4907041E80302002ADAD11AE0A2
:1024A000206850E8050F216820F0010041E805028E
:1024B000DAB1206850E8050F216820F0010041E8FA
:1024C000050292B1206850E8050F216820F0010054
:1024D00041E805024AB1206850E8050F216820F064
:1024E000010041E80502002ADAD1206B012824D13D
:1024F000206850E8030F216820F0100041E8030233
:10250000DAB1206850E8030F216820F0100041E89C
:10251000030292B1206850E8030F216820F01000F8
:1025200041E803024AB1206850E8030F216820F017
:10253000100041E80302002ADAD120684069400611
:1025400036D500BF206850E8050F216820F0400014
:1025500041E80502DAB1206850E8050F216820F053
:10256000400041E8050292B1206850E8050F21685B
:1025700020F0400041E805024AB1206850E8050F0C
:10258000216820F0400041E80502002ADAD1E06B22
:1025900070B100210165FEF7EFFD48B1E06BFEF779
:1025A00045FE202804D110206064032010BD00BF28
:1025B00000202021E08584F84210206310BD000037
:1025C00041F26021C2F20001884218BF704780B515
:1025D00041F26020C2F20000FFF73AFF41F208002A
:1025E000C2F200000068016821F008010160BDE846
:1025F00080407047B0B582B0044600680168C36887
:10260000426901F02F05202D03F0200506D12DB1E0
:10261000204602B0BDE8B04001F088B95FEA017C15
:102620001EBF02F0010E03F4907212EB0E0243D1B2
:10263000226BCD0618D5012A16D113F0100213D043
:10264000002101910168019141680191019940695E
:1026500040063BD4A08DE18DE28D002A18BF884250
:1026600040F0F28102B0B0BD0A0640F1E78013F0FD
:10267000800200F0E38094F841102129F2D1A16892
:10268000B1F5805F03D12169002900F06382216ADE
:102690004A1C226209784160E18C01390A04E18414
:1026A000E0D1C16821F08001C160C16841F0400102
:1026B000C16002B0B0BD00BFCA0718BF13F480727A
:1026C00040F0D0804A0700F1D380D8E0E06B016889
:1026D00049688AB2002AC5D0A38D9A42C2D2E18548
:1026E000C069B0F5807F00F09D80206850E8030F3E
:1026F000216820F4807041E80302DAB1206850E8D4
:10270000030F216820F4807041E8030292B1206831
:1027100050E8030F216820F4807041E803024AB1B9
:10272000206850E8030F216820F4807041E803021C
:10273000002ADAD1206850E8050F216820F0010056
:1027400041E80502BAB3206850E8050F216820F07F
:10275000010041E8050272B3206850E8050F2168C6
:1027600020F0010041E805022AB3206850E8050F77
:10277000216820F0010041E80502002ADAD11AE0C0
:10278000206850E8050F216820F0400041E805026C
:10279000DAB1206850E8050F216820F0400041E8D8
:1027A000050292B1206850E8050F216820F0400032
:1027B00041E805024AB1206850E8050F216820F081
:1027C000400041E80502002ADAD1202084F84200C6
:1027D00000202063206850E8030F216820F01000DB
:1027E00041E80302DAB1206850E8030F216820F0C5
:1027F000100041E8030292B1206850E8030F2168FD
:1028000020F0100041E803024AB1206850E8030FAD
:10281000216820F0100041E80302002ADAD1E06BC1
:10282000FEF7AAFC02206063A08DE18D401A81B200
:10283000204602B0BDE8B040FFF708BE49067FF56C
:1028400011AF13F040013FF40DAFC16821F040011A
:10285000C1602021204684F8411002B0BDE8B0409C
:1028600000F096BC626C42F0010262644A0706D531
:10287000BEF1000F03D0626C42F0020262648A076C
:1028800006D5BEF1000F03D0626C42F00402626410
:10289000BCF1000F06D55EEA050203D0626C42F07F
:1028A00008026264626C002A3FF4DCAE890604D53B
:1028B0001DB1204601F03AF820684069616C00F0D3
:1028C000400001F00801401800F0B680206850E890
:1028D000030F216820F4907041E80302BAB3206826
:1028E00050E8030F216820F4907041E8030272B3AE
:1028F000206850E8030F216820F4907041E803023B
:102900002AB3206850E8030F216820F4907041E852
:102910000302002ADAD11AE0206850E8050F216886
:1029200020F0010041E80502DAB1206850E8050F07
:10293000216820F0010041E8050292B1206850E8CA
:10294000050F216820F0010041E805024AB1206826
:1029500050E8050F216820F0010041E80502002A37
:10296000DAD1206B012824D1206850E8030F2168B8
:1029700020F0100041E80302DAB1206850E8030FAC
:10298000216820F0100041E8030292B1206850E86D
:10299000030F216820F0100041E803024AB12068CB
:1029A00050E8030F216820F0100041E80302002ADC
:1029B000DAD1202084F8420000202063206840699A
:1029C000400640F1C180206850E8050F216820F0E2
:1029D000400041E80502DAB1206850E8050F21689F
:1029E00020F0400041E8050292B1206850E8050F50
:1029F000216820F0400041E805024AB1206850E813
:102A0000050F216820F0400041E80502002ADAD1D4
:102A1000E06B002800F0988043F62111C0F6000119
:102A20000165FEF7F1FB00283FF41CAEE06B016D81
:102A300002B0BDE8B04008472046FFF7C1FD0020C6
:102A4000606402B0B0BD00BF401A00BF216851E809
:102A5000031F226821F4907142E80313BBB321687D
:102A600051E8031F226821F4907142E8031373B305
:102A7000216851E8031F226821F4907142E8031392
:102A80002BB3216851E8031F226821F4907142E8BA
:102A90000313002BDAD11AE0216851E8051F2268E0
:102AA00021F0010142E80513DBB1216851E8051F5F
:102AB000226821F0010142E8051393B1216851E831
:102AC000051F226821F0010142E805134BB121687E
:102AD00051E8051F226821F0010142E80513002B8F
:102AE000DAD1202184F8421000212163216851E8C5
:102AF000031F226821F0100142E80313DBB12168B3
:102B000051E8031F226821F0100142E8031393B13A
:102B1000216851E8031F226821F0100142E80313E5
:102B20004BB1216851E8031F226821F0100142E8EF
:102B30000313002BDAD1022281B22046626302B075
:102B4000BDE8B040FFF782BC204602B0BDE8B0400F
:102B5000FFF736BD216A31F8022B6FF35F22426026
:102B6000216299E5002804BF0120704710B5044692
:102B700090F8410028B9002084F84000204600F079
:102B800021F8242084F841002068C16821F4005114
:102B9000C160204600F04AFF2068016921F490419D
:102BA0000161416921F02A014161C16841F400518C
:102BB000C16000202021606484F8411084F8421034
:102BC000606310BD2DE9F04387B00446006844F609
:102BD000FF71C4F2000188424FF000010691CDE977
:102BE0000411CDE9021147DC44F20041C4F20001B6
:102BF000884200F0A58044F60001C4F2000188423A
:102C000000F0EC8044F60041C4F20001884240F03C
:102C1000B181002043F630010190C4F202010A693B
:102C200042F400220A610A6902F400220192019A28
:102C300001900A6842F004020A60096801F0040188
:102C4000019101994FF4406102910221CDE90310F5
:102C5000032005900820069040F60040C4F20200D0
:102C6000A0F5806002A9FEF783FC34200621002233
:102C7000FEF716FE34207BE145F20001C4F20001AC
:102C8000884200F0F78041F20001C4F2010188425D
:102C900000F03C8141F20041C4F20101884240F061
:102CA0006981002643F630000196C4F202004169B2
:102CB00041F020014161416901F020010191019938
:102CC0000196016841F040010160006802A900F02E
:102CD0004000019001984FF4844002900220CDE919
:102CE0000306032005900820069040F60040C4F239
:102CF000020000F54060FEF73BFC46F28800C4F29B
:102D0000020041F2080500F56870C2F200054FF0BC
:102D100020614FF4806285E843002846C5E90362DC
:102D2000C5E90566C5E907666E62FEF761FB002826
:102D300018BFFDF72FFDE563AC6307B0BDE8F08376
:102D4000002643F630000196C4F20200016941F406
:102D500000310161016901F400310191019901968D
:102D6000016841F008010160006802A900F0080054
:102D700001900198602002900220CDE90306032013
:102D800005900720069040F60040C4F20200FEF7CE
:102D9000EFFB40F6A87546F28800C2F20005C4F2C7
:102DA00002004FF000614FF4806285E8430028463E
:102DB000C5E90362C5E90566C5E907666E62FEF707
:102DC00017FB002818BFFDF7E5FC2620052100228F
:102DD000E563AC63FEF764FD2620C9E0002643F6F8
:102DE00030000196C4F20200016940F6004441F44B
:102DF000802101610169C4F2020401F48021019182
:102E000001990196016802AD41F00201016001687B
:102E10004FF0020801F00201019101990196016849
:102E20004FF0030941F0080101600068072700F036
:102E30000800019001984FF498400290A4F50060BA
:102E40002946CDE90386CDF814900697FEF790FB4E
:102E50004FF40060CDE9020820462946CDE9046917
:102E60000697FEF785FB272003210022FEF718FDB9
:102E700027207DE0002643F630000196C4F20200D0
:102E8000016940F6004441F4801101610169C4F216
:102E9000020401F48011019101990196016802ADCB
:102EA00041F00401016001684FF0020801F00401E3
:102EB00001910199019601684FF0030941F0080161
:102EC00001600068082700F00800019001984FF4A5
:102ED00080500290A4F580602946CDE90386CDF8A4
:102EE00014900697FEF744FB0420CDE90208204623
:102EF0002946CDE904690697FEF73AFB35200521FE
:102F00000022FEF7CDFC352032E000BF002043F662
:102F100030010190C4F202014A6942F010024A6194
:102F20004A6902F010020192019A01900A6842F087
:102F300001020A60096801F00101019101994FF451
:102F4000C06102910221CDE9031003200590072002
:102F5000069040F60040C4F20200A0F5406002A9CD
:102F6000FEF706FB252005210022FEF799FC25200F
:102F7000FEF784FC07B0BDE8F083000090F8423013
:102F8000202B07D100294FF0010318BF002A05D1DB
:102F90001846704702231846704700BF002303639A
:102FA000816222218285C285436480F842100169D2
:102FB000006819B1C16841F48071C160416941F094
:102FC00001014161C16841F02001C16018467047AC
:102FD000F0B581B040F23425C2F20005296801291C
:102FE00018DB0446002602E001368E4212DA05EBB9
:102FF000860778684268A242F6D10268017A1268B0
:1030000090477868012200F108012046FFF7B6FFDB
:103010002968E9E701B0F0BD2DE9F041044690F8D8
:10302000410020281CBF0220BDE8F0810D46002988
:103030004FF0010000F0AA801646002A08BFBDE844
:10304000F081002060642120984684F84100FEF75A
:1030500065FBA684E684A1680646B1F5805F02D1CF
:103060002069002862D02F460025E08C002861D01E
:1030700018F1010018D0B8F1000F37D1216808E02D
:1030800017F8010B4860E08C0138E084E08C0028E0
:1030900051D00868000673D5002FF1D135F8020B26
:1030A00000276FF35F20EDE7216802E00868000663
:1030B00009D40868000606D4086800065CBF0868E2
:1030C0005FEA0060F2D51FB117F8010B05E000BF01
:1030D00035F8020B00276FF35F204860E08C013861
:1030E000E084E08C0028E4D125E000BF216800BF27
:1030F0000868000608D4FEF711FB801B404541D844
:103100002168C868F4E700BF17B117F8010B04E0A5
:1031100035F8020B00276FF35F204860E08C013820
:10312000E084E08C0028E3D105E000BF0027E08CBC
:1031300000289DD12168086840061FD4B8F1000F0F
:103140001ED018F101000FD10868400616D4086897
:10315000400613D40868400610D4086840064FF0B3
:103160000000F1D50FE000BFFEF7D8FA801B404504
:1031700008D82068C16800684006F5D5002002E044
:10318000FEF7CCFA0320202184F84110BDE8F0813D
:1031900070470000FEE7000080B540F2780046F27C
:1031A0000041C2F20000C4F2000140F8181F0321E0
:1031B0000022C0E9011200F10C014FF400234FF48A
:1031C000401C4FF0012E81E80C508283FDF78AFDF0
:1031D000002808BF80BDBDE88040FDF7DBBA0000D5
:1031E00080B540F2780046F60001C2F20000C4F259
:1031F000000140F8401F03210022C0E9011200F144
:103200000C014FF400234FF4401C81E80C104FF4E4
:1032100080710183C0F81A20FDF764FD002808BF03
:1032200080BDBDE88040FDF7B5BA000080B582B032
:10323000002043F630010190C4F202010A6842F412
:1032400000120A600A6802F400120192019A0090CA
:103250000868002240F4800008600868072100F434
:103260008000009000981020FEF71AFB1020FEF757
:1032700005FB392005210022FEF712FB392002B0A0
:10328000BDE88040FEF7FABA2DE9F04F87B0002480
:1032900043F63000CDE905440194C4F20200016810
:1032A00040F2000941F0040101600168C4F2020922
:1032B00001F00401019101990194016809F5A055FB
:1032C00041F0200101600168002201F0200101911C
:1032D0000199019401684FF0800B41F08001016079
:1032E000016801F08001019101990194016841F0A8
:1032F00001010160016801F001010191019901944E
:10330000016841F010010160016801F010010191B4
:1033100001990194016841F002010160016801F026
:103320000201019101990194016841F008010160D5
:10333000016801F00801019101990194016841F0CF
:10334000400101600068802100F040000190019878
:103350002846FEF7DDF948464FF4C17101220127E6
:10336000FEF7D6F909F5805A50464FF40061012264
:10337000FEF7CEF909F58068404610210122FEF7DC
:10338000C7F9402002904FF4881002AECDE9030443
:1033900028463146FEF7ECF80220CDE90400284625
:1033A0003146CDE902B7FEF7E3F848463146CDE9AC
:1033B00002740497FEF7DCF84FF4C170CDE9020700
:1033C00048463146CDE90477FEF7D2F84FF4006065
:1033D000CDE9020750463146CDE90477FEF7C8F83B
:1033E0004FF4004002A991C140463146FEF7C0F8B3
:1033F0004FF4804002A991C109F540603146FEF7C3
:10340000B7F84FF4007002A991C109F50060314688
:10341000FEF7AEF81020CDE9020740463146CDE96F
:103420000477FEF7A5F8172000210022FEF738FAEE
:103430001720FEF723FA07B0BDE8F08F80B586B0FD
:1034400041F268000021C2F2000042F2107C0591B6
:10345000CDE90311CDE900114FF080425323C0E9BB
:10346000021C01618021C0E900238161FEF7BEFDDD
:10347000002818BFFDF78EF94FF48050029041F2FA
:103480006800C2F2000002A9FEF756FE002818BF2D
:10349000FDF780F941F26800C2F200006946FEF7CC
:1034A00047FD002818BFFDF775F906B080BD000084
:1034B00080B541F2D01044F60041C2F20000C4F2DF
:1034C000000100234FF00C0C4FF4E13280E80E00B5
:1034D000C0E90333C0E905C3C361FFF743FB00281C
:1034E00008BF80BDBDE88040FDF754B980B541F20A
:1034F000182045F20001C2F20000C4F200010023CE
:103500004FF00C0C4FF4E13280E80E00C0E90333B9
:10351000C0E905C3C361FFF725FB002808BF80BDD4
:10352000BDE88040FDF736B980B541F2F80041F2C0
:103530000001C2F20000C4F2010100234FF00C0CA4
:103540004FF4E13280E80E00C0E90333C0E905C35F
:10355000C361FFF707FB002808BF80BDBDE88040BE
:10356000FDF718B980B541F2401044F20041C2F2B3
:103570000000C4F2000100234FF00C0C4FF4E132C4
:1035800080E80E00C0E90333C0E905C3C361FFF75B
:10359000E9FA002808BF80BDBDE88040FDF7FAB811
:1035A00080B541F2881044F60001C2F20000C4F276
:1035B000000100234FF00C0C4FF4407E4FF4E13239
:1035C00080E80E00C0E90333C0E905CEC361FFF710
:1035D000C9FA002808BF80BDBDE88040FDF7DAB811
:1035E00080B541F2602041F20041C2F20000C4F215
:1035F000010100234FF00C0C4FF4E13280E80E0083
:10360000C0E90333C0E905C3C361FFF7ABFA002883
:1036100008BF80BDBDE88040FDF7BCB8FEE70000F4
:10362000FEE70000000000000000000000000000B5
:10363000EFF30980BFF36F8F154B1A681EF0100F60
:1036400008BF20ED108A20E9F04F10602DE9090035
:103650004FF0500080F31188BFF34F8FBFF36F8F8F
:1036600003F036FE4FF0000080F31188BDE809003A
:1036700019680868B0E8F04F1EF0100F08BFB0ECF2
:10368000108A80F30988BFF36F8F704700BF00BFB7
:10369000E00000200000000000000000000000002A
:1036A000074B19680868B0E8F04F80F30988BFF34A
:1036B0006F8F4FF0000080F31188704700BF00BF8C
:1036C000E000002080B54EF21000CEF2000000684D
:1036D00004F032FC012808BF80BDBDE8804003F043
:1036E00019BF0000B0B592B0002443F64000CDE908
:1036F0000A44CDE908440594CDE90344CDE90144E9
:103700000094C4F202000168022541F0805101607A
:10371000006800F080500090009847F2000000948C
:10372000C4F20000016841F480410160006800F4C7
:10373000804000900098012006904FF48030079060
:103740004FF480000D9008200E904FF4A870CDE942
:103750000F050420119006A80C95FEF70DFA18B17C
:1037600072B600BFFEE700BF0F20CDE901054FF4A0
:10377000A05004904FF48050059001A805210394B7
:10378000FEF7CAF810B172B6FEE700BF12B0B0BDC6
:103790004EF68850CEF20000016841F470010160DD
:1037A0007047000041F26800C2F20000FEF796BDCB
:1037B00041F2B000C2F20000FEF790BD10B540F635
:1037C000FF3E0368C4F2000E40F2004C7045C4F2A4
:1037D000010C27DCB0F1804F31D040F20042C4F23E
:1037E000000290422BD040F60002C4F20002904248
:1037F00025D041F6FF72C4F20002904229DC7045E8
:103800003CDCB0F1804F5FD040F20042C4F20002D5
:10381000904259D040F60002C4F20002904253D0C8
:1038200056E000BF40F60042C4F20002904206D0CB
:10383000604504D00022C4F201029042D9D14A6806
:1038400023F07003134341F6FF72C4F2000290426A
:10385000D5DD43F6FF72C4F20102904222DC42F24F
:103860000002C4F2000290422ED00022C4F20102F3
:10387000904229D0604527D02AE000BF40F60042A0
:10388000C4F2000290421FD041F60002C4F20002CE
:10389000904219D041F60042C4F20002904213D087
:1038A00016E000BF44F20002C4F2010290420BD0C5
:1038B00044F60002C4F20102904205D044F20042F4
:1038C000C4F20102904203D1CA6823F44073134347
:1038D00023F080024B69D1F800E08C681A43026043
:1038E000C46240F48062C0F828E0624504BF096900
:1038F0000163012141610169C90708BF10BD016968
:1039000021F00101016110BD41F2D010C2F20000AE
:10391000FEF770BE41F21820C2F20000FEF76ABE48
:10392000806B0021C185C184FEF74ABE81B090F84A
:103930004210222921D183680246B3F5805F09D164
:1039400052F8281F52F8183C002B63D003685B68BC
:103950000AE000BF52F8281F13B90369002BF5D005
:1039600003685B6803F07F030B701168013111601D
:10397000C18D01390A04C18502D001B0704700BF72
:103980000168CA6822F02002CA60CA6822F4807204
:10399000CA604A6922F001024A61202180F842107F
:1039A00000214163026B012A3CD10163016851E8A7
:1039B000031F026821F0100142E80313DBB1016824
:1039C00051E8031F026821F0100142E8031393B18C
:1039D000016851E8031F026821F0100142E8031357
:1039E0004BB1016851E8031F026821F0100142E861
:1039F0000313002BDAD101680A68D20606D500222B
:103A000000920A680092496800910099818D01B086
:103A1000FEF71CBD026852686FF35F2221F8022B8B
:103A20008162A5E701B0FFF7D3BA000010B50446E4
:103A30000068D4E902C22369016921F440511143AD
:103A40000161626943EA0C01E3691143C2681943E9
:103A500049F20C639A431143C1604169A26921F4A0
:103A6000407141F20043114340F48062C4F201030B
:103A70009A42416102D1FEF735F801E0FEF71EF8E7
:103A8000E16963681922B1F5004FA0FB020123D15F
:103A90005A00DB0FFCF700FC48F21F51C5F2EB1196
:103AA000A0FB01235A094FF69C73C0F6FF7303F184
:103AB000805302FB0300322303EBC000A0FB010193
:103AC0004FF4F87000EA111000EB0210C1F342113C
:103AD00008442168886010BD9A009B0FFCF7DCFB4E
:103AE00048F21F51C5F2EB11A0FB01235A094FF612
:103AF0009C73C0F6FF7302FB0300322303EB00103C
:103B0000A0FB0101F02000EA511000EB0210C1F30C
:103B1000431108442168886010BD000041F2F8009C
:103B2000C2F20000FEF766BD41F24010C2F2000092
:103B3000FEF760BD41F28810C2F20000FEF75ABDE8
:103B4000FEE700002DE9F04140F21430C2F200001F
:103B5000A0F16C044FF0000818264FF4A06700F5A0
:103B6000876500BF44F86C8F04F114005021E660B3
:103B7000FCF757FC04F16C00A842A766F2D1BDE83F
:103B8000F081000070B52DED0A8B41F25C3440F2FB
:103B900090069FED2F8A9FED2F9A9FED2FAA9FED04
:103BA0002FBA9FED2FCAC2F20004C2F200062046CF
:103BB000012132460023B0EE480AF0EE490AB0EE89
:103BC0004A1AF0EE4B1AB0EE4C2A01F00BF841F213
:103BD000A825C2F200052846022132460023B0EE95
:103BE000480AF0EE490AB0EE4A1AF0EE4B1AB0EE6F
:103BF0004C2A00F0F7FF40F26020C2F2000000F013
:103C00004FFD043000F06CF940F6204041F21821DD
:103C1000C2F20000C2F20001002200F099FC40F65E
:103C2000E45041F2F801C2F20000C2F200010022A9
:103C300000F08EFC40F6B81004F10C0105F10C0206
:103C4000C2F20000BDEC0A8BBDE8704000F0B4B9D0
:103C500027A09941000000425C8F423F9A99094198
:103C60000000D44270B540F2BC15C2F200052978BC
:103C7000044629B3002600BF05EB86008069016871
:103C80000968884700BA04EB4601000CA1F844001B
:103C9000287801368642EFD34FF40070214641F870
:103CA000140F40F2900001F1300201F14003C2F222
:103CB0000000FCF78BFD012804BF012084F85C00A4
:103CC000287928B3002600BF05EB8600806D0168C7
:103CD0000968884700BA04EB4601000CA1F84400CB
:103CE000287901368642EFD340F2FF10214641F891
:103CF000140F40F2900001F1300201F14003C2F2D2
:103D00000000FCF763FD012804BF012084F85C007B
:103D1000687828B3002600BF05EB8600806A01683A
:103D20000968884700BA04EB4601000CA1F84C0072
:103D3000687801368642EFD34FF40070214641F88F
:103D40002C0F40F2B80001F1200201F12C03C2F265
:103D50000000FCF73BFD00281CBF012084F85C003C
:103D6000687928B3002600BF05EB8600806E0168E5
:103D70000968884700BA04EB4601000CA1F84C0022
:103D8000687901368642EFD340F2FF10214641F8B0
:103D90002C0F40F2B80001F1200201F12C03C2F215
:103DA0000000FCF713FD00281CBF012084F85C0014
:103DB0000020C4E91100C4E9130070BD80B58AB0C9
:103DC0000020CDE90500CDE90000CDE90200049016
:103DD0000E200121099040F29000CDE90711C2F2B6
:103DE00000006946FCF746FD002818BFFCF7D2FC2E
:103DF00040F29000C2F20000FDF782F9002818BFDF
:103E0000FCF7C8FC40F29000C2F200000221FCF76F
:103E1000C5FC002818BFFCF7BDFC40F27800C2F2D8
:103E20000000002104220823C0E90112C0E90313A5
:103E300001750AB080BD000080B58AB00E200590E3
:103E40000021099040F2B80006910122CDE900114D
:103E5000CDE902110491C2F200006946CDE90722C2
:103E6000FCF708FD002818BFFCF794FC40F2B800EE
:103E7000C2F20000FDF744F9002818BFFCF78AFCE5
:103E800040F2B800C2F200000221FCF787FC0028D3
:103E900018BFFCF77FFC40F27800C2F2000000215E
:103EA00004220823C0E90112C0E9031301750AB016
:103EB00080BD000080B5FFF781FFFFF7BDFF40F236
:103EC0009000C2F200000221FCF768FC40F2B8004A
:103ED000C2F200000221BDE88040FCF75FBC000098
:103EE00048F24052C0F60002302108320171002130
:103EF00002600822C0F80510C0F80910C0F80D10C3
:103F00000161C0E91111C0E91311C0E9151180F870
:103F10005C10C0E90711426280F828104161C0E9D5
:103F20000D11C26380F84010C1627047602101F03A
:103F300056BE000010B500F1BC01044600F014FCB0
:103F400004F1A001204600F00FFC204600F066FCC2
:103F500094F8580250B101280ED0022814D1002044
:103F60009FED120AC4F28F300BE000BF00209FEDDE
:103F7000100AC4F2AC2004E000209FED0E0AC4F247
:103F80003A30C4F85C0201E094ED970AD4F860027C
:103F900094ED191A94ED1A2A016831EE421A496813
:103FA00021EE000ABDE81040084700BF00008F4323
:103FB0000000AC4200003A4370B5B7EE080A9FED2E
:103FC000221A14460D4600210022F0EE400A002677
:103FD00000F044FD302180F8481248F25451C0F6F8
:103FE000000101F108022C31C0E9976500F12A03B4
:103FF00000F12B050260C0F8441200F51671012291
:10400000C0F86442C0E92835022300F12E0500F112
:104010002F04C0F84962C0F84D62C0F85162C0F880
:10402000546280F85822C0F8A81080F8AC30C0E97B
:104030002C26C0E92E65C0E9304180F8C830C0E9BF
:104040003336C0F8D46070BD666666404FF41A71AE
:1040500001F0C5BD704700002DE9F04F81B040F67A
:104060004C04C2F2000494F8008040F6500E8C46D6
:10407000B8F1000FC2F2000E01600273836061D0DC
:1040800000934FF0000A00BF0AEBCA035EF823B0AA
:10409000F1469BF800600EB3002261461CF8024016
:1040A000A64223D10BEB020466780CEB02071EB389
:1040B00097F801E0764521D1A6782EB3BD78AE42BF
:1040C00024D1E67846B3FF78BE4231D12679043157
:1040D000002E02F10402E1D162441EE00026624695
:1040E0001178CE468E421DD127E000BF6244117880
:1040F000CE468E4216D120E07A1C0EE04A1C117882
:10410000CE468E420ED118E08A1C06E0BA1C117809
:10411000CE468E4206D110E0FA1C00261178CE461B
:104120008E420AD00AF1010AC245ADD10CE000BFAF
:10413000CA1C1178CE468E42F4D10EEB83010A7967
:1041400006E000BF00220FE0B8F1090F06D9FF22F8
:10415000009B02714FF0000A16E000BF009B40F682
:104160004C044246C2F2000402EBC2010EEB810293
:1041700082F8048080F8048008F101084EF821C01C
:1041800084F800804FF0000A0AEBCA095EF8297033
:104190003D780DB3002264461CF802000CEB0206C9
:1041A000854231D1B8184578E5B171788D421BD17F
:1041B0008578FDB1B1788D421ED1C57815B3F178FF
:1041C0008D4229D105790434002D02F10402E3D196
:1041D0000CEB020617E000BF0025664630788542EA
:1041E00015D11DE001360EE0661C307885420ED1F7
:1041F00016E000BFA61C06E002363078854206D1E4
:104200000EE000BF033600253078854208D00AF161
:10421000010AC245B8D10DE0E61C30788542F6D1DE
:104220000EEB890090F80480B8F1FF0F14D101B0B3
:10423000BDE8F08FB8F1090FF9D808EBC8000EEB14
:10424000800181F8048040F64C014EF820C008F14E
:104250000100C2F20001087008EBC8000EEB8000FC
:10426000014611F8202F042AE1D8571C00EB8200E8
:104270000F70C36001B0BDE8F08F0000F0B581B0F1
:10428000054600F5AE774FF6FC3095F8D010A5F84E
:104290005C0195F8D30085F85E0185F85F1119B3CC
:1042A000042901F0030001D200220BE001F0FC031D
:1042B000002200BFAE18D6F8184104329342C6F867
:1042C0006041F7D180B105F58C74A65C53190128C3
:1042D00083F8606108D022445678022883F861612F
:1042E0001CBF907883F8620105F58C70FCF7D0F95B
:1042F00095F8D010A5F858016E1886F86001000AEC
:1043000086F861014FF6FD64686801F108023946DC
:104310004FF0FF33A6F8624101B0BDE8F040FEF770
:104320007BBE00002DE9F04782B0044690F8C00142
:10433000082800F20381DFE800F005111D25314552
:104340004D556100FC2956D1012084F8C001FC20A4
:1043500084F8450002B0BDE8F08700BFFB2940F0BB
:10436000ED80022084F8C001FB2084F8460002B0F2
:10437000BDE8F08784F84710032084F8C00102B03C
:10438000BDE8F087002084F8441084F8A4010420DC
:1043900084F8C00102B0BDE8F08700BF204610F8E5
:1043A000442F90F860315F1CFEB280F860711844B1
:1043B000964281711FD3052084F8C00102B0BDE888
:1043C000F08700BF84F8CC10062084F8C00102B04A
:1043D000BDE8F08784F8CD10072084F8C00102B052
:1043E000BDE8F087FD2940F0A980082084F8C001CD
:1043F000FD2084F8CE0002B0BDE8F087FE2940F031
:104400009D8094F8A501FE21002884F8CF1063D088
:1044100094F8441004F14A00FCF73AF9B4F8CC10CF
:10442000A4F84800884254D194F84480B8F1000FB1
:1044300026D0B8F1040F08F0030001D200210AE0F1
:1044400008F0FC0200216318D3F84A7004318A4254
:10445000C3F88C70F7D198B1631893F84A3004F11F
:104460008C02012853540BD04B1CE71897F84A7064
:104470000228D75404D0881C211891F84A101154EE
:10448000D4F8BC1104F18C06012917DB94F847908D
:1044900004F5D47A002702E001378F420EDA5AF889
:1044A00027000028F8D0016842468D684946334607
:1044B0000096A847D4F8BC11EEE700BF04F1200035
:1044C0000121022200230096002500F0E9FB84F878
:1044D000C05194F8A50188BB94F8441039B304295D
:1044E00001F0030002D200210CE000BF01F0FC0249
:1044F000002100BF6318D3F84A7004318A42C3F820
:104500008C70F7D198B1631893F84A3004F18C029B
:10451000012853540BD04B1CE71897F84A70022817
:10452000D75404D0881C211891F84A10115404F172
:10453000380004F18C02002101F088FA002084F890
:10454000C00102B0BDE8F08700207047002070472E
:1045500070B51546044600F0EBF83020207448F2A0
:104560008C50C0F6000000F10801216000F1280124
:104570003C300026E160206204F18C004021C4F848
:104580001160C4F81560C4F81960E661A68484F867
:104590002660268584F82A60E662A663A68784F8EA
:1045A000446084F84760A4F84860FBF73AFF04F5DC
:1045B0008C70402184F8D06084F8D360A4F8D46073
:1045C000FBF72FFF204684F8A46184F8A551C4E9C5
:1045D0006A66C4E96C66C4E96E6684F8C06170BD41
:1045E0004FF4E27101F0FBBA7047000040F2143161
:1045F000C2F200016C2200FB021000F1640400F121
:10460000100500F1140602E0286801F027FB20687D
:104610000128F9DB002703E0206801378742F3DA3D
:1046200056F827000028F7D0016809688847F3E7A3
:10463000092988BF70472DE9F0418AB040F214354E
:10464000C2F200056C2001FB00570C463E4656F8AE
:10465000640F13281FDC07EB800042613868B8B98B
:104660000DF1040840462421FBF7DBFE6C2004FB1F
:1046700000504246011D0191816EC068CDE90610CF
:1046800044F2ED50C0F60000214601F01FFC3860F6
:104690003068013030600AB0BDE8F041704700007A
:1046A00070B540F2143C46F274134FF0000EC2F2A3
:1046B000000CC6F673335F21002200240CEB0205C8
:1046C0006C3204F13006B2F5876F04F101046B60BF
:1046D00029726E7285F80AE0F0D130210122CCE90E
:1046E000031220210223CCE91E130523CCE9391340
:1046F0001821CCE954130A23CCE96F131021CCE91B
:104700008A130F23CCE9A5130821CCE9C013142385
:10471000CCE9DB13C821CCE9F62170BD704700005D
:10472000426800F1080110460122FEF727BC000094
:1047300080B540F2342EC2F2000E48F2E45CDEF89E
:104740000030C0F6000C0CF10802092BC0E9002172
:10475000C8BF80BD591CCEF800100EEB8301486025
:1047600080BD00007047000010B50C46096809784C
:1047700011B16168097829B1D4E9000100780870A5
:1047800010BD00BF21690329F6D8DFE801F0031549
:10479000233100BFA0680028EED00178227B0131D0
:1047A0000132B1FBF2F303FB12110170D4E90001F5
:1047B0000078087010BD00BFA0680028DCD0017828
:1047C000227B91423CBF01310170D4E900010078A5
:1047D000087010BDA0680028CED0017800291CBF49
:1047E00001390170D4E900010078087010BD00BFE4
:1047F000D4E905C202F0010353EA0C01BCD000EB7E
:10480000620013B1016851F80CC0E047D4E900011F
:104810000078087010BD000070470000B0F8482014
:1048200047F618118A4248F6B70111D900238A4287
:1048300043651BD900EE102A9FED411AB8EE400ADD
:104840009FED402A20EE010A30EE020A0CE000BF84
:1048500000EE102A9FED391AB8EE400A20EE010A48
:10486000B7EE001A30EE010A80ED150AB0F84A20C2
:1048700047F618139A4211D900238A4283651BD93F
:1048800000EE102A9FED2E1AB8EE400A9FED2D2A59
:1048900020EE010A30EE020A0CE000BF00EE102A02
:1048A0009FED261AB8EE400A20EE010AB7EE001A74
:1048B00030EE010A80ED160AB0F84C1047F61912D6
:1048C0008A1A92B240F69E739A4203D80021C165BB
:1048D0001CE000BF00EE101A47F618129142B8EE25
:1048E000400A09D89FED151A20EE010AB7EE001A0A
:1048F00030EE010A08E000BF9FED111A9FED112A6A
:1049000020EE010A30EE020A80ED170AB0F85210CC
:104910009FED0D1A00EE101AB0F85010B8EE400AD4
:1049200002EE101AB8EE422A20EE010A22EE011A17
:1049300080ED191A80ED1A0A704700BFD54C07B8F0
:104940004C5C09B885B7923F0820803A7047000058
:10495000002A04BF002070471178002918BF0121E8
:1049600080F828105178002918BF012180F82A10FA
:104970009178002918BF012180F82C10D1780029E6
:1049800018BF012180F82E101179002918BF0121CC
:1049900080F830105179002918BF012180F83210B9
:1049A0009179002918BF012180F83410D1790029AC
:1049B00018BF012180F83610117A002918BF012193
:1049C00080F83810517A002918BF012180F83A1078
:1049D000917A002918BF012180F83C10D17A002972
:1049E00018BF012180F83E10117B002918BF01215A
:1049F00080F84010517B002918BF012180F8421037
:104A0000917B002918BF012180F84410D17B002937
:104A100018BF012180F84610118A09BA090CA0F8C4
:104A20004810518A09BA090CA0F84A10918A09BAAB
:104A3000090CA0F84C10D18A09BA090CA0F84E1044
:104A4000118B09BA090CA0F85010518B09BA090C46
:104A5000A0F85210012070470020704748F2F05330
:104A6000C0F600030833036000F16C034FF0000C44
:104A700083E806100121A0F804C080F806C0A0F861
:104A800008C080F80AC0C0F80CC080ED060AC0ED6E
:104A9000070AC0F820C080ED091A80F878C080F8B5
:104AA0008010704770B50D46098800F11406044661
:104AB00049BA304600F0ECFE84ED050A688800BA79
:104AC000000C2083A888C1BA304600F005FF207C86
:104AD00084ED070A022818BF70BD94F8590058B138
:104AE00094F858000130C1B2072984F8580022BF59
:104AF0000020E06484F8590094ED051A9FED1B3AFC
:104B000094ED142AB4EE431A31EE420AF1EE10FA93
:104B100084ED112A84ED141A84ED150A0ADDB0EE35
:104B2000083AB4EE432AF1EE10FA15DA9FED110AB5
:104B30000EE000BFB0EE084AB4EE441AF1EE10FAEF
:104B40000ADAB4EE432AF1EE10FA05DD9FED080A09
:104B500030EE420A30EE010A94ED131A84ED120A87
:104B600031EE000A84ED130A70BD00BF0080B2432D
:104B70000000B4430000B4C370B590ED0B0A90ED93
:104B80000D1A00F15C05044620EE010A284600F0EB
:104B900037FAB4F9180004F1140600EE100AB8EE62
:104BA000C00A284600F07AF9304600F083FE94ED02
:104BB000100A0546304600F07DFE411908B22184F6
:104BC00070BD0000B0F9181090ED0B1A00EE101A2D
:104BD000B8EEC00A80EE010A7047000080ED0D0AB1
:104BE0007047000070B52DED0C8B1C460B46002164
:104BF000B0EE428AB0EE619AB0EE41AAB0EE60BA71
:104C0000B0EE40CA0546002600F02AFA48F2D0501D
:104C1000C0F600009FED1BDA0830E86005F11400D3
:104C2000B0EE4D0A4FF4804141F6FF722E7400F051
:104C300065FE48F20860C0F6000000F1080124306B
:104C40002960E86005F13000292185ED0BCAFBF7EA
:104C5000E8FB012085F8590005F15C00F1EE042A1B
:104C6000B0EE4B0AF0EE4A0AB0EE491AF0EE481ADE
:104C7000B0EE4D2A00F0C8F928462C74BDEC0C8B20
:104C800070BD00BF00409C4640F24C70C2F2000074
:104C900050F8220019460368009A1B681847000064
:104CA00040F20C00C2F20000007888421CBF0020D5
:104CB00070473F2A4FF0000022D840F24C7CC2F2ED
:104CC000000C5CF822C0BCF1000F08BF704780B533
:104CD00082B0DDF810E0DCF810008DF800108DF8DF
:104CE00001208DF80230694600220023CDF804E04F
:104CF00001F098F8B0FA80F0400902B0BDE88040B9
:104D00007047000010B582B040F20C00C2F2000003
:104D10000078884226D13F2A24D840F24C70C2F253
:104D2000000050F82240ECB1DDF810C060698DF849
:104D300000108DF801208DF8023069460022002312
:104D4000CDF804C001F06EF878B16069002100224E
:104D5000002300F0DBFF606969460022002301F0B8
:104D600061F810B1002002B010BD012002B010BDEA
:104D70002DE9F0413F29054607D840F24C78C2F2B0
:104D8000000858F821000C4620B1002738466F7102
:104D9000BDE8F0811646012008210022002700F01E
:104DA000FBFF686158B130460821002200F0F4FF93
:104DB000286138B1012748F824506F712C713846AA
:104DC000BDE8F0810020002700F08AFF3846BDE8EA
:104DD000F08100002DE9F04782B0904640F64C0289
:104DE000C2F200021278824254D905468A4600EB8C
:104DF000C00140F65000C2F2000000EB81018F6854
:104E0000002F47D005EBC50100EB8100044614F8E4
:104E1000201F00293ED0BBB1012B29D0022B39D154
:104E200000F10C09002600BF59F826002946027936
:104E300038465346CDF80080FFF764FF20780136EE
:104E40008642F1D326E000BF00F10C09002600BF26
:104E500059F826002946027938465346CDF8008095
:104E6000FFF712FF207801368642F1D312E000BF2F
:104E700000F10C09002600BF59F8260029460279E6
:104E800038465346CDF80080FFF70AFF20780136F8
:104E90008642F1D302B0BDE8F087000010B52DEDD9
:104EA000028BB0EE408A0446FCF738FCA16959B188
:104EB000411A00EE101A9FED501AB8EE400A80EE2B
:104EC000010A84ED050A01E094ED050A94ED001A4B
:104ED00094ED012A94ED023A94ED034AB8EE006A8B
:104EE00021EE015A32EE432A21EE061A21EE041A6F
:104EF00025EE022A31EE021A24EE002A21EE000AE3
:104F000030EE040A32EE032A84ED030A94ED0E0A11
:104F100084ED041A32EE481AB4EE401AF1EE10FA9B
:104F2000A06184ED022A84ED0A2A84ED071A04DACE
:104F3000B5EE401AF1EE10FA0BDCB1EE400AB4EE19
:104F4000401AF1EE10FA08DDB5EE401AF1EE10FA53
:104F500003DA9FED2A1A0020E06194F8540038B17A
:104F60000020B0EE410AB0EE412A84F8540003E07C
:104F700094ED082A94ED090A94ED0F6A94ED107AE5
:104F800031EE424A94ED0C5A26EE044A21EE076AAD
:104F900032EE027AD4ED110A31EE477A30EE070A8A
:104FA00084ED144A34EE054A94ED0D3A20EE200AC1
:104FB00036EE044A84ED130A30EE040AB4EE430AD6
:104FC000F1EE10FA84ED126A84ED0B0A06DCB1EE04
:104FD000433AB4EE430AF1EE10FA03DAB0EE430AB4
:104FE00084ED0B3A84ED081A84ED092A84ED0C0A4D
:104FF000BDEC028B10BD00BF00007A440000000031
:1050000080ED010A7047000010B52DED0A8B0446B3
:10501000E0EC011A3021B0EE628AB0EE429AB0EEB6
:1050200041AAB0EE60BAB0EE40CAFBF7FAF9002030
:10503000C4E912002065012084ED0D9A84ED0E8AEA
:1050400084ED0FCA84ED10BA84F85400204684ED34
:1050500011AABDEC0A8B10BD7047000000207047FC
:105060002DE9F04F48F23867C0F600070837C0E96D
:10507000007240F29007C2F20007BA420172437216
:1050800008D040F2B807C2F20007BA4200F00C8222
:10509000BDE8F08F0529FBD8DFE801F00604043EE7
:1050A00078B000BFF4E700BF40F2BC1EC2F2000EB1
:1050B0009EF800C0BCF1030FEAD8BCF1000F00F06D
:1050C000D580DEF81840647A9C4240F2DF804FF0D1
:1050D000000BDC4540F26981ACEB0B056FEA0B0776
:1050E00015F0030607EB0C0800F03881ACF1010560
:1050F0000EF1180757F82590012E47F82C9000F074
:105100003B81ACF1020957F829A0022E47F825A0EF
:1051100040F02C814D462FE140F2BC1EC2F2000E41
:105120009EF806C0BCF1030FB2D8BCF1000F00F02E
:10513000A18040F2C42AC2F2000ADAF80040647A80
:105140009C4240F2A9804FF0000BDC4540F24C81BC
:10515000ACEB0B066FEA0B0516F0030705EB0C082A
:1051600000F0FE80ACF101065AF82650012F4AF8F3
:105170002C5000F02581ACF102095AF82950022F79
:105180004AF8265040F016814E4619E140F2BC1E06
:10519000C2F2000E9EF804C0BCF1030F3FF678AFD8
:1051A000BCF1000F6AD0DEF85840647A9C4279D98D
:1051B0004FF0000BDC4540F24081ACEB0B056FEA91
:1051C0000B0715F0030607EB0C0800F0CB80ACF1E1
:1051D00001050EF1580757F82590012E47F82C903D
:1051E00000F01281ACF1020957F829A0022E47F80D
:1051F00025A040F003814D4606E100BF40F2BC1EF1
:10520000C2F2000E9EF802C0BCF1030F3FF640AFA1
:10521000BCF1000F36D0DEF83840647A9C4247D9A2
:105220004FF0000BDC4540F22E81ACEB0B056FEA32
:105230000B0715F0030607EB0C0800F09580ACF1A6
:1052400001050EF1380757F82590012E47F82C90EC
:1052500000F00081ACF1020957F829A0022E47F8AE
:1052600025A040F0F1804D46F4E000BF4FF0000B68
:105270009BE000BF4FF0000BB6E000BF4FF0000B0B
:10528000DBE000BF4FF0000BFDE000BFBCF1010F01
:1052900014D1E34689E000BFBCF1010F16D1E3460B
:1052A000A2E000BFBCF1010F18D1E346C5E000BF8A
:1052B000BCF1010F1AD1E346E5E000BFDEF81C4067
:1052C000647A9C421AD94FF0010B02E7DAF80440E5
:1052D000647A9C421ED94FF0010B36E7DEF85C4041
:1052E000647A9C4222D94FF0010B63E7DEF83C4020
:1052F000647A9C4226D94FF0010B93E7BCF1020F70
:10530000C7D0DEF82040647A9C42C2D94FF0020B2D
:10531000DFE600BFBCF1020FC1D0DAF80840647AC2
:105320009C42BCD94FF0020B0FE700BFBCF1020F4B
:10533000BBD0DEF86040647A9C42B6D94FF0020BD5
:1053400038E700BFBCF1020FB5D0DEF84040647A08
:105350009C42B0D94FF0020B64E700BF65460BE0FA
:1053600066462DE065464FE0654673E0ACF1030507
:1053700057F8256047F82960B8F1030F15D31826B0
:1053800006EB85060EEB85077C690EEB06084EF8EA
:105390000640D7E90394043DC7E9049458F8104C3B
:1053A0005D45A6F11006FC60ECDC0EEB8B041834B6
:1053B0006EE000BFACF103065AF826504AF82950B7
:1053C000B8F1030F10D30AEB8605083DD5E9004775
:1053D000043EC5E9014755E902745E452C6045F875
:1053E000047CA5F11005F1DC40F2C425C2F20005F1
:1053F00005EB8B040EF1060E4AE000BFACF103058D
:1054000057F8256047F82960B8F1030F15D35826DF
:1054100006EB85060EEB85077C6D0EEB06084EF855
:105420000640D7E91394043DC7E9149458F8104C8A
:105430005D45A6F11006FC64ECDC0EEB8B045834E1
:105440000EF1040E24E000BFACF1030557F825600F
:1054500047F82960B8F1030F15D3382606EB850607
:105460000EEB85077C6B0EEB06084EF80640D7E97D
:105470000B94043DC7E90C9458F8104C5D45A6F117
:105480001006FC62ECDC0EEB8B0438340EF1020EDD
:105490000CF1010720608EF8007040F2B807C2F2EC
:1054A0000007BA427FF4F4AD05293FF6F1AD0FF2E3
:1054B0000602DFE801F0050303193145E8E500BF06
:1054C00040F2BC19C2F2000999F80150032D3FF6D1
:1054D000DFAD002D76D0D9F82810497A994240F2F4
:1054E0007D804FF00008D2E040F2BC1CC2F2000CFC
:1054F0009CF80750032D88BFBDE8F08F40F2C42907
:10550000002DC2F200094FD0D9F81010497A994203
:105510004ED94FF0000A84E040F2BC19C2F20009F3
:1055200099F80550032D3FF6B3AD002D4ED0D9F8B4
:105530006810497A99425BD94FF00008D3E000BF68
:1055400040F2BC19C2F2000999F80350032D3FF64E
:105550009FAD002D3ED0D9F84810497A994253D9D1
:105560004FF00008454540F23981A5EB08016FEA8C
:10557000080711F0030407EB050E00F0D780691E41
:1055800009F1480757F82160012C47F8256000F021
:105590000C81A5F1020C57F82C60022C47F8216011
:1055A00040F0FE80614600E14FF0000AEEE000BFEF
:1055B000012D57D0D9F81410497A994228D94FF0C3
:1055C000010A2EE04FF0000830E100BF4FF0000864
:1055D00054E100BF4FF0000800E100BF012D77D07B
:1055E000D9F82C10497A994248D94FF001084EE079
:1055F000012D00F09980D9F86C10497A994269D947
:105600004FF001086FE000BF012D2DD1A846E5E065
:10561000022D27D0D9F81810497A994222D94FF093
:10562000020A554540F2B280A5EB0A016FEA0A076B
:1056300011F0030407EB05081ED0691E09F11007DD
:1056400057F82160012C47F8256000F08680A5F10D
:10565000020E57F82E60022C47F8216040F0788047
:1056600071467AE0AA4691E0D9F84C10497A9942FD
:105670005ED94FF0010875E729466EE0022D27D06C
:10568000D9F83010497A994222D94FF0020845459D
:1056900040F2CC80A5EB08016FEA080711F0030483
:1056A00007EB050E50D0691E09F1280757F8216055
:1056B000012C47F8256000F0A080A5F1020C57F8F6
:1056C0002C60022C47F8216040F09280614694E003
:1056D000A846ABE0022D27D0D9F87010497A99423C
:1056E00022D94FF00208454540F2C880A5EB0801D9
:1056F0006FEA080711F0030407EB050E26D0691EB8
:1057000009F1680757F82160012C47F8256000F07F
:105710009C80A5F1020C57F82C60022C47F8216000
:1057200040F08E80614690E0A846A7E029463CE024
:10573000022D3FF46BAFD9F85010497A99427FF6A9
:1057400065AF4FF002080DE7294656E029467CE098
:10575000E91E57F8214047F82E40B8F1030F15D342
:10576000102707EB810709EB8106F46809EB0702B4
:1057700049F80740D6E901340439C6E9023452F841
:10578000102C5145A7F110077260ECDC09EB8A017F
:1057900010310CF107020860691C1170BDE8F08F30
:1057A000E91E57F8214047F82C40BEF1030F15D3EE
:1057B000482707EB810709EB8106746C09EB0703A7
:1057C00049F80740D6E90F240439C6E9102453F8F4
:1057D000102C4145A7F11007F263ECDC09EB8801BE
:1057E000483109F103020860691C1170BDE8F08FAF
:1057F000E91E57F8214047F82C40BEF1030F15D39E
:10580000282707EB810709EB8106746A09EB070378
:1058100049F80740D6E907240439C6E9082453F8B3
:10582000102C4145A7F11007F261ECDC09EB88016F
:10583000283109F101020860691C1170BDE8F08F80
:10584000E91E57F8214047F82C40BEF1030F15D34D
:10585000682707EB810709EB8106746E09EB0703E4
:1058600049F80740D6E917240439C6E9182453F843
:10587000102C4145A7F11007F265ECDC09EB88011B
:10588000683109F105020860691C1170BDE8F08FEC
:10589000C08A00EE101A9FED062AB8EE400A01EE0B
:1058A000100AB8EE411A20EE020A80EE010A704793
:1058B0000000B443B0F9141090ED041A02EE101A6F
:1058C000B8EEC22A22EE000A80EE010ABDEEC00A3E
:1058D00010EE100A7047000000EE101AB0F9141014
:1058E00090ED042AB8EEC00A01EE101AB8EEC11A03
:1058F00022EE000A80EE010A7047000000230360D8
:1059000083808360838180ED040A8182C282704734
:105910002DE9F04F82B040F64C05C2F2000595F833
:10592000009040F6500CB9F1000FC2F2000C01607B
:105930004271836060D0CDE900934FF0000B00BF4F
:105940000BEBCB0A5CF82A2017782FB300260D4604
:105950008C5DA74201EB060436D102EB060898F8ED
:105960000170FFB194F801E077451DD198F80270FD
:1059700007B3A3789F421FD198F8037017B3E37859
:105980009F4229D198F804700435002F06F10406CF
:10599000DED18C1917E000BF00270C462278974211
:1059A00015D11DE001340EE06C1C227897420ED117
:1059B00016E000BFAC1C06E002342278974206D104
:1059C0000EE000BF033400272278974208D00BF185
:1059D000010BCB45B4D111E0EC1C22789742F6D1F3
:1059E0000CEB8A010E79FF2E24D14FF0FF0980F8CD
:1059F000049002B0BDE8F08F00260FE0DDE90063FF
:105A000040F64C05B9F1090FC2F2000506D94FF076
:105A1000FF0980F8049002B0BDE8F08F06EBC602E3
:105A20000CEB82074CF8221009F1010187F8049071
:105A3000297001E0019BB14606EBC6010CEB810128
:105A40008B6080F8049002B0BDE8F08F03460079C7
:105A5000FF2804BF0020704780B55B79FFF7BAF9D3
:105A6000012080BD2DE9F0410546A0F10C0600F5AE
:105A7000A8784FF6FC3095F8C410A5F8500195F8B9
:105A8000C70085F8520185F8531119B3042901F0B4
:105A9000030001D200220BE001F0FC03002200BF52
:105AA000AC18D4F80C7104329342C4F85471F7D195
:105AB00080B105F58674A75C9319012883F860719D
:105AC00008D022445778022883F861711CBF90786F
:105AD00083F8620105F58670FAF7DAFD95F8C410CF
