:020000040800F2
:10000000F06A0020590200082540000891360008D7
:1000100021400008910600083D450008000000004E
:10002000000000000000000000000000A1400008E7
:10003000A50700080000000031400008C540000886
:1000400073020008730200087302000873020008BC
:1000500073020008730200087302000873020008AC
:10006000730200087302000873020008730200089C
:10007000730200087302000873020008730200088C
:100080008D0700087302000873020008730200085D
:10009000950600087302000873020008A90700080B
:1000A000730200087302000873020008730200085C
:1000B000730200087302000873020008730200084C
:1000C000730200087302000873020008730200083C
:1000D000730200087302000819450008254500084E
:1000E000730200087302000873020008730200081C
:1000F00073020008AD410008730200087302000893
:100100007302000873020008A1410008730200088E
:100110000543000811430008730200087302000839
:1001200073020008990700087302000873020008B0
:1001300073020008730200087302000873020008CB
:10014000A106000873020008730200087302000889
:1001500073020008730200087302000831450008AA
:10016000730200087302000873020008730200089B
:100170007302000873020008730200080000000008
:10018000730200087302000800F002F800F054F84F
:1001900014A696E8000CB244B344DA4501D100F04D
:1001A0004BF8BAE80F000FA696E83000A5EB04055F
:1001B00004EB0607AAEB0704A7F101074FEA1515A0
:1001C0004FEA3414A4F10104AC4201D300F034F836
:1001D00013F0010F18BFFB1A43F0010300F001F800
:1001E000DBE7184738A4000058A40000103A24BFE9
:1001F00078C878C1FAD8520724BF30C830C144BF8C
:1002000004680C6070470000704700000023002461
:1002100000250026103A28BF78C1FBD8520728BF16
:1002200030C148BF0B6070471FB509F0CCFF00F02C
:1002300023F91FBD10B510BD00F0B6F91146FFF748
:10024000F3FF06F037FE00F0D4F903B4FFF7F2FF36
:1002500003BC00F09FF900000948804709480047A7
:10026000FEE7FEE7FEE7FEE7FEE7FEE7FEE7FEE766
:10027000FEE7FEE704480549054A064B70470000C3
:100280008D41000889010008F0640020F06A002018
:10029000F0660020F066002053EA020C00F069804E
:1002A0002DE9F04B4FF00006002B1FBFB3FA83F58A
:1002B00003FA05F424FA05F65E4012BF1643B2FABB
:1002C00082F502FA05F4C5F120051EBF22FA05FCED
:1002D00044EA0C04203556EA044C4FEA144418BF93
:1002E000641C4FF000084FF00009904271EB030CC2
:1002F00039D3002919BFB1FA81F701FA07F6B0FA2C
:1003000080F700FA07F6C7F120071EBF20FA07FCA6
:1003100046EA0C062037B6FBF4FCA7EB0507103FB6
:1003200007F01F0BCBF120062CFA06F60CFA0BFB9C
:1003300044BFB3460026202FA4BF5E464FF0000BFB
:100340005BEA060C08BF4FF0010B19EB0B0948EBF9
:100350000608ABFB027C06FB02CC0BFB03CCC01BEC
:1003600071EB0C01C1E70B46024641464846BDE829
:10037000F08B13B5084318BF4FF0FF300146AFF3C1
:100380000080BDE81C407047032A40F2308010F026
:10039000030C00F0158011F8013BBCF1020F624420
:1003A00098BF11F801CB00F8013B38BF11F8013BB1
:1003B000A2F1040298BF00F801CB38BF00F8013B5E
:1003C00011F0030300F0A080083AC0F0088051F853
:1003D000043B083A51F804CBA0E80810F5E7121DD9
:1003E0005CBF51F8043B40F8043BAFF30080D207F8
:1003F00024BF11F8013B11F801CB48BF11F8012BC4
:1004000024BF00F8013B00F801CB48BF00F8012BE6
:10041000704702F0FF0343EA032242EA024200F07F
:1004200002B84FF0000200B51346944696462039B4
:1004300022BFA0E80C50A0E80C50B1F12001BFF49D
:10044000F7AF090728BFA0E80C5048BF0CC05DF803
:1004500004EB890028BF40F8042B08BF704748BF51
:1004600020F8022B11F0804F18BF00F8012B7047C5
:10047000704770477047000008487CB5784400908A
:1004800007487844009C0546019004E02046016836
:1004900008448047241DAC42F8D17CBDBCA10000BB
:1004A000BEA1000070B50446051F00F05FF80068AB
:1004B000002C14BF446870BD002C18BFAC423CBF78
:1004C00020466468F8D301680A18AA4218BF45603C
:1004D00003D12A6805461144016028684119A142E8
:1004E0001CBF6C6070BD6168696021680844286049
:1004F00070BD10B500F03EF8006810BD10B50446A0
:1005000000F038F8046010BD10B5203AC0F00B8040
:10051000B1E81850A0E81850B1E81850A0E81850F9
:10052000203ABFF4F5AF5FEA027C24BFB1E818506F
:10053000A0E8185044BF18C918C0BDE810405FEAD1
:10054000827C24BF51F8043B40F8043B08BF70474D
:10055000D20728BF31F8023B48BF11F8012B28BF52
:1005600020F8023B48BF00F8012B70470048704755
:1005700020000020004870471800002010B500201F
:1005800000F040F8FFF756FEBDE81040012000F0F3
:1005900001B8000001491820ABBEFEE726000200AA
:1005A00000487047180000207546FFF7F9FFAE4677
:1005B00005006946534620F00700854618B020B56F
:1005C000FFF758FEBDE820404FF000064FF000074F
:1005D0004FF000084FF0000BAC46ACE8C009ACE8A7
:1005E000C009ACE8C009ACE8C00921F007018D469C
:1005F000704710B50446AFF300802046BDE81040B8
:10060000FFF723BE10B500F00BF8BDE8104000F076
:1006100001B87047002801D0FFF7BCBF7047000049
:1006200010B5002102A000F013F8012010BD000059
:10063000534947414252543A2041626E6F726D6194
:100640006C207465726D696E6174696F6E00000074
:1006500070B505460C460A2000E06D1C00F011F84C
:1006600035B128780028F8D102E0641C00F009F8C0
:1006700014B120780028F8D1BDE870400A20AFF30B
:10068000008008B569468DF800000320ABBE08BDA8
:10069000FEE7000040F29000C2F2000000F024B932
:1006A00040F2B800C2F2000000F01EB991B1F0B5FE
:1006B0004AF2242201F0030C0429C0F600020DD2F4
:1006C0004FF0000E0021BCF1000F3AD1BDE8F04020
:1006D00088B27047002188B2704700BF01F0FC016A
:1006E000C1F1000E431C00216FF003041D19EE78C8
:1006F0008FB286EA172632F816602F7986EA012132
:1007000089B287EA112132F811106F7981EA062641
:10071000B6B287EA162632F81660AD7986EA01216C
:1007200089B285EA112132F8111004340EEB040568
:10073000043581EA0621D9D104F1040EBCF1000F81
:10074000C4D010F80E408BB284EA132332F8134061
:10075000BCF1010F84EA0121B8D07044437889B21A
:1007600083EA112132F81130BCF1020F83EA04212F
:10077000ACD0807889B280EA112032F8100080EA8B
:100780000321BDE8F04088B27047000040F6946055
:10079000C2F2000000F04EBC40F6F460C2F200006D
:1007A00000F048BC70470000402000F0D7BD0000BA
:1007B00072B600BFFEE700007047000010B590F869
:1007C0002040013C012C7BD8D0F800C000290CBF90
:1007D000DCF80C40DCF81040A4077BD00CEB011CCB
:1007E000DCF8B0410CF5D87E14F004049460DCF819
:1007F000B04119BFE4085460640D1460DEF8004095
:100800000CF5DA7E04F00204D460DCF8B44124076D
:100810005ABFDEF8004004F00F0408241461DEF82B
:1008200000400029C4F307249461DEF800404FEA39
:1008300014445461DCF8B8211A70026802EB01120A
:10084000D2F8B8214FEA12225A70026802EB011264
:10085000D2F8B8214FEA12429A70026802EB0112F4
:10086000D2F8B8214FEA1262DA70026802EB011284
:10087000D2F8BC211A71026802EB0112D2F8BC2135
:100880004FEA12225A71026802EB0112D2F8BC211F
:100890004FEA12429A71026802EB0112D2F8BC21AF
:1008A0004FEA1262DA7100680CBF00F10C0100F12E
:1008B0001001002020220B681A430A6010BD00BFFF
:1008C00000F1240101204FF480220B681A430A60D2
:1008D00010BD00BF00F1240101204FF400120B688D
:1008E0001A430A6010BD00002DE9F04F81B00446A4
:1008F00000684669D0F804908768D0F80CB0D0F84A
:1009000010A0D0F81880F10704D1002530071DD4BD
:1009100024E000BFF90710D00121BA07816009D493
:10092000780700F1AF80380700F1B680204600F06C
:1009300017FB02E0204600F015FB0025F80500F14A
:100940008780F80300F1B180300707D51BF0100055
:1009500004D0206845F400751021C160700708D5E7
:100960001BF0080005D020680821C160204600F077
:1009700001FAB00706D52068C068800702D020467B
:1009800000F0FAF9700607D51AF0100004D02068BC
:1009900045F4806510210161B00608D51AF0080001
:1009A00005D0206808210161204600F0D3FAF00646
:1009B00006D520680069800702D0204600F0CCFAF6
:1009C000B00308D519F0100005D02068102141604F
:1009D000204600F0C3FAF00308D519F0080005D04E
:1009E000206808214160204600F0C6FA300440F13A
:1009F0009B805FEA497040F1948006F4807008EAB9
:100A0000102028435FEA8871014648BF41F0020187
:100A1000B20558BF01465FEA48700D4648BF45F031
:100A20000405700558BF0D46300540F17A8018F076
:100A3000700000F076801038000905286CD8DFE8D7
:100A400000F003595D61656945F0080564E000BF89
:100A500020684FF48071BA0581600BD4780515D4F5
:100A600038051DD4204600F07FFAF8037FF56CAFFF
:100A70001BE000BF204600F079FAF8037FF564AF71
:100A800013E000BF4FF4006558E700BF05F50055BF
:100A9000F8037FF559AF08E04FF480554EE700BFEB
:100AA00005F58045F8037FF54FAF20684FF480319E
:100AB000BA0381600AD4780310D4380314D42046D2
:100AC00000F056FA30073FF541AF47E7204600F007
:100AD00051FA30073FF53AAF40E700BF05F5004552
:100AE00030073FF533AF39E705F5803530073FF57F
:100AF0002DAF33E745F010050EE000BF45F02005AF
:100B00000AE000BF45F0400506E000BF45F0800563
:100B100002E000BF45F480752068816921F0700112
:100B2000816120680421416055B1606A40EA050195
:100B30002046616201B0BDE8F04FFFF73DBE00BF47
:100B400001B0BDE8F08F0000002804BF012070470D
:100B5000B0B5044690F8200010B9204600F06EF8B9
:100B60002068016841F00101016000F0D9FC0546F0
:100B700020684168C90705D100F0D2FC401B0B2852
:100B8000F6D310E0016821F00201016000F0C8FC1A
:100B9000054600BF2068416889070DD500F0C0FCFC
:100BA000401B0B28F6D3606A052140F400306062D8
:100BB000012084F82010B0BD217E0268012922F0B6
:100BC000800208BF80320260617E0268012922F043
:100BD000400208BF40320260A17E0268012922F073
:100BE000200208BF20320260E17E0268012922F063
:100BF000100218BF10320260217F0268012922F022
:100C0000080208BF08320260617F0268012922F0F1
:100C1000040208BF04320260D4E901C2D4E90335FA
:100C200061691A432A431143ACF101021143C161C6
:100C300000200121606284F82010B0BD10B586B09C
:100C4000006846F60002C4F2000200219042CDE99D
:100C50000411CDE90211019140D046F20041C4F2E5
:100C60000001884240F0848040F27C21C2F2000101
:100C70000A6843F64000C4F20200531C0B6052B9EC
:100C800000210091016841F000710160016801F0EC
:100C90000071009100990021009150F8102C42F051
:100CA000010240F8102C50F8100C00F001000090E8
:100CB00000984FF4C05001900220CDE902010320BA
:100CC0000490092005900020C4F2020001A900F060
:100CD00051FB142007210022142444E043F6400075
:100CE000C4F202000091016841F080610160016876
:100CF00001F080610091009940F27C21C2F2000174
:100D00000A68531C0B6052B900210091016841F040
:100D100000710160016801F00071009100990021EB
:100D2000009150F8102C42F0020240F8102C50F8BC
:100D3000100C00F00200009000984FF44050019019
:100D40000220CDE902010320049009200590002033
:100D5000C4F2020000F5806001A900F00BFB402006
:100D600008210022402400F09DFC204600F088FC71
:100D700006B010BD70470000B0B588B040F29001D9
:100D8000C2F20001884207D040F2B801C2F200016D
:100D9000884229D008B0B0BD40F2BC15C2F20005AF
:100DA00005F1080440F29000C2F2000001AA0021FF
:100DB0002346FFF703FD039800283DD00299A1F5D3
:100DC0001060082846D84FF0FF3050FA81F0032811
:100DD000E0D8DFE800F003656B7100BF40F234201B
:100DE000C2F200000068ACE040F2BC15C2F200059F
:100DF00005F1100440F2B800C2F2000001AA00217F
:100E00002346FFF7DBFC039800282FD00299A1F5B9
:100E10001060082838D84FF0FF3050FA81F00328CE
:100E2000B8D8DFE800F003555B6100BF40F2342022
:100E3000C2F20000006984E00198A0F201200728B6
:100E4000A8D8DFE800F00557595B5D5F616300BF1C
:100E5000A86976E0C1F3032003283FF69BAFDFE8E3
:100E600000F00331333500BFA86B56E00198A0F2C3
:100E7000012007283FF68EAFDFE800F0585A5C5E8D
:100E800004626004A86E5CE0C1F3032003283FF60F
:100E900081AFDFE800F0033D3F4100BFA86C3CE0BC
:100EA00040F23420C2F2000040684AE040F23420B0
:100EB000C2F20000806844E040F23420C2F2000038
:100EC000C0683EE0E86B28E0286C26E0686C24E00F
:100ED00040F23420C2F20000406932E040F2342097
:100EE000C2F2000080692CE040F23420C2F200001F
:100EF000C06926E0E86924E0286A22E0686A20E008
:100F0000A86D1EE0E86D1CE0286E1AE0686E18E01F
:100F1000E86C02E0286D00E0686D00283FF43AAF0D
:100F2000026893682246984708B0B0BDA86A08E0F6
:100F3000E86A06E0286B04E0686B02E0286F00E0D6
:100F4000E86E00283FF426AF01684A6821469047C2
:100F500008B0B0BD70470000704700007047000047
:100F600070470000704700007047000070470000A5
:100F700070470000704700007047000070B5866D34
:100F8000044600F0CDFA94F83510022928D1054620
:100F90002068216C026822F016020260426922F089
:100FA0008002426109B9A16C19B1016821F0080100
:100FB0000160016821F00101016000BF2068006844
:100FC000C00715D000F0ACFA401B0628F6D320204D
:100FD0006065032084F83500002184F8341070BD6A
:100FE000802060650120002184F8341070BD00BFAE
:100FF000E06D3F2101FA00F0B060012084F8350077
:101000000020002184F8341070BD000090F83510E5
:10101000022909D1052180F835100068016821F006
:101020000101016000207047802141650120704767
:10103000406D7047F0B581B004460020009040F24A
:101040000800C2F200000268D4E9166048F2B51345
:1010500037680821C1F64E3381403942A2FB03258F
:101060000CD0226813685B0708D5136823F00403CB
:101070001360B160616D41F0010161650121814042
:10108000394208D022685269120604D5B160616DF8
:1010900041F00201616504218140394208D0226893
:1010A0001268920704D5B160616D41F00401616579
:1010B00010218140394217D020680268120713D5E9
:1010C000B16002680168520308D4C90508D40168F8
:1010D00021F008010160216C21B905E008033FD42B
:1010E000216C09B120468847E16D202000FA01F209
:1010F0003A4241D020680368DB063DD5B26094F8DF
:1011000035300268052B1BD122F0160202604269BD
:1011100022F080024261226C0AB9A26C1AB1026804
:1011200022F0080202603F208840B060012084F86D
:101130003500216D0020002984F8340052D157E099
:101140000168520310D4C90512D4016821F01001BE
:101150000160012084F83500002084F8340007E0A5
:10116000A16C0029BED1BFE7080301D4616C00E087
:10117000E16B09B120468847606DC8B3606DC00758
:101180002ED0052084F835002068A90A026822F0D4
:1011900001020260009A01328A4200921AD8026863
:1011A000D20717D0009A01328A42009212D8026800
:1011B000D2070FD0009A01328A4200920AD8026800
:1011C000D20707D0009A01328A42009202D8026800
:1011D000D207DFD1012084F83500002084F83400E4
:1011E000E16C29B1204601B0BDE8F040084700BFDE
:1011F00001B0F0BD2DE9F041044600F091F9ECB1E9
:101200000546022084F835000020216884F8340067
:10121000086820F00100086021680868C00711D044
:1012200000F07EF9401B0528F6D903252023032072
:10123000636584F83550BDE8F08100BF0120BDE84A
:10124000F08100BF086848F23F02CFF21002D4E9F3
:10125000013500EA020C04F10C0898E8C10143EAE8
:101260000C032B431843D4E9072E30433843104373
:10127000626A40EA0E00042A40EA08031CD1206B8F
:10128000D4E90A2E40EA0E00184308604869BEF10E
:10129000000F20F0030040EA020040F0040C11D0DF
:1012A000B8F5005F36D0B8F1000F45D1022A46D01C
:1012B000012A3BD032B942E00B60486920F00700B8
:1012C00040EA020C01F0F8004AF6AB221038CAF6E8
:1012D000AA22A0FB02231A094AF20C63C1F814C027
:1012E000C0F600039A5C40F2FF335F284FF03F00E6
:1012F00021EA030100FA02F088BF0431C4E91612A2
:101300008860002301250020636584F83550BDE81E
:10131000F08100BF032AD5D8012540230120DFE852
:1013200002F0030E030500BF82E700BFAEF1C070FC
:10133000B0FA80F0400904E0032A04D3C2D1CEF30E
:1013400000600028BED0012540230120636584F899
:101350003550BDE8F08100007047000043F61441AD
:10136000C4F201010A68024214BF08607047FFF727
:10137000F3BF00002DE9F04F82B000F13E4707F1C6
:10138000FF77860546EA972741F60046C4F2020633
:10139000082243F6004EB04208BF0722C4F2010EF5
:1013A000072F38BF3A46002600274FF0000800926A
:1013B00009E000BF08F101080237B8F1100F06F18B
:1013C000040600F0A3800D68012202FA08F415EA71
:1013D0000409EFD0D1F804B003220BF0030CACF1F8
:1013E0000105BA40012D6FEA020A0FD88268CD6864
:1013F00002EA0A02BD402A4382604268A243CBF35C
:10140000001404FA08F42243426005E0BCF1030F23
:1014100002D14FF0030C1EE0C2688C6802EA0A0297
:10142000BC402243BCF1020FC26014D16FF0030232
:1014300002EA58020244D2F820C006F01C040F232E
:101440000D69A3402CEA0303A5402B431362D1F896
:1014500004B00BF0030C02680CFA07F302EA0A026C
:101460001A431BF4403F0260A4D0002243F6440319
:101470000192C4F202031A684FF6084C42F480420B
:101480001A601A68CFF6FF7C02F480420192019A3A
:1014900028F00302724452F80C3006F00C050F24B9
:1014A000AC40A343009C04FA05F52B4342F80C30F2
:1014B000DEF808204B6842EA090543F60C4CDC02D2
:1014C00058BF22EA0905CEF80850C4F2010CDCF836
:1014D00000209C0242EA090558BF22EA0905CCF81F
:1014E0000050DEF804209C0342EA090558BF22EAB6
:1014F0000905CEF80450DEF80020DB0342EA0905B6
:1015000058BF22EA0905CEF8005053E702B0BDE803
:10151000F08F0000002A08BF0904816170470000B5
:1015200045F6F050C2F200000068704740F200003B
:1015300045F6F051C2F20000C2F2000100780A68DC
:10154000104408607047000080B543F60040C4F2C4
:101550000200016841F400710160016841F480619A
:101560000160016841F480710160032000F0C6F859
:101570000F2000F005F800F061F8002080BD0000A9
:1015800070B586B0002543F640010195C4F2020112
:101590000A68044642F008020A60096801A801F0DE
:1015A000080101910199694600F06AF9049E002E34
:1015B00018BF012600F084F94DF68361B040C4F2F3
:1015C0001B31A0FB01014FF0FF3000EB914141F2D4
:1015D000BC0040F60042C2F20000C4F2000240F239
:1015E000E733C0E90021C0E902530561856100F0DD
:1015F000FFFB054610B1284606B070BD41F2BC00A5
:10160000C2F2000000F068FC05460028F3D1322049
:1016100000F036F80F2C0DD832202146002200258C
:1016200000F040F840F20400C2F2000004602846D6
:1016300006B070BD0125284606B070BD82B00020FE
:1016400043F640010190C4F202014A6842F480422C
:101650004A604A6802F480420192019A0090086848
:10166000002240F08050086008680F2100F0805090
:10167000009000986FF0010002B000F013B8000075
:10168000002848BF704700F01F01012202FA01F153
:101690001C2202EAD0004EF20012CEF2000281506B
:1016A0007047000010B54EF60C5CCEF2000CDCF872
:1016B0000030C3F3022E8EF00704042C28BF04244C
:1016C000BEF103034FF0FF3E0EFA04F438BF0023CF
:1016D000A14399400EFA03F39A43114300F00F021D
:1016E00000F160430901043A03F5644362440028B1
:1016F00048BF02F10C03197010BD00004EF60C51EA
:10170000CEF200010A684FF6FF031A4060F30A2286
:1017100042F0806040F0FD7008607047002804BF10
:10172000012070472DE9F04143F60808C4F2020891
:101730000446D8F8F8030D4600F00700884207D2A7
:1017400088F8F853D8F8F80300F00700A84277D1DA
:101750002068810717D5410705D5D8F8001041F456
:10176000E051C8F80010010705D5D8F8001041F481
:101770006041C8F80010D8F80010A26821F0F0010C
:101780001143C8F80010C00740D1D8F8F80300F0A2
:101790000700A84207D988F8F853D8F8F80300F0F2
:1017A0000700A8424CD12068410707D5D8F800109F
:1017B000E26821F4E0511143C8F80010000708D591
:1017C000D8F80000216920F4604040EAC100C8F860
:1017D000000000F09DF8D8F800104AF20C22C1F386
:1017E0000311C0F60002515C40F2080220FA01F138
:1017F00040F20400C2F200000068C2F20002116070
:10180000FFF7BEFE0020BDE8F08100BF6068811ECA
:10181000022907D258F8081C89015CBF0120BDE8E5
:10182000F08111E0012807D158F8081C89035CBF3A
:101830000120BDE8F08107E058F8081C890703D4AF
:101840000120BDE8F08100BFD8F8001021F00301AD
:101850000843C8F80000FFF763FE064641F28837E8
:10186000D8F80000616800F00C00B0EB810F8CD05C
:10187000FFF756FE801BB842F2D90320BDE8F08185
:101880000F22026043F60802C4F20202136803F05A
:1018900003034360136803F0F0038360136803F4E9
:1018A000E053C360D2F800C04FF4E05303EADC0316
:1018B0000361D2F8F80300F00700086070470000E9
:1018C00040F2080043F60801C2F20000C4F202012F
:1018D000006809684AF21C22C1F38221C0F60002A6
:1018E000515CC8407047000040F2080043F6080110
:1018F000C2F20000C4F20201006809684AF21C2228
:10190000C1F34231C0F60002515CC840704700008C
:1019100010B543F60404C4F20204606800F00C0140
:1019200042F200400829C0F2F40007D0042918BF91
:1019300010BD41F20020C0F27A0010BD216801F014
:101940003F02216823684902C3F3881106D4A1FB32
:1019500000010023FEF7A0FC07E000BF41F20020D9
:10196000C0F27A004843B0FBF2F021680222C1F3D2
:10197000014102EB4101B0FBF1F010BD002804BFB2
:10198000012070472DE9F04182B00446007843F60B
:101990000006C007C4F202060CD0B06800F00C00CC
:1019A000042840F081803068800303D560680028F7
:1019B00000F06A81207880071BD5B06810F00C0F0A
:1019C00009D0B06800F00C00082840F087807068EB
:1019D000400200F183803068800703D5E068012869
:1019E00040F052813068216920F0F80040EAC100DF
:1019F00030602078000713D4207840072AD4A569E6
:101A0000002D00F03C81B06800F00C00082840F088
:101A1000A180012D40F01081012002B0BDE8F081CD
:101A20006069002840F20000C4F2472000F07E8088
:101A30000121C0F8801EFFF773FD0546706F800717
:101A4000DAD4FFF76DFD401B0228F7D9032002B05E
:101A5000BDE8F081306C5FEAC0080AD40020019034
:101A6000306C40F080503064306C00F08050019059
:101A7000019847F20007C4F200073868C00547D450
:101A8000386840F480703860FFF74AFD054600BFB3
:101A90003868C0053CD4FFF743FD401B0228F7D946
:101AA000032002B0BDE8F081B06800F00C00082807
:101AB00003D1706840023FF576AF6068B0F5803FB3
:101AC00007D0B0F5A02F40F09B80306840F4802014
:101AD0003060306840F4803030609BE0E06800287F
:101AE0005CD00020C4F2472001210160FFF718FDFF
:101AF000054600BF306880073FF574AFFFF710FD63
:101B0000401B0228F6D9032002B0BDE8F08100BFD7
:101B1000A068012805D0052854D1306F40F004009A
:101B20003067306F40F00100306755E00021C0F8A9
:101B3000801EFFF7F5FC0546706F80077FF55CAFF0
:101B4000FFF7EEFC401B0228F6D9032002B0BDE8E7
:101B5000F08100BF0027C4F2472700203866FFF756
:101B6000DFFC022D05460DD13068800140F19080E8
:101B7000FFF7D6FC401B02284FF00300F4D902B057
:101B8000BDE8F0813068800179D5FFF7C9FC401BC2
:101B900002284FF00300F5D9F1E700BF0020C4F29E
:101BA000472000210160FFF7BBFC05463068800735
:101BB0007FF51FAFFFF7B4FC401B02284FF0030076
:101BC000F4D9DCE7316F002821F001013167316F72
:101BD00021F0040131677DD0FFF7A2FC054641F2F8
:101BE000883700BF306F800700F18680FFF798FCD0
:101BF000401BB842F6D9032002B0BDE8F08100BF17
:101C00003168002821F480313160316821F480216D
:101C100031607BD0FFF784FC054600BF306880034D
:101C20003FF5C8AEFFF77CFC401B6428F6D90320C3
:101C300002B0BDE8F08100BF7068E16900F4800285
:101C40008A4221D1216A00F03F028A421CD147F624
:101C5000C071626A0140B1EB821F15D1A16A4FF6D3
:101C6000FF73C903994300F44032A1F580318A42E1
:101C70000AD1E16A00F07060B0EB016F04D100207E
:101C800002B0BDE8F08100BF012002B0BDE8F081E4
:101C900004F11C052FCD084340EA8210D9034FF60A
:101CA000FF729143A1F5803140EA056008437060FE
:101CB00001203866FFF734FC044600BF306880011D
:101CC000DDD4FFF72DFC001B02284FF00300F5D9EF
:101CD00055E700BFFFF724FC054641F2883700BFF7
:101CE000306F800708D5FFF71BFC401BB8424FF050
:101CF0000300F5D943E700BFB8F1000F3FF57FAE11
:101D0000306C20F08050306479E600BFFFF708FCAB
:101D1000054600BF306880037FF54CAEFFF700FC3E
:101D2000401B64284FF00300F4D928E770470000F7
:101D30007047000090F83C20012A4FF0020254D076
:101D400010B580F83D200268D2F804E0D2F808C04F
:101D50000C682EF07003234341F2FF74C4F20004B8
:101D6000A24253600EDC40F2FF73C4F200039A42B9
:101D700016DCB2F1804F2BD040F20043C4F20003D6
:101D800024E000BF40F2FF33C4F201039A4213DCA7
:101D900041F60003C4F200039A4219D0002313E075
:101DA00040F60003C4F200039A4211D040F600430B
:101DB000C4F200030AE000BF44F20003C4F20103CE
:101DC0009A4205D040F20043C4F201039A4204D182
:101DD00049682CF08003194391600121002280F8AA
:101DE0003D1080F83C20BDE81040104670470000D0
:101DF000002804BF0120704710B5044690F83D004C
:101E000028B9002084F83C00204600F01FF802208A
:101E100084F83D002068211D02F0CEF9012084F8ED
:101E2000460084F83E0084F83F0084F8400084F8BF
:101E3000410084F8420084F8430084F8440084F8A8
:101E4000450084F83D00002010BD000083B000680C
:101E500044F20001C4F20101884219D041F60001A8
:101E6000C4F20001884225D0B0F1804F31D100206A
:101E7000029043F64000C4F20200016841F0010103
:101E80000160006800F001000290029803B0704702
:101E90000020019043F64000C4F20200416841F482
:101EA00080314160406800F480300190019803B0B7
:101EB000704700BF0020009043F64000C4F20200CB
:101EC000016841F040010160006800F040000090AE
:101ED000009803B07047000090F83D1001291CBF26
:101EE00001207047022180F83D10006841F2FF7226
:101EF000C168C4F20002904241F00101C1600DDCF2
:101F000040F2FF71C4F20001884215DCB0F1804F4D
:101F10002AD040F20041C4F2000123E040F2FF3138
:101F2000C4F20101884213DC41F60001C4F2000151
:101F3000884219D0002113E040F60001C4F20001EC
:101F4000884211D040F60041C4F200010AE000BF0F
:101F500044F20001C4F20101884205D040F2004180
:101F6000C4F20101884206D1816801F00701062907
:101F700004BF00207047016841F0010101600020AA
:101F80007047000090F83C20012A4FF0020200F058
:101F9000C58080B580F83D20D0F800C04FF677723C
:101FA000DCF8083023EA0202CCF808200B684F2B3B
:101FB00028DC1F2B44DD202B45D0302B43D0402B79
:101FC00040F0AE80D1F804E0C968DCF82030DCF8DD
:101FD000202022F00102CCF82020DCF8182022F08A
:101FE000F00242EA011123F00A0242EA0E02CCF8A2
:101FF0001810CCF82020DCF8081041F0470121F03F
:10200000300180E06F2B27DDB3F5005F48D0B3F5DA
:10201000805F7AD0702B40F08380D1E901E3C968FA
:10202000DCF8082043EA0E0322F47F4243EA012150
:102030001143CCF80810DCF8081041F0770162E099
:102040000BB1102B6CD1DCF8081021F07001194392
:1020500041F0070157E000BF502B35D0602B5FD116
:10206000D1F804E0C968DCF82030DCF8202022F048
:102070001002CCF82020DCF8182022F4704242EA4A
:10208000013123F0A00242EA0E12CCF81810CCF86D
:102090002020DCF8081041F0670121F0100132E047
:1020A000D1E901E3C968DCF8082043EA0E0322F411
:1020B0007F4243EA01211143CCF80810DCF80810F4
:1020C00041F480411FE000BFD1F804E0C968DCF8AA
:1020D0002030DCF8202022F00102CCF82020DCF8AF
:1020E000182022F0F00242EA011123F00A0242EA2B
:1020F0000E02CCF81810CCF82020DCF8081041F0C3
:10210000570121F02001CCF808100022012180F8AD
:102110003D10002180F83C10BDE88040104670471B
:102120000122F3E7002804BF012070472DE9F047A2
:10213000044690F83D000D4628B9002084F83C0084
:10214000204600F049F8022084F83D00206844F25F
:102150000702816891438160211D02F02DF82068FB
:102160004FF6FF7881688269D0F820C0D5E9003E3B
:10217000D5E9026A43EA0109AB6922EA080246EAA4
:1021800003234FF6FC46B343D5E9076742EA0A0248
:1021900029691A4342EA062242EA01112CF0AA02F6
:1021A0006B6942EA0E0241EA073142EA0312C0F8C3
:1021B000089081610262012084F8460084F83E00A4
:1021C00084F83F0084F8420084F8430084F83D001E
:1021D0000020BDE8F0870000F0B587B000684FF63A
:1021E000FF71C4F2000188424FF000010691CDE971
:1021F0000411CDE902114FDC40F20041C4F20001AC
:10220000884200F0818040F60001C4F2000188425B
:1022100040F0D380002543F630000195C4F202005F
:102220000169002741F0040101610169C4F202075C
:1022300001F00401019101990195016802AC41F09E
:10224000080101600168022601F00801019101996D
:102250000195016841F0020101600068214600F02B
:102260000200019001984FF40050029007F5406081
:10227000CDE90365CDE90556FFF77CF84020CDE9AF
:102280000206CDE90455069607F580602146FFF762
:1022900071F807B0F0BD00BF40F20041C4F2010187
:1022A000884259D00021C4F20101884240F0858063
:1022B000002043F630010190C4F202014A6942F065
:1022C00001024A614A6902F001020192019A0190F9
:1022D0000A6842F010020A60096801F010010191D9
:1022E00001994FF4206102910221CDE9031005907C
:1022F000012006900020C4F2020000F5805002A9DF
:10230000FFF738F807B0F0BD002043F63001019028
:10231000C4F202010A6942F002020A610A6902F08B
:1023200002020192019A01900A6842F001020A60D9
:10233000096801F0010101910199C0210291022176
:10234000CDE90310CDE905010020C4F2020002A985
:10235000FFF710F807B0F0BD002043F63001019000
:10236000C4F202014A6942F002024A614A6902F07B
:1023700002020192019A01900A6842F004020A6086
:10238000096801F0040101910199C0210291022123
:10239000CDE903100590032006900020C4F202004E
:1023A00000F5006002A9FEF7E5FF2D2005210022BF
:1023B000FFF778F92D20FFF763F907B0F0BD0000B3
:1023C00080B590F83E2090F83F3090F842E090F8C9
:1023D00043C004290AD0B9B9012A4FF0010208BF4D
:1023E000BEF1010F34D0104680BD00BF012B4FF06D
:1023F000010208BFBCF1010FF5D1022180F83F10A6
:1024000080F8431000681EE0012A4FF0010208BF67
:10241000012BE8D1BEF1010FE5D1BCF1010FE2D1F2
:10242000022280F83E2080F83F2080F8422080F889
:10243000432091B10068016A21F001010162016A43
:1024400041F00101016210216FF0100209E000BFAC
:10245000022180F83E1080F84210006801216FF0E0
:102460000102036A1A400262026A114301620168B2
:10247000002241F001010160104680BD704700005C
:1024800070B504460068C5680669B10716D515F031
:10249000020113D06FF002010161012121778069EF
:1024A000800703D02046FFF7E9FF05E0204600F053
:1024B0008FF8204600F0D0F900202077700719D55A
:1024C00015F0040016D020686FF0040101610221AC
:1024D0002177806910F4407F04D02046FFF7CEFFBB
:1024E00006E000BF204600F073F8204600F0B4F983
:1024F00000202077300717D515F0080014D0206889
:102500006FF00801016104212177C069800703D0C1
:102510002046FFF7B3FF05E0204600F059F82046BB
:1025200000F09AF900202077F00619D515F0100078
:1025300016D020686FF01001016108212177C06971
:1025400010F4407F04D02046FFF798FF06E000BF5C
:10255000204600F03DF8204600F07EF9002020776C
:10256000F00718BF15F0010002D1300609D412E0BF
:1025700020686FF001010161204600F0FFF930068C
:1025800009D515F0800006D020686FF08001016148
:102590002046FFF7CBFB700609D515F0400006D0AA
:1025A00020686FF040010161204600F0F1F9B006AB
:1025B00058BF70BD15F0200008D021686FF02002D0
:1025C00020460A61BDE87040FFF7B2BB70BD000055
:1025D0007047000090F83C30012B04BF0220704788
:1025E0004FEAB202032A00F201812DE9F043DFE84D
:1025F00002F0033F7FBF00BF036840F200461C6A41
:102600001A6A24F0020422F001021A621A46D3F870
:1026100004C052F818EF8F6843F48065C4F20106D5
:10262000B54244EA070405D1CF6824F00C0427F032
:1026300004073C430F68B54206D1D1E905582CF494
:1026400040762E4346EA080C2EF073063743C3F853
:1026500004C09F614F6809695F631C629F6947F00E
:1026600008079F619F6927F004079F61B2E000BFE0
:10267000036840F200481C6A1A6A24F0200422F021
:1026800010021A621A46D3F804C052F818EF8F6885
:1026900043F48065C4F20108454544EA071407D1B4
:1026A000CF686FF0400624F0C00406EA07163443F2
:1026B000D1F80090454506D1D1E905562CF4406784
:1026C0002E4347EA860C2EF4E64747EA0927C3F86B
:1026D00004C09F614F6809699F631C629F6947F44A
:1026E00000679F619F6927F480679F6171E000BF69
:1026F000036840F200481C6A1A6A24F4007422F449
:1027000080721A621A46D3F804C052F81CEF8F6820
:1027100043F48065C4F20108454544EA072408D122
:10272000CF6840F2FF463F0224F4406427EA0606E1
:102730003443D1F80090454506D1D1E905562CF433
:1027400040572E4347EA061C2EF0730747EA090755
:10275000C3F804C0DF614F680969DF631C62DF6989
:1027600047F00807DF61DF6927F00407DF6131E028
:10277000036840F20045D3F820C01A6A43F480672A
:1027800022F480521A621A465C6852F81CEFD1F8A3
:1027900000808E68C4F20105AF4204D14D6924F473
:1027A000804444EA85142CF4005747EA06372EF497
:1027B000E64646EA08265C60DE614E6809691E64EA
:1027C0001F62DF6947F40067DF61DF6927F4806714
:1027D000DF6109021368194311600021BDE8F0436D
:1027E000002280F83C200846704700BF01210022EB
:1027F00080F83C2008467047002804BF012070473D
:1028000010B5044690F83D0028B9002084F83C003B
:10281000204600F01FF8022084F83D002068211DAA
:1028200001F0CAFC012084F8460084F83E0084F8D8
:102830003F0084F8400084F8410084F8420084F8A6
:10284000430084F8440084F8450084F83D000020EB
:1028500010BD0000704700007047000041B108291A
:1028600010D0042914BF00F1410200F13F020BE037
:1028700090F83E20012A1CBF01207047022280F8F8
:102880003E2013E000F140021278012A1CBF012013
:1028900070470222082907D0042914BF80F841207C
:1028A00080F83F2002E000BF80F84020006801F07F
:1028B0001F010122036A02FA01F123EA0102026206
:1028C000026A114341F2FF72C4F2000290420162B7
:1028D00010DC40F2FF71C4F2000188421CDCB0F150
:1028E000804F3FD040F20041C4F20001884239D00D
:1028F0003DE000BF40F2FF31C4F20101884219DC23
:1029000041F60001C4F2000188422BD00021C4F23C
:10291000010188421AD02AE040F60001C4F2000109
:1029200088421FD040F60041C4F20001884219D00D
:102930001DE000BF44F20001C4F20101884211D041
:1029400040F20041C4F20101884210D1416C40F2D2
:10295000004340F48062C4F2010341F400419A4212
:10296000416404D1816801F00701062903D00168A0
:1029700041F001010160002070470000006840F64E
:102980000041C4F20001884218BF7047FEF7CEBD77
:10299000704700007047000010B50446206850E8FA
:1029A000030F216820F4907041E80302BAB3206855
:1029B00050E8030F216820F4907041E8030272B3DD
:1029C000206850E8030F216820F4907041E803026A
:1029D0002AB3206850E8030F216820F4907041E882
:1029E0000302002ADAD11AE0206850E8050F2168B6
:1029F00020F0010041E80502DAB1206850E8050F37
:102A0000216820F0010041E8050292B1206850E8F9
:102A1000050F216820F0010041E805024AB1206855
:102A200050E8050F216820F0010041E80502002A66
:102A3000DAD1206B012824D1206850E8030F2168E7
:102A400020F0100041E80302DAB1206850E8030FDB
:102A5000216820F0100041E8030292B1206850E89C
:102A6000030F216820F0100041E803024AB12068FA
:102A700050E8030F216820F0100041E80302002A0B
:102A8000DAD120684069400636D500BF206850E89A
:102A9000050F216820F0400041E80502DAB1206806
:102AA00050E8050F216820F0400041E8050292B18E
:102AB000206850E8050F216820F0400041E8050239
:102AC0004AB1206850E8050F216820F0400041E835
:102AD0000502002ADAD1E06B70B100210165FEF732
:102AE0004DFA48B1E06BFEF7A3FA202804D110207C
:102AF0006064032010BD00BF00202021E08584F821
:102B00004210206310BD000041F2B421C2F2000166
:102B1000884218BF704780B541F2B420C2F200006D
:102B2000FFF73AFF40F6F460C2F200000068016867
:102B300021F008010160BDE880407047B0B582B067
:102B4000044600680168C368426901F02F05202D22
:102B500003F0200506D12DB1204602B0BDE8B040FB
:102B600001F0E2BB5FEA017C1EBF02F0010E03F43C
:102B7000907212EB0E0243D1226BCD0618D5012ABA
:102B800016D113F0100213D00021019101680191B8
:102B9000416801910199406940063BD4A08DE18DC7
:102BA000E28D002A18BF884240F0F28102B0B0BD29
:102BB0000A0640F1E78013F0800200F0E38094F809
:102BC00041102129F2D1A168B1F5805F03D12169BB
:102BD000002900F06382216A4A1C22620978416060
:102BE000E18C01390A04E184E0D1C16821F080015F
:102BF000C160C16841F04001C16002B0B0BD00BF1A
:102C0000CA0718BF13F4807240F0D0804A0700F161
:102C1000D380D8E0E06B016849688AB2002AC5D049
:102C2000A38D9A42C2D2E185C069B0F5807F00F0E1
:102C30009D80206850E8030F216820F4807041E8EF
:102C40000302DAB1206850E8030F216820F4807095
:102C500041E8030292B1206850E8030F216820F494
:102C6000807041E803024AB1206850E8030F2168F0
:102C700020F4807041E80302002ADAD1206850E88D
:102C8000050F216820F0010041E80502BAB3206871
:102C900050E8050F216820F0010041E8050272B3F9
:102CA000206850E8050F216820F0010041E8050286
:102CB0002AB3206850E8050F216820F0010041E8A0
:102CC0000502002ADAD11AE0206850E8050F2168D1
:102CD00020F0400041E80502DAB1206850E8050F15
:102CE000216820F0400041E8050292B1206850E8D8
:102CF000050F216820F0400041E805024AB1206834
:102D000050E8050F216820F0400041E80502002A44
:102D1000DAD1202084F8420000202063206850E8A7
:102D2000030F216820F0100041E80302DAB12068A7
:102D300050E8030F216820F0100041E8030292B12F
:102D4000206850E8030F216820F0100041E80302DA
:102D50004AB1206850E8030F216820F0100041E8D4
:102D60000302002ADAD1E06BFEF708F90220606363
:102D7000A08DE18D401A81B2204602B0BDE8B0407E
:102D8000FFF708BE49067FF511AF13F040013FF48D
:102D90000DAFC16821F04001C1602021204684F8B8
:102DA000411002B0BDE8B04000F070BC626C42F06F
:102DB000010262644A0706D5BEF1000F03D0626CBF
:102DC00042F0020262648A0706D5BEF1000F03D00A
:102DD000626C42F004026264BCF1000F06D55EEA48
:102DE000050203D0626C42F008026264626C002A41
:102DF0003FF4DCAE890604D51DB1204601F094FAFB
:102E000020684069616C00F0400001F00801401842
:102E100000F0B680206850E8030F216820F490701D
:102E200041E80302BAB3206850E8030F216820F498
:102E3000907041E8030272B3206850E8030F2168E4
:102E400020F4907041E803022AB3206850E8030F91
:102E5000216820F4907041E80302002ADAD11AE0D8
:102E6000206850E8050F216820F0010041E80502C4
:102E7000DAB1206850E8050F216820F0010041E830
:102E8000050292B1206850E8050F216820F001008A
:102E900041E805024AB1206850E8050F216820F09A
:102EA000010041E80502002ADAD1206B012824D173
:102EB000206850E8030F216820F0100041E8030269
:102EC000DAB1206850E8030F216820F0100041E8D3
:102ED000030292B1206850E8030F216820F010002F
:102EE00041E803024AB1206850E8030F216820F04E
:102EF000100041E80302002ADAD1202084F84200C1
:102F00000020206320684069400640F1C1802068AD
:102F100050E8050F216820F0400041E80502DAB1D1
:102F2000206850E8050F216820F0400041E80502C4
:102F300092B1206850E8050F216820F0400041E878
:102F400005024AB1206850E8050F216820F04000D2
:102F500041E80502002ADAD1E06B002800F09880F1
:102F600044F21D31C0F600010165FEF74FF800285C
:102F70003FF41CAEE06B016D02B0BDE8B040084705
:102F80002046FFF7C1FD0020606402B0B0BD00BF65
:102F9000401A00BF216851E8031F226821F4907194
:102FA00042E80313BBB3216851E8031F226821F4F0
:102FB000907142E8031373B3216851E8031F22683C
:102FC00021F4907142E803132BB3216851E8031FE9
:102FD000226821F4907142E80313002BDAD11AE041
:102FE000216851E8051F226821F0010142E805131C
:102FF000DBB1216851E8051F226821F0010142E898
:10300000051393B1216851E8051F226821F00101E1
:1030100042E805134BB1216851E8051F226821F0F1
:10302000010142E80513002BDAD1202184F8421077
:1030300000212163216851E8031F226821F010015B
:1030400042E80313DBB1216851E8031F226821F035
:10305000100142E8031393B1216851E8031F22686D
:1030600021F0100142E803134BB1216851E8031F1E
:10307000226821F0100142E80313002BDAD102226A
:1030800081B22046626302B0BDE8B040FFF782BC67
:10309000204602B0BDE8B040FFF736BD216A31F8E6
:1030A000022B6FF35F224260216299E5002804BF82
:1030B0000120704710B5044690F8410028B900205F
:1030C00084F84000204600F021F8242084F84100D4
:1030D0002068C16821F40051C160204601F0A4F9C4
:1030E0002068016921F490410161416921F02A01C0
:1030F0004161C16841F40051C16000202021606439
:1031000084F8411084F84210606310BD2DE9F0434B
:1031100087B00446006844F6FF31C4F200018842DB
:103120004FF000010691CDE90411CDE9021145DD12
:1031300041F20041C4F20101884200F0978045F25B
:103140000001C4F20001884200F0E28044F6004130
:10315000C4F20001884240F07581002043F630013E
:103160000190C4F202010A6942F400220A610A696C
:1031700002F400220192019A01900A6842F00402CE
:103180000A60096801F00401019101994FF440615E
:1031900002910221CDE9031003200590082006903A
:1031A00040F60040C4F20200A0F5806002A9FEF7DC
:1031B000E1F834200521002234243EE144F20041AC
:1031C000C4F20001884200F0ED8044F60001C4F230
:1031D0000001884240F03681002643F63000019617
:1031E000C4F20200016940F6004441F4802101610B
:1031F0000169C4F2020401F4802101910199019650
:10320000016802AD41F00201016001684FF002085F
:1032100001F0020101910199019601684FF0030943
:1032200041F0080101600068072700F008000190E4
:1032300001984FF440600290A4F500602946CDE962
:103240000386CDF814900697FEF794F84FF4C0501B
:10325000CDE9020820462946CDE904690697FEF724
:1032600089F82720032100222724E6E0002643F6E0
:1032700030000196C4F20200416941F02001416131
:10328000416901F02001019101990196016841F025
:1032900040010160006802A900F04000019001981F
:1032A0004FF4844002900220CDE9030603200590EC
:1032B0000820069040F60040C4F2020000F540608D
:1032C000FEF758F846F28800C4F2020040F6F465B2
:1032D00000F56870C2F200054FF020614FF4806283
:1032E00085E843002846C5E90362C5E90566C5E9E6
:1032F00007666E62FDF77EFF002818BFFDF758FADB
:10330000E563AC63472006210022472495E000BF17
:10331000002643F630000196C4F20200016940F62F
:10332000004441F4801101610169C4F2020401F416
:103330008011019101990196016802AD41F00401EB
:10334000016001684FF0020801F004010191019948
:10335000019601684FF0030941F00801016000681F
:10336000082700F00800019001984FF48050029067
:10337000A4F580602946CDE90386CDF81490069720
:10338000FDF7F8FF0420CDE9020820462946CDE9E3
:1033900004690697FDF7EEFF35200521002235244C
:1033A0004BE000BF002643F630000196C4F2020055
:1033B000016941F400310161016901F400310191B9
:1033C00001990196016841F008010160006802A9B5
:1033D00000F0080001900198602002900220CDE9E1
:1033E0000306032005900720069040F60040C4F233
:1033F0000200FDF7BFFF40F6946546F28800C2F276
:103400000005C4F202004FF000614FF4806285E8CD
:1034100043002846C5E90362C5E90566C5E90766B4
:103420006E62FDF7E7FE002818BFFDF7C1F9E563FE
:10343000AC632620042100222624FEF733F920461F
:10344000FEF71EF907B0BDE8F083000090F84230A7
:10345000202B07D100294FF0010318BF002A05D106
:103460001846704702231846704700BF00230363C5
:10347000816222218285C285436480F842100169FD
:10348000006819B1C16841F48071C160416941F0BF
:1034900001014161C16841F02001C16018467047D7
:1034A000F0B581B040F2E465C2F200052968044637
:1034B00001290BDB40F2BC66C2F2000630684268AC
:1034C000A24219D0013906F10406F7D12868012873
:1034D00010DB40F2BC670026C2F2000757F8260056
:1034E000012200F108012046FFF7B0FF28680136ED
:1034F0008642F3DB01B0F0BD0268017A12689047A2
:103500003068012200F10801204601B0BDE8F0401A
:10351000FFF79CBF2DE9F041044690F841002028B8
:103520001CBF0220BDE8F0810D4600294FF00100CC
:1035300000F0AA801646002A08BFBDE8F0810020EE
:1035400060642120984684F84100FDF7E9FFA684D5
:10355000E684A1680646B1F5805F02D120690028A3
:1035600062D02F460025E08C002861D018F10100C0
:1035700018D0B8F1000F37D1216808E017F8010B17
:103580004860E08C0138E084E08C002851D0086865
:10359000000673D5002FF1D135F8020B00276FF329
:1035A0005F20EDE7216802E00868000609D408689A
:1035B000000606D4086800065CBF08685FEA006081
:1035C000F2D51FB117F8010B05E000BF35F8020B6B
:1035D00000276FF35F204860E08C0138E084E08CC6
:1035E0000028E4D125E000BF216800BF086800067C
:1035F00008D4FDF795FF801B404541D82168C86875
:10360000F4E700BF17B117F8010B04E035F8020B1F
:1036100000276FF35F204860E08C0138E084E08C85
:103620000028E3D105E000BF0027E08C00289DD1F1
:103630002168086840061FD4B8F1000F1ED018F1A9
:1036400001000FD10868400616D40868400613D45C
:103650000868400610D4086840064FF00000F1D515
:103660000FE000BFFDF75CFF801B404508D82068D5
:10367000C16800684006F5D5002002E0FDF750FF64
:103680000320202184F84110BDE8F081704700003C
:10369000FEE7000080B540F2780046F20041C2F239
:1036A0000000C4F2000140F8181F03210022C0E905
:1036B000011200F10C014FF400234FF4401C4FF0B5
:1036C000012E81E80C508283FDF73EFA002808BFE6
:1036D00080BDBDE88040FDF76BB8000080B540F2CA
:1036E000780046F60001C2F20000C4F2000140F882
:1036F000401F03210022C0E9011200F10C014FF428
:1037000000234FF4401C81E80C104FF480710183BA
:10371000C0F81A20FDF718FA002808BF80BDBDE8E0
:103720008040FDF745B8000080B582B0002043F628
:1037300030010190C4F202010A6842F400120A60EA
:103740000A6802F400120192019A009008680022AF
:1037500040F4800008600868072100F480000090B1
:1037600000981020FDF79EFF1020FDF789FF3920FB
:1037700005210022FDF796FF392002B0BDE8804008
:10378000FDF77EBF2DE9F04387B0002743F63000F8
:1037900006970197C4F20200016841F2004541F02A
:1037A000100101600168C4F2020501F010010191ED
:1037B000019901970168002241F00401016001684C
:1037C0001E2601F00401019101990197016841F061
:1037D00020010160016801F0200101910199019728
:1037E000016841F080010160016801F080010191F0
:1037F00001990197016841F001010160016801F040
:103800000101019101990197016841F002010160F4
:10381000016801F00201019101990197016841F0ED
:1038200008010160016801F0080101910199019707
:10383000016841F04001016000681E2100F0400075
:10384000019001982846FDF765FEA5F540642046E5
:103850000F2100224FF00F08FDF75CFE029602AE2A
:103860004FF0010928463146CDE903970597FDF74A
:1038700081FD402002904FF48810CDE903072846CF
:103880003146FDF777FD20463146CDE90289CDE985
:103890000477FDF76FFD172000210022FDF702FFDE
:1038A0001720FDF7EDFE07B0BDE8F083B0B592B08C
:1038B00041F6000540F69C70C4F200050021C2F2FA
:1038C000000040F28F6240F2E7330B91CDE909111D
:1038D0000791CDE90511CDE90311CDE90111C0E949
:1038E0000052C0E9021301618161FEF781FA0028EC
:1038F00018BFFCF75DFF4FF48050089040F69C70B5
:10390000C2F2000008A9FEF73DFB002818BFFCF733
:103910004FFF40F69C70C2F20000FEF76DFF0028DA
:1039200018BFFCF745FF602001900020CDE90200A0
:10393000059040F69C70C2F2000001A90022FEF73B
:1039400049FE002818BFFCF733FF40F69C74C2F212
:10395000000401A920460422FEF73CFE002818BFFF
:10396000FCF726FF206844F20002C4F201020021A5
:1039700090420D911AD0A8422CD0B0F1804F47D17F
:1039800000200C9043F63000C4F20200016841F0C0
:10399000010101600068012100F001000C900C9809
:1039A0000F200D9005F5F43029E000BF43F63000FC
:1039B0000C91C4F20200016841F01001016000683E
:1039C000032100F010000C900C9860200D9005F57C
:1039D000FC3014E000200C9043F63000C4F20200EA
:1039E000016841F0020101600068092100F0020055
:1039F0000C900C984FF440400D9005F5F6300222E3
:103A00000E92002211910DA9CDE90F22FDF7B2FC13
:103A100012B0B0BD10B58CB040F654700021002437
:103A2000C2F20000C4F20101C0E900140321CDE993
:103A3000031401214FF6FF72CDE90514CDE90914F5
:103A400003A9CDE90044C0E90242C0E9044484610D
:103A5000CDE907440B94FEF765FB002818BFFCF77F
:103A6000A7FE40F65470C2F200006946CDE900445A
:103A7000FEF760F9002818BFFCF79AFE0CB010BDE5
:103A800010B594B040F6E4700021C2F200004FF08F
:103A90008042072340F2E7340D91CDE90B110991E3
:103AA000CDE90711CDE90511CDE90311CDE90111EA
:103AB000C0E90023C0E9021401618161FEF798F9B1
:103AC000002818BFFCF774FE4FF480500A9040F6AF
:103AD000E470C2F200000AA9FEF754FA002818BFE9
:103AE000FCF766FE40F6E470C2F20000FEF784FECA
:103AF000002818BFFCF75CFE40F6E4700024C2F218
:103B0000000008A9CDE90844FEF714F9002818BF01
:103B1000FCF74EFE6020CDE9010440F6E470C2F2ED
:103B2000000001A9002203940594FEF753FD00282C
:103B300018BFFCF73DFE40F6E470C2F2000001A998
:103B40000422FEF747FD002818BFFCF731FE40F6BF
:103B5000E470C2F2000001A90822FEF73BFD002834
:103B600018BFFCF725FE40F6E474C2F2000401A978
:103B700020460C22FEF72EFD002818BFFCF718FE89
:103B8000206844F20002C4F20102002190420F9129
:103B90001ED041F60001C4F20001884230D0B0F1DD
:103BA000804F4ED100200E9043F63000C4F2020048
:103BB000016841F0010101600068012100F001008D
:103BC0000E900E980F200F900020C4F202002FE0FC
:103BD00043F630000E91C4F20200016841F010017A
:103BE00001600068032100F010000E900E98602024
:103BF0000F900020C4F2020000F5805018E000BFD2
:103C000000200E9043F63000C4F20200016841F03B
:103C1000020101600068092100F002000E900E9878
:103C20004FF440400F900020C4F2020000F5806085
:103C300002221092002213910FA9CDE91122FDF763
:103C400099FB14B010BD000080B58CB041F22C007F
:103C500040F200420021C2F20000C4F20002C0E9BA
:103C6000002103224FF6FF73CDE903210122CDE9A4
:103C70000011C0E9021301618161CDE90521CDE99F
:103C80000711CDE909210B9103A9FEF74BFA002892
:103C900018BFFCF78DFD41F22C00C2F2000069460E
:103CA000FEF748F8002818BFFCF782FD0CB080BD75
:103CB00080B58CB041F2740040F600020021C2F2DF
:103CC0000000C4F20002C0E9002103224FF6FF7396
:103CD000CDE903210122CDE90011C0E90213016100
:103CE0008161CDE90521CDE90711CDE909210B91CC
:103CF00003A9FEF717FA002818BFFCF759FD41F297
:103D00007400C2F200006946FEF714F8002818BFDC
:103D1000FCF74EFD0CB080BD10B58CB041F2041024
:103D200040F200410024C2F20000C4F20101C0E9E7
:103D300000140321CDE9031401214FF6FF72CDE9F0
:103D40000514CDE9091403A9CDE90044C0E90242F4
:103D5000C0E904448461CDE907440B94FEF7E2F91D
:103D6000002818BFFCF724FD41F20410C2F2000045
:103D70006946CDE90044FDF7DDFF002818BFFCF7D8
:103D800017FD0CB010BD0000B0B592B044F20005B4
:103D900041F24C10C4F201050021C2F2000040F2D1
:103DA0008F6240F2CF730B91CDE909110791CDE9F4
:103DB0000511CDE90311CDE90111C0E90052C0E9B7
:103DC000021301618161FEF713F8002818BFFCF7A8
:103DD000EFFC4FF48050089041F24C10C2F200000A
:103DE00008A9FEF7CFF8002818BFFCF7E1FC41F264
:103DF0004C10C2F20000FEF7FFFC002818BFFCF7D1
:103E0000D7FC602001900020CDE90200059041F22E
:103E10004C10C2F2000001A90022FEF7DBFB0028D3
:103E200018BFFCF7C5FC41F24C14C2F2000401A912
:103E300020460422FEF7CEFB002818BFFCF7B8FC92
:103E400020680021A8420D911ED041F60001C4F265
:103E5000000188422CD0B0F1804F47D100200C9057
:103E600043F63000C4F20200016841F00101016034
:103E70000068012100F001000C900C980F200D90BB
:103E800005F5404029E000BF43F630000C91C4F234
:103E90000200016841F0100101600068032100F098
:103EA00010000C900C9860200D9005F5504014E027
:103EB00000200C9043F63000C4F20200016841F08B
:103EC000020101600068092100F002000C900C98CA
:103ED0004FF440400D9005F5444002220E9200221E
:103EE00011910DA9CDE90F22FDF744FA12B0B0BD32
:103EF00080B541F2242044F60041C2F20000C4F231
:103F0000000100234FF00C0C4FF4E13280E80E006A
:103F1000C0E90333C0E905C3C361FFF7C7F8002850
:103F200008BF80BDBDE88040FCF742BC80B541F2CF
:103F30006C2045F20001C2F20000C4F2000100232F
:103F40004FF00C0C4FF4E13280E80E00C0E903336F
:103F5000C0E905C3C361FFF7A9F8002808BF80BD09
:103F6000BDE88040FCF724BC80B541F2941044F2D7
:103F70000041C2F20000C4F2000100234FF00C0C1B
:103F80004FF4E13280E80E00C0E90333C0E905C315
:103F9000C361FFF78BF8002808BF80BDBDE88040F3
:103FA000FCF706BC80B541F2DC1044F60001C2F219
:103FB0000000C4F2000100234FF00C0C4FF4407ECF
:103FC0004FF4E13280E80E00C0E90333C0E905CECA
:103FD000C361FFF76BF8002808BF80BDBDE88040D3
:103FE000FCF7E6BB80B541F2B42041F20041C2F2D9
:103FF0000000C4F2010100234FF00C0C4FF4E13239
:1040000080E80E00C0E90333C0E905C3C361FFF7D0
:104010004DF8002808BF80BDBDE88040FCF7C8BB54
:10402000FEE70000FEE700000000000000000000C6
:10403000EFF30980BFF36F8F154B1A681EF0100F56
:1040400008BF20ED108A20E9F04F10602DE909002B
:104050004FF0500080F31188BFF34F8FBFF36F8F85
:1040600004F0DAFA4FF0000080F31188BDE809008F
:1040700019680868B0E8F04F1EF0100F08BFB0ECE8
:10408000108A80F30988BFF36F8F704700BF00BFAD
:10409000E000002000000000000000000000000020
:1040A000074B19680868B0E8F04F80F30988BFF340
:1040B0006F8F4FF0000080F31188704700BF00BF82
:1040C000E000002080B54EF21000CEF20000006843
:1040D00005F0D6F8012808BF80BDBDE8804004F097
:1040E000BDBB0000B0B592B0002443F64000CDE95E
:1040F0000A44CDE908440594CDE90344CDE90144DF
:104100000094C4F202000168022541F08051016070
:10411000006800F080500090009847F20000009482
:10412000C4F20000016841F4804101600068A821E8
:1041300000F4804000900098012006904FF48030F9
:1041400007904FF480000D9004200E90119006A867
:104150000C95CDE90F15FDF711FC18B172B600BF33
:10416000FEE700BF0F20CDE901054FF4A0500490F9
:104170004FF48050059001A805210394FDF7CEFA75
:1041800010B172B6FEE700BF12B0B0BD4EF6885057
:10419000CEF20000016841F4700101607047000038
:1041A00041F2BC00C2F20000FEF76AB941F204100D
:1041B000C2F20000FEF764B910B540F6FF3E036896
:1041C000C4F2000E40F2004C7045C4F2010C27DC32
:1041D000B0F1804F31D040F20042C4F20002904270
:1041E0002BD040F60002C4F20002904225D041F6E6
:1041F000FF72C4F20002904229DC70453CDCB0F151
:10420000804F5FD040F20042C4F20002904259D089
:1042100040F60002C4F20002904253D056E000BFC4
:1042200040F60042C4F20002904206D0604504D03D
:104230000022C4F201029042D9D14A6823F07003EF
:10424000134341F6FF72C4F200029042D5DD43F6FB
:10425000FF72C4F20102904222DC42F20002C4F278
:10426000000290422ED00022C4F20102904229D0D6
:10427000604527D02AE000BF40F60042C4F20002A9
:1042800090421FD041F60002C4F20002904219D0C1
:1042900041F60042C4F20002904213D016E000BF83
:1042A00044F20002C4F2010290420BD044F6000234
:1042B000C4F20102904205D044F20042C4F201026D
:1042C000904203D1CA6823F44073134323F0800261
:1042D0004B69D1F800E08C681A430260C46240F474
:1042E0008062C0F828E0624504BF096901630121CA
:1042F00041610169C90708BF10BD016921F00101D1
:10430000016110BD41F22420C2F20000FEF716BC8C
:1043100041F26C20C2F20000FEF710BC806B00215D
:10432000C185C184FEF7F0BB81B090F8421022290C
:1043300021D183680246B3F5805F09D152F8281F66
:1043400052F8183C002B63D003685B680AE000BF9A
:1043500052F8281F13B90369002BF5D003685B6876
:1043600003F07F030B70116801311160C18D0139B9
:104370000A04C18502D001B0704700BF0168CA6855
:1043800022F02002CA60CA6822F48072CA604A69B8
:1043900022F001024A61202180F84210002141638D
:1043A000026B012A3CD10163016851E8031F0268D6
:1043B00021F0100142E80313DBB1016851E8031F4B
:1043C000026821F0100142E8031393B1016851E83B
:1043D000031F026821F0100142E803134BB101688A
:1043E00051E8031F026821F0100142E80313002B7B
:1043F000DAD101680A68D20606D5002200920A685E
:104400000092496800910099818D01B0FEF7C2BA0F
:10441000026852686FF35F2221F8022B8162A5E7E0
:1044200001B0FFF73DB8000010B504460068D4E9BC
:1044300002C22369016921F440511143016162699B
:1044400043EA0C01E3691143C268194349F20C6362
:104450009A431143C1604169A26921F4407141F25C
:104460000043114340F48062C4F201039A42416167
:1044700002D1FDF739FA01E0FDF722FAE16963683C
:104480001922B1F5004FA0FB020123D15A00DB0F26
:10449000FBF702FF48F21F51C5F2EB11A0FB01230D
:1044A0005A094FF69C73C0F6FF7303F1805302FB69
:1044B0000300322303EBC000A0FB01014FF4F870AE
:1044C00000EA111000EB0210C1F342110844216808
:1044D000886010BD9A009B0FFBF7DEFE48F21F516B
:1044E000C5F2EB11A0FB01235A094FF69C73C0F6ED
:1044F000FF7302FB0300322303EB0010A0FB01015A
:10450000F02000EA511000EB0210C1F343110844FF
:104510002168886010BD000041F29410C2F20000D2
:10452000FEF70CBB41F2DC10C2F20000FEF706BB46
:1045300041F2B420C2F20000FEF700BBFEE700002B
:104540002DE9F04140F28420C2F20000A0F16C0499
:104550004FF0000818264FF4A06700F5876500BFEC
:1045600044F86C8F04F114005021E660FBF759FF0A
:1045700004F16C00A842A766F2D1BDE8F08100000A
:104580002DE9F04F81B02DED028B86B042F29410F0
:10459000C2F2000000F018FC40F6502041F2242145
:1045A000C2F20000C2F2000100224FF0000900F048
:1045B00065FB40F6084041F29411C2F20000C2F2DD
:1045C0000001002200F05AFB40F6C05041F2DC111D
:1045D000C2F20000C2F2000100F0B2FF41F24C143E
:1045E00041F29440C2F20004FA25C2F200002146D2
:1045F00000223223009501F03BFB41F2A040C2F2C1
:1046000000002146042232230095042701F030FBEC
:1046100040F60004C4F202040120CDE9004002A8E3
:1046200040F6E4764FF02D0A4FF0020880E81005BE
:1046300041F6FC70C2F2000641F204130D25C2F2ED
:104640000000C2F2000331460022059501F082FC11
:1046500041F2C83041F274034FF0080BC2F200007F
:10466000C2F2000331460422CDE90047CDE9024BF6
:10467000CDF810A0059501F06DFC04F54067CDE97B
:10468000007842F2C8080420C2F2000841F22C036C
:10469000CDE9030AC2F200034046314608220297E0
:1046A000059501F057FC1020CDE9027041F2FC2085
:1046B00040F65473C2F20000C2F2000331460C22ED
:1046C000CDE9007BCDF810A0059501F043FC032156
:1046D00040F6C052C2F20002029141F6FC7102F1B2
:1046E0000C0441F2C83208F11406C2F2000141F292
:1046F00060789FED3E8AC2F2000201F1140A00F1D7
:104700001407C2F2000802F1140540463146524631
:104710003B46B0EE480AF0EE480A0095019402F0DC
:1047200021F841F2AC409FED320A9FED321ADFEDE5
:10473000321ADFED322AC2F20000F5EE000A3146ED
:1047400052463B46B0EE482ACDE90054CDF80880E9
:1047500001F0AEFD00F1140440F2E870C2F2000076
:1047600000210022234600F0AFF841F62850B7EEB2
:10477000080A9FED231AC2F200002146F0EE400A1B
:1047800002F004F942F29810C2F2000030210171E7
:104790004AF2F841C0F6000101F1080224314161FA
:1047A0000121C0F80590C0F80990C0F80D90C0F83C
:1047B0001090A0F8189080F81A90A0F81C9080F83B
:1047C0001E90C0F820900260C0E90B9980F83490E8
:1047D00080F83C10C0E91099C0E91299C0E9149919
:1047E00006B0BDEC028B01B0BDE8F08F0000000008
:1047F0008FC2F53C508D173EAE47E13F6666663F7F
:104800006666664010B500F1B401044600F0FAFF98
:1048100004F19801204600F0F5FF204601F04CF825
:1048200094F85002022811D81DA101EB800191EDEE
:10483000000A1EA120A251F8201052F8200084ED99
:10484000080A84ED090AE162C4F85402D4F860024F
:10485000012101F0F5FB94ED990A9FED1A1A002150
:10486000B4EE410AF1EE10FAC8BF0121D4F860029B
:1048700094ED081A94ED090A94ED0B2A94ED173A79
:1048800094ED184A94ED195A23EE000A64EE010AD9
:1048900022EE451A80F8E410BDE8104001F0E8BBB4
:1048A0009A99993E9A99193F9A99993FCDCC8C3F04
:1048B000CDCC4C4052B87E4000000000D00F4940A3
:1048C000000000009A99193EF0B581B0B7EE080AD1
:1048D0009FED251A15460E4600210022F0EE400AF3
:1048E0001C46002701F08AF9302180F840124AF274
:1048F0002441C0F6000101F10802026001F130021A
:104900004031C0E9957600F1320300F13306826050
:10491000C0F83C1200F514710122C0E99754C0E9B7
:104920002636022300F1360600F13705C0F8417241
:10493000C0F84572C0F84972C0F84C7280F8502235
:10494000C0F86472C0F8A01080F8A430C0E92A272B
:10495000C0E92C76C0E92E5180F8C030C0E931376B
:10496000C0F8CC7001B0F0BD666666404FF41A71B5
:1049700002F07CBA70470000F0B581B004462030E8
:1049800001F07EF94FF6FC3094F8C410A4F8500101
:1049900094F8C70004F5A87784F8520184F85311FD
:1049A00021B3042901F0030002D200220CE000BF71
:1049B00001F0FC03002200BFA618D6F80C51043207
:1049C0009342C6F85451F7D180B104F58675AE5CB8
:1049D0001319012883F8546108D02A445678022814
:1049E00083F855611CBF907883F8560104F58670F2
:1049F000FBF75CFE94F8C410A4F84C01661886F826
:104A00005401000A86F855014FF6FD65606801F112
:104A1000080239464FF0FF33A6F8565101B0BDE801
:104A2000F040FEF777BD0000D0F8B021042A07DC83
:104A3000531CC0F8B03100EB8203C3F89C114860EE
:104A40000020052AB8BF012070470000B0B582B031
:104A5000044690F8B401082800F20081DFE800F075
:104A600006101C242E424A525E0000BFFC2952D17F
:104A7000012084F8B401FC2084F8390002B0B0BDF4
:104A8000FB2940F0EB80022084F8B401FB2084F87D
:104A90003A0002B0B0BD00BF84F83B10032084F898
:104AA000B40102B0B0BD00BF002084F8381084F813
:104AB0009801042084F8B40102B0B0BD204610F87B
:104AC00038CF90F860315A1C5FFA82FE80F860217E
:104AD0001844E64581711ED3052084F8B40102B064
:104AE000B0BD00BF84F8C010062084F8B40102B045
:104AF000B0BD00BF84F8C110072084F8B40102B033
:104B0000B0BD00BFFD2940F0A980082084F8B401A1
:104B1000FD2084F8C20002B0B0BD00BFFE2940F005
:104B20009D8094F89901FE21002884F8C31054D088
:104B300094F8381004F13E00FBF7B8FDB4F8C0104B
:104B4000A087884245D194F83810A9B3042901F010
:104B5000030E01D2002113E001F0FC0C04F141032B
:104B60000021651895F83E00B5F83F2085F88000D3
:104B7000585C04318C45A5F8812085F88300F0D17C
:104B8000BEF1000F18D0631893F83E3004F1800294
:104B9000BEF1010F53540FD001F1010C04EB0C03D3
:104BA00093F83E30BEF1020F02F80C3004D0881C9E
:104BB000211891F83E10115404F1800104F12000F5
:104BC0000091012102220023002501F06FF884F8F2
:104BD000B45194F89901002840D194F8381099B351
:104BE000042901F0030C01D2002114E001F0FC0EB5
:104BF00004F14103002100BF651895F83E00B5F8A7
:104C00003F2085F88000585C04318E45A5F881204E
:104C100085F88300F0D1BCF1000F15D0631893F82C
:104C20003E3004F18002BCF1010F53540CD04B1CF8
:104C3000E51895F83E50BCF1020FD55404D0881CFD
:104C4000211891F83E10115404F1200004F1800560
:104C5000012102220023009501F028F8002084F8A9
:104C6000B40102B0B0BD0000002A1CBF1168C0F83A
:104C70000C110020704700000020704770B51546E9
:104C8000044600F0EBF8302020744AF27040C0F681
:104C9000000000F10801216000F128013C300026ED
:104CA000E160206204F180004021C4F81160C4F882
:104CB0001560C4F81960E661A68484F8266026852C
:104CC00084F82A60E66284F8386084F83B60A6873E
:104CD000FBF7A7FB04F58670402184F8C46084F8D4
:104CE000C760A4F8C860FBF79CFB204684F8986175
:104CF00084F89951C4E96766C4E96966C4E96B66DA
:104D000084F8B46170BD00004FF4DC7102F0AEB8FD
:104D10007047000040F28421C2F200016C2200FBC7
:104D2000021000F1640400F1100500F1140602E025
:104D3000286802F0E9F820680128F9DB002703E081
:104D4000206801378742F3DA56F827000028F7D0A9
:104D5000016809688847F3E7092988BF70472DE98A
:104D6000F0418AB040F28425C2F200056C2001FBBC
:104D700000570C463E4656F8640F13281FDC07EB1D
:104D8000800042613868B8B90DF10408404624211A
:104D9000FBF747FB6C2004FB00504246011D0191CC
:104DA000816EC068CDE9061044F61550C0F60000CB
:104DB000214602F0E1F938603068013030600AB015
:104DC000BDE8F0417047000070B540F2842C46F217
:104DD00074134FF0000EC2F2000CC6F673335F215D
:104DE000002200240CEB02056C3204F13006B2F50F
:104DF000876F04F101046B6029726E7285F80AE016
:104E0000F0D130210122CCE9031220210223CCE988
:104E10001E130523CCE939131821CCE954130A23B6
:104E2000CCE96F131021CCE98A130F23CCE9A51329
:104E30000821CCE9C0131423CCE9DB13CCE9F62319
:104E400070BD00007047000070470000426800F12C
:104E5000080110460122FEF7F9BA000080B540F2C1
:104E6000E46EC2F2000E4AF2B44CDEF80020C0F646
:104E7000000C0CF10803092AC0E90031C8BF80BD4D
:104E8000511CCEF8001040F2BC61C2F2000141F8A2
:104E9000220080BDB0B52DED108BB0EE628AB0EE71
:104EA000429AB0EE61AAB0EE41CAB0EE60BAB0EE7E
:104EB00040DA044601F09EFB083001F09BFB04F150
:104EC000100001F097FB04F1180001F093FB04F1CE
:104ED000200001F08FFB04F1280001F08BFB04F1AE
:104EE000300001F087FB04F1380001F083FB04F18E
:104EF000400001F07FFB04F1480001F07BFB00253E
:104F000004F15800C4E9145501F074FB45F629403A
:104F1000C3F68F6020664FF08340C4E91A5004F155
:104F2000740084F86450A4F8705000F03BF89FEDD2
:104F300018EA9FED19FADFED198A9FED162A04F1A0
:104F4000C400B0EE4D0AF0EE4C0AB0EE4B1AF0EE93
:104F50004E1AF0EE4F2AB0EE683AC4F8C05000F096
:104F600019FC9FED0F2A04F58470B0EE4A0AF0EEAA
:104F7000490AB0EE481AF0EE4E1AF0EE4F2AB0EEA3
:104F8000683A00F007FC2046BDEC108BB0BD00BFB6
:104F90000000C8427B14EE3F9A991941000060421C
:104FA000CDCC0C4010B544210446FBF73AFA4FF043
:104FB000FF3100222046C4E9111210BDFEDE0000C0
:104FC00070470000002B04BF012070472DE9F0431B
:104FD00017883F2F84BF0020BDE8F083C3F1000C89
:104FE00002F1040EA3F1040800250CEB0506C41918
:104FF000771C217224D002EB45077C883F2C21D8F6
:1050000000EB0409B41C89F808101FD0BEF800405A
:105010003F2C1FD80444033621721DD0BEF8024035
:105020003F2C1BD80444A84505F10406217217D073
:105030003F890EF1080E3F2F3546D6D910E000BF4C
:105040006E1C0DE045F001060AE000BF45F00206C7
:1050500006E000BFAE1C03E0EE1C01E045F00306D5
:1050600000209E4228BF0120BDE8F083F0B581B04A
:1050700016460D46074608304021FF22C7E9005674
:10508000FBF7C7F9002E00F03581042E06F0030C63
:1050900010D200200026BCF1000F00F02B8105EBA0
:1050A000C0010A79002A00F0AF80022A80F0AE80A9
:1050B0000123C5E026F003020020002609E000BF1E
:1050C000002431440430824204EB01065C77997776
:1050D000E1D005EBC003197921B1022904D20124E2
:1050E0001CE000BF002419E0042901D2022415E0CD
:1050F000082901D2032411E0102901D204240DE073
:10510000202901D2052409E0402901D2062405E026
:1051100049B20824B1F1FF3FC8BF0724197B5C7175
:105120009E7119B1022903D201211DE000211BE06B
:10513000042901D2022117E0082901D2032113E03A
:10514000102901D204210FE0202901D205210BE012
:10515000402901D2062107E049B2B1F1FF3F4FF0EB
:105160000801C8BF072100BF34441E7D59739C73DA
:1051700026B1022E04D201261EE000BF00261BE04D
:10518000042E01D2022617E0082E01D2032613E0D6
:10519000102E01D204260FE0202E01D205260BE0AE
:1051A000402E01D2062607E076B2B6F1FF3F4FF05F
:1051B0000806C8BF072600BF21441C7F5E75002C6F
:1051C00099753FF47DAF022C02D2012479E700BF2C
:1051D000042C01D2022474E7082C01D2032470E7C6
:1051E000102C01D204246CE7202C01D2052468E79E
:1051F000402C01D2062464E764B2B4F1FF3F4FF0C3
:105200000804C8BF07245CE7002319E0042A01D280
:10521000022315E0082A01D2032311E0102A01D24B
:1052200004230DE0202A01D2052309E0402A01D2FF
:10523000062305E052B20823B2F1FF3FC8BF07239F
:10524000BCF1010F4B718E7154D0411C05EBC102B2
:105250001479991924B1022C04D201231CE000BF57
:10526000002319E0042C01D2022315E0082C01D2FE
:10527000032311E0102C01D204230DE0202C01D2D5
:10528000052309E0402C01D2062305E066B208237D
:10529000B6F1FF3FC8BF0723BCF1020F53719171F4
:1052A00028D0023005EBC0000279194422B1022A4D
:1052B00004D201221CE000BF002219E0042A01D21E
:1052C000022215E0082A01D2032211E0102A01D29D
:1052D00004220DE0202A01D2052209E0402A01D251
:1052E000062205E053B20822B3F1FF3FC8BF0722F0
:1052F00042718171384601B0F0BD00007047000076
:1053000090ED340AB1EE400A704700000000000042
:105310002DE9F0412DED068B0446806EB0EE408AFB
:10532000400084ED190A07D14FF07E50B0EE489A44
:1053300084ED1B8AA06601E094ED1B9A38EE49AA21
:105340001AEE100A84ED1CAA04F0A2FE9FED3A0B9F
:10535000054658EC107B3A4643460E4604F0E6FEFE
:10536000B0B1B5EE40AAF1EE10FA33DA9FED360B8C
:10537000284653EC102B314604F0D1FE50BB39EED9
:10538000480A84ED1D0ABDEC068BBDE8F08100BF24
:1053900018EE100A04F07CFE9FED290B02460B4626
:1053A00051EC100B04F086FD054619EE100A0E466E
:1053B00004F06EFE02460B462846314604F0BEFB62
:1053C00004F08AFB00EE100A6067BDEC068BBDE8B6
:1053D000F08100BF9FED1C0B284653EC102B31468B
:1053E00004F08FFE90B1B5EE40AAF1EE10FA07DBA3
:1053F000284631463A46434604F08AFE0028BED08D
:1054000094ED1D0ABDEC068BBDE8F08119EE100A83
:1054100004F03EFE054618EE100A0E4604F038FE73
:105420009FED0B0B02460B4651EC100B04F042FDB6
:10543000C0E700BF00BF00BF6E861BF0F921094026
:105440006E861BF0F92119406E861BF0F92109C008
:105450006E861BF0F92119C010B50446007C08289F
:1054600000F26B80DFE800F0060C141A1E263822CA
:105470003C0000BFFC2962D1FC20207501205DE0CA
:10548000A1F1420010F1020F57D36175022055E0DF
:105490000020A17584F8600003204FE0E17504202E
:1054A0004CE000BF2176062048E000BF84F85D1084
:1054B000052043E094F86000A27D2318013084F8B1
:1054C0006000197794F86000904238BF10BD00204A
:1054D0006083082032E000BF84F85C1007202DE0D4
:1054E000FD292AD1607DFD21412884F85E1011D06C
:1054F000402822D104F11C0E9EE80F50E167A067FE
:10550000C4F88020C4F88430C4F888C0C4F88CE0A3
:1055100013E000BF04F11C0C9CE80F1004F1A80E6E
:1055200094ED0C0A8EE80F002046C4F8B8C084ED54
:105530002F0AFFF7EDFE84ED340A0020207410BD21
:1055400080B5FFF78BFC4AF2D441C0F6000101F1AF
:1055500008021831C1600021026080F86010C0F8B4
:10556000D010C0E91911C0E91B11416780BD0000CE
:1055700090ED031A90ED002A31EE401A90ED0C0ADE
:10558000B5EE401AF1EE10FAB0EE416AB4EE401AF0
:1055900090ED073A90ED0A5A9FED434AC8BFB0EE2E
:1055A000446AF1EE10FAB8BFB0EE461AB1EE400A06
:1055B000B5EE401AF1EE10FAB0EE416AB4EE401AC0
:1055C000B8BFB0EE446AF1EE10FAC8BFB0EE461AAA
:1055D00021EE020A90ED0E2A31EE036AB1EE423A54
:1055E000B4EE431A80ED0F1A80ED060AF1EE10FAC0
:1055F000B8BFB0EE446AB4EE421AF1EE10FAC8BF7A
:10560000B0EE446AB4EE456AB0EE462AB1EE454AC1
:10561000F1EE10FAC8BFB0EE452AB4EE442AF1EE1E
:1056200010FAB0EE423AB4EE456AB8BFB0EE443A72
:10563000F1EE10FA80ED076A08DCB4EE442AF1EED0
:1056400010FAB8BF80ED073A02E000BF80ED073ADC
:1056500090ED014A90ED086A90ED025A23EE043A6B
:1056600031EE464A90ED0B2A24EE054A33EE000A4D
:1056700030EE040AB4EE420AF1EE10FA80ED043A7C
:1056800080ED054A80ED081A80ED090A07DCB1EECD
:10569000422AB4EE420AF1EE10FAA8BF7047B0EE0B
:1056A000420A80ED092A70470000000090ED0C1AB4
:1056B000B5EE400AF1EE10FAB0EE403AB4EE401A00
:1056C0009FED332AC8BFB0EE423AF1EE10FAC8BFE0
:1056D000B0EE430AB1EE411AB5EE400AF1EE10FA0F
:1056E000B0EE403AB4EE410AB8BFB0EE423AF1EE45
:1056F00010FAC8BFB0EE430A90ED0E6A90ED001AA2
:1057000090ED075AB1EE467A90ED013A20EE011A7B
:1057100030EE055AB4EE470A80ED0F0A90ED024ACA
:1057200080ED061AF1EE10FAB8BFB0EE425AB4EEB0
:10573000460AF1EE10FAC8BFB0EE425A25EE032A2F
:1057400090ED083A80ED080A30EE433A23EE043A31
:1057500032EE010A90ED0B1A30EE030AB4EE410A64
:10576000F1EE10FA80ED075A80ED042A80ED053A3B
:1057700080ED090A07DCB1EE411AB4EE410AF1EE00
:1057800010FAA8BF7047B0EE410A80ED091A7047C1
:1057900000000000002100F1280280EC030AC0E9AB
:1057A0000311C0E90511C0E907114162C2EC031AF7
:1057B0004163C0E90F1180ED0E3A704780B582B0A9
:1057C00041F2AC41C2F20001143001F1380C012168
:1057D00003220023CDF800C000F074FA02B080BDAF
:1057E000002A04BF002070471168016451684164B9
:1057F000916881640120704700207047582101F0B2
:1058000035BB000010B50C460968097811B1616814
:10581000097829B1D4E900010078087010BD00BFF3
:1058200021690329F6D8DFE801F00315233100BF11
:10583000A0680028EED00178227B01310132B1FB53
:10584000F2F303FB12110170D4E900010078087033
:1058500010BD00BFA0680028DCD00178227B9142F7
:105860003CBF01310170D4E900010078087010BD1F
:10587000A0680028CED0017800291CBF0139017032
:10588000D4E900010078087010BD00BFD4E905C25A
:1058900002F0010353EA0C01BCD000EB620013B12B
:1058A000016851F80CC0E047D4E9000100780870A5
:1058B00010BD000070470000B0F8502047F61811E6
:1058C0008A4248F6B70111D900238A42C3651BD921
:1058D00000EE102A9FED411AB8EE400A9FED402AD3
:1058E00020EE010A30EE020A0CE000BF00EE102AA2
:1058F0009FED391AB8EE400A20EE010AB7EE001A01
:1059000030EE010A80ED170AB0F8522047F618135E
:105910009A4211D900238A4203661BD900EE102A4D
:105920009FED2E1AB8EE400A9FED2D2A20EE010AB7
:1059300030EE020A0CE000BF00EE102A9FED261A9E
:10594000B8EE400A20EE010AB7EE001A30EE010A66
:1059500080ED180AB0F8541047F619128A1A92B25C
:1059600040F69E739A4203D8002141661CE000BFB6
:1059700000EE101A47F618129142B8EE400A09D804
:105980009FED151A20EE010AB7EE001A30EE010A5B
:1059900008E000BF9FED111A9FED112A20EE010AC9
:1059A00030EE020A80ED190AB0F85A109FED0D1A78
:1059B00000EE101AB0F85810B8EE400A02EE101AB5
:1059C000B8EE422A20EE010A22EE011A80ED1B1ADF
:1059D00080ED1C0A704700BFD54C07B84C5C09B875
:1059E00085B7923F0820803A70470000002A04BF24
:1059F000002070471178002918BF012180F830106D
:105A00005178002918BF012180F8321091780029BF
:105A100018BF012180F83410D178002918BF012166
:105A200080F836101179002918BF012180F838104C
:105A30005179002918BF012180F83A109179002985
:105A400018BF012180F83C10D179002918BF01212D
:105A500080F83E10117A002918BF012180F840100B
:105A6000517A002918BF012180F84210917A00294B
:105A700018BF012180F84410D17A002918BF0121F4
:105A800080F84610117B002918BF012180F84810CA
:105A9000517B002918BF012180F84A10917B002911
:105AA00018BF012180F84C10D17B002918BF0121BB
:105AB00080F84E10118A09BA090CA0F85010518ACA
:105AC00009BA090CA0F85210918A09BA090CA0F879
:105AD0005410D18A09BA090CA0F85610118B09BAD2
