:020000040800F2
:10000000E0760020A1010008994D00088D4300080A
:10001000954D00086D0600082D67000800000000DF
:10002000000000000000000000000000214E000859
:10003000B107000800000000B14D0008454E00085F
:10004000BB010008BB010008BB010008BB010008A0
:10005000BB010008BB010008BB010008BB01000890
:10006000BB010008BB010008BB010008BB01000880
:10007000BB010008BB0100086907000875070008FC
:10008000BB01000881070008BB010008BB01000894
:1000900071060008BB010008BB010008B507000895
:1000A000BB010008BB010008BB010008BB01000840
:1000B000BB010008BB010008BB010008BB01000830
:1000C000BB010008BB010008BB010008BB01000820
:1000D000BB010008C1540008CD540008D9540008E1
:1000E000BB010008BB010008BB010008BB01000800
:1000F000BB010008314F0008BB0100088D07000854
:10010000BB010008BB010008254F0008BB01000827
:10011000815000088D500008BB010008BB01000899
:10012000BB010008BB010008BB010008BB010008BF
:10013000BB010008BB010008BB010008BB010008AF
:100140007D060008BB010008BB0100089D4D0008AA
:10015000BB01000899070008A5070008E55400083E
:10016000BB010008BB010008BB010008BB0100087F
:10017000BB010008BB010008BB0100080000000033
:10018000BB010008BB010008DFF810D000F056FAF0
:1001900000F07CF8004800479DBC0008E076002095
:1001A0000648804706480047FEE7FEE7FEE7FEE711
:1001B000FEE7FEE7FEE7FEE7FEE7FEE7114F000879
:1001C000890100082DE9F05F0546002092469B4614
:1001D00088460646814640241BE02846414647465D
:1001E000224600F086F953465A46C01A914110D370
:1001F00011461846224600F06DF92D1A67EB0108EA
:100200004F4622460120002100F064F917EB000957
:100210004E41201EA4F10104DFDC484631462A4647
:100220004346BDE8F09F10B5431A934209D28318A4
:10023000881803E010F8011D03F8011D521EF9D2C1
:1002400010BD40EA01039B0703D009E008C9121F53
:1002500008C0042AFAD203E011F8013B00F8013B80
:10026000521EF9D210BDD2B201E000F8012B491E96
:10027000FBD270470022F6E710B513460A46044643
:100280001946FFF7F0FF204610BD00007CB5074877
:100290000090074801900546009C04E02046016854
:1002A00008448047241DAC42F8D17CBD64F70008A7
:1002B0006CF700082DE9FE4F81EA030404F00044C6
:1002C00021F0004100944FF0000B23F0004350EA6E
:1002D00001045ED052EA03045BD0C3F30A54C1F3B5
:1002E0000A552C44A4F2F3340194A0FB0254C1F348
:1002F000130141F48011C3F3130343F4801301FB92
:10030000024400FB034E840A970A44EA815447EAF8
:100310008357A4FB076802958D0A05FB07854FEA02
:10032000932C04FB0C542705029D4FEA065847EA1C
:100330001637B5EB08056EEB070C870E920E47EAF1
:10034000811742EA8312A7FB0201B6EB0B0164EBB3
:1003500000042B0D43EA0C335E1844EB1C50DA46C4
:100360005146E7FB0201C5F313044FEA0B3343EA9E
:1003700014534FEA0432019C43EA0603A4F10C042F
:100380000294009CCDE900B400F009F903B0BDE887
:10039000F08F00200146F9E72DE9F04D81EA0304D2
:1003A00004F0004B21F0004514464FF0000A23F002
:1003B000004150EA050220D054EA01021DD0C5F3E5
:1003C0000A570246C5F31303C1F31300C1F30A56DB
:1003D00040F4801543F48013A7EB0608101BD646A3
:1003E00008F2FD3873EB050002D308F1010801E0C3
:1003F00092185B41B8F1000F03DA00200146BDE816
:10040000F08D00204FF48011064684460EE0171B45
:1004100073EB050705D3121B63EB050306434CEA98
:10042000010C49084FEA300092185B4150EA01077D
:10043000EDD152EA030012D082EA040083EA0501FA
:10044000084305D0101BAB4106D20122002306E071
:1004500000224FF0004302E06FF0010253101AEB4C
:1004600006004CEB085110EB0A0041EB0B01BDE814
:10047000F04D00F085B800F0004230F000400AD0A6
:10048000C10D01F56071C0F3160042EA0151C208C6
:1004900040071143704700200146704701F00043B8
:1004A00030B421F0004150EA010206D00A0DA2F555
:1004B0006072C1F31301002A02DC30BC00207047D7
:1004C000440F44EAC104C100E01830BC00EBC25044
:1004D00000F01FB8202A04DB203A00FA02F10020C5
:1004E00070479140C2F1200320FA03F31943904072
:1004F0007047202A04DB203A21FA02F000217047DD
:1005000021FA02F3D040C2F120029140084319467B
:1005100070470029A8BF7047401C490008BF20F061
:100520000100704710B4B0FA80FC00FA0CF050EAF9
:10053000010404BF10BC704749B1CCF1200421FA7A
:1005400004F411FA0CF118BF012121430843A3EB75
:100550000C01CB1D4FEA00614FEA102042BF002082
:1005600010BC704700EBC35010440029A4BF10BC5E
:100570007047401C490008BF20F0010010BC7047C4
:1005800010B5141E73F1000408DA401C41F100019B
:1005900092185B411A4301D120F0010010BD2DE9F2
:1005A000F04D92469B4611B1B1FA81F202E0B0FAE9
:1005B00080F220329046FFF78DFF04460F4640EA56
:1005C0000A0041EA0B0153465A46084313D011462C
:1005D00053EA010019D0C8F140025046FFF789FFE5
:1005E00005460E46504659464246FFF773FF0843FC
:1005F00005D0012004E020463946BDE8F08D0020FA
:10060000054346EAE0762C4337430A986305E40A3B
:10061000A0EB08000022FD0A44EA47540A3002D544
:1006200000200146E9E7010510196941DDE90845A7
:1006300000196941BDE8F04DA2E700001CB509486A
:100640000090094801900546009C06E0E06840F0F3
:10065000010394E8070098471034AC42F6D3FFF743
:1006600097FD000044F7000864F70008FEE700006B
:1006700040F24800C2F2000000F018BA40F27000E8
:10068000C2F2000000F012BA91B1F0B54EF6AC0221
:1006900001F0030C0429C0F600020DD24FF0000E49
:1006A0000021BCF1000F3AD1BDE8F04088B270479C
:1006B000002188B2704700BF01F0FC01C1F1000EBB
:1006C000431C00216FF003041D19EE788FB286EAF7
:1006D000172632F816602F7986EA012189B287EA57
:1006E000112132F811106F7981EA0626B6B287EA35
:1006F000162632F81660AD7986EA012189B285EABC
:10070000112132F8111004340EEB0405043581EA8E
:100710000621D9D104F1040EBCF1000FC4D010F8A9
:100720000E408BB284EA132332F81340BCF1010F60
:1007300084EA0121B8D07044437889B283EA112158
:1007400032F81130BCF1020F83EA0421ACD080787A
:1007500089B280EA112032F8100080EA0321BDE856
:10076000F04088B27047000040F61850C2F2000016
:1007700000F06CBD40F69830C2F2000000F066BD9B
:1007800040F6B840C2F2000000F060BD40F6F8301C
:10079000C2F2000000F05ABD40F67850C2F20000EC
:1007A00000F054BD40F65840C2F2000000F04EBDCB
:1007B00070470000802000F031BF000072B600BF1B
:1007C000FEE7000090F82020013A012A08D80068CE
:1007D00000F114020020136819431160704700BF34
:1007E00000F1240201204FF48021136819431160A5
:1007F0007047000010B590F820E0D0F800C0AEF1CE
:10080000010EBEF1010FDCF808E011D81EF0E05F28
:1008100018D0CEF301640120A04018608B68DBB1D2
:10082000D1F804E0C86840EACE0040EA030E17E0C1
:1008300000F1240301204FF480211A68114319604C
:1008400010BD00BF00F1240301204FF400111A680D
:100850001143196010BD00BF0868CB6843EA405ED1
:100860000CF5C07000EB0413240140F804E00C699F
:10087000184640F8044F097D012903D1016841F46D
:100880008071016050680121D86010689860002074
:100890001A681143196010BD90F82020013A012A0E
:1008A00030D8B0B546F20060C4F20000026842F0F1
:1008B00001020260026822F47C520260D1F814E066
:1008C000CC694A6A0368012C43EA022202600EF0F6
:1008D0001F024FF0010303FA02F2C3696FEA020C30
:1008E00023EA0203C36113D02CBBC36803EA0C03E1
:1008F000C360CB688C8844EA034300EBCE042364D6
:100900000B4611E0416A41F48021416201207047A9
:10091000C3681343C3600B688C8844EA034300EB4D
:10092000CE04236401F10C038C681B8843EA044362
:1009300000EBCE04636443688D6943EA0204D1F896
:1009400010E0096A002D08BF03EA0C044460436903
:10095000BEF1000F43EA020408BF03EA0C040129B8
:10096000446102D1C1691143C161016821F00101F3
:1009700001600020B0BD000070470000B0B590F8E5
:100980002040013C012C7DD8D0F800C000290CBFCC
:10099000DCF80C40DCF81040A4077DD00CF5D875CD
:1009A0004FEA011C55F80C4014F00404946055F80B
:1009B0000CE005EB011C19BF4FEADE0555604FEA5C
:1009C0005E551560DCF80050E64605F00205D5607E
:1009D0005EF8044F24075ABFDEF8004004F00F040D
:1009E00008241461DEF800400029C4F30724946150
:1009F000DEF800504FEA15455561DCF808201A7002
:100A0000026802EB0112D2F8B8214FEA12225A70A2
:100A1000026802EB0112D2F8B8214FEA12429A7032
:100A2000026802EB0112D2F8B8214FEA1262DA70C2
:100A3000026802EB0112D2F8BC211A71026802EBC3
:100A40000112D2F8BC214FEA12225A71026802EB5D
:100A50000112D2F8BC214FEA12429A71026802EBED
:100A60000112D2F8BC214FEA1262DA7100680CBFA1
:100A700000F10C0100F11001002020220B681A4344
:100A80000A60B0BD00F1240101204FF480220B6800
:100A90001A430A60B0BD00BF00F1240101204FF4E9
:100AA00000120B681A430A60B0BD00002DE9F04F38
:100AB00081B0044600684669D0F804908768D0F891
:100AC0000CB0D0F810A0D0F81880F10704D10025A0
:100AD00030071DD424E000BFF90710D00121BA0768
:100AE000816009D4780700F1AF80380700F1B68043
:100AF000204600F043FB02E0204600F041FB0025C9
:100B0000F80500F18780F80300F1B180300707D5C0
:100B10001BF0100004D0206845F400751021C1605E
:100B2000700708D51BF0080005D020680821C160B7
:100B3000204600F003FAB00706D52068C068800799
:100B400002D0204600F0FCF9700607D51AF010001C
:100B500004D0206845F4806510210161B00608D5F5
:100B60001AF0080005D0206808210161204600F035
:100B7000D1FAF00606D520680069800702D0204629
:100B800000F0CAFAB00308D519F0100005D02068AB
:100B900010214160204600F0C1FAF00308D519F099
:100BA000080005D0206808214160204600F0F2FAD4
:100BB000300440F19B805FEA497040F1948006F474
:100BC000807008EA102028435FEA8871014648BF18
:100BD00041F00201B20558BF01465FEA48700D4678
:100BE00048BF45F00405700558BF0D46300540F17B
:100BF0007A8018F0700000F076801038000905281F
:100C00006CD8DFE800F003655D61596945F00805BF
:100C100064E000BF20684FF48071BA0581600BD496
:100C2000780515D438051DD4204600F0ABFAF8033A
:100C30007FF56CAF1BE000BF204600F0A5FAF8037B
:100C40007FF564AF13E000BF4FF4006558E700BFC5
:100C500005F50055F8037FF559AF08E04FF48055CE
:100C60004EE700BF05F58045F8037FF54FAF2068DC
:100C70004FF48031BA0381600AD4780310D438036A
:100C800014D4204600F082FA30073FF541AF47E721
:100C9000204600F07DFA30073FF53AAF40E700BF4D
:100CA00005F5004530073FF533AF39E705F58035E9
:100CB00030073FF52DAF33E745F080050EE000BF6C
:100CC00045F020050AE000BF45F0400506E000BF02
:100CD00045F0100502E000BF45F480752068816989
:100CE00021F07001816120680421416055B1606A82
:100CF00040EA05012046616201B0BDE8F04FFFF710
:100D00003BBE00BF01B0BDE8F08F0000002804BF6B
:100D100001207047B0B5044690F8200010B9204675
:100D200000F06EF82068016841F00101016000F0F8
:100D30005DFD054620684168C90705D100F056FDF4
:100D4000401B0B28F6D310E0016821F0020101607E
:100D500000F04CFD054600BF2068416889070DD5AD
:100D600000F044FD401B0B28F6D3606A052140F4D7
:100D700000306062012084F82010B0BD217E02683E
:100D8000012922F0800208BF80320260617E026881
:100D9000012922F0400208BF40320260A17E0268B1
:100DA000012922F0200208BF20320260E17E0268A1
:100DB000012922F0100218BF10320260217F026860
:100DC000012922F0080208BF08320260617F026830
:100DD000012922F0040208BF04320260D4E901C2F2
:100DE000D4E9033561691A432A431143ACF1010286
:100DF0001143C16100200121606284F82010B0BD60
:100E000010B586B0006846F60002C4F20002002168
:100E10009042CDE90411CDE90211019142D046F290
:100E20000041C4F20001884240F0858040F29821E0
:100E3000C2F200010A6843F64000C4F20200531CEB
:100E40000B6052B900210091016841F0007101600E
:100E5000016801F00071009100990021009150F8A3
:100E6000102C42F0080240F8102C50F8100C02220E
:100E700000F00800009000980320019004900920E1
:100E8000059040F20040C4F20200CDE9022100F5D5
:100E9000006001A900F0CEFB1420072100221424D9
:100EA00044E000BF43F64000C4F202000091016834
:100EB00041F080610160016801F08061009100995A
:100EC00040F29821C2F200010A68531C0B6052B92B
:100ED00000210091016841F000710160016801F09A
:100EE0000071009100990021009150F8102C42F0FF
:100EF000020240F8102C50F8100C00F00200009094
:100F000000984FF4405001900220CDE902010320E7
:100F100004900920059040F20040C4F2020001A9AB
:100F200000F088FB402008210022402400F01CFD36
:100F3000204600F007FD06B010BD0000704700001D
:100F4000B0B588B040F24801C2F20001884207D033
:100F500040F27001C2F20001884227D008B0B0BD53
:100F600040F27415C2F2000505F1080440F2480091
:100F7000C2F2000001AA00212346FFF7FFFC0398FC
:100F8000002839D00299A1F51060082842D801F054
:100F90000F0001380328E1D8DFE800F00272626A2E
:100FA00040F25020C2F200000068AAE040F274153E
:100FB000C2F2000505F1100440F27000C2F2000018
:100FC00001AA00212346FFF7D9FC039800282DD061
:100FD0000299A1F51060082836D801F00F000138F9
:100FE0000328BBD8DFE800F00272626A40F25020AA
:100FF000C2F20000006984E00198A0F201200728F5
:10100000ACD8DFE800F0054D4749454F514B00BFD4
:10101000A86976E0C1F3032003283FF69FAFDFE81D
:1010200000F00335252D00BFA86B56E00198A0F213
:10103000012007283FF692AFDFE800F05E60585CC1
:1010400004625A04A86E5CE0C1F3032003283FF653
:1010500085AFDFE800F00341313900BFA86C3CE008
:1010600040F25020C2F2000080684AE0286C34E070
:1010700040F25020C2F20000C06842E0686C2CE0F0
:1010800040F25020C2F2000040683AE0E86B24E0F1
:10109000A86D36E0286A34E0686A32E0686E30E0B5
:1010A000E8692EE0E86D2CE0286E2AE040F250203E
:1010B000C2F20000806924E0286D0EE040F250206A
:1010C000C2F20000C0691CE0686D06E040F25020EA
:1010D000C2F20000406914E0E86C00283FF43EAF23
:1010E000026893682246984708B0B0BD286B08E0B4
:1010F000286F06E0686B04E0A86A02E0E86A00E096
:10110000E86E00283FF42AAF01684A6821469047FC
:1011100008B0B0BD70470000704700007047000085
:10112000B0B5044690F8200001281DD1022084F8B3
:1011300020002068016821F00101016000F056FBE9
:10114000054600BF20684068C00713D000F04EFB82
:10115000401B0B28F6D3606A40F400306062052023
:1011600084F820000120B0BD606A40F40020606275
:101170000120B0BD00206062B0BD000070470000DB
:101180007047000070470000704700007047000083
:10119000704700007047000070B5866D044600F08F
:1011A00025FB94F83510022928D105462068216CCA
:1011B000026822F016020260426922F08002426157
:1011C00009B9A16C19B1016821F008010160016839
:1011D00021F00101016000BF20680068C00715D040
:1011E00000F004FB401B0628F6D320206065032096
:1011F00084F83500002184F8341070BD80206065CB
:101200000120002184F8341070BD00BFE06D3F2143
:1012100001FA00F0B060012084F8350000200021C0
:1012200084F8341070BD000090F83510022909D1FF
:10123000052180F835100068016821F00101016086
:10124000002070478021416501207047F0B581B0D2
:101250000021009140F21001C2F200010B68D0E9B8
:10126000166148F2B51537680822C1F64E358A4036
:101270003A42A3FB05350CD003681C68640708D507
:101280001C6824F004041C60B260426D42F001024C
:10129000426501228A403A4208D003685B691B0616
:1012A00004D5B260426D42F00202426504228A40D7
:1012B0003A4208D003681B689B0704D5B260426DB0
:1012C00042F00402426510228A403A4219D0016875
:1012D0000B681B0715D5B2600B680A685B0309D45D
:1012E000D20509D40A6822F008020A60016C29B903
:1012F00007E000BF110341D4016C11B104468847D7
:101300002046C26D202101FA02F33B4243D001681E
:101310000F68FF063FD5B36090F835700B68052F56
:101320001CD123F016030B604B6923F080034B6143
:10133000036C0BB9836C1BB10B6823F008030B60C3
:101340003F219140B160012180F83510016D0022EC
:10135000002980F8342054D158E000BF0A685B03AC
:1013600010D4D20512D40A6822F010020A600121BA
:1013700080F83510002180F8341007E0816C0029D6
:10138000BCD1BEE7110301D4416C00E0C16B11B1C7
:10139000044688472046416DC1B3416DC9072ED030
:1013A000052180F835100168AA0A0B6823F00103B3
:1013B0000B60009B0133934200931AD80B68DB0744
:1013C00017D0009B01339342009312D80B68DB07C0
:1013D0000FD0009B0133934200930AD80B68DB07C0
:1013E00007D0009B01339342009302D80B68DB07C0
:1013F000DFD1012180F83510002180F83410C16C54
:1014000021B101B0BDE8F040084700BF01B0F0BD18
:101410002DE9F041044600F0E9F9ECB1054602205F
:1014200084F835000020216884F83400086820F032
:101430000100086021680868C00711D000F0D6F9E3
:10144000401B0528F6D9032520230320636584F873
:101450003550BDE8F08100BF0120BDE8F08100BF3C
:10146000086848F23F02CFF21002D4E9013500EAE1
:10147000020C04F10C0898E8C10143EA0C032B4369
:101480001843D4E9072E304338431043626A40EAD8
:101490000E00042A40EA08031CD1206BD4E90A2E6E
:1014A00040EA0E00184308604869BEF1000F20F0C2
:1014B000030040EA020040F0040C11D0B8F5005FD0
:1014C00036D0B8F1000F45D1022A46D0012A3BD0D0
:1014D00032B942E00B60486920F0070040EA020C94
:1014E00001F0F8004AF6AB221038CAF6AA22A0FB97
:1014F00002231A094EF63073C1F814C0C0F6000377
:101500009A5C40F2FF335F284FF03F0021EA03016D
:1015100000FA02F088BF0431C4E916128860002383
:1015200001250020636584F83550BDE8F08100BFD7
:10153000032AD5D8012540230120DFE802F0030E5D
:10154000030500BF82E700BFAEF1C070B0FA80F0C3
:10155000400904E0032A04D3C2D1CEF3006000287E
:10156000BED0012540230120636584F83550BDE8D5
:10157000F081000090F834C0BCF1010F04BF0220DC
:10158000704770B54FF0010C80F834C0D0F858E0C7
:1015900090F835C0BCF1010F38D14FF0020C80F843
:1015A00035C04FF0000CC0F854C0D0F800C08468BB
:1015B000056CC06DDCF80060402C26F48026CCF869
:1015C0000060CCF804300B4604BF13460A463F21A6
:1015D00001FA00F0CCF80830CCF80C20CEF8080066
:1015E000DCF8000040F01600CCF800002DB1DCF86B
:1015F000000040F00800CCF80000DCF8000040F0EB
:101600000100CCF80000002070BD00BF002180F870
:101610003410022070BD00007047000043F61441F2
:10162000C4F201010A68024214BF08607047FFF764
:10163000F3BF00002DE9F04F83B000F1200200F16C
:101640003E4741F60045009207F1FF77C4F20205DC
:1016500008224FEAB726A84208BF072200254FF00C
:1016600000084FF00009072E38BF4FEAB722019259
:101670000AE000BF09F1010908F10208B9F1100FF1
:1016800005F1040500F0A2800F68012202FA09FEAC
:1016900017EA0E0AEED0D1F804C003220CF00307BB
:1016A0007E1E02FA08F4012E6FEA040B12D8846839
:1016B000CE6804EA0B0406FA08F6344384604468F2
:1016C00024EA0E06CCF3001404FA09F4264346601B
:1016D00004E000BF032F01D103271EE0C6688C6819
:1016E00006EA0B0604FA08F42643022FC66014D15A
:1016F0006FF00302009E02EA590756F807C005F092
:101700001C040F220B69A2402CEA0202A3401A43D8
:10171000F251D1F804C00CF00307026807FA08F38D
:1017200002EA0B021A431CF4403F0260A2D00022DE
:1017300043F644030292C4F202031A6843F60044DB
:1017400042F480421A601A68C4F2010402F4804232
:101750000292029A29F003024FF6084C2244CFF677
:10176000FF7C52F80C3005F00C070F26BE40B34347
:10177000019E06FA07F73B4342F80C30A2684B681B
:1017800042EA0A0743F60C4CDE0258BF22EA0A0777
:10179000A760C4F2010CDCF800209E0242EA0A07AE
:1017A00058BF22EA0A07CCF8007062689E0342EA3A
:1017B0000A0758BF22EA0A0767602268DB0342EA89
:1017C0000A0758BF22EA0A07276053E703B0BDE8BB
:1017D000F08F00000069084018BF0120704700002A
:1017E000002A08BF090481617047000046F2D870E2
:1017F000C2F200000068704740F2080046F2D8715B
:10180000C2F20000C2F2000100780A6810440860C9
:101810007047000080B543F60040C4F20200016842
:1018200041F400710160016841F480610160016868
:1018300041F480710160032000F0C2F80F2000F035
:1018400005F800F05DF8002080BD000070B586B09E
:10185000002543F640010195C4F202010A680446DE
:1018600042F008020A60096801A801F0080101912C
:101870000199694600F048FF049E002E18BF01261A
:1018800000F068FF4DF68361B040C4F21B31A0FB4D
:1018900001014FF0FF3000EB914141F2DC3040F6A6
:1018A0000042C2F20000C4F2000240F2E733C0E995
:1018B0000021C0E902530561856101F0E3F908B137
:1018C00006B070BD41F2DC30C2F2000001F062FAF5
:1018D0000028F5D1322000F035F80F2C0CD832203A
:1018E0002146002200F040F840F20C010020C2F234
:1018F00000010C6006B070BD012006B070BD000094
:1019000082B0002043F640010190C4F202014A680F
:1019100042F480424A604A6802F480420192019A8D
:1019200000900868002240F08050086008680F218D
:1019300000F08050009000986FF0010002B000F0BD
:1019400013B80000002848BF704700F01F010122B3
:1019500002FA01F11C2202EAD0004EF20012CEF28D
:10196000000281507047000010B54EF60C5CCEF2BC
:10197000000CDCF80030C3F3022E8EF00704042CB8
:1019800028BF0424BEF103034FF0FF3E0EFA04F417
:1019900038BF0023A14399400EFA03F39A43114341
:1019A00000F00F0200F160430901043A03F56443BB
:1019B0006244002848BF02F10C03197010BD0000FA
:1019C0004EF60C51CEF200010A684FF6FF031A40A2
:1019D00060F30A2242F0806040F0FD7008607047BA
:1019E00070470000D0F8E00403F06CBE01EBC102C8
:1019F000D0F8E03400EB8200026A184603F0CEBD56
:101A000001EBC102D0F8E03400EB8200D0F8602294
:101A1000184603F01FBE0000D0F8E00403F054BEE7
:101A2000B0B5037901F00F029A4284BF0120B0BD26
:101A30004BB24FF41574002B48BF142400EB040E76
:101A400090F8944402EBC2034FEAD11C0EEB8301E1
:101A5000012C4FF0000481F801C08C700EF8232097
:101A600004BF0220B0BD0268012380F8943405460B
:101A7000104604F0A1FA204685F89444B0BD000059
:101A800010B54FFA81FE01F00F0CBEF1000F6FF39D
:101A9000DF220CEBCC010DD400EB810E00240EF5FF
:101AA00015718EF855428EF854C2CEF85C228EF82D
:101AB000583209E000EB810101F814CF01244C7089
:101AC0008A600B71A1F81AC0022B04BF00224A7170
:101AD00090F89424012A04BF022010BD026801235B
:101AE00080F894340446104604F0E6F9002084F8A7
:101AF000940410BD10B501F00F0E0EEBCE0100EBFB
:101B000081044FF0000CC4F868C284F855C290F804
:101B100006C004F51571C4F86022C4F86432BCF143
:101B2000010F84F854E208BFCA610068624604F0FD
:101B30008DFA002010BD0000B0B5027901F00F044D
:101B400094424FF001022CD84BB24FF41575002B84
:101B500048BF14254FEAD11C48BF2146054401EB7C
:101B6000C10305EB830181F801C090F894C48A7029
:101B7000BCF1010F05F8234004BF0220B0BD02688C
:101B80000123054680F89434104604F03FFA2CB93E
:101B90002868A97905F29C4204F0E0F9002285F852
:101BA00094241046B0BD000001F00F0C0CEBCC01EA
:101BB00000EB810101F814CF4FF0000C0B61837929
:101BC000C1F814C04FF0010CCA60012B81F801C0AC
:101BD00008BFCA6180B500681A4604F037FA0020D1
:101BE00080BD00002DE9F04F87B005688246284689
:101BF00004F040FC10B107B0BDE8F08FDAF8000047
:101C000004F066FC0028F6D0D5F80808C0F30D21D2
:101C1000DAF80000CAF8D41404F05AFC0146DAF8E5
:101C20000000890703D5416901F00201416105F512
:101C30000061049104F04CFC0146DAF80000C9068A
:101C4000059535D5816921F0100181612C6A04F078
:101C50000F0000EBC0000AEB8001C4F343400628EC
:101C600001F5157512D002281BD147F6F07014EA61
:101C7000000616D0E96834090598224604F02CFCC9
:101C8000E86800EB1610E86008E000BF05980AF26B
:101C90009C41082204F020FCC4F30A146869204423
:101CA0006861DAF80000816941F010018161059DE9
:101CB00004F00EFC000340F1F180DAF8000004F0BB
:101CC000E5FB002800F0EA8006460AF29C404FF44B
:101CD000306800244FF0000B069019E005EB080077
:101CE00002218160B80642BF05EB08002021816017
:101CF000B80442BF05EB08004FF4005181600BF1BE
:101D0000010B760808F1200804F1240400F0C680D5
:101D1000F007F4D0DAF800005FFA8BF9494604F0D6
:101D2000CFFB0746C00760D005EB080001218160AA
:101D3000DAF8000008EB0001036C8A689AF8065094
:101D4000012D25D1150733D4950600F19F8043F26C
:101D50000B05C4F65475AB42059D02D312F4004244
:101D600030D10AEB0402D2F8743209696FF3DF4113
:101D7000A3EB0101C2F868129CBBD2F86432002BBD
:101D800000F08A80D2F860020844C2F8600228E0BD
:101D900043F20B05C4F65475FF35AB4218D1059DCF
:101DA00010040FD4900644BF2020886019E000BFC3
:101DB00043F20B00C4F65470059D834215D312F410
:101DC000004012D04FF40040886038070FD43DE047
:101DD000059D34B9DAF8641219B90021069A04F0A5
:101DE000BDF850464946FFF70BFE38072ED505EBE8
:101DF000080008218160DAF8000043F20B02056C4C
:101E000040448168C4F6547295420BD311F40041EA
:101E100008D04FF400418160504600F0A1FB059DC1
:101E20000AE000BF504600F09BFB43F20B00C4F6F3
:101E300054708542059D09D39AF80600012805D102
:101E4000DAF80000069A012104F088F8F80642BF8B
:101E500005EB080010218160B8077FF543AF686982
:101E6000000604D50499486840F4806048600AEB95
:101E7000040090F8571201297FF430AF002180F858
:101E800057125046494600F035FB27E7202088606E
:101E9000059D3807ABD4D9E701219FE7DAF80000A8
:101EA000CDF818A004F014FB400340F1D38006984D
:101EB000006804F0E3FA002800F0CC80064606989B
:101EC00005F5106900F1140100F29C400027039110
:101ED0000190CDF8089004E0760807F1010700F0C2
:101EE000B980F007F8D006985FFA87FA0068514683
:101EF00004F0D4FA0446C00726D0049A07F00F0075
:101F0000516B012303FA00F021EA0000506309EB52
:101F10004710836006988079012811D1039907EB57
:101F2000C70001EB8000D0E902121144C1603FB943
:101F3000006928B90698019A0068012104F00EF89A
:101F400006985146FFF752FD200742BF09EB4710A4
:101F500008218160E00642BF09EB47101021816033
:101F6000600642BF09EB471040218160A00716D5EB
:101F70002846394604F010FA039907EBC70001EB35
:101F8000800010F8031F012905D100210170069877
:101F9000514600F0ABFA09EB4710022181602006A0
:101FA0009AD5039907EBC70001EB8008D8E9042014
:101FB000824291D30699D8F808300C68111A9942D8
:101FC00038BF0B4604EB4711D1F818C903F1030ED3
:101FD0001FFA8CF3B3EB9E0F2DD301F5106900BFF0
:101FE000D8F81020824224D9101A069AD8E902B1F2
:101FF0009579584538BF83461FFA8BF320465246E1
:102000000095059D04F05CFBD8F80C00D8F814107E
:102010005844C8F80C0001EB0B00C8F81400D9F8BC
:1020200018100BF1030289B2B1EB920FD8D2D8F895
:102030001020DDF8089082423FF64EAF07F00F0007
:10204000D4F83418012202FA00F021EA0000C4F8A2
:10205000340841E7DDF81890D9F8000004F038FAA8
:10206000002821D4D9F8000004F032FA00053AD44F
:10207000D9F8000004F02CFAC00445D5049948684A
:1020800020F001004860D9F80000102104F084F924
:1020900099F80400010600F0EC80C1B2042900F0B8
:1020A000030035D200219AE00499486820F001002D
:1020B000486099F8CC04012808D1002089F8CC04A4
:1020C00048460021FFF78CFC03E000BF484600F0C3
:1020D0002BFAD9F80000416901F00041416104F098
:1020E000F7F90005C4D504988068C00702D04846B7
:1020F00000F03EFAD9F80000416901F40061416145
:1021000004F0E6F9C004B9D4D9F80000DDE000BF5E
:102110006FF0600202EA411200234FF67F37002180
:10212000EE18C6F80879D6F80059803325F4001562
:10213000C6F80059C6F8087BD6F8005B9A4225F429
:102140000015C6F8005BD6F8005B01F1040145F00C
:102150000065C6F8005BC6F82879D6F8205925F442
:102160000015C6F82059C6F8287BD6F8205B25F460
:102170000015C6F8205BD6F8205B45F00065C6F870
:10218000205BC6F84879D6F8405925F40015C6F802
:102190004059C6F8487BD6F8405B25F40015C6F8D0
:1021A000405BD6F8405B45F00065C6F8405BC6F87A
:1021B0006879D6F8605925F40015C6F86059C6F854
:1021C000687BD6F8605B25F40015C6F8605BD6F82E
:1021D000605B45F00065C6F8605B059DA0D10028F6
:1021E00047D005F5106202EB41134FF67F374E01E1
:1021F0009F609559059B25F4001503F530639551B3
:1022000003EB4115AF609D59012825F400159D5140
:102210009D5945F000659D512BD04E1C02EB461494
:102220007501A760545903EB461624F40014545169
:10223000B7605F59022827F400175F515F5947F0D4
:1022400000675F5115D0881C02EB40174FF67F36B0
:102250004101BE60575803EB401027F40017575058
:102260008660585820F400105850585840F00060CC
:102270005850049F8421F869442240F00110F8610D
:1022800099F80F0000284FF00B0008BF142108BF79
:1022900042F22B007B5808BF102218437850B858E0
:1022A00040F00B00B850386809F29C4220F4FE6000
:1022B0003860D9F8000099F8061003F04FFED9F8FD
:1022C0000000416901F48051416104F001F90146C7
:1022D000D9F8000089041AD503F030FED9F80000BF
:1022E00004F0BAF8D9F8004089F8070000F02CFA99
:1022F00099F807200146204604F056F9484600F0B8
:10230000FDF8D9F80000416901F40051416104F081
:10231000DFF8000706D4D9F8000004F0D9F8000669
:102320000DD437E0484600F003F9D9F800004169C0
:1023300001F00801416104F0CBF800062AD50599A7
:10234000886920F08000886199F80400022821D370
:1023500009F5157409F11405012640F27B2704E004
:102360000136864207F1240714D219F80710012913
:10237000F6D106F00F0000EBC0023006D9F80000DD
:1023800005EB820158BF04EB820103F07DFF99F851
:102390000400E5E7D9F8000004F09AF8C0024FD431
:1023A000D9F8000004F094F8059D800240F1808087
:1023B00099F80410022929D305F53260013909F58D
:1023C0001F72012305E000BF2030013902F1240211
:1023D0001CD007681678012EF6D1B7F1FF3FF3DC69
:1023E000D9F8D46407F4803706F00106B742EBD180
:1023F00002F8013CAF6947F08007AF616F693F06A3
:10240000E2D40499486840F400704860D9F80000AC
:10241000416901F40011416104F05AF840004DD5C2
:102420004846FFF7DFFAD9F80000416901F0804122
:10243000416104F04DF840077FF5DDAB45E000BF9A
:1024400099F80400022827D3059909F1140401F52D
:10245000126509F13B064FF00108012706E000BFB5
:1024600001372035874206F1240615D22968727893
:10247000012AF5D1B1F1FF3FF2DC07F00F0000EBCC
:10248000C001D9F8000004EB810186F8008003F058
:10249000FBFE99F80400E3E7D9F80000416901F474
:1024A0008011416104F014F8059D80023FF580AF72
:1024B000D9F8000004F00CF84000B1D4D9F80000BD
:1024C00004F006F840077FF596ABD9F800004468A1
:1024D000610704D54846FFF79FFAD9F80000416824
:1024E0002143416007B0BDE8F08F0000D0F8E00460
:1024F00003F012B9D0F8E00403F024B910B5044693
:10250000C07928B1022801D0FEF758F9012100E076
:102510000021D4F8E00403F09BF9D4F8E004BDE80E
:10252000104003F04BB90000D0F8E00403F076B996
:10253000D0F8E00403F07CB990F89424012A04BF99
:102540000220704710B5012280F89424417402687B
:102550000446104604F016F8002084F8940410BDD8
:10256000D0F8E02400F29C41104603F087B9000047
:1025700010B50446D0F8E00403F0C4F92068D0F8A0
:10258000001E41F00101C0F8001EE07A002808BFDB
:1025900010BD4EF61050CEF20000016841F0060169
:1025A000016010BD002804BF012070472DE9F041F3
:1025B00043F60808C4F202080446D8F8F8030D46AA
:1025C00000F00700814207D988F8F853D8F8F803DB
:1025D00000F00700A84277D12068810717D541078E
:1025E00005D5D8F8001041F4E051C8F800100107F3
:1025F00005D5D8F8001041F46041C8F80010D8F8AB
:102600000010A26821F0F0011143C8F80010C007C3
:1026100040D1D8F8F80300F00700854207D288F8C7
:10262000F853D8F8F80300F00700A8424CD120680E
:10263000410707D5D8F80010E26821F4E0511143B2
:10264000C8F80010000708D5D8F80000216920F468
:10265000604040EAC100C8F8000000F0A3F8D8F8D4
:1026600000104EF69402C1F30311C0F60002515C53
:1026700040F2100220FA01F140F20C00C2F2000018
:102680000068C2F200021160FFF7E0F80020BDE828
:10269000F08100BF6068811E022907D258F8081C2B
:1026A00089015CBF0120BDE8F08111E0012807D15C
:1026B00058F8081C89035CBF0120BDE8F08107E0E1
:1026C00058F8081C890703D40120BDE8F08100BF39
:1026D000D8F8001021F003010843C8F80000FFF704
:1026E00085F8064641F28837D8F80000616800F0A6
:1026F0000C00B0EB810F8CD0FFF778F8801BB8424C
:10270000F2D90320BDE8F0810F22026043F60802EF
:10271000C4F20202136803F003034360136803F07A
:10272000F0038360136803F4E053C360D2F800C081
:102730004FF4E05303EADC030361D2F8F80300F03E
:10274000070008607047000040F21000C2F200006D
:102750000068704740F2100043F60801C2F2000022
:10276000C4F20201006809684EF6A402C1F3822196
:10277000C0F60002515CC8407047000040F21000F3
:1027800043F60801C2F20000C4F2020100680968C1
:102790004EF6A402C1F34231C0F60002515CC840BB
:1027A0007047000010B543F60404C4F202046168E7
:1027B000C1F3810142F20040C0F2F400DFE801F011
:1027C00002040A0210BD00BF41F20020C0F27A00EC
:1027D00010BD00BF216801F03F0221682368490253
:1027E000C3F3881106D4A1FB00010023FDF7EAFC26
:1027F00007E000BF41F20020C0F27A004843B0FB7E
:10280000F2F021680222C1F3014102EB4101B0FB69
:10281000F1F010BD002804BF012070472DE9F04100
:1028200082B00446007843F60006C007C4F20206F0
:102830000CD0B06800F00C00042840F081803068B3
:10284000800303D56068002800F068812078800745
:102850001BD5B06810F00C0F09D0B06800F00C0068
:10286000082840F087807068400200F1838030685B
:10287000800703D5E068012840F050813068216965
:1028800020F0F80040EAC10030602078000713D43F
:10289000207840072AD4A569002D00F03A81B0685D
:1028A00000F00C00082840F0A580012D40F00E81BA
:1028B000012002B0BDE8F0816069002800F082804C
:1028C0000020C4F247200121C0F8801EFEF78EFFD1
:1028D000054600BF706F8007DAD4FEF787FF401B04
:1028E0000228F7D9032002B0BDE8F081306C5FEA1E
:1028F000C0080AD400200190306C40F08050306451
:10290000306C00F080500190019847F20007C4F24B
:1029100000073868C00547D4386840F480703860D4
:10292000FEF764FF054600BF3868C0053CD4FEF7DB
:102930005DFF401B0228F7D9032002B0BDE8F081FB
:10294000B06800F00C00082803D1706840023FF521
:1029500076AF61683068B1F5803F07D0B1F5A02F40
:1029600040F09A8040F480203060306840F480303D
:1029700030609AE0E068002840F20000C4F247208E
:102980005CD001210160FEF731FF05463068800709
:102990003FF574AFFEF72AFF401B0228F6D903204B
:1029A00002B0BDE8F08100BFA168306F012905D0F9
:1029B000052955D140F004003067306F40F0010028
:1029C000306756E00020C4F247200021C0F8801E86
:1029D000FEF70CFF054600BF706F80077FF558AF0C
:1029E000FEF704FF401B0228F6D9032002B0BDE821
:1029F000F08100BF0027C4F2472700203866FEF7A9
:102A0000F5FE022D05460DD13068800140F18A8027
:102A1000FEF7ECFE401B02284FF00300F4D902B091
:102A2000BDE8F0813068800173D5FEF7DFFE401B02
:102A300002284FF00300F5D9F1E700BF0021016043
:102A4000FEF7D4FE054600BF306880077FF51DAF56
:102A5000FEF7CCFE401B02284FF00300F4D9DEE75E
:102A600020F001003067306F002920F0040030674B
:102A70007AD0FEF7BBFE054641F28837306F8007FB
:102A800000F18480FEF7B2FE401BB842F6D9032065
:102A900002B0BDE8F08100BF20F4803030603068C3
:102AA000002920F4802030607AD0FEF79FFE054692
:102AB000306880033FF5CAAEFEF798FE401B6428DD
:102AC000F6D9032002B0BDE8F08100BF7068E1696B
:102AD00000F480028A4221D1216A00F03F028A423A
:102AE0001CD147F6C071626A0140B1EB821F15D15B
:102AF000A16A4FF6FF73C903994300F44032A1F570
:102B000080318A420AD1E16A00F07060B0EB016F57
:102B100004D1002002B0BDE8F08100BF012002B066
:102B2000BDE8F08104F11C052FCD084340EA821076
:102B3000D9034FF6FF729143A1F5803140EA056059
:102B40000843706001203866FEF750FE044600BF5F
:102B500030688001DDD4FEF749FE001B02284FF0EB
:102B60000300F5D95BE700BFFEF740FE054641F2E2
:102B7000883700BF306F800708D5FEF737FE401B4F
:102B8000B8424FF00300F5D949E700BFB8F1000F94
:102B90003FF581AE306C20F0805030647BE600BFA2
:102BA000FEF724FE054600BF306880037FF54EAE79
:102BB000FEF71CFE401B64284FF00300F4D92EE7FB
:102BC000704700007047000090F83C20012A4FF049
:102BD000020254D010B580F83D200268D2F804E01B
:102BE000D2F808C00C682EF07003234341F2FF7442
:102BF000C4F20004A24253600EDC40F2FF73C4F240
:102C000000039A4216DCB2F1804F2BD040F2004311
:102C1000C4F2000324E000BF40F2FF33C4F201031A
:102C20009A4213DC41F60003C4F200039A4219D021
:102C3000002313E040F60003C4F200039A4211D0CF
:102C400040F60043C4F200030AE000BF44F2000370
:102C5000C4F201039A4205D040F20043C4F20103DA
:102C60009A4204D149682CF08003194391600121F4
:102C7000002280F83D1080F83C20BDE8104010464E
:102C800070470000002804BF0120704710B50446BB
:102C900090F83D0028B9002084F83C00204600F060
:102CA0001FF8022084F83D002068211D02F046F93B
:102CB000012084F8460084F83E0084F83F0084F840
:102CC000400084F8410084F8420084F8430084F80E
:102CD000440084F8450084F83D00002010BD000049
:102CE00081B0006841F2FF71C4F20001884217DC34
:102CF000B0F1804F2ED041F20001C4F200018842B1
:102D000045D10020009043F64000C4F20200016863
:102D100041F010010160006800F0100035E000BFD4
:102D200041F60001C4F20001884221D044F20001C2
:102D3000C4F2010188422AD10020009043F64000ED
:102D4000C4F20200416841F480314160406800F4FF
:102D500080301AE00020009043F64000C4F20200E8
:102D6000016841F001010160006800F001000CE021
:102D70000020009043F64000C4F20200016841F0D8
:102D800040010160006800F040000090009801B030
:102D90007047000090F83D1001291CBF01207047CA
:102DA000022180F83D10006841F2FF72C168C4F250
:102DB0000002904241F00101C1600DDC40F2FF7160
:102DC000C4F20001884215DCB0F1804F2AD040F2F5
:102DD0000041C4F2000123E040F2FF31C4F20101DE
:102DE000884213DC41F60001C4F20001884219D088
:102DF000002113E040F60001C4F20001884211D026
:102E000040F60041C4F200010AE000BF44F20001B4
:102E1000C4F20101884205D040F20041C4F2010130
:102E2000884206D1816801F00701062904BF00200D
:102E30007047016841F00101016000207047000007
:102E400090F83C20012A4FF002026CD080B580F847
:102E50003D20D0F800C04FF67772DCF8083023EA46
:102E60000202CCF808200B684F2B29DC1F2B45DD14
:102E7000202B46D0302B44D0402B40F0AF80D1F8EF
:102E800004E0C968DCF82030DCF8202022F00102E0
:102E9000CCF82020DCF8182022F0F00242EA0111E0
:102EA00023F00A0242EA0E02CCF81810CCF82020D7
:102EB000DCF8081041F0470121F0300128E000BFA4
:102EC0006F2B33DDB3F5005F74D0B3F5805F21D095
:102ED000702B40F08380D1E901E3C968DCF8082059
:102EE00043EA0E0322F47F4243EA01211143CCF866
:102EF0000810DCF8081041F0770109E00BB1102B45
:102F00006CD1DCF8081021F07001194341F0070181
:102F1000CCF808100022012180F83D10002180F833
:102F20003C10BDE880401046704700BF502B21D0B8
:102F3000602B53D1D1F804E0C968DCF82030DCF80C
:102F4000202022F01002CCF82020DCF8182022F4F7
:102F5000704242EA013123F0A00242EA0E12CCF89C
:102F60001810CCF82020DCF8081041F0670121F09F
:102F70001001CDE7D1F804E0C968DCF82030DCF8B6
:102F8000202022F00102CCF82020DCF8182022F0CA
:102F9000F00242EA011123F00A0242EA0E02CCF8E2
:102FA0001810CCF82020DCF8081041F0570121F06F
:102FB0002001ADE7D1E901E3C968DCF8082043EA64
:102FC0000E0322F47F4243EA01211143CCF808109A
:102FD000DCF8081041F480419AE700BF01229AE72B
:102FE000002804BF012070472DE9F047044690F8FF
:102FF0003D000D4628B9002084F83C00204600F032
:1030000049F8022084F83D00206844F207028168F4
:1030100091438160211D01F091FF20684FF6FF78F8
:1030200081688269D0F820C0D5E9003ED5E9026AFE
:1030300043EA0109AB6922EA080246EA03234FF694
:10304000FC46B343D5E9076742EA0A0229691A43F5
:1030500042EA062242EA01112CF0AA026B6942EA16
:103060000E0241EA073142EA0312C0F8089081617A
:103070000262012084F8460084F83E0084F83F0094
:1030800084F8420084F8430084F83D000020BDE845
:10309000F0870000F0B587B0006840F60001C4F288
:1030A000000100268842CDE90566CDE90366029657
:1030B0006CD040F20041C4F20101884232D00021BC
:1030C000C4F2010188425FD1002043F63001019033
:1030D000C4F202014A6942F001024A614A6902F0FF
:1030E00001020192019A01900A6842F010020A60FE
:1030F000096801F01001019101994FF420610291DA
:103100000221CDE9031005900120069040F2004015
:10311000C4F2020000F5406002A9FEF78BFA07B086
:10312000F0BD00BF002043F630010190C4F202015F
:103130004A6942F002024A614A6902F002020192BF
:10314000019A01900A6842F004020A60096801F0DD
:10315000040101910199C02102910221CDE90310DE
:1031600005900320069040F20040C4F2020000F5F2
:10317000806002A9FEF75EFA2D2005210022FEF7ED
:10318000F3FB2D20FEF7DEFB07B0F0BD43F6300069
:103190000196C4F20200016940F2004441F00401CA
:1031A00001610169C4F2020401F004010191019975
:1031B0000196016802AD41F0080101600168022733
:1031C00001F00801019101990196016841F00201A5
:1031D00001600068294600F00200019001984FF458
:1031E0000050029004F50060CDE90376CDE9056753
:1031F000FEF720FA4020CDE90207CDE904660697E4
:1032000020462946FEF716FA07B0F0BD70470000C9
:1032100070B504460068C5680669B10716D515F093
:10322000020113D06FF00201016101212177806951
:10323000800703D02046FFF7E9FF05E0204600F0B5
:103240008FF8204600F0CEF900202077700719D5BE
:1032500015F0040016D020686FF00401016102210E
:103260002177806910F4407F04D02046FFF7CEFF1D
:1032700006E000BF204600F073F8204600F0B2F9E7
:1032800000202077300717D515F0080014D02068EB
:103290006FF00801016104212177C069800703D024
:1032A0002046FFF7B3FF05E0204600F059F820461E
:1032B00000F098F900202077F00619D515F01000DD
:1032C00016D020686FF01001016108212177C069D4
:1032D00010F4407F04D02046FFF798FF06E000BFBF
:1032E000204600F03DF8204600F07CF900202077D1
:1032F000F00718BF15F0010002D1300609D412E022
:1033000020686FF001010161204600F06DF9300680
:1033100009D515F0800006D020686FF080010161AA
:103320002046FFF74DFC700609D515F0400006D089
:1033300020686FF040010161204600F05FF9B0069F
:1033400058BF70BD15F0200008D021686FF0200232
:1033500020460A61BDE87040FFF734BC70BD000034
:103360007047000090F83C30012B04BF02207047EA
:103370004FEAB202032A00F2FF802DE9F043DFE8B2
:1033800002F003B13F7F00BF036840F200461C6AB1
:103390001A6A24F0020422F001021A621A46D3F8D3
:1033A00004C052F818EF8F6843F48065C4F2010638
:1033B000B54244EA070405D1CF6824F00C0427F095
:1033C00004073C430F68B54206D1D1E905582CF4F7
:1033D00040762E4346EA080C2EF073063743C3F8B6
:1033E00004C09F614F6809695F631C629F6947F071
:1033F00008079F619F6927F004079F61B1E000BF44
:10340000036840F200481C6A1A6A24F4007422F42B
:1034100080721A621A46D3F804C052F81CEF8F6803
:1034200043F48065C4F20108454544EA072408D105
:10343000CF6840F2FF463F0224F4406427EA0606C4
:103440003443D1F80090454506D1D1E905562CF416
:1034500040572E4347EA061C2EF0730747EA090738
:10346000C3F804C0DF614F680969DF631C62DF696C
:1034700047F00807DF61DF6927F00407DF6170E0CC
:10348000036840F20045D3F820C01A6A43F480670D
:1034900022F480521A621A465C6852F81C8FD1F8E6
:1034A00000E08E68C4F20105AF4204D14D6924F4F6
:1034B000804444EA85142CF4005747EA063728F480
:1034C000E64646EA0E265C60DE614E6809691E64C7
:1034D0001F62DF6947F40067DF61DF6927F48067F7
:1034E000DF613DE0036840F200481C6A1A6A24F07C
:1034F000200422F010021A621A46D3F804C052F8CF
:1035000018EF8F6843F48065C4F20108454544EA2A
:10351000071407D1CF686FF0400624F0C00406EA14
:1035200007163443D1F80090454506D1D1E9055638
:103530002CF440672E4347EA860C2EF4E64747EA10
:103540000927C3F804C09F614F6809699F631C6223
:103550009F6947F400679F619F6927F480679F61B7
:1035600009021368194311600021BDE8F0430022ED
:1035700080F83C20084670470121002280F83C205A
:1035800008467047002804BF0120704710B5044664
:1035900090F83D0028B9002084F83C00204600F057
:1035A0001FF8022084F83D002068211D01F0C6FCB0
:1035B000012084F8460084F83E0084F83F0084F837
:1035C000400084F8410084F8420084F8430084F805
:1035D000440084F8450084F83D00002010BD000040
:1035E0007047000070470000006840F60041C4F2D8
:1035F0000001884218BF7047FEF7FEB87047000010
:103600007047000070470000B0B582B001680A68DA
:10361000CC684B6902F02F05202D04F0200505D160
:1036200025B102B0BDE8B04001F056BE5FEA027CB1
:103630001EBF03F0010E04F4907313EB0E0341D18F
:10364000036BD50618D5012B16D114F0100313D037
:10365000002201920A6801924A680192019A49691E
:1036600049064BD4818DC28DC38D002B18BF91426A
:1036700040F0F48102B0B0BD13062DD514F08003E4
:103680002AD090F84120212AF4D18268B2F5805FD7
:1036900003D10269002A00F06782026A531C0362A8
:1036A00012784A60C28C013A1304C284E2D1C8681D
:1036B00020F08000C860C86840F04000C86002B0D8
:1036C000B0BD00BFD30718BF14F4807340F0D080A2
:1036D000530700F1D380D8E05206CBD514F0400256
:1036E000C8D0CA6822F04002CA60202180F8411088
:1036F00002B0BDE8B04000F045BE00BFC16B0A6833
:10370000526893B2002BB5D0858DAB42B2D2C28540
:10371000C969B1F5807F00F0A080016851E8031FFE
:10372000026821F4807142E80313DBB1016851E8BB
:10373000031F026821F4807142E8031393B101680A
:1037400051E8031F026821F4807142E803134BB172
:10375000016851E8031F026821F4807142E80313F5
:10376000002BDAD1016851E8051F026821F0010140
:1037700042E80513BBB3016851E8051F026821F058
:10378000010142E8051373B3016851E8051F02689F
:1037900021F0010142E805132BB3016851E8051F30
:1037A000026821F0010142E80513002BDAD11AE08A
:1037B000016851E8051F026821F0400142E8051345
:1037C000DBB1016851E8051F026821F0400142E8C1
:1037D000051393B1016851E8051F026821F040010B
:1037E00042E805134BB1016851E8051F026821F05A
:1037F000400142E80513002BDAD1202180F8421065
:1038000000210163016851E8031F026821F01001E3
:1038100042E80313DBB1016851E8031F026821F09D
:10382000100142E8031393B1016851E8031F0268D5
:1038300021F0100142E803134BB1016851E8031F66
:10384000026821F0100142E80313002BDAD1C16BAA
:1038500004460846FDF7A0FC204602214163818D05
:10386000C28D891A89B202B0BDE8B040FFF7C8BE68
:10387000436C43F001034364530706D5BEF1000FC8
:1038800003D0436C43F002034364930706D5BEF1B3
:10389000000F03D0436C43F004034364BCF1000FFA
:1038A00006D55EEA050303D0436C43F00803436486
:1038B000436C002B3FF4DEAE920605D525B10446DD
:1038C00001F00AFD216820464969426C01F040017F
:1038D00002F00802891800F0B98000BF016851E8C1
:1038E000031F026821F4907142E80313BBB301681F
:1038F00051E8031F026821F4907142E8031373B387
:10390000016851E8031F026821F4907142E8031333
:103910002BB3016851E8031F026821F4907142E85B
:103920000313002BDAD11AE0016851E8051F026881
:1039300021F0010142E80513DBB1016851E8051FE0
:10394000026821F0010142E8051393B1016851E8D2
:10395000051F026821F0010142E805134BB101681F
:1039600051E8051F026821F0010142E80513002B10
:10397000DAD1016B012924D1016851E8031F0268E3
:1039800021F0100142E80313DBB1016851E8031F85
:10399000026821F0100142E8031393B1016851E875
:1039A000031F026821F0100142E803134BB10168C4
:1039B00051E8031F026821F0100142E80313002BB5
:1039C000DAD1202180F842100021016301684969A1
:1039D000490640F1C380016851E8051F026821F0E3
:1039E000400142E80513DBB1016851E8051F026898
:1039F00021F0400142E8051393B1016851E8051F29
:103A0000026821F0400142E805134BB1016851E81A
:103A1000051F026821F0400142E80513002BDAD1AE
:103A2000C16B002900F09A8045F29902C0F60002AD
:103A3000044608460A65FDF7F7FB00283FF41AAE76
:103A4000E06B016D02B0BDE8B04008470446FFF7E7
:103A5000D9FD0020606402B0B0BD00BF891A00BF6C
:103A6000026852E8032F036822F4907243E80325AA
:103A7000BDB3026852E8032F036822F4907243E852
:103A8000032575B3026852E8032F036822F490728D
:103A900043E803252DB3026852E8032F036822F49C
:103AA000907243E80325002DDAD11AE0026852E84B
:103AB000052F036822F0010243E80525DDB1026805
:103AC00052E8052F036822F0010243E8052595B16D
:103AD000026852E8052F036822F0010243E8052539
:103AE0004DB1026852E8052F036822F0010243E855
:103AF0000525002DDAD1202280F842200022026321
:103B0000026852E8032F036822F0100243E80325FD
:103B1000DDB1026852E8032F036822F0100243E887
:103B2000032595B1026852E8032F036822F01002C2
:103B300043E803254DB1026852E8032F036822F0E1
:103B4000100243E80325002DDAD1022289B2426334
:103B500002B0BDE8B040FFF753BD00BF02B0BDE802
:103B6000B040FFF74FBD00BF026A32F8023B6FF36F
:103B70005F234B60026295E5002804BF0120704777
:103B800010B5044690F8410028B9002084F84000A0
:103B9000204600F021F8242084F841002068C16804
:103BA00021F40051C160204601F016FC2068016933
:103BB00021F490410161416921F02A014161C1680C
:103BC00041F40051C16000202021606484F841105C
:103BD00084F84210606310BD2DE9F04786B00446BA
:103BE000006844F6FF71C4F2000188424FF0000102
:103BF0000591CDE90311CDE9011165DC44F20041E5
:103C0000C4F20001884200F0C78044F60001C4F20B
:103C10000001884200F07E8144F60041C4F20001B8
:103C2000884240F02082002643F630000096C4F21D
:103C30000200016941F400210161016901F40021E0
:103C4000009100990096016841F00401016000684C
:103C500001A900F00400009000984FF4406001902A
:103C60000220CDE90206032004900820059040F6CA
:103C70000000C4F20200FDF7DDFC46F25800C4F279
:103C8000020040F698351830C2F200054FF000618E
:103C9000402285E847004FF480304FF48063C5E947
:103CA00008062846C5E90436C5E90666FDF7B0FBF7
:103CB000002818BFFCF782FDA563AC633420052102
:103CC00000223424CAE100BF45F20001C4F2000121
:103CD000884200F0B38041F20001C4F20101884241
:103CE00000F06A8141F20041C4F20101884240F0D3
:103CF000BA81002643F630000096C4F20200416902
:103D000041F020014161416901F0200100910099D9
:103D10000096016841F040010160006801A900F0CF
:103D20004000009000984FF4844001900220CDE9BB
:103D30000206032004900820059040F60000C4F21B
:103D4000020000F58050FDF775FC46F25800C4F201
:103D5000020040F6785500F58960C2F200054FF088
:103D60002061402285E847004FF480304FF48063A3
:103D7000C5E908062846C5E90436C5E90666FDF723
:103D800047FB002818BFFCF719FDA563AC6347206B
:103D900006210022472461E1002643F63000009608
:103DA000C4F20200016941F400310161016901F4CA
:103DB0000031009100990096016841F0080101600E
:103DC000006801A900F008000090009860200190B0
:103DD0000220CDE90206032004900720059040F65A
:103DE0000000C4F2020000F58060FDF723FC46F2FB
:103DF0005800C4F2020040F6B8454830C2F200054F
:103E00004FF00061402285E847004FF480304FF4C6
:103E10008063C5E908062846C5E90436C5E9066693
:103E2000FDF7F6FA002818BFFCF7C8FCA563AC63E1
:103E3000262004210022262410E100BF002743F69B
:103E400030000097C4F20200016940F6000541F419
:103E5000801101610169C4F2020501F48011009131
:103E600000990097016801AE41F00401016001680A
:103E70004FF0020801F004010091009900970168D9
:103E80004FF0030941F00801016000684FF0080A93
:103E900000F00800009000984FF4805001902846F0
:103EA0003146CDE90287CDF81090CDF814A0FDF78A
:103EB000C1FB0420CDE9010803A880E8800605F5D0
:103EC00080603146FDF7B6FB46F25800C4F20200AE
:103ED00040F6F8356030C2F200054FF00061402234
:103EE00085E887004FF480304FF48063C5E9080708
:103EF0002846C5E90437C5E90677FDF789FA0028A1
:103F000018BFFCF75BFCA563AC63352005210022DC
:103F10003524A3E0002643F630000096C4F20200E8
:103F2000016941F480210161016901F4802100915E
:103F300000990096016841F002010160006801A942
:103F400000F00200009000984FF4406001900220C1
:103F5000CDE90206032004900720059040F60000FA
:103F6000C4F20200A0F58060FDF764FB40F618552E
:103F700046F25800C2F20005C4F202004FF00061A0
:103F8000402285E847004FF480304FF48063C5E954
:103F900008062846C5E90436C5E90666FDF738FA7D
:103FA000002818BFFCF70AFCA563AC632720032197
:103FB0000022272452E000BF002643F6300000967E
:103FC000C4F20200416941F010014161416901F010
:103FD0001001009100990096016841F00101016013
:103FE000006801A900F00100009000984FF4C06043
:103FF00001900220CDE902060320049007200590DD
:1040000040F60000C4F20200A0F50060FDF712FBCC
:1040100046F25800C4F2020040F6584500F58C60A4
:10402000C2F200054FF00061402285E847004FF4DE
:1040300080304FF48063C5E908062846C5E9043698
:10404000C5E90666FDF7E4F9002818BFFCF7B6FBE2
:10405000A563AC632520052100222524FDF784FCFF
:104060002046FDF76FFC06B0BDE8F08790F84230BF
:10407000202B07D100294FF0010318BF002A05D1DA
:104080001846704702231846704700BF0023036399
:10409000816222218285C285436480F842100169D1
:1040A000006819B1C16841F48071C160416941F093
:1040B00001014161C16841F02001C16018467047AB
:1040C000F0B581B040F20875C2F2000529680446D7
:1040D00001290BDB40F2DC66C2F200063068426860
:1040E000A24219D0013906F10406F7D12868012847
:1040F00010DB40F2DC670026C2F2000757F826000A
:10410000012200F108012046FFF7B0FF28680136C0
:104110008642F3DB01B0F0BD0268017A1268904775
:104120003068012200F10801204601B0BDE8F040EE
:10413000FFF79CBF2DE9F04381B0044690F84100A1
:10414000202809D100294FF0010018BF002A07D10B
:1041500001B0BDE8F08300BF022001B0BDE8F083EC
:104160000020606421201D460E4684F84100174659
:10417000FDF73CFBA784E784A1688146B1F5805F29
:1041800002D1206900285DD037460020E28C2168EA
:10419000002A5DD06A1C24D0002D4AD0804600BF82
:1041A0000868000608D4FDF721FBA0EB0900A8422F
:1041B0007AD82168C868F3E717B117F8010B04E053
:1041C00038F8020B00276FF35F204860E08C01385D
:1041D000E084E08C0028E3D13AE000BF0A681206D0
:1041E00009D40A68120606D40A6812065CBF0A6877
:1041F0005FEA0262F2D51FB117F8012B05E000BF9C
:1042000030F8022B00276FF35F224A60E28C013AFC
:10421000E284E28C002AE4D11AE000BF30F8022BDD
:1042200000276FF35F224A60E28C013AE284E28C5D
:1042300072B10A68120635D5002FEFD017F8012B9E
:10424000F1E700BF00273046E28C2168002AA1D1A7
:10425000086840061ED42DB3681C14D108684006B7
:104260002AD40868400627D40868400624D4086881
:1042700040064FF00000F1D50DE000BF2068C16896
:104280000068400618D4FDF7B1FAA0EB0900A84277
:10429000F4D909E00020202184F8411001B0BDE8E4
:1042A000F08300BFFDF7A2FA0320202184F841101B
:1042B00001B0BDE8F08300BF0020202184F8411048
:1042C00001B0BDE8F0830000B0B590F84140202C6B
:1042D0001CBF0220B0BD134600294FF0010218BFD9
:1042E000002B01D11046B0BD00222124016283843D
:1042F000C384426480F84140D0F838C045F2212E92
:1043000045F2D125C0F6000EC0F600050468CCE9E0
:104310000FE545F2A505C0F60005CCE91352221DB4
:1043200004466046FDF726F9216820466FF04002FA
:104330000A6000BF016851E8051F026841F0800172
:1043400042E80513DBB1016851E8051F026841F03E
:10435000800142E8051393B1016851E8051F026826
:1043600041F0800142E805134BB1016851E8051F97
:10437000026841F0800142E80513002BDAD10022E7
:104380001046B0BD7047000070470000FEE7000017
:1043900080B540F2300046F20041C2F20000C4F2A3
:1043A000000140F8181F03210022C0E9011200F1AA
:1043B0000C014FF400234FF4401C81E80C10826183
:1043C0008283FCF7A3FC002808BF80BDBDE88040C5
:1043D000FCF7F4B980B540F2300046F60001C2F2B5
:1043E0000000C4F2000140F8401F03210022C0E990
:1043F000011200F10C014FF400234FF4401C81E83E
:104400000C104FF480710183C0F81A20FCF77EFC79
:10441000002808BF80BDBDE88040FCF7CFB9000090
:1044200080B582B0002043F630010190C4F2020151
:104430000A6842F400120A600A6802F4001201924B
:10444000019A00900868002240F480000860086823
:10445000052100F48000009000980E20FDF784FAFA
:104460000E20FDF76FFA0F2005210022FDF77CFAE0
:104470000F20FDF767FA112005210022FDF774FADD
:104480001120FDF75FFA2F2005210022FDF76CFABD
:104490002F20FDF757FA452005210022FDF764FA89
:1044A0004520FDF74FFA462005210022FDF75CFA72
:1044B000462002B0BDE88040FDF744BA2DE9F04344
:1044C00087B0002743F630000697CDE90477CDE9A1
:1044D00002770197C4F20200016841F2004441F002
:1044E000100101600168C4F2020401F010010191A1
:1044F000019901970168A4F5406641F0040101604B
:104500000168002201F004010191019901970168FD
:104510004EF20F0541F020010160016801F0200119
:10452000019101990197016841F0800101600168E2
:1045300001F08001019101990197016841F00101A9
:104540000160016801F00101019101990197016881
:1045500041F040010160016801F0400101910199C1
:104560000197016841F002010160016801F0020158
:10457000019101990197016841F00801016000680B
:104580004EF20F0100F00800019001983046FDF74F
:1045900027F920461E2100224FF01E09FDF720F9C1
:1045A000029502AD4FF0010830462946CDE9038758
:1045B0000597FDF73FF820462946CDE90298CDE959
:1045C0000477FDF737F84EF6404002A981E88101F3
:1045D00020462946FDF72EF84FF488108026CDE9B5
:1045E0000307204629460296FDF724F802A880E832
:1045F000C001A4F5A0502946FDF71CF84FF48050E7
:10460000CDE90207204629460497FDF713F804F583
:1046100080602946CDE90287CDF81080FDF70AF8C1
:10462000A4F580502946CDE902670497FDF702F80A
:10463000172005210022FDF797F91720FDF782F9D1
:1046400007B0BDE8F0830000B0B592B041F60005B8
:1046500041F20430C4F200050021C2F2000040F231
:104660008F6240F2E7330B91CDE909110791CDE953
:104670000511CDE90311CDE90111C0E90052C0E9EE
:10468000021301618161FEF7FDFA002818BFFCF7F3
:1046900095F84FF48050089041F20430C2F20000C7
:1046A00008A9FEF7CDFB002818BFFCF787F841F2F8
:1046B0000430C2F20000FEF765FF002818BFFCF7C7
:1046C0007DF8602001900020CDE90200059041F2C4
:1046D0000430C2F2000001A90022FEF743FE0028C8
:1046E00018BFFCF76BF841F20434C2F2000401A9D0
:1046F00020460422FEF736FE002818BFFCF75EF8BD
:10470000216844F20002C4F2010200209142CDE986
:104710001000CDE90E000D902CD0A94216D0B1F1B9
:10472000804F43D10C9043F63000C4F20200016880
:104730000F2241F0010101600068012100F0010039
:104740000C900C9805F5F43026E000BF0C9043F671
:104750003000C4F2020001684FF4404241F002010F
:1047600001600068092100F002000C900C9805F52A
:10477000F63011E00C9043F63000C4F202000168FC
:10478000602241F0100101600068032100F0100078
:104790000C900C9805F5FC300D9202220E9200222E
:1047A00011910DA9CDE90F22FCF744FF12B0B0BD65
:1047B00010B58CB041F2BC2000210024C2F20000F0
:1047C000C4F20101C0E900140321CDE90314012161
:1047D0004FF6FF72CDE90514CDE9091403A9CDE91F
:1047E0000044C0E90242C0E904448461CDE90744C1
:1047F0000B94FEF7F5FB002818BFFBF7DFFF41F233
:10480000BC20C2F200006946CDE90044FEF7DCF9A5
:10481000002818BFFBF7D2FF0CB010BD10B594B044
:1048200041F24C300021C2F200004FF080420723D9
:1048300040F2E7340D91CDE90B110991CDE9071153
:10484000CDE90511CDE90311CDE90111C0E900233E
:10485000C0E9021401618161FEF714FA002818BF53
:10486000FBF7ACFF4FF480500A9041F24C30C2F29B
:1048700000000AA9FEF7E4FA002818BFFBF79EFF24
:1048800041F24C30C2F20000FEF77CFE002818BF57
:10489000FBF794FF41F24C300024C2F2000008A95B
:1048A000CDE90844FEF790F9002818BFFBF786FF12
:1048B0006020CDE9010441F24C30C2F2000001A9B0
:1048C000002203940594FEF74DFD002818BFFBF766
:1048D00075FF41F24C30C2F2000001A90422FEF73C
:1048E00041FD002818BFFBF769FF41F24C30C2F2CE
:1048F000000001A90822FEF735FD002818BFFBF7CC
:104900005DFF41F24C34C2F2000401A920460C22A2
:10491000FEF728FD002818BFFBF750FF216844F27E
:104920000002C4F2010200209142CDE91200CDE95B
:1049300010000F9036D041F60000C4F20000814212
:1049400018D0B1F1804F4CD100200E9043F63000CA
:10495000C4F2020001680F2241F001010160006809
:10496000012100F001000E900E980020C4F2020018
:104970002DE000BF00200E9043F63000C4F202008C
:1049800001684FF4404241F00201016000680921D2
:1049900000F002000E900E980020C4F2020000F514
:1049A000806014E00E9043F63000C4F2020001680B
:1049B000602241F0100101600068032100F0100046
:1049C0000E900E980020C4F2020000F580500F9265
:1049D00002221092002213910FA9CDE91122FCF7B7
:1049E00029FE14B010BD000080B58CB041F29430A7
:1049F00040F600020021C2F20000C4F20002C0E949
:104A0000002103224FF6FF73CDE903210122CDE9F6
:104A10000011C0E9021301618161CDE90521CDE9F1
:104A20000711CDE909210B9103A9FEF7D9FA002856
:104A300018BFFBF7C3FE41F29430C2F20000694692
:104A4000FEF7C2F8002818BFFBF7B8FE0CB080BD17
:104A500010B58CB041F2244040F200410024C2F273
:104A60000000C4F20101C0E900140321CDE90314E0
:104A700001214FF6FF72CDE90514CDE9091403A910
:104A8000CDE90044C0E90242C0E904448461CDE9B3
:104A900007440B94FEF7A4FA002818BFFBF78EFE1C
:104AA00041F22440C2F200006946CDE90044FEF71D
:104AB0008BF8002818BFFBF781FE0CB010BD00007A
:104AC000B0B592B044F2000541F26C40C4F2010569
:104AD0000021C2F2000040F28F6240F2CF730B91CE
:104AE000CDE909110791CDE90511CDE90311CDE912
:104AF0000111C0E90052C0E9021301618161FEF7B2
:104B0000C1F8002818BFFBF759FE4FF480500890F9
:104B100041F26C40C2F2000008A9FEF791F90028AA
:104B200018BFFBF74BFE41F26C40C2F20000FEF7EB
:104B300029FD002818BFFBF741FE602001900020EE
:104B4000CDE90200059041F26C40C2F2000001A9DB
:104B50000022FEF707FC002818BFFBF72FFE41F2EA
:104B60006C44C2F2000401A920460422FEF7FAFBBD
:104B7000002818BFFBF722FE21680020A9421190EF
:104B8000CDE90F000E900D9032D041F60000C4F236
:104B90000000814216D0B1F1804F45D100200C9029
:104BA00043F63000C4F2020001680F2241F0010117
:104BB00001600068012100F001000C900C9805F5DF
:104BC000404027E000200C9043F63000C4F2020081
:104BD00001684FF4404241F0020101600068092180
:104BE00000F002000C900C9805F5444012E000BF64
:104BF0000C9043F63000C4F202000168602241F0DC
:104C0000100101600068032100F010000C900C9866
:104C100005F550400D9202220E92002211910DA92D
:104C2000CDE90F22FCF706FD12B0B0BD80B541F210
:104C30008C5044F60041C2F20000C4F2000100238F
:104C40004FF00C0C4FF4E13280E80E00C0E9033362
:104C5000C0E905C3C361FEF78FFF002808BF80BD10
:104C6000BDE88040FBF7AABD80B541F2D45045F2C3
:104C70000001C2F20000C4F2000100234FF00C0C4E
:104C80004FF4E13280E80E00C0E90333C0E905C308
:104C9000C361FEF771FF002808BF80BDBDE88040FA
:104CA000FBF78CBD80B541F2B44041F20001C2F285
:104CB0000000C4F2010100234FF00C0C4FF4E1326C
:104CC00080E80E00C0E90333C0E905C3C361FEF705
:104CD00053FF002808BF80BDBDE88040FBF76EBDD4
:104CE00080B541F2FC4044F20041C2F20000C4F23F
:104CF000000100234FF00C0C4FF4E13280E80E006D
:104D0000C0E90333C0E905C3C361FEF735FF0028DE
:104D100008BF80BDBDE88040FBF750BD80B541F2C3
:104D2000445044F60001C2F20000C4F20001002326
:104D30004FF00C0C4FF4E13280E80E00C0E9033371
:104D4000C0E905C3C361FEF717FF002808BF80BD97
:104D5000BDE88040FBF732BD80B541F21C6041F2F6
:104D60000041C2F20000C4F2010100234FF00C0C1C
:104D70004FF4964280E80E00C0E90333C0E905C352
:104D8000C361FEF7F9FE002808BF80BDBDE8804082
:104D9000FBF714BDFEE70000FEE7000040F6D85028
:104DA000C2F20000FCF71EBF00000000000000007F
:104DB000EFF30980BFF36F8F154B1A681EF0100FC9
:104DC00008BF20ED108A20E9F04F10602DE909009E
:104DD0004FF0500080F31188BFF34F8FBFF36F8FF8
:104DE00008F04AF94FF0000080F31188BDE809008F
:104DF00019680868B0E8F04F1EF0100F08BFB0EC5B
:104E0000108A80F30988BFF36F8F704700BF00BF1F
:104E100098000020000000000000000000000000DA
:104E2000074B19680868B0E8F04F80F30988BFF3B2
:104E30006F8F4FF0000080F31188704700BF00BFF4
:104E40009800002080B54EF21000CEF200000068FD
:104E500008F04CFF012808BF80BDBDE8804008F085
:104E600035BA000070B592B006AC20463021FBF791
:104E700001FA002543F640000595CDE90355CDE93B
:104E800001550095C4F202000168022641F08051EC
:104E90000160006800F080500090009847F2000028
:104EA0000095C4F20000016841F48041016000688F
:104EB00000F4804000900098012006904FF480306C
:104EC00007904FF480000D9004200E90A820CDE9AB
:104ED0000F060720119020460C96FDF79BFC18B199
:104EE00072B600BFFEE700BF0F20CDE901064FF408
:104EF000A05004904FF48050059001A8052103951F
:104F0000FDF750FB10B172B6FEE700BF12B070BDE6
:104F10004EF68850CEF20000016841F47001016045
:104F20007047000041F2DC30C2F20000FEF770B9B9
:104F300041F22440C2F20000FEF76AB910B540F613
:104F4000FF3E0368C4F2000E40F2004C7045C4F20C
:104F5000010C25DCB0F1804F2FD040F20042C4F2AA
:104F60000002904229D040F60002C4F200029042B2
:104F700023D041F6FF72C4F20002904227DC704554
:104F80003ADCB0F1804F5BD040F20042C4F2000244
:104F9000904255D040F60002C4F200024EE000BF3D
:104FA00040F60042C4F20002904206D0604504D0B0
:104FB0000022C4F201029042DBD14A6823F0700360
:104FC000134341F6FF72C4F200029042D7DD43F66C
:104FD000FF72C4F20102904220DC42F20002C4F2ED
:104FE000000290422CD00022C4F20102904227D04D
:104FF000604525D028E000BF40F60042C4F2000220
:1050000090421DD041F60002C4F20002904217D037
:1050100041F60042C4F2000210E000BF44F2000278
:10502000C4F2010290420BD044F60002C4F2010225
:10503000904205D044F20042C4F20102904203D1F2
:10504000CA6823F44073134323F080024B69D1F8FC
:1050500000E08C681A430260C46240F48062C0F8C9
:1050600028E0624504BF09690163012141610169CA
:10507000C90708BF10BD016921F00101016110BD20
:1050800041F28C50C2F20000FEF7BEBA41F2D45099
:10509000C2F20000FEF7B8BA806B0021C185C1845E
:1050A000FEF7B0BA806B01684A6990F84130212B55
:1050B0002DD112F080022AD00021C184016851E86C
:1050C000031F026821F0C00142E80313DBB101684D
:1050D00051E8031F026821F0C00142E8031393B1B5
:1050E000016851E8031F026821F0C00142E8031380
:1050F0004BB1016851E8031F026821F0C00142E88A
:105100000313002BDAD1202180F84110016849698E
:1051100090F84220222A40F07D8011F0400179D0A1
:105120000021C185016851E8031F026821F49071D4
:1051300042E80313BBB3016851E8031F026821F47E
:10514000907142E8031373B3016851E8031F0268CA
:1051500021F4907142E803132BB3016851E8031F57
:10516000026821F4907142E80313002BDAD11AE0AF
:10517000016851E8051F026821F0010142E80513AA
:10518000DBB1016851E8051F026821F0010142E826
:10519000051393B1016851E8051F026821F0010170
:1051A00042E805134BB1016851E8051F026821F080
:1051B000010142E80513002BDAD1016B012924D14A
:1051C000016851E8031F026821F0100142E803134F
:1051D000DBB1016851E8031F026821F0100142E8C9
:1051E000031393B1016851E8031F026821F0100115
:1051F00042E803134BB1016851E8031F026821F034
:10520000100142E80313002BDAD1202180F842106C
:1052100000210163416C41F010014164FEF7F2B9D5
:105220000168806B0968C90548BFFFF7ABB800216A
:10523000C18400BF016851E8051F026821F08001A8
:1052400042E8051383B3016851E8051F026821F0A5
:10525000800142E805133BB3016851E8051F02686D
:1052600021F0800142E80513F3B1016851E8051F00
:10527000026821F0800142E80513002BDAD113E027
:10528000016851E8031F026841F0400142E803133E
:10529000002B08BF7047016851E8031F026841F006
:1052A000400142E8031393B1016851E8031F02680B
:1052B00041F0400142E803134BB1016851E8031F7C
:1052C000026841F0400142E80313002BD8D1704737
:1052D000806BFFF759B8000081B090F84210222986
:1052E00021D183680246B3F5805F09D152F8281FA7
:1052F00052F8183C002B63D003685B680AE000BFDB
:1053000052F8281F13B90369002BF5D003685B68B6
:1053100003F07F030B70116801311160C18D0139F9
:105320000A04C18502D001B0704700BF0168CA6895
:1053300022F02002CA60CA6822F48072CA604A69F8
:1053400022F001024A61202180F8421000214163CD
:10535000026B012A3CD10163016851E8031F026816
:1053600021F0100142E80313DBB1016851E8031F8B
:10537000026821F0100142E8031393B1016851E87B
:10538000031F026821F0100142E803134BB10168CA
:1053900051E8031F026821F0100142E80313002BBB
:1053A000DAD101680A68D20606D5002200920A689E
:1053B0000092496800910099818D01B0FEF720B9F3
:1053C000026852686FF35F2221F8022B8162A5E721
:1053D00001B0FEF775BE0000B0B50446006804F1E8
:1053E00008030ECB0569194325F440552A43026191
:1053F0006269E3691143C268194349F20C639A4335
:105400001143C1604169A26921F4407141F2004336
:10541000114340F48062C4F201039A42416103D116
:10542000FDF7ACF902E000BFFDF794F9E1694FF632
:105430009C7563681922C0F6FF75B1F5004FA0FB9B
:1054400002011FD15A00DB0FFAF7BCFE48F21F51D0
:10545000C5F2EB11A0FB01235A0905F1805302FBB1
:105460000300322303EBC000A0FB01014FF4F870EE
:1054700000EA111000EB0210C1F342110844216848
:105480008860B0BD9A009B0FFAF79CFE48F21F514E
:10549000C5F2EB11A0FB01235A0902FB05003223E0
:1054A00003EB0010A0FB0101F02000EA511000EB1B
:1054B0000210C1F34311084421688860B0BD0000A8
:1054C00041F2B440C2F20000FEF79EB841F2FC4047
:1054D000C2F20000FEF798B841F24450C2F2000058
:1054E000FEF792B841F21C60C2F20000FEF78CB8E1
:1054F00080B5D0F8B82252689047002818BF032022
:1055000080BD0000002070470020704780B5134622
:105510000A46002100F040F9002080BD80B5134606
:105520000A46002100F0FCF9002080BD80B505216D
:10553000C0F8941200210022002300F02DF9002071
:1055400080BD000080B513460A460221C0F89412BF
:105550000021C0E9063300F0E3F9002080BD00001F
:1055600080B50421C0F8941200210022002300F02D
:10557000D7F9002080BD000080B5D0F8C802FCF744
:105580004FFA40F20032C100C0F2013222FA01F1BA
:10559000032888BF0321C8B280BD0000B0B589B11F
:1055A00090F89C22032A52D1D0F8B8225269002ADE
:1055B0004DD00023C0F8D4329047002808BF002007
:1055C000B0BD00BFD0F89412022939D1D0E9071339
:1055D00099420DD9CB1A11461A46C3610446FFF70A
:1055E0009DFF204600210022002300F0D5F826E090
:1055F00010D182698A420DD3D0F898128A4209D21A
:105600000021002204460025FFF788FFC4F89852C5
:10561000E7E700BF90F89C12032909D1D0F8B8122F
:10562000C96829B10022C0F8D42204468847204620
:105630008021044600F054F92046FFF777FF20460A
:1056400090F8A01200291CBF002180F8A0120020B1
:10565000B0BD000010B579B190F89C22032A1DD18D
:10566000D0F8B8229269CAB10023C0F8D43290476A
:10567000002808BF002010BDD0F8941203290DD1D6
:10568000D0E9571399420BD9C91AC0F85C11994255
:1056900038BF0B4611461A46FFF738FF002010BDF1
:1056A00090F89C12032909D1D0F8B812096929B1E0
:1056B0000022C0F8D422044688472046FFF750FF56
:1056C000002010BD00207047012180F89C12D0F806
:1056D000B812002904BF0020704780B54A680179DC
:1056E0009047002818BF032080BD0000D0F8C802F2
:1056F00001F07F034AB203EBC30301EBC10100EBEE
:10570000830300EB810000F25620002A48BF03F11A
:105710001600007870470000D0F8D42200EB820217
:10572000D2F8B822002A04BF0320704790F89C32B8
:10573000032B05D1126A1AB180B59047002080BDB5
:1057400000207047D0F8D42200EB8202D2F8B822B1
:10575000002A04BF0320704790F89C32032B05D128
:10576000526A1AB180B59047002080BD0020704772
:1057700080B59446D0F8C8021A466346FCF780F913
:1057800040F20032C100C0F2013222FA01F10328D6
:1057900088BF0321C8B280BD80B5D0F8C802FCF72D
:1057A000A9F940F20032C100C0F2013222FA01F13F
:1057B000032888BF0321C8B280BD0000F0B581B0C6
:1057C0000126002580F89C62C0F89452044645608A
:1057D000D0F8B802C4F8A45284F8A05240B142688C
:1057E00032B12046002190470546002818BF032506
:1057F00020460021002240234027FFF7B9FF204622
:10580000802100224023A4F86461C4F86071FFF78E
:10581000AFFFA6842846276201B0F0BD90F89C1225
:10582000042904BF90F89D1280F89C120020704754
:1058300090F89C12032908D1D0F8B81229B1C9698F
:1058400019B180B58847BDE880400020704700004E
:10585000024600201174704780B5D0F8C802FCF7EA
:105860006BFE40F20032C100C0F2013222FA01F1B7
:10587000032888BF0321C8B280BD0000B0B500F284
:10588000AA240546204600F05DF80121C5F89412CF
:1058900095F8AA12B5F8B03201F01F02022AC5F835
:1058A00098320FD0012A07D092B928462146BDE888
:1058B000B04000F05BB800BF28462146BDE8B040CC
:1058C00000F0C2BA28462146BDE8B04000F00ABA4E
:1058D00001F080012846BDE8B04000F001B80000AA
:1058E00080B5D0F8C802FCF727F940F20032C100B9
:1058F000C0F2013222FA01F1032888BF0321C8B2A5
:1059000080BD0000014690F89C02042204281CBFC0
:1059100091F89C0281F89D02002081F89C2270473A
:1059200080B5D0F8C802FCF73FF940F20032C10060
:10593000C0F2013222FA01F1032888BF0321C8B264
:1059400080BD00000A7802704A7842704A8842801E
:105950008A888280C988C18070470000D0F8B82248
:10596000002A04BF00207047126810470A78C2F36B
:105970004112531E022B07D2D0F8D42200EB820230
:10598000D2F8B8229268104770B582B0002A40F071
:10599000CB804A78092A00F2C780DFE802F0052FA1
:1059A000C557C56183C51B4190F89C22013A022A64
:1059B00000F2BA80C988022940F0B680D0F8A4125B
:1059C0000322002908BF0122014641F80C2F0222C0
:1059D0006AE100BFC988012940F0A68090F89C12B6
:1059E0004A1E022A80F09A800024014641F8084F9E
:1059F0000122FFF7A7FD204602B070BD90F89C225F
:105A0000013A022A00F2908049880024012940F0DE
:105A10009480C0F8A442FFF7A3FD204602B070BDF9
:105A2000498840F2A025C2F2000511F0FE0F29704E
:105A300052D080210446FFF753FF20460021FFF794
:105A40004FFF0324204602B070BD00BF4A88022ADF
:105A500060D0012A68D10121C0F8A4122DE100BF55
:105A60008A88002A60D1CA88002A5DD14D887F2D9E
:105A70005AD890F89C12032956D0E9B280F89E5269
:105A80000446FFF7E9FE20462646FFF769FD002D94
:105A900014BF0220012086F89C020024204602B098
:105AA00070BD00BF4A884FF0FF3303EB122300267E
:105AB000062BADF8066000F2FD80DFE813F007006A
:105AC0004F004100FB00FB005F006D000D46D0F869
:105AD000B4120A68D7E000BF90F89C22032A6BD06A
